:0400000063EF00F0BA
:100008004C82FACF02F0FBCF03F0E9CF04F0EACF3D
:1000180005F0E1CF06F0E2CF07F0D9CF08F0DACF4C
:1000280009F0F3CF0AF0F4CF0BF0F6CF0CF0F7CFCE
:100038000DF0F8CF0EF0F5CF0FF04CC010F04DC01A
:1000480011F04EC012F04FC013F0F2BAF2A403D070
:10005800EFEC1DF00ED0F2BC9DA805D09EA803D0F1
:10006800C3EC1CF006D0F2BC9DAA03D09EBAF2ECF9
:100078001CF013C04FF012C04EF011C04DF010C06C
:100088004CF00FC0F5FF0EC0F8FF0DC0F7FF0CC015
:10009800F6FF0BC0F4FF0AC0F3FF09C0DAFF08C07F
:1000A800D9FF07C0E2FF06C0E1FF05C0EAFF04C0B0
:1000B800E9FF03C0FBFF02C0FAFF4C92110012EFE8
:1000C80019F0820E226EFF0E236ECCC024F0CDC034
:1000D80025F01BEC12F0CCC0DAF0CDC0DBF0DAC0B2
:1000E80031F0DBC032F0ED0E336EFF0E346E3FECB4
:1000F80018F031C0DCF032C0DDF00001DC51DD1158
:10010800D8B437D0DAC021F0DBC022F0A70E236EB6
:10011800FF0E246EE7EC17F021C0DCF022C0DDF002
:100128000001DC51DD11D8B4ADEF07F0B70E146E45
:10013800000E156EDCC016F0DDC017F06BEC1BF07E
:10014800010E0001826FCCC028F0CDC029F0000E4E
:100158002B6E000E2A6ECCC022F0CDC023F07EECB0
:100168001AF022C02CF023C02DF08EEC1BF0000EEC
:100178001200DAC031F0DBC032F0F10E336EFF0E40
:10018800346E3FEC18F031C0DCF032C0DDF0000115
:10019800DC51DD11D8B436D0DAC021F0DBC022F052
:1001A800A70E236EFF0E246EE7EC17F021C0DCF0DB
:1001B80022C0DDF00001DC51DD11D8B4ADEF07F04D
:1001C800B70E146E000E156EDCC016F0DDC017F009
:1001D8006BEC1BF0010E0001826FCCC028F0CDC083
:1001E80029F0000E2B6E000E2A6ECCC022F0CDC076
:1001F80023F07EEC1AF022C02CF023C02DF08EECF8
:100208001BF0B5D7DAC031F0DBC032F0BC0E336E6C
:10021800FF0E346E3FEC18F031503210D8B402D0D3
:10022800010E01D0000E0001DC6FDD6BDC51DD1129
:10023800D8B43CD0DAC021F0DBC022F0A70E236E80
:10024800FF0E246EE7EC17F021C0DCF022C0DDF0D1
:100258000001DC51DD11D8B4ADEF07F0B70E146E14
:10026800000E156EDCC016F0DDC017F06BEC1BF04D
:10027800010E0001826FCCC028F0CDC029F0000E1D
:100288002B6E000E2A6ECCC022F0CDC023F07EEC7F
:100298001AF022C02CF023C02DF08EEC1BF07A0E41
:1002A800226EFF0E236E1BEC12F061D7DAC031F01C
:1002B800DBC032F0DE0E336EFF0E346E3FEC18F00A
:1002C80031C0DCF032C0DDF00001DC51DD11D8B402
:1002D80089D0DAC021F0DBC022F0A70E236EFF0E12
:1002E800246EE7EC17F021C0DCF022C0DDF000013D
:1002F800DC51DD11D8B4ADEF07F0B70E146E000E67
:10030800156EDCC016F0DDC017F06BEC1BF0000EAC
:10031800216E000E226EA70E236EFF0E246EE7ECF0
:1003280017F021C0DCF022C0DDF0990E226EFF0E1E
:10033800236EDCC024F0DDC025F01BEC12F0000EAB
:100348000001D36F000ED46FDC51DD11D8B4ADEFCE
:1003580007F0DCC022F0DDC023F007EC13F02250D8
:100368000001D36FD351D8B4ADEF07F0000E216E62
:10037800000E226EA70E236EFF0E246EE7EC17F018
:1003880021C0DCF022C0DDF00001DC51DD11D8B461
:10039800ADEF07F0DCC022F0DDC023F007EC13F06E
:1003A80022500001D46FD451D8B4ADEF07F0D4C0B7
:1003B80080F0D3C081F0010E826FCCC028F0CDC090
:1003C80029F0000E2B6E000E2A6ECCC022F0CDC094
:1003D80023F07EEC1AF022C02CF023C02DF08EEC16
:1003E8001BF0C5D6DAC031F0DBC032F0C20E336E76
:1003F800FF0E346E3FEC18F031C0DCF032C0DDF097
:100408000001DC51DD11D8B436D0DAC021F0DBC0F0
:1004180022F0A70E236EFF0E246EE7EC17F021C022
:10042800DCF022C0DDF00001DC51DD11D8B4ADEF05
:1004380007F0B70E146E000E156EDCC016F0DDC0A6
:1004480017F06BEC1BF0010E0001826FCCC028F096
:10045800CDC029F0000E2B6E000E2A6ECCC022F003
:10046800CDC023F07EEC1AF022C02CF023C02DF072
:100478008EEC1BF07CD6DAC031F0DBC032F0CE0E49
:10048800336EFF0E346E3FEC18F031C0DCF032C032
:10049800DDF00001DC51DD11D8B4CAD04404D8A481
:1004A800ADEF07F0000EAC6FDAC021F0DBC022F030
:1004B800A70E236EFF0E246EE7EC17F021C0DCF0C8
:1004C80022C0DDF00001DC51DD11D8B4ADEF07F03A
:1004D800DE0E226EFE0E236EDCC024F0DDC025F099
:1004E8001BEC12F0B70E146E000E156EDCC016F081
:1004F800DDC017F06BEC1BF0000E0001D66F8369AE
:10050800000E216E000E226EA70E236EFF0E246EC3
:10051800E7EC17F021C0DCF022C0DDF00001DC516F
:10052800DD11D8B4ADEF07F0DE0E226EFE0E236E9D
:10053800DCC024F0DDC025F01BEC12F0000E000139
:10054800D16FDCC0F6FFDDC0F7FF000EF86E0F0EAE
:10055800F76403D00800F55005D0F6CFE9FFF7CFD0
:10056800EAFFEF500001D66F400ED6655FD04750C6
:10057800D65DD8B05BD02F0E226EFF0E236ED6C08C
:1005880024F0256A1BEC12F0D6C083F0000E216E11
:10059800000E226EFC0E236EFF0E246EE7EC17F0A1
:1005A80021C0DCF022C0DDF00001DC51DD11D8B43F
:1005B800ADEF07F0240E226EFF0E236EDCC024F090
:1005C800DDC025F01BEC12F0DCC022F0DDC023F00A
:1005D8007EEC1AF0235028E1280E225CD8B024D0F3
:1005E800840E146E000E156EDCC016F0DDC017F018
:1005F8006BEC1BF0010E0001826F010EAC6FCCC0DA
:1006080028F0CDC029F0000E2B6E000E2A6ECCC04B
:1006180022F0CDC023F07EEC1AF022C02CF023C0CB
:100628002DF08EEC1BF0A3D5020E1200080E12005E
:10063800DAC031F0DBC032F08A0E336EFF0E346E52
:100648003FEC18F031C0DCF032C0DDF00001DC51C5
:10065800DD11D8B424D1440E226EFF0E236EDCC007
:1006680024F0DDC025F01BEC12F04404D8A4ADEF53
:1006780007F0000E0001B36FDAC021F0DBC022F0F2
:10068800A70E236EFF0E246EE7EC17F021C0DCF0F6
:1006980022C0DDF00001DC51DD11D8B4ADEF07F068
:1006A800B70E146E000E156EDCC016F0DDC017F024
:1006B8006BEC1BF0000E0001D76F000ED86F000E18
:1006C800216E000E226EA70E236EFF0E246EE7EC3D
:1006D80017F021C0DCF022C0DDF00001DC51DD1193
:1006E800D8B4ADEF07F04D0E226EFF0E236EDCC0BE
:1006F80024F0DDC025F01BEC12F0000E0001D56FD0
:10070800DCC0F6FFDDC0F7FF000EF86E0F0EF764D1
:1007180003D00800F55005D0F6CFE9FFF7CFEAFF80
:10072800EF500001D86FB269400ED865B6D0475077
:10073800D85DD8B0B2D02F0E226EFF0E236ED8C06F
:1007480024F0256A1BEC12F00001D8518319D8A4B3
:10075800ADEF07F0000E216E000E226EA70E236E7D
:10076800FF0E246EE7EC17F021C0DCF022C0DDF0AC
:100778000001DC51DD11D8B4ECD3560E226EFF0E09
:10078800236EDCC024F0DDC025F01BEC12F0000E57
:100798000001D56F48D0D551010DDCC0CEF0DDC0C9
:1007A800CFF0F350CE27F450CF23CEC0F6FFCFC002
:1007B800F7FF000EF86E0F0EF76403D00800F5502F
:1007C80005D0F6CFE9FFF7CFEAFFEF5080EC1DF038
:1007D800D8A025D00001D551010DDCC0CEF0DDC078
:1007E800CFF0F350CE27F450CF23CEC0F6FFCFC0C2
:1007F800F7FF000EF86E0F0EF76403D00800F550EF
:1008080005D0F6CFE9FFF7CFEAFFEF500001D06F30
:10081800D7510A0DF350D025D00FD76F02D0000E54
:1008280012000001D52BDCC022F0DDC023F07EECE5
:100838001AF00001D551CE6FCF6B2250CE5D2350F8
:10084800CF59D8A0A8D7030ED76125D07B0E226E2A
:10085800FE0E236ED7C024F0256A1BEC12F0D7C019
:10086800B2F0010E0001B36F010E826FCCC028F008
:10087800CDC029F0000E2B6E000E2A6ECCC022F0DF
:10088800CDC023F07EEC1AF022C02CF023C02DF04E
:100898008EEC1BF06CD4040E1200080E1200DAC0A5
:1008A80031F0DBC032F0AE0E336EFF0E346E3FEC2B
:1008B80018F031C0DCF032C0DDF00001DC51DD1190
:1008C800D8B437D14404D8A444D3000EB16FDAC0E9
:1008D80021F0DBC022F0A70E236EFF0E246EE7EC9A
:1008E80017F021C0DCF022C0DDF00001DC51DD1181
:1008F800D8B42FD3B70E146E000E156EDCC016F0E8
:10090800DDC017F06BEC1BF0000E216E000E226E9E
:10091800A70E236EFF0E246EE7EC17F021C0DCF063
:1009280022C0DDF0000E0001D96FDC51DD11D8B412
:1009380010D3000ED26FDCC0F6FFDDC0F7FF000E4B
:10094800F86E0F0EF76403D00800F55005D0F6CF07
:10095800E9FFF7CFEAFFEF500001D96F400ED965E4
:10096800E6D04750D95DD8B0E2D0960E226EFE0E82
:10097800236ED9C024F0256A1BEC12F00001D9516E
:100988008319D8A4E6D2000E216E000E226EA70E9F
:10099800236EFF0E246EE7EC17F021C0DCF022C0B6
:1009A800DDF00001DC51DD11D8B4D3D2DCC034F065
:1009B800DDC035F0AD0E366E000E376E64EC14F007
:1009C800230E226EFD0E236EADC024F0256A1BECAB
:1009D80012F00001AD29D8B4A8D0000E216E000E87
:1009E800226EA70E236EFF0E246EE7EC17F021C0CF
:1009F800DCF022C0DDF00001DC51DD11D8B4A9D251
:100A0800DCC034F0DDC035F0AE0E366E000E376E49
:100A1800E0EC14F0080E226EFD0E236EAEC024F03A
:100A2800256A1BEC12F00001AD29D8B47CD0000E69
:100A3800216E000E226EA70E236EFF0E246EE7ECC9
:100A480017F021C0DCF022C0DDF00001DC51DD111F
:100A5800D8B47FD2DCC034F0DDC035F0AF0E366ECE
:100A6800000E376E64EC14F0A50E226EFD0E236E98
:100A7800AFC024F0256A1BEC12F00001AF29D8B4EE
:100A880050D0000E216E000E226EA70E236EFF0EB0
:100A9800246EE7EC17F021C0DCF022C0DDF0000185
:100AA800DC51DD11D8B455D2190E226EFF0E236E1B
:100AB800DCC024F0DDC025F01BEC12F0DCC034F003
:100AC800DDC035F0B00E366E000E376EE0EC14F077
:100AD8008C0E226EFD0E236EB0C024F0256A1BEC2E
:100AE80012F00001AF29D8B41AD0010EB16F010E6F
:100AF800826FCCC028F0CDC029F0000E2B6E000EFE
:100B08002A6ECCC022F0CDC023F07EEC1AF022C0B1
:100B18002CF023C02DF08EEC1BF0BBEF00F0030E81
:100B28001200030E1200030E1200030E1200080E2C
:100B38001200DAC031F0DBC032F0B50E336EFF0EB2
:100B4800346E3FEC18F031C0DCF032C0DDF000014B
:100B5800DC51DD11D8B423D0B70E146E000E156E1B
:100B6800DCC016F0DDC017F06BEC1BF0CCC028F031
:100B7800CDC029F0000E2B6E000E2A6ECCC022F0DC
:100B8800CDC023F07EEC1AF022C02CF023C02DF04B
:100B98008EEC1BF0010E0001826FBBEF00F0DAC093
:100BA80031F0DBC032F0D90E336EFF0E346E3FECFD
:100BB80018F031C0DCF032C0DDF00001DC51DD118D
:100BC800D8B491D14404D8A4C4D1DAC021F0DBC090
:100BD80022F0A70E236EFF0E246EE7EC17F021C05B
:100BE800DCF022C0DDF00001DC51DD11D8B4B1D158
:100BF800B70E146E000E156EDCC016F0DDC017F0CF
:100C08006BEC1BF05F0E226EFF0E236EB70E246E88
:100C1800000E256E1BEC12F0000E216E000E226EE7
:100C2800FC0E236EFF0E246EE7EC17F021C0DCF0FB
:100C380022C0DDF00001DC51DD11D8B48AD1DCC05E
:100C480030F0DDC031F0840E326E000E336EC3EC2E
:100C580019F0E806D8A445D13A0E226EFF0E236E8D
:100C6800840E246E000E256E1BEC12F0000E216E11
:100C7800000E226EA70E236EFF0E246EE7EC17F00F
:100C880021C0DCF022C0DDF00001DC51DD11D8B458
:100C980060D1DCC034F0DDC035F0AD0E366E000E2C
:100CA800376E64EC14F0230E226EFD0E236EADC079
:100CB80024F0256A1BEC12F00001AD29D8B40FD13D
:100CC800000E216E000E226EA70E236EFF0E246EFC
:100CD800E7EC17F021C0DCF022C0DDF00001DC51A8
:100CE800DD11D8B436D1DCC034F0DDC035F0AE0E3D
:100CF800366E000E376EE0EC14F0080E226EFD0E14
:100D0800236EAEC024F0256A1BEC12F00001AD2959
:100D1800D8B4E3D0000E216E000E226EA70E236E0B
:100D2800FF0E246EE7EC17F021C0DCF022C0DDF0E6
:100D38000001DC51DD11D8B40CD1DCC034F0DDC0C9
:100D480035F0AF0E366E000E376E64EC14F0A50E5B
:100D5800226EFD0E236EAFC024F0256A1BEC12F044
:100D68000001AF29D8B4B7D0000E216E000E226E54
:100D7800A70E236EFF0E246EE7EC17F021C0DCF0FF
:100D880022C0DDF00001DC51DD11D8B4E2D0190E2B
:100D9800226EFF0E236EDCC024F0DDC025F01BECB4
:100DA80012F0DCC034F0DDC035F0B00E366E000E47
:100DB800376EE0EC14F08C0E226EFD0E236EB0C080
:100DC80024F0256A1BEC12F00001AF29D8B481D0B9
:100DD800000E216E000E226EA70E236EFF0E246EEB
:100DE800E7EC17F021C0DCF022C0DDF00001DC5197
:100DF800DD11D8B4AED0DCC034F0DDC035F0B20EB1
:100E0800366E000E376E5CEC15F0E806D8A45FD09D
:100E1800000E216E000E226EA70E236EFF0E246EAA
:100E2800E7EC17F021C0DCF022C0DDF00001DC5156
:100E3800DD11D8B48ED0DCC034F0DDC035F0B40E8E
:100E4800366E000E376E45EC16F0E806D8A43DD095
:100E5800000E216E000E226EA70E236EFF0E246E6A
:100E6800E7EC17F021C0DCF022C0DDF00001DC5116
:100E7800DD11D8B46ED0DCC034F0DDC035F0B60E6C
:100E8800366E000E376ED4EC15F0E806D8A41BD0E9
:100E9800010E0001B16F010E826FCCC028F0CDC0E9
:100EA80029F0000E2B6E000E2A6ECCC022F0CDC0A9
:100EB80023F07EEC1AF022C02CF023C02DF08EEC2B
:100EC8001BF0BBEF00F0060E1200050E1200040E18
:100ED8001200030E1200030E1200030E1200030E7E
:100EE8001200020E1200DAC031F0DBC032F0F50E4B
:100EF800336EFF0E346E3FEC18F031C0DCF032C0B8
:100F0800DDF00001DC51DD11D8B423D0B70E146E2A
:100F1800000E156EDCC016F0DDC017F06BEC1BF090
:100F2800CCC028F0CDC029F0000E2B6E000E2A6E22
:100F3800CCC022F0CDC023F07EEC1AF022C02CF0F9
:100F480023C02DF08EEC1BF0010E0001826F000E05
:100F58001200CCC028F0CDC029F0000E2B6E000E78
:100F68002A6ECCC022F0CDC023F07EEC1AF022C04D
:100F78002CF023C02DF08EEC1BF0010E120032680D
:100F880020EE2BF03050D9263150DA22DF507F0B7B
:100F98000009D8A402D0000E0CD020EE2BF030505F
:100FA800D9263150DA22DF507F0BE806D8A402D0C8
:100FB800010E326E20EE2BF03050D9263150DA2255
:100FC800DF507F0B020AD8A402D0020E326E20EE48
:100FD8002BF03050D9263150DA22DF507F0B030A2C
:100FE800D8A402D0030E326E3250140D000E000148
:100FF800C66F010EC76FF350C627F450C72320EE03
:101008002CF03050D9263150DA22DF507F0BC86FD0
:10101800C851010DF350C625286EF450C721296E1A
:10102800000E2B6E200E2A6E20EE32F03050D9269C
:101038003150DA22DF50C96FC9512C6E2D6A8EECFF
:101048001BF020EE2AF03050D9263150DA22DF503A
:101058007F0B0001C66F20EE35F03050D926315095
:10106800DA22DF507F0BC65DD8B066D03250140D3F
:1010780020EE36F03050D9263150DA22DF507F0B7F
:10108800C66FC76BC61FC71FC64BC72B20EE2FF0F6
:101098003050D9263150DA22DF507F0BC86FC96B28
:1010A800C651C827C751C923000ECA6F010ECB6F9E
:1010B800C851CA27C951CB23F350CA25146EF4501E
:1010C800CB21156E020E3024166E000E3120176EDD
:1010D80020EE36F03050D9263150DA22DF507F0B1F
:1010E800CC6FCD6B010ECC27000ECD23CC1FCD1FAE
:1010F800CC4BCD2B20EE32F03050D9263150DA22AD
:10110800DF50CE6FCF6BCC51CE27CD51CF23CE1F22
:10111800CF1FCE4BCF2B20EE32F03050D926315096
:10112800DA22DF50D06FD051CE25186E000ECF21B5
:10113800196EF6EC19F056D020EE35F03050D9265D
:101148003150DA22DF507F0B0001C66FC651010D06
:10115800020EF326000EF422F3503024D96EF45018
:101168003120DA6EDF50D8B43DD03250140D000E65
:10117800C66F010EC76FF350C627F450C72320EE81
:101188002CF03050D9263150DA22DF507F0BC86F4F
:10119800C851010DF350C625146EF450C721156EC1
:1011A80020EE35F03050D9263150DA22DF507F0B4F
:1011B800C96FC951010D020EF326000EF422F35037
:1011C8003024166EF4503120176E20EE32F0305075
:1011D800D9263150DA22DF50CA6FCA51186E196AFF
:1011E800B1EC1BF020EE35F03050D9263150DA2220
:1011F800DF507F0B0001C66F20EE2AF03050D92651
:101208003150DA22DF507F0BC76FC651C75DD8A0B7
:1012180013D0010EC66F20EE35F03050D92631506C
:10122800DA22DF507F0BC76FC651C727DF50C719B7
:10123800800BC719DF6E120020EE2AF03050D92635
:101248003150DA22DF507F0BC66F20EE35F0305078
:10125800D9263150DA22DF507F0BC65DD8B0120094
:10126800010EC66F20EE36F03050D9263150DA2202
:10127800DF507F0BC76FC651C727DF50C719800BD8
:10128800C719DF6E20EE32F03050D9263150DA22FD
:1012980010EE36F03050E1263150E222E7507F0B55
:1012A800C76FDE50C719D8A4120020EE36F03050B0
:1012B800D9263150DA22DF90DF92DF94DF96DF986B
:1012C800DF9ADF9C20EE35F03050D9263150DA22F3
:1012D800DF90DF92DF94DF96DF98DF9ADF9C1200C1
:1012E800326820EE2BF03050D9263150DA22DF5008
:1012F8007F0B0009D8A402D0000E0CD020EE2BF0F2
:101308003050D9263150DA22DF507F0BE806D8A4B6
:1013180002D0010E326E20EE2BF03050D92631501B
:10132800DA22DF507F0B020AD8A402D0020E326EF6
:1013380020EE2BF03050D9263150DA22DF507F0BC7
:10134800030AD8A402D0030E326E3250140D000ED8
:101358000001C66F010EC76FF350C627F450C723AC
:1013680020EE2CF03050D9263150DA22DF507F0B96
:10137800C86FC851010DF350C625286EF450C72117
:10138800296E000E2B6E200E2A6E20EE32F03050A1
:10139800D9263150DA22DF50C96FC9512C6E2D6A17
:1013A8008EEC1BF020EE32F03050D9263150DA2284
:1013B800DF500001C66F20EE33F03050D92631508F
:1013C800DA22DF507F0BC65DD8B058D020EE02F08D
:1013D8003050D9263150DA22DF50D8B4A7D0325055
:1013E800140D000EC66F010EC76FF350C627F450D8
:1013F800C72320EE2CF03050D9263150DA22DF50A6
:101408007F0BC86FC851010DF350C625146EF450F8
:10141800C721156E20EE34F03050D9263150DA222B
:10142800DF507F0BC96FCA6BC91FCA1FC94BCA2BB4
:1014380020EE2AF03050D9263150DA22DF507F0BC7
:10144800CB6FCC6BC951CB27CA51CC23010ECB270C
:10145800000ECC23CB513024166ECC513120176EA0
:1014680020EE32F03050D9263150DA22DF50CD6FDD
:10147800CD51186E196AB1EC1BF058D020EE02F06D
:101488003050D9263150DA22DF50D8B44FD03250FC
:10149800140D000E0001C66F010EC76FF350C6276A
:1014A800F450C72320EE2CF03050D9263150DA22E0
:1014B800DF507F0BC86FC851010DF350C627F45099
:1014C800C72320EE33F03050D9263150DA22DF50CE
:1014D8007F0BC96FC951010DF350C625146EF45026
:1014E800C721156E020E3024166E000E3120176EBD
:1014F80020EE33F03050D9263150DA22DF507F0BFE
:10150800CA6FCB6BCA1FCB1FCA4BCB2B20EE32F056
:101518003050D9263150DA22DF50CC6FCC51CA2551
:10152800186E000ECB21196EB1EC1BF020EE33F0D3
:101538003050D9263150DA22DF507F0B0001C66FB8
:1015480020EE32F03050D9263150DA22C651DE5C16
:10155800D8A013D0010EC66F20EE33F03050D92634
:101568003150DA22DF507F0BC76FC651C727DF50D3
:10157800C719800BC719DF6E120020EE34F0305007
:10158800D9263150DA22DF507F0BC66F20EE2AF0C1
:101598003050D9263150DA22DF507F0BC65DD8B0E3
:1015A8001200010EC66F20EE34F03050D9263150AB
:1015B800DA22DF507F0BC76FC651C727DF50C71924
:1015C800800BC719DF6E20EE2AF03050D926315033
:1015D800DA22DF507F0BC66F20EE34F03050D92668
:1015E8003150DA22DF507F0BC76FC651C75DD8A0D4
:1015F800120020EE33F03050D9263150DA22DF9035
:10160800DF92DF94DF96DF98DF9ADF9C20EE34F0DC
:101618003050D9263150DA22DF90DF92DF94DF96FE
:10162800DF98DF9ADF9C1200B70E146E000E156E5D
:10163800F50E166EFF0E176E21EC1BF014501510E8
:10164800D8A407D0910E186EFE0E196ED4EC1DF0BA
:101658001200B70E146E000E156EBC0E166EFF0E3D
:10166800176E21EC1BF014501510D8A417D0A20E39
:10167800226EFF0E236E33EC1EF014C024F015C04A
:1016880025F01BEC12F0890E226EFE0E236EBC0EA6
:10169800246EFF0E256E1BEC12F01200B70E146EAE
:1016A800000E156EED0E166EFF0E176E21EC1BF078
:1016B80014501510D8A418D0DF0E226EFD0E236E1C
:1016C80013EC1EF00001DF6FDF51246E256A1BEC5E
:1016D80012F0890E226EFE0E236EED0E246EFF0EA2
:1016E800256E1BEC12F01200B70E146E000E156E6C
:1016F800F10E166EFF0E176E21EC1BF0145015102C
:10170800D8A418D0DF0E226EFD0E236E0CEC1EF04E
:101718000001DF6FDF51246E256A1BEC12F0890E81
:10172800226EFE0E236EF10E246EFF0E256E1BEC4C
:1017380012F01200B70E146E000E156EDE0E166E45
:10174800FF0E176E21EC1BF014501510D8A411D001
:1017580080C034F000018151B6EC16F0890E226E7B
:10176800FE0E236EDE0E246EFF0E256E1BEC12F0AD
:101778001200B70E146E000E156EC20E166EFF0E16
:10178800176E21EC1BF014501510D8A439D005ECB5
:101798001EF00009D8B41CD00E0E226EFF0E236E68
:1017A80005EC1EF00001DF6FDF51246E256AF7ECAF
:1017B8001DF00001E06FE051266E276AFEEC1DF077
:1017C8000001E16FE151286E296A1BEC12F00DD07F
:1017D800DF0E226EFD0E236E05EC1EF00001DF6F9A
:1017E800DF51246E256A1BEC12F0890E226EFE0E64
:1017F800236EC20E246EFF0E256E1BEC12F0120033
:10180800B70E146E000E156ECE0E166EFF0E176E06
:1018180021EC1BF014501510D8A40BD0890E226EA1
:10182800FE0E236ECE0E246EFF0E256E1BEC12F0FC
:101838001200B70E146E000E156E8A0E166EFF0E8D
:10184800176E21EC1BF014501510D8A40BD0890E7C
:10185800226EFE0E236E8A0E246EFF0E256E1BEC82
:1018680012F01200B70E146E000E156EAE0E166E44
:10187800FF0E176E21EC1BF014501510D8A40BD0D6
:10188800890E226EFE0E236EAE0E246EFF0E256E9E
:101898001BEC12F01200B70E146E000E156EB50E8A
:1018A800166EFF0E176E21EC1BF014501510D8A4FD
:1018B80012000001AC05D8A427D0B105D8A424D0C3
:1018C800B305D8A421D0830ED46F000ED56F06ECD3
:1018D8000EF00001E26FE205D8A40BD0A20E226E32
:1018E800FF0E236EC80E246EFF0E256E1BEC12F041
:1018F8001200890E226EFE0E236EB50E246EFF0EA8
:10190800256E1BEC12F012000001AC51D8A40BD0CC
:10191800A00E226EFF0E236E020E246EFF0E256EA1
:101928001BEC12F012000001B151D8A40BD0A00E8C
:10193800226EFF0E236EEA0E246EFE0E256E1BEC41
:1019480012F012000001B351D8A41200A00E226EAA
:10195800FF0E236E6C0E246EFE0E256E1BEC12F02D
:1019680012000001C66F000E0001C96F000EC86F9B
:10197800000EC76F000EC96F000EC86F34D1C65174
:10198800366E376AC851361804E1C9513718D8B4C9
:1019980027D1C8C01CF0C9C01DF0000E1F6E370E3D
:1019A8001E6E1DEC1DF0960E1C24D96E020E1D2015
:1019B800DA6EDE50DE10D8B413D1C8C01CF0C9C02E
:1019C8001DF0000E1F6E370E1E6E1DEC1DF02D0E45
:1019D8001C26000E1D22960E1C24D96E020E1D20F8
:1019E800DA6EDF507F0B366E3650345CD8A044D0A8
:1019F800C8C01CF0C9C01DF0000E1F6E370E1E6E49
:101A08001DEC1DF0300E1C26000E1D22960E1C2407
:101A1800D96E020E1D20DA6EDF507F0B366E345001
:101A2800365CD8A029D0C8C01CF0C9C01DF0000E73
:101A38001F6E370E1E6E1DEC1DF0960E1C24D96EFF
:101A4800020E1D20DA6E3B50020D500EF324E16E9B
:101A5800010EF420E26EDECFE6FFDDCFE5FF3B2A84
:101A68000001C84BC92B720E226EFD0E236E1BECB3
:101A780012F0010E00015BD0C8C01CF0C9C01DF0F7
:101A8800000E1F6E370E1E6E1DEC1DF02D0E1C264F
:101A9800000E1D22960E1C24D96E020E1D20DA6E31
:101AA800DF507F0B366E3650355CD8A042D0C8C0A8
:101AB8001CF0C9C01DF0000E1F6E370E1E6E1DEC07
:101AC8001DF0300E1C26000E1D22960E1C24D96E09
:101AD800020E1D20DA6EDF507F0B366E3550365CF5
:101AE800D8A027D0C8C01CF0C9C01DF0000E1F6EBA
:101AF800370E1E6E1DEC1DF0960E1C24D96E020EBC
:101B08001D20DA6E3B50020D500EF324E16E010EDB
:101B1800F420E26EDECFE6FFDDCFE5FF3B2A580E6C
:101B2800226EFD0E236E1BEC12F056D0010EC76F0D
:101B38005AD0C8C01CF0C9C01DF0000E1F6E370E69
:101B48001E6E1DEC1DF02D0E1C26000E1D22960E7D
:101B58001C24D96E020E1D20DA6EDF507F0B366E04
:101B68003450365CD8A03CD0C8C01CF0C9C01DF0A9
:101B7800000E1F6E370E1E6E1DEC1DF0300E1C265B
:101B8800000E1D22960E1C24D96E020E1D20DA6E40
:101B9800DF507F0B366E3650355CD8A021D0C8C0D8
:101BA8001CF0C9C01DF0000E1F6E370E1E6E1DEC16
:101BB8001DF0960E1C24D96E020E1D20DA6E3B50C5
:101BC800020D500EF324E16E010EF420E26EDECF1A
:101BD800E6FFDDCFE5FF3B2A0001C84BC92BA6D79E
:101BE8000001C84BC92B4850366E376A3650C85D5D
:101BF800C951800A386E3750800A3858D8A0BFD6E5
:101C0800C7511200000E0001DE6F000EDD6FDA69A9
:101C1800500E286E010E296EFF0E2B6E2A68000EDC
:101C28002D6E280E2C6E8EEC1BF0000E3B6E000104
:101C380020EE2BF0D451D926D551DA22DF50D66FB9
:101C480020EE2AF0D451D926D551DA22DF504602A7
:101C5800F350D625DB6F20EE2DF0D451D926D5517F
:101C6800DA22DF50D66F20EE2CF0D451D926D55188
:101C7800DA22DF504602F350D625DC6FE10E226EE1
:101C8800FC0E236ED4C0D9FFD5C0DAFFDF50D66F63
:101C9800D651246E256ADBC026F0276ADCC028F0FE
:101CA800296A1BEC12F048503C5CD8B0D1D0000E29
:101CB8000001DE6F000EDD6F9BD0DDC01CF0DEC0C2
:101CC8001DF0000E1F6E370E1E6E1DEC1DF0960ED9
:101CD8001C24D96E020E1D20DA6ED4C0E1FFD5C0D7
:101CE800E2FFE7500001D86FD96BDE50D8192DE11B
:101CF800DE50D919D8A429D0DDC0DAF0DDC01CF037
:101D0800DEC01DF0000E1F6E370E1E6E1DEC1DF09E
:101D1800960E1C24D96E020E1D20DA6E3B50020D61
:101D2800500EF324E16E010EF420E26EDECFE6FFE2
:101D3800DDCFE5FF3B2ADBC034F0DCC035F0000125
:101D4800DA51B5EC0CF0010E1200DBC034F0DCC047
:101D580035F00001DA51B5EC0CF0E806D8A445D00E
:101D68005C0E226EFE0E236E1BEC12F0000E0001BC
:101D7800DE6F000EDD6F24D0D890DD35D96EDE35EC
:101D8800DA6E500ED926010EDA22DE2803E1DE28AB
:101D9800D8B413D0E30E226EFF0E236ED890DD3533
:101DA800D96EDE35DA6E500ED926010EDA22DECF74
:101DB80024F0DDCF25F01BEC12F00001DD4BDE2B0B
:101DC8004850D66FD76BD651DD5DDE51800AD86F8B
:101DD800D751800AD859D8A0CFD79F0E226EFE0EB1
:101DE800236E1BEC12F0010E12000001DD4BDE2BFE
:101DF8004850D66FD76BD651DD5DDE51800AD86F5B
:101E0800D751800AD859D8A058D73C50370D960ECC
:101E1800F324286E020EF420296E000E2B6E000E9D
:101E28002A6E000E2D6E370E2C6E8EEC1BF03C5079
:101E3800370D960EF324346E020EF420356ED4C09E
:101E480036F0D5C037F02EEC0FF03C2A2AEC11F012
:101E5800000E120036C0D9FF37C0DAFFDF5000018C
:101E6800C66FC76B34C0D9FF35C0DAFFC6C0DEFF06
:101E7800C7C0DDFF020E3424146E000E3520156E27
:101E8800010E3624166E000E3720176E6BEC1BF011
:101E9800020E3424226E000E3520236E7EEC1AF0DA
:101EA80020EE2AF03450D9263550DA22DF50221895
:101EB800800B2218DF6E20EE2AF03650D9263750D4
:101EC800DA22DF500001C66F20EE2BF03450D926FD
:101ED8003550DA22DF50C619800BC619DF6E20EEA6
:101EE8002BF03650D9263750DA22DF50C66F20EE55
:101EF8002CF03450D9263550DA22DF50C619800B21
:101F0800C619DF6E20EE2CF03650D9263750DA226B
:101F1800DF50C66F20EE2EF03450D9263550DA2225
:101F2800DF50C619800BC619DF6E20EE2DF0365033
:101F3800D9263750DA22DF50C66F20EE2FF0345002
:101F4800D9263550DA22DF50C619800BC619DF6E44
:101F580020EE2CF03450D9263550DA22DF507F0B92
:101F6800C66F20EE2BF03450D9263550DA22DF50D8
:101F78007F0B4602F350C625C76F20EE2DF0345074
:101F8800D9263550DA22DF50C719800BC719DF6E02
:101F980020EE2FF03450D9263550DA22DF507F0B4F
:101FA800C66F20EE2EF03450D9263550DA22DF5095
:101FB8007F0B4602F350C625C76F20EE30F0345031
:101FC800D9263550DA22DF50C719800BC719DF6EC2
:101FD80020EE2FF03650D9263750DA22DF50C66F60
:101FE80020EE31F03450D9263550DA22DF50C619A8
:101FF800F80BC619DF6E20EE32F03450D926355072
:10200800DA2210EE30F03450E1263550E222E75063
:102018007F0BC66F10EE2DF03450E1263550E222CA
:10202800E7507F0B0008C625C76FC729DF6E3E0E35
:10203800226EFD0E236E20EE32F03450D926355034
:10204800DA22DF50C66FC651246E256A1BEC12F0E7
:1020580012003F50D8B4EED0000E0001E46F72D0E9
:102068004BEC1EF00001E46F0A0EE419D8B404D05A
:102078000D0EE419D8A40DD0000E736F000E726F08
:10208800010E7F6F9F0E226EFE0E236E1BEC12F068
:102098005CD0080E0001E419D8A415D07207D8A0A6
:1020A8007307000E7225D96E020E7321DA6E000EC8
:1020B800DF6EF90E226EFF0E236EE4C024F0256A4F
:1020C8001BEC12F03FD0000E00017225D96E020EF3
:1020D8007321DA6EE4C0DFFFF90E226EFF0E236E65
:1020E800000E7225D96E020E7321DA6EDF50E36F8F
:1020F800E351246E256A1BEC12F0000E146E020EDA
:10210800156ED40E166EFF0E176E21EC1BF01450D0
:102118001510D8A414D0000E286E020E296E000ED9
:102128002B6E000E2A6E000E2D6E960E2C6E8EEC07
:102138001BF0000E0001736F000E726F03D00001D8
:10214800724B732B3F50D8A48BD7000173BF72D04A
:10215800735104E1970E725DD8A06CD0F60E186E1C
:10216800FE0E196ED4EC1DF0000E0001736F000E08
:10217800726F60D0B70E286E000E296E000E2B6E9F
:10218800000E2A6E000E2D6E0F0E2C6E8EEC1BF0BC
:10219800000E286E020E296E000E2B6E000E2A6E9F
:1021A800000E2D6E960E2C6E8EEC1BF0000E0001AC
:1021B800826FBA0E186EFE0E196ED4EC1DF0010E69
:1021C80000017E6F12007F05D8A41200000E7F6FF9
:1021D800000ECC6F020ECD6F65EC00F00009D8A49C
:1021E80012D0000E286E020E296E000E2B6E000E05
:1021F8002A6E000E2D6E960E2C6E8EEC1BF0020EC3
:1022080000017E6F1200A20E226EFF0E236EC80E12
:10221800246EFF0E256E1BEC12F0120000018205E1
:10222800D8A405D018EC0BF0000E0001826F010E47
:102238007E6F120000017E51000AD8B49BD7010AB4
:10224800D8B4C1D7030AD8A41200E8D7000E386E54
:10225800000E376E000E386E000E376ED3D037C0C2
:102268001CF038C01DF0000E1F6E370E1E6E1DECE0
:102278001DF0020E1C26000E1D22960E1C24226E36
:10228800020E1D20236E7EEC1AF022502310D8B4C3
:102298002CD037C01CF038C01DF0000E1F6E370E52
:1022A8001E6E1DEC1DF0310E1C26000E1D22960E12
:1022B8001C24D96E020E1D20DA6EDF50070B020AAD
:1022C800D8A413D037C01CF038C01DF0000E1F6E04
:1022D800370E1E6E1DEC1DF0960E1C24306E020E7D
:1022E8001D20316E74EC09F08BD037C01CF038C05B
:1022F8001DF0000E1F6E370E1E6E1DEC1DF0020E37
:102308001C26000E1D22960E1C24226E020E1D2075
:10231800236E7EEC1AF022502310D8B42CD037C08C
:102328001CF038C01DF0000E1F6E370E1E6E1DEC1F
:102338001DF0310E1C26000E1D22960E1C24D96E8F
:10234800020E1D20DA6EDF50070BE806D8A413D062
:1023580037C01CF038C01DF0000E1F6E370E1E6E01
:102368001DEC1DF0960E1C24306E020E1D20316EE1
:10237800C3EC07F045D037C01CF038C01DF0000E84
:102388001F6E370E1E6E1DEC1DF0020E1C26000E71
:102398001D22960E1C24226E020E1D20236E7EEC3A
:1023A8001AF022502310D8B42BD037C01CF038C0F4
:1023B8001DF0000E1F6E370E1E6E1DEC1DF0310E47
:1023C8001C26000E1D22960E1C24D96E020E1D20FE
:1023D800DA6EDF50070B0009D8A412D037C01CF002
:1023E80038C01DF0000E1F6E370E1E6E1DEC1DF05E
:1023F800960E1C24286E020E1D20296EB6EC13F0D2
:10240800374A382A48500001D16FD26BD151375C16
:102418003850800AD36FD251800AD359D8A01FD719
:10242800000E776F010E766FD1EC18F01200240EB3
:102438002F6E000E306ED9D0250E3318D8B404D0C4
:1024480033503DEC1EF0D1D0000E2B6E4DD02FC076
:10245800D9FF30C0DAFFDECF2DF0DDCF2EF0020E2F
:102468002F26000E30222D502E10D8A41AD0920EEE
:102478002D6EFF0E2E6E15D02DC0F6FF2EC0F7FF65
:10248800000EF86E0F0EF76403D00800F55005D063
:10249800F6CFE9FFF7CFEAFFEF503DEC1EF02D4AEB
:1024A8002E2A2DC0F6FF2EC0F7FF000EF86E0F0E75
:1024B800F76403D00800F55005D0F6CFE9FFF7CF51
:1024C800EAFFEF500009D8B490D0D6D72FC0D9FF73
:1024D80030C0DAFFDF50336E020E2F26000E302296
:1024E80033503DEC1EF081D022C0F6FF23C0F7FF29
:1024F800224A232AF86A0800F5CF33F03350000A3D
:10250800D8B41200630AD8B4E1D7070AD8B407D000
:102518000D0AD8B404D01A0AD8B499D7E1D72FC075
:10252800D9FF30C0DAFFDECF31F0DDCF32F0020E56
:102538002F26000E302232AE06D0030E2B12316C3D
:10254800321ED8B0322A010E336E050E3318D8B4B5
:1025580015D03350020DD70EF324F66EFC0EF4207E
:10256800F76EF86A000EF8220900F550315C090090
:10257800F5503258D8A002D0332AE7D72BC02AF01A
:10258800030E2A16D8B403D02D0E3DEC1EF033C02E
:102598002CF027D02C50020DD70EF324F66EFC0E2B
:1025A800F420F76EF86A000EF8220900F5CF16F04D
:1025B8000A00F5CF17F031C014F032C015F0A8ECBE
:1025C8001AF014C01BF015C01CF0000E1E6E0A0E87
:1025D8001D6EF5EC1BF01B50300F336E33503DEC85
:1025E8001EF02C062C28D8A4D5D722C0F6FF23C06D
:1025F800F7FF224A232AF86A0800F5CF33F0335050
:10260800D8B4120019D702D0224A232A22C0F6FFD2
:1026180023C0F7FF000EF86E0F0EF76403D0080012
:10262800F55005D0F6CFE9FFF7CFEAFFEF50200AC3
:10263800D8B4EAD722C0F6FF23C0F7FF000EF86E21
:102648000F0EF76403D00800F55005D0F6CFE9FF68
:10265800F7CFEAFFEF50090AD8B4D6D7000E286E94
:10266800000E276E000E266E22C0F6FF23C0F7FF6D
:10267800000EF86E0F0EF76403D00800F55005D071
:10268800F6CFE9FFF7CFEAFFEF502D0AD8A402D022
:10269800262A3CD022C0F6FF23C0F7FF000EF86EB2
:1026A8000F0EF76403D00800F55005D0F6CFE9FF08
:1026B800F7CFEAFFEF502B0AD8A42AD027D027C09B
:1026C8001CF028C01DF0000E1F6E0A0E1E6E1DECB9
:1026D8001DF022C0F6FF23C0F7FF000EF86E0F0EA4
:1026E800F76403D00800F55005D0F6CFE9FFF7CF1F
:1026F800EAFFEF50246E256A1C5024261D5025221F
:10270800D00E2424276EFF0E2520286E224A232A65
:1027180022C0F6FF23C0F7FF000EF86E0F0EF76415
:1027280003D00800F55005D0F6CFE9FFF7CFEAFF50
:10273800EF5080EC1DF0D8B0C2D72650D8B40DD0D9
:1027480027C024F028C025F0241E251E244A252A47
:1027580024C022F025C023F0120027C022F028C090
:1027680023F012003068000E366E000E356E000E33
:10277800346E000E336E000E2F6E000E2E6E20EE9D
:1027880030F02850D9262950DA22DF507F0B2A6EE4
:1027980020EE2DF02850D9262950DA22DF507F0B61
:1027A80000082A24316E020E2824226E000E2920E9
:1027B800236E7EEC1AF02250326E20EE2BF0285059
:1027C800D9262950DA22DF507F0B306E20EE2CF00C
:1027D8002850D9262950DA22DF507F0B2A6E2A503A
:1027E800336E346A000E366E000E356E5BD0020E04
:1027F80035242A6E000E36202B6E2A502824D96ED6
:102808002B502920DA6E3050140D000E2C6E010E5C
:102818002D6EF3502C26F4502D2233502C24E16ECB
:1028280034502D20E26EDFCFE7FF354A362A32508A
:102838002A6E2B6A2A50355C3650800A2C6E2B5033
:10284800800A2C58D8B01CD031502A6E2B6A2A50D6
:10285800355C3650800A2C6E2B50800A2C58D8B024
:102868000FD0334A342A46502A6E2B6A2A50335CDA
:102878003450800A2C6E2B50800A2C58D8A0B7D719
:10288800000E346E000E336E302A31502A6E2B6AD9
:102898002A50355C3650800A2C6E2B50800A2C58F2
:1028A800D8B0120032502A6E2B6A2A50355C365046
:1028B800800A2C6E2B50800A2C58D8B01200D3D71F
:1028C800D20E226EFE0E236E34C024F035C025F0E1
:1028D8001BEC12F0000E0001CB6F000ECA6F000E49
:1028E800C96F000ECA6F000EC96F3DD0C95134249C
:1028F800C66FCA513520C76FC6C0F6FFC7C0F7FFFD
:10290800000EF86E0F0EF76403D00800F55005D0DE
:10291800F6CFE9FFF7CFEAFFEF5080EC1DF0D8A023
:1029280012000001C9513424C66FCA513520C76F3F
:10293800C6C0F6FFC7C0F7FF000EF86E0F0EF764AB
:1029480003D00800F55005D0F6CFE9FFF7CFEAFF2E
:10295800EF500001C86FCB510A0DF350C825D00FB6
:10296800CB6FC94BCA2B34C022F035C023F07EECA4
:102978001AF022500001C95D2350CA59D8A0B6D711
:10298800AE0E226EFE0E236ECBC024F0256A1BEC21
:1029980012F045500001CB5DD8A007D036C0D9FF52
:1029A80037C0DAFFFF0EDF6E120036C0D9FF37C01E
:1029B800DAFFCBC0DFFF1200C60E226EFE0E236EBA
:1029C80034C024F035C025F01BEC12F0000E0001D5
:1029D800CA6F000EC96F000ECB6F000ECA6F000ED3
:1029E800C96F3DD0C9513424C66FCA513520C76F4D
:1029F800C6C0F6FFC7C0F7FF000EF86E0F0EF764EB
:102A080003D00800F55005D0F6CFE9FFF7CFEAFF6D
:102A1800EF5080EC1DF0D8A012000001C9513424F9
:102A2800C66FCA513520C76FC6C0F6FFC7C0F7FFCB
:102A3800000EF86E0F0EF76403D00800F55005D0AD
:102A4800F6CFE9FFF7CFEAFFEF500001C86FCB518F
:102A58000A0DF350C825D00FCB6FC94BCA2B34C011
:102A680022F035C023F07EEC1AF022500001C95D37
:102A78002350CA59D8A0B6D7A20E226EFE0E236ED6
:102A8800CBC024F0256A1BEC12F046500001CB5D48
:102A9800D8A007D036C0D9FF37C0DAFFFF0EDF6EE7
:102AA800120036C0D9FF37C0DAFFCBC0DFFF1200F3
:102AB800000E0001CB6F000ECA6F000EC96F000E2A
:102AC800CA6F000EC96F41D0C9513424C66FCA51AC
:102AD8003520C76FC6C0F6FFC7C0F7FF000EF86EF7
:102AE8000F0EF76403D00800F55005D0F6CFE9FFC4
:102AF800F7CFEAFFEF5080EC1DF0D8A021D00001FD
:102B0800C9513424C66FCA513520C76FC6C0F6FFF5
:102B1800C7C0F7FF000EF86E0F0EF76403D0080069
:102B2800F55005D0F6CFE9FFF7CFEAFFEF500001E7
:102B3800C86FCB510A0DF350C825D00FCB6F02D008
:102B4800000E12000001C94BCA2B34C022F035C058
:102B580023F07EEC1AF022500001C95D2350CA59B7
:102B6800D8A0B2D71A0E226EFE0E236ECBC024F068
:102B7800256A1BEC12F045500001CB5DD8A008D0A7
:102B880036C0D9FF37C0DAFFFF0EDF6E000E120025
:102B980036C0D9FF37C0DAFFCBC0DFFF010E120005
:102BA800000E0001C96F000ECB6F000ECA6F000E39
:102BB800CB6F000ECA6F47D0CA513424C66FCB51B1
:102BC8003520C76FC6C0F6FFC7C0F7FF000EF86E06
:102BD8000F0EF76403D00800F55005D0F6CFE9FFD3
:102BE800F7CFEAFFEF5080EC1DF0D8A021D000010C
:102BF800CA513424C66FCB513520C76FC6C0F6FF03
:102C0800C7C0F7FF000EF86E0F0EF76403D0080078
:102C1800F55005D0F6CFE9FFF7CFEAFFEF500001F6
:102C2800C86FC9510A0DF350C825D00FC96F08D015
:102C380036C0D9FF37C0DAFF000EDF6E000E120073
:102C48000001CA4BCB2B34C022F035C023F07EECF8
:102C58001AF022500001CA5D2350CB59D8A0ACD736
:102C6800F60E226EFD0E236EC9C024F0256A1BECF9
:102C780012F036C0D9FF37C0DAFFC9C0DFFF010E36
:102C88001200000E0001C96F000ECB6F000ECA6F54
:102C9800000ECB6F000ECA6F47D0CA513424C66FDE
:102CA800CB513520C76FC6C0F6FFC7C0F7FF000E6F
:102CB800F86E0F0EF76403D00800F55005D0F6CF74
:102CC800E9FFF7CFEAFFEF5080EC1DF0D8A021D044
:102CD8000001CA513424C66FCB513520C76FC6C016
:102CE800F6FFC7C0F7FF000EF86E0F0EF76403D0AB
:102CF8000800F55005D0F6CFE9FFF7CFEAFFEF500F
:102D08000001C86FC9510A0DF350C825D00FC96F0B
:102D180008D036C0D9FF37C0DAFF010EDF6E000ECB
:102D280012000001CA4BCB2B34C022F035C023F06F
:102D38007EEC1AF022500001CA5D2350CB59D8A06E
:102D4800ACD7BE0E226EFD0E236EC9C024F0256AD4
:102D58001BEC12F036C0D9FF37C0DAFFC9C0DFFF5D
:102D6800010E1200356E8DEC17F0000E3C6E960EBB
:102D7800286E020E296E000E2B6E000E2A6E040EAF
:102D88002D6E4C0E2C6E8EEC1BF0500E286E010E24
:102D9800296E000E2B6E000E2A6E000E2D6E280E68
:102DA8002C6E8EEC1BF0010E446E710E226EFF0E1F
:102DB800236E35C024F0256A1BEC12F035C045F0AF
:102DC800680E226EFF0E236E34C024F0256A1BECB9
:102DD80012F034C046F0080E226EFE0E236E000E6E
:102DE800176E040E166E34C014F0156A8FEC18F0C6
:102DF80014C01CF015C01DF035C01EF01F6A1DEC74
:102E08001DF01CC024F01DC025F01BEC12F034C0CE
:102E180014F0156A000E176E040E166E8FEC18F07B
:102E280014503502F3CF48F04850410F476E2B0E2F
:102E3800226EFE0E236E47C024F0256A1BEC12F0AA
:102E480012005AD028C0F6FF29C0F7FF000EF86E0E
:102E58000F0EF76403D00800F55005D0F6CFE9FF50
:102E6800F7CFEAFFEF500009D8B41CD02AC0F6FF0C
:102E78002BC0F7FFF86A0800F5CF2EF028C0F6FF40
:102E880029C0F7FF000EF86E0F0EF76403D0080094
:102E9800F55005D0F6CFE9FFF7CFEAFFEF502E182F
:102EA800D8B426D02AC0F6FF2BC0F7FFF86A08006E
:102EB800F5502E6E2F6A2E1E2F1E2E4A2F2A28C03E
:102EC800F6FF29C0F7FF000EF86E0F0EF76403D067
:102ED8000800F55005D0F6CFE9FFF7CFEAFFEF502D
:102EE800306E30502E24286E000E2F20296E1200CE
:102EF800284A292A2A4A2B2A2C06D8A02D062C280B
:102F0800A1E12D28D8A49ED7000E296E000E286EA8
:102F18001200440E286E000E296E000E2B6E000E55
:102F28002A6E000E2D6E050E2C6E8EEC1BF0000E18
:102F3800956E9250F009926E8090000E156EFA0E02
:102F4800146ED3EC1BF0380EADEC1DF0000E156EB0
:102F5800FA0E146ED3EC1BF00E0EADEC1DF0000E45
:102F6800156EFA0E146ED3EC1BF0010EADEC1DF0CD
:102F7800000E156EFA0E146ED3EC1BF0060EADECB7
:102F88001DF0000E156EFA0E146ED3EC1BF00F0E2A
:102F9800ADEC1DF0000E156EFA0E146ED3EC1BF09E
:102FA800000E286E010E296E000E2B6E200E2A6E62
:102FB800000E2D6E500E2C6E8EEC1BF025EC1AF0C8
:102FC80038EC1EF0120021502210D8A404D039C0C9
:102FD80021F03AC022F021502210D8A405D0000ECA
:102FE800216E000E226E120021C01AF022C01BF0C2
:102FF80023C01CF024C01DF0D1EC1AF01A50212671
:103008001B50222221C0D9FF22C0DAFFDF50D8A4EA
:1030180009D0000E396E000E3A6E39C021F03AC060
:1030280022F0120021C01AF022C01BF023C01CF0AD
:1030380024C01DF0F9EC1AF01A502124396E1B50E7
:1030480022203A6E39C0D9FF3AC0DAFFDF50D8B42F
:1030580009D039C0D9FF3AC0DAFF000EDF6E394A0D
:103068003A2A04D0000E396E000E3A6E21C021F0C3
:1030780022C022F0120032D031C028F032C029F02C
:1030880033C02AF034C02BF033C022F034C023F010
:103098007EEC1AF022C02CF023C02DF025EC17F09E
:1030A80028502910D8A405D031C031F032C032F0F0
:1030B8001200010E3124146E000E3220156E33C03A
:1030C800F6FF34C0F7FFF86A0800F550166E176A65
:1030D8008BEC19F014C031F015C032F031503210B9
:1030E800D8B414D031C0F6FF32C0F7FF000EF86E26
:1030F8000F0EF76403D00800F55005D0F6CFE9FFAE
:10310800F7CFEAFFEF500009D8A4B6D7000E316E0A
:10311800000E326E1200000E196E17AE06D0166C35
:10312800171ED8B0172A010E196E15AE06D0146CEA
:10313800151ED8B0152A010E191A000E1B6E000EA6
:103148001A6E16501710D8B41CD0010E186E04D081
:10315800D89016361736182A17AEFAD7D8901A36D6
:103168001B361650145C17501558D8A005D01650A9
:10317800145E1750155A1A80D89017321632182E26
:10318800EDD71950D8B404D01A6C1B1ED8B01B2A1E
:103198001AC014F01BC015F0120000017605771153
:1031A800D8A437D0010EADEC1DF047EC1EF0000E90
:1031B8001C6E800EC9EC1DF0000E1C6E010E1D6EFB
:1031C80055EC1CF0000E1C6EC00EC9EC1DF0140E60
:1031D8001C6E010E1D6E55EC1CF0000E1C6E940E3C
:1031E800C9EC1DF0280E1C6E010E1D6E55EC1CF06E
:1031F800000E1C6ED40EC9EC1DF03C0E1C6E010EA8
:103208001D6E55EC1CF0000E0001776F000E766FF6
:103218001200000E776F000E766F1200BC0EF66E6D
:103228003B0EF76E000EF86E00EEE5F010EE11F0B2
:103238000900F5CFEEFFE550E150FAE1BE0EF66E5B
:103248003C0EF76E000EF86E0900F5CF4BF002EE5B
:1032580096F014EE4CF0EE6AE550E150FCE1E250D5
:10326800FAE102EE00F0960EEE6AE806FDE101EEE4
:1032780000F0A00EEE6AE806FDE100EE60F0660ED2
:10328800EE6AE806FDE100EE39F0100EEE6AE80697
:10329800FDE14C904C92000152EF1AF0000E000133
:1032A8007E6F08EC1DF0000E0001826F000E816F2A
:1032B800000E806F000E7F6FB70E286E000E296E0D
:1032C800000E2B6E000E2A6E000E2D6E0F0E2C6E49
:1032D8008EEC1BF0780E286E010E296E000E2B6EF8
:1032E800000E2A6E000E2D6E280E2C6E8EEC1BF032
:1032F800000E286E020E296E000E2B6E000E2A6E2E
:10330800000E2D6E960E2C6E8EEC1BF0120014C063
:10331800F6FF15C0F7FF000EF86E0F0EF76403D026
:103328000800F55005D0F6CFE9FFF7CFEAFFEF50D8
:103338001618D8A405D014C014F015C015F0120042
:103348001450186E1550196E144A152A18C0F6FF35
:1033580019C0F7FF000EF86E0F0EF76403D00800CF
:10336800F55005D0F6CFE9FFF7CFEAFFEF50000997
:10337800D8A4CDD7000E146E000E156E120030C002
:1033880022F031C023F07EEC1AF0235029E1280EF8
:10339800225CD8B025D032C014F033C015F030C04C
:1033A80016F031C017F06BEC1BF0010E0001826FB4
:1033B800010EAC6F30C028F031C029F0000E2B6E22
:1033C800000E2A6E30C022F031C023F07EEC1AF0D5
:1033D80022C02CF023C02DF08EEC1BF0010E120041
:1033E800000E120014C01AF015C01BF014D01806F5
:1033F800D8A0190616C0D9FF17C0DAFF164A172A2F
:103408001AC0E1FF1BC0E2FF1A4A1B2ADFCFE7FF01
:10341800E750D8B40DD018501910D8B409D0E7D750
:103428001AC0D9FF1BC0DAFF000EDF6E1A4A1B2A2A
:103438001806D8A019061828F3E11928D8B41200DC
:10344800EFD7000E286E010E296E000E2B6E200E8F
:103458002A6E000E2D6E500E2C6E8EEC1BF0D10EC7
:10346800226EFD0E236E000E256E0D0E246E1BECD3
:1034780012F0000E146E010E156EE90E166E000E97
:10348800176E000E196E0D0E186EB1EC1BF0000EC3
:103498001C6E010E1D6E55EC1CF012008FEC1DF019
:1034A8004EEC1EF054EC1EF056EC1EF05A0E146E44
:1034B8003C0E156E42EC1EF0F28EF28C52EC19F0B6
:1034C800030E156EE80E146ED3EC1BF0E40E226E9C
:1034D800FD0E236E1BEC12F05AEC1EF02DEC10F0D2
:1034E80000017D05D8A4FAD72AEC11F0000E0001DE
:1034F8007D6FF4D722C026F023C027F002D0264AD9
:10350800272A26C0F6FF27C0F7FF000EF86E0F0E19
:10351800F76403D00800F55005D0F6CFE9FFF7CFE0
:10352800EAFFEF500009D8A4EAD722C024F023C04C
:1035380025F0241E251E244A252A26502424226EDE
:1035480027502520236E1200000E1A6E000E196EE9
:1035580016501710D8B41CD0010E186E04D0D8908D
:1035680016361736182A17AEFAD7D89019361A36DB
:103578001650145C17501558D8A005D01650145E74
:103588001750155A1980D89017321632182EEDD7C1
:1035980019C014F01AC015F01200000E206E000EAB
:1035A8001F6E04D01A4A1B2A1F4A202A1AC0D9FFA4
:1035B8001BC0DAFFDF50D8B413D01CC014F01DC0F4
:1035C80015F01AC0D9FF1BC0DAFFDF501E6E1E505F
:1035D800166E176A8BEC19F014501510D8A4E2D7A0
:1035E8001FC01AF020C01BF01200000E206E000E43
:1035F8001F6E04D01A4A1B2A1F4A202A1AC0D9FF54
:103608001BC0DAFFDF50D8B413D01CC014F01DC0A3
:1036180015F01AC0D9FF1BC0DAFFDF501E6E1E500E
:10362800166E176A8BEC19F014501510D8B4E2D73F
:103638001FC01AF020C01BF0120004D0144A152A2B
:10364800164A172A14C0D9FF15C0DAFFDF50186EC2
:1036580016C0F6FF17C0F7FFF86A0800F550000813
:103668001824196E1950D8A407D014C0D9FF15C052
:10367800DAFFDF50D8A4E2D71950146E156A14BEC9
:1036880015061200000E186E000E176E000E186E4A
:10369800000E176E11D0000E1A6E000E196E1ABEAB
:1036A80006D05E0E195C010E1A58D8B003D0194A1C
:1036B8001A2AF5D7174A182A1450175C1850800A86
:1036C800166E1550800A1658D8B01200E4D714C0E8
:1036D80018F015C019F004D0184A192A164A172AE2
:1036E80016C0F6FF17C0F7FF000EF86E18C0D9FF16
:1036F80019C0DAFF0F0EF76403D00800F55005D0A3
:10370800F6CFE9FFF7CFEAFFEF50DF6EDF50D8B40E
:103718001200E2D728C02EF029C02FF015D02EC0F5
:10372800F6FF2FC0F7FF000EF86E0F0EF76404D0F7
:103738002AC0F5FF0C0006D0F6CFE9FFF7CFEAFF65
:103748002AC0EFFF2E4A2F2A2C06D8A02D062C2897
:10375800E6E12D28D8B41200E2D716C01CF017C035
:103768001DF014C01AF015C01BF010D01CC0D9FFF2
:103778001DC0DAFFDF501E6E1C4A1D2A1AC0D9FF71
:103788001BC0DAFF1EC0DFFF1A4A1B2A1806D8A082
:1037980019061828EBE11928D8B41200E7D7000E4B
:1037A800186E000E176E000E186E000E176E0ED0F3
:1037B80021EC1EF058EC1EF027EC1EF00009D8B4DE
:1037C800FBD754EC1EF09E90174A182A1450175C29
:1037D8001850800A166E1550800A1658D8B0120074
:1037E800E7D71D501E10D8B418D0010E1F6E04D094
:1037F800D8901D361E361F2A1EAEFAD71D501B5CE8
:103808001E501C58D8A004D01D501B5E1E501C5AB8
:10381800D8901E321D321F2EF1D71BC01BF01CC0C2
:103828001CF01200000E8D6E000E8C6E000E896E5C
:10383800000E8A6E000E8B6E030E966EF80E926E58
:103848009368BF0E946E000E956E3C0E0F013A6F92
:103858003F0E396F000E3B6F030E3C6F280E386F1A
:103868006168F19E1200146E0001FC51D8B4FCD7B7
:103878009DB803D014C0ADFF12D09D984350010DE0
:10388800680EF324D96E000EF420DA6E14C0DFFF40
:10389800432A070E436402D0000E436EFC079D883E
:1038A8001200000E1E6E15D01CC0D9FF1DC0DAFF15
:1038B800DF50D8B40AD01CC0D9FF1DC0DAFFDF50D2
:1038C800BBEC1DF01C4A1D2A03D0200EBBEC1DF0DA
:1038D8001E2A46501E5CD8B01200E6D7170ED56EC9
:1038E800C20ED76EF60ED66ED650D7CF16F0176A20
:1038F80016C017F0166A1610496E17504A6EF294E1
:10390800F28ABC0E146E3C0E156E42EC1EF05AEC98
:103918001EF012009D9A9D98080EB86E900EAB6E20
:10392800240EAC6EA00EAF6E010EB06E000E436E8C
:10393800000E426E080E0001FC6F000E416E000E74
:10394800406E000E3F6E9D8A1200000E146E3F50AE
:10395800D8B4FDD74050010D600EF324D96E000E87
:10396800F420DA6EDF50146E402A070E406402D04D
:10397800000E406E9D9A3F069D8A14501200080E54
:103988000001FC6112D04250010D680EF324D96E7B
:10399800000EF420DA6EDF50AD6E422A070E426444
:1039A80002D0000E426EFC2B12009D9812000BD024
:1039B80016C0F6FF17C0F7FFF86A0800F5503DEC8F
:1039C8001EF0164A172A16C0F6FF17C0F7FFF86A46
:1039D8000800F5500009D8B41200EAD7ABA202D00B
:1039E800AB98AB884150010D600EF324D96E000EE0
:1039F800F420DA6EAECFDFFF412A070E416402D011
:103A0800000E416E3F2A1200830E286E000E296EAA
:103A1800000E2B6E000E2A6E000E2D6E340E2C6ECC
:103A28008EEC1BF00001B269AE69B069AF69AF698D
:103A380012001C501E02F3CF20F0F4CF21F01C50CE
:103A48001F02F35021261D501E02F350212620C0CC
:103A58001CF021C01DF01200000E286E010E296E08
:103A6800000E2B6E200E2A6E000E2D6E500E2C6E40
:103A78008EEC1BF0E7EC1DF01200120E0F014E6FDA
:103A8800000E4D6F5069EC0E4F6F4FCFFAF050CFCC
:103A9800FBF07E9251EC1EF01200320ECD6E000E3D
:103AA800CC6EFE0ECF6E0C0ECE6ECECFF8F0CFCF12
:103AB800F9F09E9058EC1EF012000001F651F71133
:103AC800D8B4120001D812000500FA6EF651FD6E46
:103AD800F751FE6EFF6AFA501200960E286E020E1B
:103AE800296E000E2B6E000E2A6E040E2D6E4C0EE3
:103AF8002C6E8EEC1BF01200166E000E156E3A0E30
:103B0800166005D02F0E166402D0010E156E15C072
:103B180014F0143012005CEC1EF016EC1CF01AECD9
:103B28001EF041EC1DF051EC1DF072EC1CF08EEC17
:103B38001CF012008DA402D0010E01D0000EFF0A65
:103B4800016E014601468D500118FB0B01188D6E60
:103B580012001B6E1BC083FF809480928080000E31
:103B6800156E010E146E46EC1BF0809012001B6E51
:103B7800808480921BC083FF8080000E156E010E2A
:103B8800146E46EC1BF0809012001D6E140E1C641F
:103B980002D0000E1C6E1C501D24ADEC1DF012004E
:103BA80018C016F019C017F0DBEC1CF00A0E3DEC3B
:103BB8001EF0120001000000494E49545F5355435E
:053BC8004345535300CA
:103BCE00000E0001756F000E746F71EC1DF0120087
:103BDE00F2944A50D76E49C0D6FF61EC1DF0120028
:103BEE004450D8A402D0000E1200410E12004450D0
:103BFE00D8A402D0000E1200470412004450D8A4DC
:103C0E0002D0000E1200485012004450D8A402D028
:103C1E00000E1200455012004450D8A402D0000EDF
:103C2E00120046501200700ED36E040ED26E800E2D
:103C3E009B6E12000001F951CF6EF8C0CEFF12003C
:103C4E009EA002D0010E1200000E12009EEC1DF07E
:103C5E00010E00017D6F1200E80E146EFF0E156E40
:103C6E00120030EC1DF0E7EC1DF01200156E155031
:103C7E0037EC1CF0120014C0F6F015C0F7F012006D
:103C8E00060EADEC1DF01200A9EC1CF012000F0197
:103C9E004E9112000F014E811200CD901200D59E52
:103CAE001200CD801200D58E1200D09E120012008E
:013CBE0041C4
:10FCD6000001000A006400E8031027554944203D4E
:10FCE6002025632C2073746172745F7074203D202C
:10FCF60025642C20656E645F7074203D2025640D9C
:10FD06000A00636D645F646174612E73746172745A
:10FD16005F636F6C203D2025642C0D0A00636D64C3
:10FD26005F646174612E73746172745F726F7720A1
:10FD36003D2025642C0D0A00646973706C61795F3F
:10FD4600636861725F636F756E74203D2025640D74
:10FD56000A0065785F7370203C3D206E65775F65AD
:10FD660070203C3D65785F65700D0A0065785F73AD
:10FD760070203C3D206E65775F7370203C3D657852
:10FD86005F65700D0A00636D645F646174612E6562
:10FD96006E645F636F6C203D2025642C0D0A006342
:10FDA6006D645F646174612E656E645F726F772047
:10FDB6003D2025642C0D0A00646973706C61795FBF
:10FDC600667271203D2025640D0A0073697A656F9D
:10FDD600662873747229203D2025640D0A00496E39
:10FDE60069745F636F6D706C6574652E2E0D0A0005
:10FDF6006F7665725F7772697465203D2025640DA4
:10FE06000A00737472696E675F636F756E74203D66
:10FE160020256400646972656374696F6E203D20F5
:10FE260025640D0A007569645F72616E6765203D21
:10FE36002025640D0A006D69645F63686172203D68
:10FE46002025640D0A0025732C207374726C656E70
:10FE56002025640D0A00636F6E666C6963743A2030
:10FE66007569640D0A004552525F5343524F4C4C1C
:10FE76005F534554007363726F6C6C203D2025649C
:10FE86002C20000D0A25732E2E2C204F4B0D0A0018
:10FE9600756964203D2025642C0D0A00436F6C3281
:10FEA600203D2025640D0A00726F7732203D202503
:10FEB600640D0A00496E69745F446F6E650D0A0031
:10FEC600636F6C31203D2025730D0A00726F773108
:10FED600203D2025730D0A0074656D70203D202598
:10FEE600732C20004552525F524F575F434F4C00D0
:10FEF6004552525F434D445F4C454E004552525F5A
:10FF06005354525F5345540025642C25632D2563B5
:10FF16000D0A00636F6C203D2025730D0A00737473
:10FF260072203D2025730D0A00756964203D202549
:10FF3600642C2000646174613D25730D0A002573ED
:10FF46002E2E2E340D0A0025732E2E2E350D0A0068
:10FF560025732E2E2E360D0A00434D443D25730D76
:10FF66000A00636F6C203D20256400726F77203D88
:10FF7600202564002E2E2E2E2E0D0A0025732E2EE1
:10FF8600320D0A0053445343524F4C00286E756C91
:10FF96006C290025732E2E0D0A000D0A25730D0AF5
:10FFA600002D272C202F3D00534453455243005526
:10FFB6005044415445004C4344533F00474D44533D
:10FFC6003F004552524F52005344535452004B4C3B
:10FFD6004D2B0053535452004C4344530025632C7D
:10FFE6002000342C3230004D433F004D523F004B31
:09FFF6004C4D002563002C0000B5
:020000040020DA
:08000000FFFFFFFFFFFFFFFF00
:020000040030CA
:0E000000FF381F3CFFBF85FF0FC00FE00F4011
:00000001FF
