:0400000063EF00F0BA
:100008004C82FACF02F0FBCF03F0E9CF04F0EACF3D
:1000180005F0E1CF06F0E2CF07F0D9CF08F0DACF4C
:1000280009F0F3CF0AF0F4CF0BF0F6CF0CF0F7CFCE
:100038000DF0F8CF0EF0F5CF0FF04CC010F04DC01A
:1000480011F04EC012F04FC013F0F2BAF2A403D070
:1000580013EC1BF00ED0F2BC9DA805D09EA803D0CF
:10006800BAEC19F006D0F2BC9DAA03D09EBA16ECE1
:100078001AF013C04FF012C04EF011C04DF010C06E
:100088004CF00FC0F5FF0EC0F8FF0DC0F7FF0CC015
:10009800F6FF0BC0F4FF0AC0F3FF09C0DAFF08C07F
:1000A800D9FF07C0E2FF06C0E1FF05C0EAFF04C0B0
:1000B800E9FF03C0FBFF02C0FAFF4C92110074EF86
:1000C80016F0820E226EFF0E236EC9C024F0CAC03D
:1000D80025F022EC11F0C9C0CFF0CAC0D0F0CFC0D3
:1000E8001FF0D0C020F0A70E216EFF0E226EA2ECEA
:1000F80014F01FC0D8F020C0D9F00001D851D91190
:10010800D8B41200D8C014F0D9C015F0ED0E166E90
:10011800FF0E176E46EC18F014501510D8A429D00D
:100128000001D851D911D8B4B4EF06F0B70E146E47
:10013800000E156ED8C016F0D9C017F0E9EC19F00A
:10014800010E0001826FC9C028F0CAC029F0000E54
:100158002B6E000E2A6EC9C022F0CAC023F04CECE8
:1001680019F022C02CF023C02DF000EC1AF0000E7C
:100178001200D8C014F0D9C015F0F10E166EFF0E9B
:10018800176E46EC18F014501510D8A428D00001AA
:10019800D851D911D8B4B4EF06F0B70E146E000ECA
:1001A800156ED8C016F0D9C017F0E9EC19F0010E99
:1001B8000001826FC9C028F0CAC029F0000E2B6E5A
:1001C800000E2A6EC9C022F0CAC023F04CEC19F008
:1001D80022C02CF023C02DF000EC1AF0C8D7D8C0EC
:1001E80014F0D9C015F0BC0E166EFF0E176E46EC53
:1001F80018F014501510D8A42ED00001D851D911D8
:10020800D8B4B4EF06F0B70E146E000E156ED8C051
:1002180016F0D9C017F0E9EC19F0010E0001826F51
:10022800C9C028F0CAC029F0000E2B6E000E2A6E35
:10023800C9C022F0CAC023F04CEC19F022C02CF03F
:1002480023C02DF000EC1AF07A0E226EFF0E236EFA
:1002580022EC11F08CD7D8C014F0D9C015F0DE0EFE
:10026800166EFF0E176E46EC18F014501510D8A431
:100278007BD00001D851D911D8B4B4EF06F0B70E2D
:10028800146E000E156ED8C016F0D9C017F0E9EC40
:1002980019F0000E1F6E000E206EA70E216EFF0EC5
:1002A800226EA2EC14F01FC0D8F020C0D9F0990E2D
:1002B800226EFF0E236ED8C024F0D9C025F022ECA0
:1002C80011F0000E0001D16F000ED26FD851D91174
:1002D800D8B4B4EF06F0D8C022F0D9C023F02BEC84
:1002E80013F022500001D16FD151D8B4B4EF06F009
:1002F800000E1F6E000E206EA70E216EFF0E226EDE
:10030800A2EC14F01FC0D8F020C0D9F00001D851D9
:10031800D911D8B4B4EF06F0D8C022F0D9C023F070
:100328002BEC13F022500001D26FD251D8B4B4EFA5
:1003380006F0D2C080F0D1C081F0010E826FC9C032
:1003480028F0CAC029F0000E2B6E000E2A6EC9C014
:1003580022F0CAC023F04CEC19F022C02CF023C0C4
:100368002DF000EC1AF003D7D8C014F0D9C015F05E
:10037800C20E166EFF0E176E46EC18F014501510CC
:10038800D8A428D00001D851D911D8B4B4EF06F0B8
:10039800B70E146E000E156ED8C016F0D9C017F03F
:1003A800E9EC19F0010E0001826FC9C028F0CAC03B
:1003B80029F0000E2B6E000E2A6EC9C022F0CAC0AA
:1003C80023F04CEC19F022C02CF023C02DF000ECE7
:1003D8001AF0CDD6D8C014F0D9C015F0CE0E166ECE
:1003E800FF0E176E46EC18F014501510D8A4AFD0B5
:1003F8004404D8A4B4EF06F0000E0001AC6FD85145
:10040800D911D8B4B4EF06F0DE0E226EFE0E236EBC
:10041800D8C024F0D9C025F022EC11F0B70E146E24
:10042800000E156ED8C016F0D9C017F0E9EC19F017
:10043800000E0001D46F8369000E1F6E000E206E3F
:10044800A70E216EFF0E226EA2EC14F01FC0D8F08A
:1004580020C0D9F00001D851D911D8B4B4EF06F0B2
:10046800DE0E226EFE0E236ED8C024F0D9C025F011
:1004780022EC11F0000E0001CD6FD8C0D9FFD9C011
:10048800DAFFDF50D46F400ED4655FD04750D45D9B
:10049800D8B05BD02F0E226EFF0E236ED4C024F08E
:1004A800256A22EC11F0D4C083F0000E1F6E000EF6
:1004B800206EFC0E216EFF0E226EA2EC14F01FC0FF
:1004C800D8F020C0D9F00001D851D911D8B4B4EF70
:1004D80006F0240E226EFF0E236ED8C024F0D9C079
:1004E80025F022EC11F0D8C022F0D9C023F04CEC52
:1004F80019F0235028E1280E225CD8B024D0840EAD
:10050800146E000E156ED8C016F0D9C017F0E9ECBD
:1005180019F0010E0001826F010EAC6FC9C028F0FE
:10052800CAC029F0000E2B6E000E2A6EC9C022F038
:10053800CAC023F04CEC19F022C02CF023C02DF0D7
:1005480000EC1AF014D6020E1200080E1200D8C0E1
:1005580014F0D9C015F08A0E166EFF0E176E46EC11
:1005680018F014501510D8A4DFD0440E226EFF0ED8
:10057800236ED8C024F0D9C025F022EC11F0440431
:10058800D8A4EED3000E0001B36FD851D911D8B456
:10059800E7D3B70E146E000E156ED8C016F0D9C08A
:1005A80017F0E9EC19F0000E0001D56F000ED66FB8
:1005B800000E1F6E000E206EA70E216EFF0E226E1B
:1005C800A2EC14F01FC0D8F020C0D9F00001D85117
:1005D800D911D8B4C5D34D0E226EFF0E236ED8C0E4
:1005E80024F0D9C025F022EC11F0000E0001D36FE1
:1005F800D8C0D9FFD9C0DAFFDF50D66FB269400E34
:10060800D66590D04750D65DD8B08CD02F0E226ECC
:10061800FF0E236ED6C024F0256A22EC11F00001EB
:10062800D6518319D8A49CD3000E1F6E000E206EDD
:10063800A70E216EFF0E226EA2EC14F01FC0D8F098
:1006480020C0D9F00001D851D911D8B489D3560E99
:10065800226EFF0E236ED8C024F0D9C025F022ECFC
:1006680011F0000E0001D36F23D0D351010DF350C8
:10067800D825D96EF450D921DA6EDF50A4EC1AF0DF
:10068800D8A012D00001D351010DF350D825D96E4E
:10069800F450D921DA6EDF50CB6FD5510A0DF350E3
:1006A800CB25D00FD56F02D0000E12000001D32B3E
:1006B800D8C022F0D9C023F04CEC19F00001D35176
:1006C800CB6FCC6B2250CB5D2350CC59D8A0CDD763
:1006D800030ED56125D07B0E226EFE0E236ED5C08B
:1006E80024F0256A22EC11F0D5C0B2F0010E000109
:1006F800B36F010E826FC9C028F0CAC029F0000E7E
:100708002B6E000E2A6EC9C022F0CAC023F04CEC32
:1007180019F022C02CF023C02DF000EC1AF027D5D8
:10072800040E1200080E1200D8C014F0D9C015F03B
:10073800AE0E166EFF0E176E46EC18F0145015101C
:10074800D8A41BD14404D8A40BD3000E0001B16F68
:10075800D851D911D8B404D3B70E146E000E156E43
:10076800D8C016F0D9C017F0E9EC19F0000E1F6ECA
:10077800000E206EA70E216EFF0E226EA2EC14F062
:100788001FC0D8F020C0D9F0000E0001D76FD85193
:10079800D911D8B4E5D2000ECE6FD8C0D9FFD9C0D0
:1007A800DAFFDF50D76F400ED765E5D04750D75DE9
:1007B800D8B0E1D0960E226EFE0E236ED7C024F07C
:1007C800256A22EC11F00001D7518319D8A4C8D2A8
:1007D800000E1F6E000E206EA70E216EFF0E226EF9
:1007E800A2EC14F01FC0D8F020C0D9F00001D851F5
:1007F800D911D8B4B5D2D8C034F0D9C035F0AD0EBF
:10080800366E000E376E92EC13F0230E226EFD0E3C
:10081800236EADC024F0256A22EC11F00001AD2949
:10082800D8B4A7D0000E1F6E000E206EA70E216E42
:10083800FF0E226EA2EC14F01FC0D8F020C0D9F031
:100848000001D851D911D8B48BD2D8C034F0D9C04E
:1008580035F0AE0E366E000E376EEDEC13F0080E66
:10086800226EFD0E236EAEC024F0256A22EC11F034
:100878000001AD29D8B47BD0000E1F6E000E206E8B
:10088800A70E216EFF0E226EA2EC14F01FC0D8F046
:1008980020C0D9F00001D851D911D8B461D2D8C03C
:1008A80034F0D9C035F0AF0E366E000E376E92ECCC
:1008B80013F0A50E226EFD0E236EAFC024F0256A3C
:1008C80022EC11F00001AF29D8B44FD0000E1F6EF2
:1008D800000E206EA70E216EFF0E226EA2EC14F001
:1008E8001FC0D8F020C0D9F00001D851D911D8B410
:1008F80037D2190E226EFF0E236ED8C024F0D9C04D
:1009080025F022EC11F0D8C034F0D9C035F0B00E83
:10091800366E000E376EEDEC13F08C0E226EFD0E67
:10092800236EB0C024F0256A22EC11F00001AF2933
:10093800D8B419D0010EB16F010E826FC9C028F06A
:10094800CAC029F0000E2B6E000E2A6EC9C022F014
:10095800CAC023F04CEC19F022C02CF023C02DF0B3
:1009680000EC1AF004D4030E1200030E1200030E5A
:100978001200030E1200080E1200D8C014F0D9C0DD
:1009880015F0B50E166EFF0E176E46EC18F01450E3
:100998001510D8A423D0B70E146E000E156ED8C04B
:1009A80016F0D9C017F0E9EC19F0C9C028F0CAC090
:1009B80029F0000E2B6E000E2A6EC9C022F0CAC0A4
:1009C80023F04CEC19F022C02CF023C02DF000ECE1
:1009D8001AF0010E0001826FBBEF00F0D8C014F0CE
:1009E800D9C015F0D90E166EFF0E176E46EC18F02A
:1009F80014501510D8A483D14404D8A4B1D100014F
:100A0800D851D911D8B4ACD1B70E146E000E156EEA
:100A1800D8C016F0D9C017F0E9EC19F05F0E226EB5
:100A2800FF0E236EB70E246E000E256E22EC11F019
:100A3800000E1F6E000E206EFC0E216EFF0E226E41
:100A4800A2EC14F01FC0D8F020C0D9F00001D85192
:100A5800D911D8B485D1D8C030F0D9C031F0840EBE
:100A6800326E000E336EEDEC16F0E806D8A445D1D0
:100A78003A0E226EFF0E236E840E246E000E256E33
:100A880022EC11F0000E1F6E000E206EA70E216ED4
:100A9800FF0E226EA2EC14F01FC0D8F020C0D9F0CF
:100AA8000001D851D911D8B45BD1D8C034F0D9C01D
:100AB80035F0AD0E366E000E376E92EC13F0230E45
:100AC800226EFD0E236EADC024F0256A22EC11F0D3
:100AD8000001AD29D8B40FD1000E1F6E000E206E94
:100AE800A70E216EFF0E226EA2EC14F01FC0D8F0E4
:100AF80020C0D9F00001D851D911D8B431D1D8C00B
:100B080034F0D9C035F0AE0E366E000E376EEDEC0F
:100B180013F0080E226EFD0E236EAEC024F0256A77
:100B280022EC11F00001AD29D8B4E3D0000E1F6EFD
:100B3800000E206EA70E216EFF0E226EA2EC14F09E
:100B48001FC0D8F020C0D9F00001D851D911D8B4AD
:100B580007D1D8C034F0D9C035F0AF0E366E000ECC
:100B6800376E92EC13F0A50E226EFD0E236EAFC009
:100B780024F0256A22EC11F00001AF29D8B4B7D0CF
:100B8800000E1F6E000E206EA70E216EFF0E226E45
:100B9800A2EC14F01FC0D8F020C0D9F00001D85141
:100BA800D911D8B4DDD0190E226EFF0E236ED8C02D
:100BB80024F0D9C025F022EC11F0D8C034F0D9C007
:100BC80035F0B00E366E000E376EEDEC13F08C0E6D
:100BD800226EFD0E236EB0C024F0256A22EC11F0BF
:100BE8000001AF29D8B481D0000E1F6E000E206E10
:100BF800A70E216EFF0E226EA2EC14F01FC0D8F0D3
:100C080020C0D9F00001D851D911D8B4A9D0D8C082
:100C180034F0D9C035F0B20E366E000E376EFAECED
:100C280014F0E806D8A45FD0000E1F6E000E206EE8
:100C3800A70E216EFF0E226EA2EC14F01FC0D8F092
:100C480020C0D9F00001D851D911D8B489D0D8C062
:100C580034F0D9C035F0B40E366E000E376EA1EC04
:100C680015F0E806D8A43DD0000E1F6E000E206EC9
:100C7800A70E216EFF0E226EA2EC14F01FC0D8F052
:100C880020C0D9F00001D851D911D8B469D0D8C042
:100C980034F0D9C035F0B60E366E000E376E51EC12
:100CA80015F0E806D8A41BD0010E0001B16F010EA3
:100CB800826FC9C028F0CAC029F0000E2B6E000E42
:100CC8002A6EC9C022F0CAC023F04CEC19F022C029
:100CD8002CF023C02DF000EC1AF0BBEF00F0060E4C
:100CE8001200050E1200040E1200030E1200030E6D
:100CF8001200030E1200030E1200020E1200D8C0DA
:100D080014F0D9C015F0F50E166EFF0E176E46ECEE
:100D180018F014501510D8A423D0B70E146E000E76
:100D2800156ED8C016F0D9C017F0E9EC19F0C9C093
:100D380028F0CAC029F0000E2B6E000E2A6EC9C01A
:100D480022F0CAC023F04CEC19F022C02CF023C0CA
:100D58002DF000EC1AF0010E0001826F000E120057
:100D6800C9C028F0CAC029F0000E2B6E000E2A6EEA
:100D7800C9C022F0CAC023F04CEC19F022C02CF0F4
:100D880023C02DF000EC1AF0010E1200326820EE9C
:100D98002BF03050D9263150DA22DF507F0B000972
:100DA800D8A402D0000E0CD020EE2BF03050D9265B
:100DB8003150DA22DF507F0BE806D8A402D0010EAA
:100DC800326E20EE2BF03050D9263150DA22DF5027
:100DD8007F0B020AD8A402D0020E326E20EE2BF04E
:100DE8003050D9263150DA22DF507F0B030AD8A4BD
:100DF80002D0030E326E3250140D000E0001C66F81
:100E0800010EC76FF350C627F450C72320EE2CF00D
:100E18003050D9263150DA22DF507F0BC86FC851C5
:100E2800010DF350C625286EF450C721296E000E17
:100E38002B6E200E2A6E20EE32F03050D92631501B
:100E4800DA22DF50C96FC9512C6E2D6A00EC1AF0F6
:100E580020EE2AF03050D9263150DA22DF507F0BAD
:100E68000001C66F20EE35F03050D9263150DA2215
:100E7800DF507F0BC65DD8B066D03250140D20EE1F
:100E880036F03050D9263150DA22DF507F0BC66F4A
:100E9800C76BC61FC71FC64BC72B20EE2FF030509D
:100EA800D9263150DA22DF507F0BC86FC96BC65183
:100EB800C827C751C923000ECA6F010ECB6FC8518E
:100EC800CA27C951CB23F350CA25146EF450CB213D
:100ED800156E020E3024166E000E3120176E20EEAD
:100EE80036F03050D9263150DA22DF507F0BCC6FE4
:100EF800CD6B010ECC27000ECD23CC1FCD1FCC4BC4
:100F0800CD2B20EE32F03050D9263150DA22DF5086
:100F1800CE6FCF6BCC51CE27CD51CF23CE1FCF1F55
:100F2800CE4BCF2B20EE32F03050D9263150DA227A
:100F3800DF50D06FD051CE25186E000ECF21196E1C
:100F480020EC17F056D020EE35F03050D92631502D
:100F5800DA22DF507F0B0001C66FC651010D020E69
:100F6800F326000EF422F3503024D96EF4503120C9
:100F7800DA6EDF50D8B43DD03250140D000EC66F73
:100F8800010EC76FF350C627F450C72320EE2CF08C
:100F98003050D9263150DA22DF507F0BC86FC85144
:100FA800010DF350C625146EF450C721156E20EEBE
:100FB80035F03050D9263150DA22DF507F0BC96F17
:100FC800C951010D020EF326000EF422F35030240D
:100FD800166EF4503120176E20EE32F03050D926BC
:100FE8003150DA22DF50CA6FCA51186E196A6BEC99
:100FF80018F020EE35F03050D9263150DA22DF5083
:101008007F0B0001C66F20EE2AF03050D9263150F0
:10101800DA22DF507F0BC76FC651C75DD8A013D047
:10102800010EC66F20EE35F03050D9263150DA2245
:10103800DF507F0BC76FC651C727DF50C719800B1A
:10104800C719DF6E120020EE2AF03050D926315031
:10105800DA22DF507F0BC66F20EE35F03050D926EC
:101068003150DA22DF507F0BC65DD8B01200010E76
:10107800C66F20EE36F03050D9263150DA22DF50D4
:101088007F0BC76FC651C727DF50C719800BC71919
:10109800DF6E20EE32F03050D9263150DA2210EED1
:1010A80036F03050E1263150E222E7507F0BC76F0F
:1010B800DE50C719D8A4120020EE36F03050D926D9
:1010C8003150DA22DF90DF92DF94DF96DF98DF9AE3
:1010D800DF9C20EE35F03050D9263150DA22DF90EF
:1010E800DF92DF94DF96DF98DF9ADF9C1200326888
:1010F80020EE2BF03050D9263150DA22DF507F0B0A
:101108000009D8A402D0000E0CD020EE2BF03050ED
:10111800D9263150DA22DF507F0BE806D8A402D056
:10112800010E326E20EE2BF03050D9263150DA22E3
:10113800DF507F0B020AD8A402D0020E326E20EED6
:101148002BF03050D9263150DA22DF507F0B030ABA
:10115800D8A402D0030E326E3250140D000E0001D6
:10116800C66F010EC76FF350C627F450C72320EE91
:101178002CF03050D9263150DA22DF507F0BC86F5F
:10118800C851010DF350C625286EF450C721296EA9
:10119800000E2B6E200E2A6E20EE32F03050D9262B
:1011A8003150DA22DF50C96FC9512C6E2D6A00EC1C
:1011B8001AF020EE32F03050D9263150DA22DF50C2
:1011C8000001C66F20EE33F03050D9263150DA22B4
:1011D800DF507F0BC65DD8B058D020EE02F03050FB
:1011E800D9263150DA22DF50D8B4A7D03250140DA6
:1011F800000EC66F010EC76FF350C627F450C72301
:1012080020EE2CF03050D9263150DA22DF507F0BF7
:10121800C86FC851010DF350C625146EF450C7218C
:10122800156E20EE34F03050D9263150DA22DF50D6
:101238007F0BC96FCA6BC91FCA1FC94BCA2B20EEC7
:101248002AF03050D9263150DA22DF507F0BCB6F8D
:10125800CC6BC951CB27CA51CC23010ECB27000E2A
:10126800CC23CB513024166ECC513120176E20EE92
:1012780032F03050D9263150DA22DF50CD6FCD51BF
:10128800186E196A6BEC18F058D020EE02F0305046
:10129800D9263150DA22DF50D8B44FD03250140D4D
:1012A800000E0001C66F010EC76FF350C627F45039
:1012B800C72320EE2CF03050D9263150DA22DF50E7
:1012C8007F0BC86FC851010DF350C627F450C723D0
:1012D80020EE33F03050D9263150DA22DF507F0B20
:1012E800C96FC951010DF350C625146EF450C721BA
:1012F800156E020E3024166E000E3120176E20EE89
:1013080033F03050D9263150DA22DF507F0BCA6FC4
:10131800CB6BCA1FCB1FCA4BCB2B20EE32F0305001
:10132800D9263150DA22DF50CC6FCC51CA25186E3D
:10133800000ECB21196E6BEC18F020EE33F0305014
:10134800D9263150DA22DF507F0B0001C66F20EE1C
:1013580032F03050D9263150DA22C651DE5CD8A09E
:1013680013D0010EC66F20EE33F03050D92631501D
:10137800DA22DF507F0BC76FC651C727DF50C71966
:10138800800BC719DF6E120020EE34F03050D926DA
:101398003150DA22DF507F0BC66F20EE2AF0305032
:1013A800D9263150DA22DF507F0BC65DD8B0120043
:1013B800010EC66F20EE34F03050D9263150DA22B3
:1013C800DF507F0BC76FC651C727DF50C719800B87
:1013D800C719DF6E20EE2AF03050D9263150DA22B4
:1013E800DF507F0BC66F20EE34F03050D9263150D5
:1013F800DA22DF507F0BC76FC651C75DD8A0120035
:1014080020EE33F03050D9263150DA22DF90DF92C7
:10141800DF94DF96DF98DF9ADF9C20EE34F03050BF
:10142800D9263150DA22DF90DF92DF94DF96DF98F9
:10143800DF9ADF9C1200B70E146E000E156EF50EC3
:10144800166EFF0E176E46EC18F014501510D8A43F
:1014580007D0910E186EFE0E196EF8EC1AF01200F5
:10146800B70E146E000E156EBC0E166EFF0E176EBC
:1014780046EC18F014501510D8A417D0A20E226EFE
:10148800FF0E236E57EC1BF014C024F015C025F096
:1014980022EC11F0890E226EFE0E236EBC0E246E15
:1014A800FF0E256E22EC11F01200B70E146E000E1E
:1014B800156EED0E166EFF0E176E46EC18F01450F2
:1014C8001510D8A418D0DF0E226EFD0E236E37EC4F
:1014D8001BF00001DF6FDF51246E256A22EC11F04A
:1014E800890E226EFE0E236EED0E246EFF0E256E03
:1014F80022EC11F01200B70E146E000E156EF10EEC
:10150800166EFF0E176E46EC18F014501510D8A47E
:1015180018D0DF0E226EFD0E236E30EC1BF000019A
:10152800DF6FDF51246E256A22EC11F0890E226EDE
:10153800FE0E236EF10E246EFF0E256E22EC11F0C6
:101548001200B70E146E000E156EDE0E166EFF0E2C
:10155800176E46EC18F014501510D8A411D080C09E
:1015680034F000018151BCEC12F0890E226EFE0E9F
:10157800236EDE0E246EFF0E256E22EC11F0120093
:10158800B70E146E000E156EC20E166EFF0E176E95
:1015980046EC18F014501510D8A439D029EC1BF0DB
:1015A8000009D8B41CD00E0E226EFF0E236E29EC53
:1015B8001BF00001DF6FDF51246E256A1BEC1BF066
:1015C8000001E06FE051266E276A22EC1BF0000153
:1015D800E16FE151286E296A22EC11F00DD0DF0E7F
:1015E800226EFD0E236E29EC1BF00001DF6FDF5128
:1015F800246E256A22EC11F0890E226EFE0E236EEF
:10160800C20E246EFF0E256E22EC11F01200B70EEA
:10161800146E000E156ECE0E166EFF0E176E46EC8B
:1016280018F014501510D8A40BD0890E226EFE0E97
:10163800236ECE0E246EFF0E256E22EC11F01200E2
:10164800B70E146E000E156E8A0E166EFF0E176E0C
:1016580046EC18F014501510D8A40BD0890E226E41
:10166800FE0E236E8A0E246EFF0E256E22EC11F0FC
:101678001200B70E146E000E156EAE0E166EFF0E2B
:10168800176E46EC18F014501510D8A40BD0890E1C
:10169800226EFE0E236EAE0E246EFF0E256E22EC19
:1016A80011F01200B70E146E000E156EB50E166E00
:1016B800FF0E176E46EC18F014501510D8A412003F
:1016C8000001AC05D8A427D0B105D8A424D0B3050F
:1016D800D8A421D0830ED46F000ED56F0DEC0DF079
:1016E8000001E26FE205D8A40BD0A20E226EFF0E15
:1016F800236EC80E246EFF0E256E22EC11F0120028
:10170800890E226EFE0E236EB50E246EFF0E256E18
:1017180022EC11F012000001AC51D8A40BD0A00E9D
:10172800226EFF0E236E020E246EFF0E256E22EC33
:1017380011F012000001B151D8A40BD0A00E226EF6
:10174800FF0E236EEA0E246EFE0E256E22EC11F0BB
:1017580012000001B351D8A41200A00E226EFF0E91
:10176800236E6C0E246EFE0E256E22EC11F0120014
:101778000001C66F000E0001C96F000EC86F000E91
:10178800C76F000EC96F000EC86F34D1C651366ED0
:10179800376AC851361804E1C9513718D8B427D167
:1017A800C8C01CF0C9C01DF0000E1F6E370E1E6E9B
:1017B80041EC1AF0960E1C24D96E020E1D20DA6E2A
:1017C800DE50DE10D8B413D1C8C01CF0C9C01DF05B
:1017D800000E1F6E370E1E6E41EC1AF02D0E1C26E1
:1017E800000E1D22960E1C24D96E020E1D20DA6EE4
:1017F800DF507F0B366E3650345CD8A044D0C8C05A
:101808001CF0C9C01DF0000E1F6E370E1E6E41EC95
:101818001AF0300E1C26000E1D22960E1C24D96EBE
:10182800020E1D20DA6EDF507F0B366E3450365CA8
:10183800D8A029D0C8C01CF0C9C01DF0000E1F6E6A
:10184800370E1E6E41EC1AF0960E1C24D96E020E4D
:101858001D20DA6E3B50020D500EF324E16E010E8E
:10186800F420E26EDECFE6FFDDCFE5FF3B2A000184
:10187800C84BC92B720E226EFD0E236E22EC11F09E
:10188800010E00015BD0C8C01CF0C9C01DF0000EDD
:101898001F6E370E1E6E41EC1AF02D0E1C26000E20
:1018A8001D22960E1C24D96E020E1D20DA6EDF5002
:1018B8007F0B366E3650355CD8A042D0C8C01CF0BD
:1018C800C9C01DF0000E1F6E370E1E6E41EC1AF0D7
:1018D800300E1C26000E1D22960E1C24D96E020EF8
:1018E8001D20DA6EDF507F0B366E3550365CD8A07F
:1018F80027D0C8C01CF0C9C01DF0000E1F6E370EDF
:101908001E6E41EC1AF0960E1C24D96E020E1D2094
:10191800DA6E3B50020D500EF324E16E010EF420F6
:10192800E26EDECFE6FFDDCFE5FF3B2A580E226EE2
:10193800FD0E236E22EC11F056D0010EC76F5AD05F
:10194800C8C01CF0C9C01DF0000E1F6E370E1E6EF9
:1019580041EC1AF02D0E1C26000E1D22960E1C249A
:10196800D96E020E1D20DA6EDF507F0B366E3450B2
:10197800365CD8A03CD0C8C01CF0C9C01DF0000E11
:101988001F6E370E1E6E41EC1AF0300E1C26000E2C
:101998001D22960E1C24D96E020E1D20DA6EDF5011
:1019A8007F0B366E3650355CD8A021D0C8C01CF0ED
:1019B800C9C01DF0000E1F6E370E1E6E41EC1AF0E6
:1019C800960E1C24D96E020E1D20DA6E3B50020DB5
:1019D800500EF324E16E010EF420E26EDECFE6FF36
:1019E800DDCFE5FF3B2A0001C84BC92BA6D7000174
:1019F800C84BC92B4850366E376A3650C85DC95136
:101A0800800A386E3750800A3858D8A0BFD6C751D8
:101A18001200000E0001DE6F000EDD6FDA69500E55
:101A2800286E010E296EFF0E2B6E2A68000E2D6E91
:101A3800280E2C6E00EC1AF0000E3B6E000120EE12
:101A48002BF0D451D926D551DA22DF50D66F20EEAB
:101A58002AF0D451D926D551DA22DF504602F35064
:101A6800D625DB6F20EE2DF0D451D926D551DA22B8
:101A7800DF50D66F20EE2CF0D451D926D551DA227A
:101A8800DF504602F350D625DC6FE10E226EFC0EC5
:101A9800236ED4C0D9FFD5C0DAFFDF50D66FD65138
:101AA800246E256ADBC026F0276ADCC028F0296A84
:101AB80022EC11F048503C5CD8B0D1D0000E0001A7
:101AC800DE6F000EDD6F9BD0DDC01CF0DEC01DF0A8
:101AD800000E1F6E370E1E6E41EC1AF0960E1C2477
:101AE800D96E020E1D20DA6ED4C0E1FFD5C0E2FF28
:101AF800E7500001D86FD96BDE50D8192DE1DE50C0
:101B0800D919D8A429D0DDC0DAF0DDC01CF0DEC0B8
:101B18001DF0000E1F6E370E1E6E41EC1AF0960E69
:101B28001C24D96E020E1D20DA6E3B50020D500E99
:101B3800F324E16E010EF420E26EDECFE6FFDDCF86
:101B4800E5FF3B2ADBC034F0DCC035F00001DA5198
:101B5800BCEC0BF0010E1200DBC034F0DCC035F039
:101B68000001DA51BCEC0BF0E806D8A445D05C0EB5
:101B7800226EFE0E236E22EC11F0000E0001DE6FC5
:101B8800000EDD6F24D0D890DD35D96EDE35DA6EE3
:101B9800500ED926010EDA22DE2803E1DE28D8B459
:101BA80013D0E30E226EFF0E236ED890DD35D96E6A
:101BB800DE35DA6E500ED926010EDA22DECF24F099
:101BC800DDCF25F022EC11F00001DD4BDE2B485073
:101BD800D66FD76BD651DD5DDE51800AD86FD751ED
:101BE800800AD859D8A0CFD79F0E226EFE0E236E3A
:101BF80022EC11F0010E12000001DD4BDE2B4850E3
:101C0800D66FD76BD651DD5DDE51800AD86FD751BC
:101C1800800AD859D8A058D73C50370D960EF324CF
:101C2800286E020EF420296E000E2B6E000E2A6E0E
:101C3800000E2D6E370E2C6E00EC1AF03C50370D4E
:101C4800960EF324346E020EF420356ED4C036F0AE
:101C5800D5C037F035EC0EF03C2A31EC10F0000E10
:101C6800120036C0D9FF37C0DAFFDF500001C66F57
:101C7800C76B34C0D9FF35C0DAFFC6C0DEFFC7C0A6
:101C8800DDFF020E3424146E000E3520156E010E91
:101C98003624166E000E3720176EE9EC19F0020E86
:101CA8003424226E000E3520236E4CEC19F020EE01
:101CB8002AF03450D9263550DA22DF502218800B0A
:101CC8002218DF6E20EE2AF03650D9263750DA2255
:101CD800DF500001C66F20EE2BF03450D926355066
:101CE800DA22DF50C619800BC619DF6E20EE2BF002
:101CF8003650D9263750DA22DF50C66F20EE2CF046
:101D08003450D9263550DA22DF50C619800BC6194F
:101D1800DF6E20EE2CF03650D9263750DA22DF500D
:101D2800C66F20EE2EF03450D9263550DA22DF5017
:101D3800C619800BC619DF6E20EE2DF03650D92655
:101D48003750DA22DF50C66F20EE2FF03450D926F4
:101D58003550DA22DF50C619800BC619DF6E20EE27
:101D68002CF03450D9263550DA22DF507F0BC66F5D
:101D780020EE2BF03450D9263550DA22DF507F0B75
:101D88004602F350C625C76F20EE2DF03450D926F1
:101D98003550DA22DF50C719800BC719DF6E20EEE5
:101DA8002FF03450D9263550DA22DF507F0BC66F1A
:101DB80020EE2EF03450D9263550DA22DF507F0B32
:101DC8004602F350C625C76F20EE30F03450D926AE
:101DD8003550DA22DF50C719800BC719DF6E20EEA5
:101DE8002FF03650D9263750DA22DF50C66F20EE52
:101DF80031F03450D9263550DA22DF50C619F80BA5
:101E0800C619DF6E20EE32F03450D9263550DA226A
:101E180010EE30F03450E1263550E222E7507F0BC7
:101E2800C66F10EE2DF03450E1263550E222E7500F
:101E38007F0B0008C625C76FC729DF6E3E0E226ECE
:101E4800FD0E236E20EE32F03450D9263550DA22BA
:101E5800DF50C66FC651246E256A22EC11F01200BD
:101E68003F50D8B4EED0000E0001E46F72D06FEC92
:101E78001BF00001E46F0A0EE419D8B404D00D0E6B
:101E8800E419D8A40DD0000E736F000E726F010E06
:101E98007F6F9F0E226EFE0E236E22EC11F05CD037
:101EA800080E0001E419D8A415D07207D8A073074A
:101EB800000E7225D96E020E7321DA6E000EDF6EE7
:101EC800F90E226EFF0E236EE4C024F0256A22EC80
:101ED80011F03FD0000E00017225D96E020E732159
:101EE800DA6EE4C0DFFFF90E226EFF0E236E000EDD
:101EF8007225D96E020E7321DA6EDF50E36FE3515B
:101F0800246E256A22EC11F0000E146E020E156E76
:101F1800D40E166EFF0E176E46EC18F014501510FE
:101F2800D8A414D0000E286E020E296E000E2B6E57
:101F3800000E2A6E000E2D6E960E2C6E00EC1AF016
:101F4800000E0001736F000E726F03D00001724B18
:101F5800732B3F50D8A48BD7000173BF72D0735135
:101F680004E1970E725DD8A06CD0F60E186EFE0EC6
:101F7800196EF8EC1AF0000E0001736F000E726F04
:101F880060D0B70E286E000E296E000E2B6E000E64
:101F98002A6E000E2D6E0F0E2C6E00EC1AF0000E3D
:101FA800286E020E296E000E2B6E000E2A6E000E91
:101FB8002D6E960E2C6E00EC1AF0000E0001826F4A
:101FC800BA0E186EFE0E196EF8EC1AF0010E00012A
:101FD8007E6F12007F05D8A41200000E7F6F000EDE
:101FE800C96F020ECA6F65EC00F00009D8A412D0C0
:101FF800000E286E020E296E000E2B6E000E2A6E41
:10200800000E2D6E960E2C6E00EC1AF0020E0001DA
:102018007E6F1200A20E226EFF0E236EC80E246E73
:10202800FF0E256E22EC11F0120000018205D8A4E3
:1020380005D01FEC0AF0000E0001826F010E7E6FC2
:10204800120000017E51000AD8B49BD7010AD8B407
:10205800C1D7030AD8A41200E8D7000E386E000EC4
:10206800376E000E386E000E376ED3D037C01CF0B6
:1020780038C01DF0000E1F6E370E1E6E41EC1AF0B0
:10208800020E1C26000E1D22960E1C24226E020E25
:102098001D20236E4CEC19F022502310D8B42CD0FC
:1020A80037C01CF038C01DF0000E1F6E370E1E6EB4
:1020B80041EC1AF0310E1C26000E1D22960E1C242F
:1020C800D96E020E1D20DA6EDF50070B020AD8A463
:1020D80013D037C01CF038C01DF0000E1F6E370E2D
:1020E8001E6E41EC1AF0960E1C24306E020E1D2056
:1020F800316E7BEC08F08BD037C01CF038C01DF077
:10210800000E1F6E370E1E6E41EC1AF0020E1C26D2
:10211800000E1D22960E1C24226E020E1D20236E18
:102128004CEC19F022502310D8B42CD037C01CF036
:1021380038C01DF0000E1F6E370E1E6E41EC1AF0EF
:10214800310E1C26000E1D22960E1C24D96E020E7E
:102158001D20DA6EDF50070BE806D8A413D037C06D
:102168001CF038C01DF0000E1F6E370E1E6E41ECBD
:102178001AF0960E1C24306E020E1D20316ECAEC29
:1021880006F045D037C01CF038C01DF0000E1F6E99
:10219800370E1E6E41EC1AF0020E1C26000E1D2290
:1021A800960E1C24226E020E1D20236E4CEC19F094
:1021B80022502310D8B42BD037C01CF038C01DF0E3
:1021C800000E1F6E370E1E6E41EC1AF0310E1C26E3
:1021D800000E1D22960E1C24D96E020E1D20DA6EEA
:1021E800DF50070B0009D8A412D037C01CF038C044
:1021F8001DF0000E1F6E370E1E6E41EC1AF0960E83
:102208001C24286E020E1D20296E0EEC12F0374A8F
:10221800382A48500001D16FD26BD151375C385001
:10222800800AD36FD251800AD359D8A01FD7000E85
:10223800776F010E766F33EC16F01200240E2F6EB6
:10224800000E306ED9D0250E3318D8B404D03350D0
:1022580061EC1BF0D1D0000E2B6E4DD02FC0D9FFF2
:1022680030C0DAFFDECF2DF0DDCF2EF0020E2F26A4
:10227800000E30222D502E10D8A41AD0920E2D6E9A
:10228800FF0E2E6E15D02DC0F6FF2EC0F7FF000EE4
:10229800F86E0F0EF76403D00800F55005D0F6CF9E
:1022A800E9FFF7CFEAFFEF5061EC1BF02D4A2E2A29
:1022B8002DC0F6FF2EC0F7FF000EF86E0F0EF76464
:1022C80003D00800F55005D0F6CFE9FFF7CFEAFFB5
:1022D800EF500009D8B490D0D6D72FC0D9FF30C05E
:1022E800DAFFDF50336E020E2F26000E30223350F5
:1022F80061EC1BF081D022C0F6FF23C0F7FF224A11
:10230800232AF86A0800F5CF33F03350000AD8B40E
:102318001200630AD8B4E1D7070AD8B407D00D0A67
:10232800D8B404D01A0AD8B499D7E1D72FC0D9FFA6
:1023380030C0DAFFDECF31F0DDCF32F0020E2F26CB
:10234800000E302232AE06D0030E2B12316C321E34
:10235800D8B0322A010E336E050E3318D8B415D012
:102368003350020DD70EF324F66EFC0EF420F76EF0
:10237800F86A000EF8220900F550315C0900F550A2
:102388003258D8A002D0332AE7D72BC02AF0030E40
:102398002A16D8B403D02D0E61EC1BF033C02CF0F4
:1023A80027D02C50020DD70EF324F66EFC0EF42025
:1023B800F76EF86A000EF8220900F5CF16F00A0049
:1023C800F5CF17F031C014F032C015F0A8EC17F0B3
:1023D80014C01BF015C01CF0000E1E6E0A0E1D6EF8
:1023E800AFEC18F01B50300F336E335061EC1BF01C
:1023F8002C062C28D8A4D5D722C0F6FF23C0F7FF77
:10240800224A232AF86A0800F5CF33F03350D8B4AB
:10241800120019D73068000E366E000E356E000EA9
:10242800346E000E336E000E2F6E000E2E6E20EEF0
:1024380030F02850D9262950DA22DF507F0B2A6E37
:1024480020EE2DF02850D9262950DA22DF507F0BB4
:1024580000082A24316E020E2824226E000E29203C
:10246800236E4CEC19F02250326E20EE2BF02850DF
:10247800D9262950DA22DF507F0B306E20EE2CF05F
:102488002850D9262950DA22DF507F0B2A6E2A508D
:10249800336E346A000E366E000E356E5BD0020E57
:1024A80035242A6E000E36202B6E2A502824D96E29
:1024B8002B502920DA6E3050140D000E2C6E010EB0
:1024C8002D6EF3502C26F4502D2233502C24E16E1F
:1024D80034502D20E26EDFCFE7FF354A362A3250DE
:1024E8002A6E2B6A2A50355C3650800A2C6E2B5087
:1024F800800A2C58D8B01CD031502A6E2B6A2A502A
:10250800355C3650800A2C6E2B50800A2C58D8B077
:102518000FD0334A342A46502A6E2B6A2A50335C2D
:102528003450800A2C6E2B50800A2C58D8A0B7D76C
:10253800000E346E000E336E302A31502A6E2B6A2C
:102548002A50355C3650800A2C6E2B50800A2C5845
:10255800D8B0120032502A6E2B6A2A50355C365099
:10256800800A2C6E2B50800A2C58D8B01200D3D772
:10257800356E48EC14F0000E3C6E960E286E020E76
:10258800296E000E2B6E000E2A6E040E2D6E4C0E58
:102598002C6E00EC1AF0500E286E010E296E000EFB
:1025A8002B6E000E2A6E000E2D6E280E2C6E00EC7F
:1025B8001AF0010E446E710E226EFF0E236E35C0A6
:1025C80024F0256A22EC11F035C045F0680E226E21
:1025D800FF0E236E34C024F0256A22EC11F034C0BB
:1025E80046F0080E226EFE0E236E000E176E040EC5
:1025F800166E34C014F0156AF1EC15F014C01CF016
:1026080015C01DF035C01EF01F6A41EC1AF01CC041
:1026180024F01DC025F022EC11F034C014F0156A26
:10262800000E176E040E166EF1EC15F014503502FC
:10263800F3CF48F04850410F476E2B0E226EFE0E26
:10264800236E47C024F0256A22EC11F0120002D054
:10265800224A232A22C0D9FF23C0DAFF200EDE181F
:10266800D8B4F6D722C0D9FF23C0DAFF090EDE1886
:10267800D8B4EED7000E286E000E276E000E266E18
:1026880022C0D9FF23C0DAFF2D0EDE18D8A402D04D
:10269800262A24D022C0D9FF23C0DAFF2B0EDE1849
:1026A800D8A41ED01BD027C01CF028C01DF0000ED7
:1026B8001F6E0A0E1E6E41EC1AF022C0D9FF23C00D
:1026C800DAFFDF50246E256A1C5024261D5025226F
:1026D800D00E2424276EFF0E2520286E224A232A96
:1026E80022C0D9FF23C0DAFFDF50A4EC1AF0D8B01B
:1026F800DAD72650D8B40DD027C024F028C025F04A
:10270800241E251E244A252A24C022F025C023F091
:10271800120027C022F028C023F01200D20E226E29
:10272800FE0E236E34C024F035C025F022EC11F0E3
:10273800000E0001C86F000EC76F000EC66F000EB6
:10274800C76F000EC66F1CD0C6513424D96EC7514E
:102758003520DA6EDF50A4EC1AF0D8A01200000180
:10276800C6513424D96EC7513520DA6EDF50386E21
:10277800C8510A0DF3503824D00FC86FC64BC72B69
:1027880034C022F035C023F04CEC19F0225000017F
:10279800C65D2350C759D8A0D7D7AE0E226EFE0EFD
:1027A800236EC8C024F0256A22EC11F045500001C0
:1027B800C85DD8A007D036C0D9FF37C0DAFFFF0EF2
:1027C800DF6E120036C0D9FF37C0DAFFC8C0DFFF9E
:1027D8001200C60E226EFE0E236E34C024F035C0E1
:1027E80025F022EC11F0000E0001C76F000EC66F35
:1027F800000EC86F000EC76F000EC66F1CD0C65102
:102808003424D96EC7513520DA6EDF50A4EC1AF0A3
:10281800D8A012000001C6513424D96EC751352002
:10282800DA6EDF50386EC8510A0DF3503824D00FD5
:10283800C86FC64BC72B34C022F035C023F04CEC10
:1028480019F022500001C65D2350C759D8A0D7D728
:10285800A20E226EFE0E236EC8C024F0256A22EC5A
:1028680011F046500001C85DD8A007D036C0D9FF86
:1028780037C0DAFFFF0EDF6E120036C0D9FF37C04F
:10288800DAFFC8C0DFFF1200440E286E000E296E62
:10289800000E2B6E000E2A6E000E2D6E050E2C6E8D
:1028A80000EC1AF0000E956E9250F009926E80902E
:1028B800000E156EFA0E146E8DEC18F0380ED1EC71
:1028C8001AF0000E156EFA0E146E8DEC18F00E0E3E
:1028D800D1EC1AF0000E156EFA0E146E8DEC18F08D
:1028E800010ED1EC1AF0000E156EFA0E146E8DEC76
:1028F80018F0060ED1EC1AF0000E156EFA0E146ED2
:102908008DEC18F00F0ED1EC1AF0000E156EFA0EC1
:10291800146E8DEC18F0000E286E010E296E000E54
:102928002B6E200E2A6E000E2D6E500E2C6E00ECB3
:102938001AF04FEC17F05CEC1BF012001F5020103F
:10294800D8A404D039C01FF03AC020F01F5020107E
:10295800D8A405D0000E1F6E000E206E12001FC0F6
:1029680018F020C019F021C01AF022C01BF0D1ECD9
:1029780017F018501F26195020221FC0D9FF20C059
:10298800DAFFDF50D8A409D0000E396E000E3A6E77
:1029980039C01FF03AC020F012001FC018F020C044
:1029A80019F021C01AF022C01BF0F9EC17F01850EA
:1029B8001F24396E195020203A6E39C0D9FF3AC009
:1029C800DAFFDF50D8B409D039C0D9FF3AC0DAFFEE
:1029D800000EDF6E394A3A2A04D0000E396E000E16
:1029E8003A6E1FC01FF020C020F01200000E000138
:1029F800C86F000EC76F000EC66F000EC76F000EBF
:102A0800C66F20D0C6513424D96EC7513520DA6E2E
:102A1800DF50A4EC1AF0D8A010D00001C65134241D
:102A2800D96EC7513520DA6EDF50386EC8510A0D9D
:102A3800F3503824D00FC86F02D0000E12000001E6
:102A4800C64BC72B34C022F035C023F04CEC19F02C
:102A580022500001C65D2350C759D8A0D3D71A0EFB
:102A6800226EFE0E236EC8C024F0256A22EC11F0F7
:102A780045500001C85DD8A008D036C0D9FF37C07E
:102A8800DAFFFF0EDF6E000E120036C0D9FF37C026
:102A9800DAFFC8C0DFFF010E1200000E0001C66F8A
:102AA800000EC86F000EC76F000EC86F000EC76F0C
:102AB80026D0C7513424D96EC8513520DA6EDF507C
:102AC800A4EC1AF0D8A010D00001C7513424D96E54
:102AD800C8513520DA6EDF50386EC6510A0DF350F2
:102AE8003824D00FC66F08D036C0D9FF37C0DAFFF8
:102AF800000EDF6E000E12000001C74BC82B34C059
:102B080022F035C023F04CEC19F022500001C75DCB
:102B18002350C859D8A0CDD7F60E226EFD0E236ECD
:102B2800C6C024F0256A22EC11F036C0D9FF37C0A0
:102B3800DAFFC6C0DFFF010E1200000E0001C66FEB
:102B4800000EC86F000EC76F000EC86F000EC76F6B
:102B580026D0C7513424D96EC8513520DA6EDF50DB
:102B6800A4EC1AF0D8A010D00001C7513424D96EB3
:102B7800C8513520DA6EDF50386EC6510A0DF35051
:102B88003824D00FC66F08D036C0D9FF37C0DAFF57
:102B9800010EDF6E000E12000001C74BC82B34C0B7
:102BA80022F035C023F04CEC19F022500001C75D2B
:102BB8002350C859D8A0CDD7BE0E226EFD0E236E65
:102BC800C6C024F0256A22EC11F036C0D9FF37C000
:102BD800DAFFC6C0DFFF010E1200000E196E17AE35
:102BE80006D0166C171ED8B0172A010E196E15AE2E
:102BF80006D0146C151ED8B0152A010E191A000E2D
:102C08001B6E000E1A6E16501710D8B41CD0010E89
:102C1800186E04D0D89016361736182A17AEFAD779
:102C2800D8901A361B361650145C17501558D8A071
:102C380005D01650145E1750155A1A80D8901732BE
:102C48001632182EEDD71950D8B404D01A6C1B1EA2
:102C5800D8B01B2A1AC014F01BC015F012000001CE
:102C680076057711D8A437D0010ED1EC1AF06BECA9
:102C78001BF0000E1C6E800EEDEC1AF0000E1C6EA0
:102C8800010E1D6E2FEC19F0000E1C6EC00EEDEC3F
:102C98001AF0140E1C6E010E1D6E2FEC19F0000EAA
:102CA8001C6E940EEDEC1AF0280E1C6E010E1D6EB3
:102CB8002FEC19F0000E1C6ED40EEDEC1AF03C0E41
:102CC8001C6E010E1D6E2FEC19F0000E0001776FBF
:102CD800000E766F1200000E776F000E766F1200EE
:102CE800040EF66E360EF76E000EF86E00EEE5F086
:102CF80010EE11F00900F5CFEEFFE550E150FAE1D2
:102D0800060EF66E370EF76E000EF86E0900F5CF58
:102D18004BF002EE96F014EE4CF0EE6AE550E150FE
:102D2800FCE1E250FAE102EE00F0960EEE6AE806E7
:102D3800FDE101EE00F0A00EEE6AE806FDE100EE0E
:102D480060F0660EEE6AE806FDE100EE39F0100E5E
:102D5800EE6AE806FDE14C904C9200017CEF17F01A
:102D6800000E00017E6F2CEC1AF0000E0001826F3D
:102D7800000E816F000E806F000E7F6FB70E286EF9
:102D8800000E296E000E2B6E000E2A6E000E2D6EA0
:102D98000F0E2C6E00EC1AF0780E286E010E296EBC
:102DA800000E2B6E000E2A6E000E2D6E280E2C6E55
:102DB80000EC1AF0000E286E020E296E000E2B6E23
:102DC800000E2A6E000E2D6E960E2C6E00EC1AF078
:102DD800120030C022F031C023F04CEC19F023501F
:102DE80029E1280E225CD8B025D032C014F033C0B7
:102DF80015F030C016F031C017F0E9EC19F0010EEB
:102E08000001826F010EAC6F30C028F031C029F08C
:102E1800000E2B6E000E2A6E30C022F031C023F057
:102E28004CEC19F022C02CF023C02DF000EC1AF065
:102E3800010E1200000E120014C01AF015C01BF08B
:102E480014D01806D8A0190616C0D9FF17C0DAFF83
:102E5800164A172A1AC0E1FF1BC0E2FF1A4A1B2AAA
:102E6800DFCFE7FFE750D8B40DD018501910D8B409
:102E780009D0E7D71AC0D9FF1BC0DAFF000EDF6EF2
:102E88001A4A1B2A1806D8A019061828F3E1192887
:102E9800D8B41200EFD7000E286E010E296E000E6E
:102EA8002B6E200E2A6E000E2D6E500E2C6E00EC2E
:102EB8001AF0D10E226EFD0E236E000E256E0D0E39
:102EC800246E22EC11F0000E146E010E156EE90E40
:102ED800166E000E176E000E196E0D0E186E6BEC46
:102EE80018F0000E1C6E010E1D6E2FEC19F012006A
:102EF800B3EC1AF072EC1BF078EC1BF07AEC1BF0D8
:102F0800A20E146E360E156E66EC1BF0F28EF28C65
:102F1800B4EC16F0030E156EE80E146E8DEC18F076
:102F2800E40E226EFD0E236E22EC11F07EEC1BF0F7
:102F380034EC0FF000017D05D8A4FAD731EC10F07D
:102F4800000E00017D6FF4D7000E1A6E000E196E88
:102F580016501710D8B41CD0010E186E04D0D89093
:102F680016361736182A17AEFAD7D89019361A36E1
:102F78001650145C17501558D8A005D01650145E7A
:102F88001750155A1980D89017321632182EEDD7C7
:102F980019C014F01AC015F01200000E1E6E000EB3
:102FA8001D6E04D0184A192A1D4A1E2A18C0D9FFB6
:102FB80019C0DAFFDF50D8B413D01AC014F01BC000
:102FC80015F018C0D9FF19C0DAFFDF501C6E1C506D
:102FD800166E176AF1EC18F014501510D8A4E2D741
:102FE8001DC018F01EC019F01200000E1E6E000E53
:102FF8001D6E04D0184A192A1D4A1E2A18C0D9FF66
:1030080019C0DAFFDF50D8B413D01AC014F01BC0AF
:1030180015F018C0D9FF19C0DAFFDF501C6E1C501C
:10302800166E176AF1EC18F014501510D8B4E2D7E0
:103038001DC018F01EC019F01200000E186E000E08
:10304800176E000E186E000E176E11D0000E1A6E55
:10305800000E196E1ABE06D05E0E195C010E1A58C3
:10306800D8B003D0194A1A2AF5D7174A182A145083
:10307800175C1850800A166E1550800A1658D8B07A
:103088001200E4D704D0144A152A164A172A14C085
:10309800D9FF15C0DAFFDF50186E16C0F6FF17C04B
:1030A800F7FFF86A0800F55000081824196E19503F
:1030B800D8A407D014C0D9FF15C0DAFFDF50D8A4B0
:1030C800E2D71950146E156A14BE1506120016C000
:1030D8001CF017C01DF014C01AF015C01BF010D05A
:1030E8001CC0D9FF1DC0DAFFDF501E6E1C4A1D2A06
:1030F8001AC0D9FF1BC0DAFF1EC0DFFF1A4A1B2AFD
:103108001806D8A019061828EBE11928D8B4120017
:10311800E7D7000E186E000E176E000E186E000E20
:10312800176E0ED045EC1BF07CEC1BF04BEC1BF043
:103138000009D8B4FBD778EC1BF09E90174A182AE0
:103148001450175C1850800A166E1550800A1658CD
:10315800D8B01200E7D71D501E10D8B418D0010EF1
:103168001F6E04D0D8901D361E361F2A1EAEFAD701
:103178001D501B5C1E501C58D8A004D01D501B5E4F
:103188001E501C5AD8901E321D321F2EF1D71BC05C
:103198001BF01CC01CF01200000E8D6E000E8C6E11
:1031A800000E896E000E8A6E000E8B6E030E966EF0
:1031B800F80E926E9368BF0E946E000E956E3C0EDC
:1031C8000F013A6F3F0E396F000E3B6F030E3C6FD5
:1031D800280E386F6168F19E120014C0F6FF15C002
:1031E800F7FFF86A0800F5501618D8A405D014C0DF
:1031F80014F015C015F0120014C0F6FF15C0F7FF43
:10320800144A152AF86A0800F5500009D8A4E5D729
:10321800000E146E000E156E1200146E0001FC51A3
:10322800D8B4FCD79DB803D014C0ADFF12D09D9878
:103238004350010D680EF324D96E000EF420DA6EA7
:1032480014C0DFFF432A070E436402D0000E436E0A
:10325800FC079D881200000E1E6E15D01CC0D9FFF9
:103268001DC0DAFFDF50D8B40AD01CC0D9FF1DC07A
:10327800DAFFDF50DFEC1AF01C4A1D2A03D0200EBB
:10328800DFEC1AF01E2A46501E5CD8B01200E6D7B2
:1032980022C026F023C027F002D0264A272A26C0BB
:1032A800D9FF27C0DAFFDF50D8A4F7D722C024F00F
:1032B80023C025F0241E251E244A252A265024240E
:1032C800226E27502520236E1200170ED56EC20ECF
:1032D800D76EF60ED66ED650D7CF16F0176A16C030
:1032E80017F0166A1610496E17504A6EF294F28A51
:1032F800040E146E370E156E66EC1BF07EEC1BF098
:1033080012009D9A9D98080EB86E900EAB6E240E12
:10331800AC6EA00EAF6E010EB06E000E436E000EC6
:10332800426E080E0001FC6F000E416E000E406EEA
:10333800000E3F6E9D8A1200000E146E3F50D8B4E6
:10334800FDD74050010D600EF324D96E000EF42015
:10335800DA6EDF50146E402A070E406402D0000E69
:10336800406E9D9A3F069D8A14501200080E000177
:10337800FC6112D04250010D680EF324D96E000E84
:10338800F420DA6EDF50AD6E422A070E426402D096
:10339800000E426EFC2B12009D9812000BD016C036
:1033A800F6FF17C0F7FFF86A0800F55061EC1BF04C
:1033B800164A172A16C0F6FF17C0F7FFF86A080062
:1033C800F5500009D8B41200EAD714C018F015C097
:1033D80019F004D0184A192A164A172A16C0D9FF14
:1033E80017C0DAFF18C0E1FF19C0E2FFDFCFE7FF1F
:1033F800E750D8B41200EED728C02EF029C02FF01D
:1034080008D02EC0D9FF2FC0DAFF2AC0DFFF2E4A0E
:103418002F2A2C06D8A02D062C28F3E12D28D8B465
:103428001200EFD7ABA202D0AB98AB884150010D88
:10343800600EF324D96E000EF420DA6EAECFDFFFF3
:10344800412A070E416402D0000E416E3F2A120045
:10345800830E286E000E296E000E2B6E000E2A6E4B
:10346800000E2D6E340E2C6E00EC1AF00001B269BD
:10347800AE69B069AF69AF6912001C501E02F3CF84
:1034880020F0F4CF21F01C501F02F35021261D50CC
:103498001E02F350212620C01CF021C01DF012008E
:1034A800000E286E010E296E000E2B6E200E2A6E5D
:1034B800000E2D6E500E2C6E00EC1AF00BEC1BF06B
:1034C8001200120E0F014E6F000E4D6F5069EC0E78
:1034D8004F6F4FCFFAF050CFFBF07E9275EC1BF098
:1034E8001200320ECD6E000ECC6EFE0ECF6E0C0E9C
:1034F800CE6ECECFF8F0CFCFF9F09E907CEC1BF0DB
:1035080012000001F651F711D8B4120001D81200C8
:103518000500FA6EF651FD6EF751FE6EFF6AFA501D
:103528001200960E286E020E296E000E2B6E000EEB
:103538002A6E040E2D6E4C0E2C6E00EC1AF0120042
:10354800166E000E156E3A0E166005D02F0E166414
:1035580002D0010E156E15C014F01430120080EC64
:103568001BF0D0EC18F03EEC1BF065EC1AF075EC93
:103578001AF069EC19F085EC19F012008DA402D04C
:10358800010E01D0000EFF0A016E014601468D5062
:103598000118FB0B01188D6E12001B6E1BC083FFF8
:1035A800809480928080000E156E010E146E21ECBE
:1035B80018F0809012001B6E808480921BC083FFDD
:1035C8008080000E156E010E146E21EC18F08090AC
:1035D80012001D6E140E1C6402D0000E1C6E1C50CE
:1035E8001D24D1EC1AF0120018C016F019C017F0FB
:1035F800D2EC19F00A0E61EC1BF012000100000079
:0D360800494E49545F535543434553530009
:10361600000E0001756F000E746F95EC1AF0120023
:10362600F2944A50D76E49C0D6FF85EC1AF01200C4
:103636004450D8A402D0000E1200410E120044508D
:10364600D8A402D0000E1200470412004450D8A499
:1036560002D0000E1200485012004450D8A402D0E6
:10366600000E1200455012004450D8A402D0000E9D
:10367600120046501200700ED36E040ED26E800EEB
:103686009B6E12000001F951CF6EF8C0CEFF1200FA
:103696009EA002D0010E1200000E1200C2EC1AF01B
:1036A600010E00017D6F1200E80E146EFF0E156EFE
:1036B600120054EC1AF00BEC1BF01200156E1550AC
:1036C60011EC19F0120014C0F6F015C0F7F0120054
:1036D600060ED1EC1AF01200A0EC19F012000F0140
:1036E6004E9112000F014E811200CD901200D59E10
:1036F6001200CD801200D58E1200D09E120012004C
:013706004181
:10FCD6000001000A006400E8031027554944203D4E
:10FCE6002025632C2073746172745F7074203D202C
:10FCF60025642C20656E645F7074203D2025640D9C
:10FD06000A00636D645F646174612E73746172745A
:10FD16005F636F6C203D2025642C0D0A00636D64C3
:10FD26005F646174612E73746172745F726F7720A1
:10FD36003D2025642C0D0A00646973706C61795F3F
:10FD4600636861725F636F756E74203D2025640D74
:10FD56000A0065785F7370203C3D206E65775F65AD
:10FD660070203C3D65785F65700D0A0065785F73AD
:10FD760070203C3D206E65775F7370203C3D657852
:10FD86005F65700D0A00636D645F646174612E6562
:10FD96006E645F636F6C203D2025642C0D0A006342
:10FDA6006D645F646174612E656E645F726F772047
:10FDB6003D2025642C0D0A00646973706C61795FBF
:10FDC600667271203D2025640D0A0073697A656F9D
:10FDD600662873747229203D2025640D0A00496E39
:10FDE60069745F636F6D706C6574652E2E0D0A0005
:10FDF6006F7665725F7772697465203D2025640DA4
:10FE06000A00737472696E675F636F756E74203D66
:10FE160020256400646972656374696F6E203D20F5
:10FE260025640D0A007569645F72616E6765203D21
:10FE36002025640D0A006D69645F63686172203D68
:10FE46002025640D0A0025732C207374726C656E70
:10FE56002025640D0A00636F6E666C6963743A2030
:10FE66007569640D0A004552525F5343524F4C4C1C
:10FE76005F534554007363726F6C6C203D2025649C
:10FE86002C20000D0A25732E2E2C204F4B0D0A0018
:10FE9600756964203D2025642C0D0A00436F6C3281
:10FEA600203D2025640D0A00726F7732203D202503
:10FEB600640D0A00496E69745F446F6E650D0A0031
:10FEC600636F6C31203D2025730D0A00726F773108
:10FED600203D2025730D0A0074656D70203D202598
:10FEE600732C20004552525F524F575F434F4C00D0
:10FEF6004552525F434D445F4C454E004552525F5A
:10FF06005354525F5345540025642C25632D2563B5
:10FF16000D0A00636F6C203D2025730D0A00737473
:10FF260072203D2025730D0A00756964203D202549
:10FF3600642C2000646174613D25730D0A002573ED
:10FF46002E2E2E340D0A0025732E2E2E350D0A0068
:10FF560025732E2E2E360D0A00434D443D25730D76
:10FF66000A00636F6C203D20256400726F77203D88
:10FF7600202564002E2E2E2E2E0D0A0025732E2EE1
:10FF8600320D0A0053445343524F4C00286E756C91
:10FF96006C290025732E2E0D0A000D0A25730D0AF5
:10FFA600002D272C202F3D00534453455243005526
:10FFB6005044415445004C4344533F00474D44533D
:10FFC6003F004552524F52005344535452004B4C3B
:10FFD6004D2B0053535452004C4344530025632C7D
:10FFE6002000342C3230004D433F004D523F004B31
:09FFF6004C4D002563002C0000B5
:020000040020DA
:08000000FFFFFFFFFFFFFFFF00
:020000040030CA
:0E000000FF381F3CFFBF85FF0FC00FE00F4011
:00000001FF
