:0400000053EF00F0CA
:100008005082FACF02F0FBCF03F0E9CF04F0EACF39
:1000180005F0E1CF06F0E2CF07F0D9CF08F0DACF4C
:1000280009F0F3CF0AF0F4CF0BF0F6CF0CF0F7CFCE
:100038000DF0F8CF0EF0F5CF0FF0F2BAF2A403D01E
:100048006AEC1BF00ED0F2BC9DA805D09EA803D088
:100058002EEC1AF006D0F2BC9DAA03D09EBA74EC1E
:100068001AF00FC0F5FF0EC0F8FF0DC0F7FF0CC067
:10007800F6FF0BC0F4FF0AC0F3FF09C0DAFF08C09F
:10008800D9FF07C0E2FF06C0E1FF05C0EAFF04C0D0
:10009800E9FF03C0FBFF02C0FAFF509211004EEFC8
:1000A80017F0AC0E246EFF0E256EDAC026F0DBC00A
:1000B80027F00FEC0FF0DAC0E8F0DBC0E9F0E8C099
:1000C8002DF0E9C02EF0B40E2F6EFF0E306E05EC49
:1000D80016F02DC0EAF02EC0EBF00001EA51000145
:1000E800EB11D8B438D0E8C01DF0E9C01EF0E10E1D
:1000F8001F6EFF0E206E4CEC15F01DC0EAF01EC0FE
:10010800EBF00001EA510001EB11D8B431EF06F031
:10011800CB0E106E000E116EEAC012F0EBC013F099
:100128001FEC19F0010E0001846FDAC024F0DBC067
:1001380025F0000E276E000E266EDAC01EF0DBC01A
:100148001FF00DEC18F01EC028F01FC029F05EEC5F
:100158001AF0000E1200E8C02DF0E9C02EF0BC0E17
:100168002F6EFF0E306E05EC16F02DC0EAF02EC093
:10017800EBF00001EA510001EB11D8B437D0E8C028
:100188001DF0E9C01EF0E10E1F6EFF0E206E4CEC54
:1001980015F01DC0EAF01EC0EBF00001EA510001A5
:1001A800EB11D8B431EF06F0CB0E106E000E116EC5
:1001B800EAC012F0EBC013F01FEC19F0010E0001B9
:1001C800846FDAC024F0DBC025F0000E276E000E25
:1001D800266EDAC01EF0DBC01FF00DEC18F01EC052
:1001E80028F01FC029F05EEC1AF0B3D7E8C02DF054
:1001F800E9C02EF0500E2F6EFF0E306E05EC16F093
:100208002D502E10D8B402D0010E01D0000E0001DE
:10021800EA6FEB6B0001EA510001EB11D8B43DD055
:10022800E8C01DF0E9C01EF0E10E1F6EFF0E206E43
:100238004CEC15F01DC0EAF01EC0EBF00001EA51CD
:100248000001EB11D8B431EF06F0CB0E106E000EA2
:10025800116EEAC012F0EBC013F01FEC19F0010E9A
:100268000001846FDAC024F0DBC025F0000E276E91
:10027800000E266EDAC01EF0DBC01FF00DEC18F081
:100288001EC028F01FC029F05EEC1AF0A40E246EE0
:10029800FF0E256E0FEC0FF05CD7E8C02DF0E9C01B
:1002A8002EF0890E2F6EFF0E306E05EC16F02DC065
:1002B800EAF02EC0EBF00001EA510001EB11D8B4CE
:1002C80093D0E8C01DF0E9C01EF0E10E1F6EFF0ECE
:1002D800206E4CEC15F01DC0EAF01EC0EBF00001DA
:1002E800EA510001EB11D8B431EF06F0CB0E106ED5
:1002F800000E116EEAC012F0EBC013F01FEC19F0FB
:10030800000E1D6E000E1E6EE10E1F6EFF0E206E9B
:100318004CEC15F01DC0EAF01EC0EBF0D30E246EB5
:10032800FF0E256EEAC026F0EBC027F00FEC0FF0A9
:10033800000E0001E16F000E0001E26F0001EA51BA
:100348000001EB11D8B431EF06F0EAC01EF0EBC0A3
:100358001FF059EC13F01E500001E16F0001E1514C
:100368000001D8B431EF06F0000E1D6E000E1E6EAF
:10037800E10E1F6EFF0E206E4CEC15F01DC0EAF06A
:100388001EC0EBF00001EA510001EB11D8B431EFC7
:1003980006F0EAC01EF0EBC01FF059EC13F01E5037
:1003A8000001E26F0001E2510001D8B431EF06F01C
:1003B800E2C080F0E1C081F0010E0001846FDAC074
:1003C80024F0DBC025F0000E276E000E266EDAC082
:1003D8001EF0DBC01FF00DEC18F01EC028F01FC087
:1003E80029F05EEC1AF0B5D6E8C02DF0E9C02EF081
:1003F8005A0E2F6EFF0E306E05EC16F02DC0EAF087
:100408002EC0EBF00001EA510001EB11D8B437D04F
:10041800E8C01DF0E9C01EF0E10E1F6EFF0E206E51
:100428004CEC15F01DC0EAF01EC0EBF00001EA51DB
:100438000001EB11D8B431EF06F0CB0E106E000EB0
:10044800116EEAC012F0EBC013F01FEC19F0010EA8
:100458000001846FDAC024F0DBC025F0000E276E9F
:10046800000E266EDAC01EF0DBC01FF00DEC18F08F
:100478001EC028F01FC029F05EEC1AF06AD6E8C04A
:100488002DF0E9C02EF0640E2F6EFF0E306E05ECD5
:1004980016F02DC0EAF02EC0EBF00001EA51000181
:1004A800EB11D8B4CED04904D8A4D7D3000E00019C
:1004B800AF6FE8C01DF0E9C01EF0E10E1F6EFF0E21
:1004C800206E4CEC15F01DC0EAF01EC0EBF00001E8
:1004D800EA510001EB11D8B4C0D3BC0E246EFE0E55
:1004E800256EEAC026F0EBC027F00FEC0FF0CB0E1C
:1004F800106E000E116EEAC012F0EBC013F01FEC84
:1005080019F0000E0001E46F00018669000E1D6EEF
:10051800000E1E6EE10E1F6EFF0E206E4CEC15F0E5
:100528001DC0EAF01EC0EBF00001EA510001EB111A
:10053800D8B493D3BC0E246EFE0E256EEAC026F006
:10054800EBC027F00FEC0FF0000E0001DF6FEAC0E0
:10055800F6FFEBC0F7FF000EF86E0F0EF76403D03E
:100568000800F55005D0F6CFE9FFF7CFEAFFEF50C6
:100578000001E46F400E0001E46561D04C500001B9
:10058800E45DD8B05CD02F0E246EFF0E256EE4C05B
:1005980026F0276A0FEC0FF0E4C086F0000E1D6EFF
:1005A800000E1E6EE10E1F6EFF0E206E4CEC15F055
:1005B8001DC0EAF01EC0EBF00001EA510001EB118A
:1005C800D8B44BD3240E246EFF0E256EEAC026F055
:1005D800EBC027F00FEC0FF0EAC01EF0EBC01FF0E5
:1005E8000DEC18F01F5029E1280E1E5CD8B025D05C
:1005F800870E106E000E116EEAC012F0EBC013F0F9
:100608001FEC19F0010E0001846F010E0001AF6F9D
:10061800DAC024F0DBC025F0000E276E000E266E2F
:10062800DAC01EF0DBC01FF00DEC18F01EC028F079
:100638001FC029F05EEC1AF08CD5020E1200070ECE
:100648001200E8C02DF0E9C02EF0D40E2F6EFE0E79
:10065800306E05EC16F02DC0EAF02EC0EBF000016C
:10066800EA510001EB11D8B435D16E0E246EFF0E9D
:10067800256EEAC026F0EBC027F00FEC0FF0490416
:10068800D8A4EBD2000E0001B66FE8C01DF0E9C097
:100698001EF0E10E1F6EFF0E206E4CEC15F01DC013
:1006A800EAF01EC0EBF00001EA510001EB11D8B4EA
:1006B800D4D2CB0E106E000E116EEAC012F0EBC051
:1006C80013F01FEC19F0000E0001E56F000E000199
:1006D800E66F000E1D6E000E1E6EE10E1F6EFF0E01
:1006E800206E4CEC15F01DC0EAF01EC0EBF00001C6
:1006F800EA510001EB11D8B4B0D2770E246EFF0E88
:10070800256EEAC026F0EBC027F00FEC0FF0000EC4
:100718000001E36FEAC0F6FFEBC0F7FF000EF86ECA
:100728000F0EF76403D00800F55005D0F6CFE9FFA7
:10073800F7CFEAFFEF500001E66F0001B569400E00
:100748000001E665C5D04C500001E65DD8B0C0D0C8
:100758002F0E246EFF0E256EE6C026F0276A0FECDA
:100768000FF00001E65100018619D8A476D2000ED8
:100778001D6E000E1E6EE10E1F6EFF0E206E4CECFD
:1007880015F01DC0EAF01EC0EBF00001EA510001AF
:10079800EB11D8B462D2800E246EFF0E256EEAC02B
:1007A80026F0EBC027F00FEC0FF0000E0001E36F0E
:1007B80050D00001E351010DEAC0DCF0EBC0DDF0E0
:1007C800F3500001DC27F4500001DD23DCC0F6FF04
:1007D800DDC0F7FF000EF86E0F0EF76403D00800B7
:1007E800F55005D0F6CFE9FFF7CFEAFFEF5004EC5C
:1007F8001BF0D8A02AD00001E351010DEAC0DCF0BB
:10080800EBC0DDF0F3500001DC27F4500001DD23DC
:10081800DCC0F6FFDDC0F7FF000EF86E0F0EF764C0
:1008280003D00800F55005D0F6CFE9FFF7CFEAFF6F
:10083800EF500001DE6F0001E5510A0DF350000191
:10084800DE25D00F0001E56F02D0000E1200000176
:10085800E32BEAC01EF0EBC01FF00DEC18F000010E
:10086800E3510001DC6FDD6B1E500001DC5D1F50A1
:100878000001DD59D8A09DD7030E0001E56126D0FF
:10088800890E246EFE0E256EE5C026F0276A0FEC51
:100898000FF0E5C0B5F0010E0001B66F010E0001C2
:1008A800846FDAC024F0DBC025F0000E276E000E3E
:1008B800266EDAC01EF0DBC01FF00DEC18F01EC06B
:1008C80028F01FC029F05EEC1AF043D4040E120081
:1008D800070E1200E8C02DF0E9C02EF03A0E2F6E78
:1008E800FF0E306E05EC16F02DC0EAF02EC0EBF0CE
:1008F8000001EA510001EB11D8B445D14904D8A44C
:10090800ACD1000E0001B46FE8C01DF0E9C01EF0C4
:10091800E10E1F6EFF0E206E4CEC15F01DC0EAF0C4
:100928001EC0EBF00001EA510001EB11D8B495D1DB
:10093800CB0E106E000E116EEAC012F0EBC013F071
:100948001FEC19F0000E1D6E000E1E6EE10E1F6EDC
:10095800FF0E206E4CEC15F01DC0EAF01EC0EBF047
:10096800000E0001E76F0001EA510001EB11D8B455
:1009780074D1000E0001E06FEAC0F6FFEBC0F7FF8C
:10098800000EF86E0F0EF76403D00800F55005D07E
:10099800F6CFE9FFF7CFEAFFEF500001E76F400E0F
:1009A8000001E765EED04C500001E75DD8B0E9D012
:1009B800A40E246EFE0E256EE7C026F0276A0FEC03
:1009C8000FF00001E75100018619D8A446D1000EA6
:1009D8001D6E000E1E6EE10E1F6EFF0E206E4CEC9B
:1009E80015F01DC0EAF01EC0EBF00001EA5100014D
:1009F800EB11D8B432D1EAC036F0EBC037F0B00E04
:100A0800386E000E396E77EC14F0680E246EFD0E09
:100A1800256EB0C026F0276A0FEC0FF00001B02950
:100A2800D8B4ADD0000E1D6E000E1E6EE10E1F6E06
:100A3800FF0E206E4CEC15F01DC0EAF01EC0EBF066
:100A48000001EA510001EB11D8B407D1EAC036F031
:100A5800EBC037F0B10E386E000E396EFBEC0FF0BC
:100A68004D0E246EFD0E256EB1C026F0276A0FECE0
:100A78000FF00001B029D8B480D0000E1D6E000E12
:100A88001E6EE10E1F6EFF0E206E4CEC15F01DC0A1
:100A9800EAF01EC0EBF00001EA510001EB11D8B4F6
:100AA800DCD0EAC036F0EBC037F0B20E386E000E7C
:100AB800396E77EC14F0B60E246EFD0E256EB2C0BA
:100AC80026F0276A0FEC0FF00001B229D8B453D0F2
:100AD800000E1D6E000E1E6EE10E1F6EFF0E206EC4
:100AE8004CEC15F01DC0EAF01EC0EBF00001EA5115
:100AF8000001EB11D8B4B1D0190E246EFF0E256E8B
:100B0800EAC026F0EBC027F00FEC0FF0EAC036F091
:100B1800EBC037F0B30E386E000E396EFBEC0FF0F9
:100B28009D0E246EFD0E256EB3C026F0276A0FECCD
:100B38000FF00001B229D8B41CD0010E0001B46F27
:100B4800010E0001846FDAC024F0DBC025F0000E2E
:100B5800276E000E266EDAC01EF0DBC01FF00DEC0B
:100B680018F01EC028F01FC029F05EEC1AF0ADEF97
:100B780000F0030E1200030E1200030E1200030E03
:100B88001200070E1200E8C02DF0E9C02EF0450E45
:100B98002F6EFF0E306E05EC16F02DC0EAF02EC059
:100BA800EBF00001EA510001EB11D8B41FD0CB0ED5
:100BB800106E000E116EEAC012F0EBC013F01FECBD
:100BC80019F0DAC024F0DBC025F0000E276E000E05
:100BD800266EDAC01EF0DBC01FF00DEC18F01EC048
:100BE80028F01FC029F05EEC1AF032D0E8C02DF0D2
:100BF800E9C02EF0F80E2F6EFF0E306E05EC16F0E1
:100C08002DC0EAF02EC0EBF00001EA510001EB1113
:100C1800D8B423D0CB0E106E000E116EEAC012F0BD
:100C2800EBC013F01FEC19F0DAC024F0DBC025F09C
:100C3800000E276E000E266EDAC01EF0DBC01FF015
:100C48000DEC18F01EC028F01FC029F05EEC1AF059
:100C5800010E0001846FADEF00F0DAC024F0DBC0B4
:100C680025F0000E276E000E266EDAC01EF0DBC0DF
:100C78001FF00DEC18F01EC028F01FC029F05EEC24
:100C88001AF0010E1200386820EE2AF03650D926E4
:100C98003750DA22DF507F0B0009D8A402D0000EAB
:100CA8000CD020EE2AF03650D9263750DA22DF5001
:100CB8007F0BE806D8A402D0010E386E20EE2AF089
:100CC8003650D9263750DA22DF507F0B020AD8A4D3
:100CD80002D0020E386E20EE2AF03650D926375050
:100CE800DA22DF507F0B030AD8A402D0030E386E35
:100CF8003850140D000E0001DA6F010E0001DB6F91
:100D0800F3500001DA27F4500001DB2320EE2BF02A
:100D18003650D9263750DA22DF507F0B0001DC6FBE
:100D28000001DC51010DF3500001DA25246EF45066
:100D38000001DB21256E000E276E200E266E20EEA8
:100D480031F03650D9263750DA22DF500001DD6FF6
:100D58000001DD51286E296A5EEC1AF020EE29F0B8
:100D68003650D9263750DA22DF507F0B0001DA6F70
:100D780020EE34F03650D9263750DA22DF507F0B78
:100D88000001DA5DD8B0C1D0980E246EFF0E256E32
:100D980020EE35F03650D9263750DA22DF507F0B57
:100DA8000001DA6FDB6B0001DA1FDB1FDA4BDB2B8C
:100DB80020EE2EF03650D9263750DA22DF507F0B3E
:100DC8000001DC6FDD6B0001DA510001DC27000156
:100DD800DB510001DD23FF0E0001DC25266EFF0E2E
:100DE8000001DD21276E0FEC0FF03850140DFF0EB7
:100DF8000001DA6FFF0E0001DB6F20EE35F0365090
:100E0800D9263750DA22DF507F0B0001DC6FDD6B0B
:100E18000001DC1FDD1FDC4BDD2B20EE2EF03650F1
:100E2800D9263750DA22DF507F0B0001DE6FDF6BE7
:100E38000001DC510001DE270001DD510001DF2344
:100E48000001DA510001DE270001DB510001DF2338
:100E5800000E0001E06F010E0001E16F0001DE519C
:100E68000001E0270001DF510001E123F3500001F8
:100E7800E025106EF4500001E121116E010E3624B8
:100E8800126E000E3720136E20EE35F03650D9263C
:100E98003750DA22DF507F0B0001E26FE36B010E5F
:100EA8000001E227000EE3230001E21FE31FE24BEB
:100EB800E32B20EE31F03650D9263750DA22DF50B6
:100EC8000001E46FE56B0001E2510001E427000135
:100ED800E3510001E5230001E41FE51FE44BE52B86
:100EE80020EE31F03650D9263750DA22DF50000193
:100EF800E66F0001E6510001E425146E000E0001C2
:100F0800E521156E85EC17F063D020EE34F03650ED
:100F1800D9263750DA22DF507F0B0001DA6F000143
:100F2800DA51010D010EF326000EF422F350362497
:100F3800D96EF4503720DA6EDF50D8B449D0385023
:100F4800140D000E0001DA6F010E0001DB6FF35083
:100F58000001DA27F4500001DB2320EE2BF0365095
:100F6800D9263750DA22DF507F0B0001DC6F0001F1
:100F7800DC51010DF3500001DA25106EF450000128
:100F8800DB21116E20EE34F03650D9263750DA22A4
:100F9800DF507F0B0001DD6F0001DD51010D010EF7
:100FA800F326000EF422F3503624126EF450372044
:100FB800136E20EE31F03650D9263750DA22DF5042
:100FC8000001DE6F0001DE51146E156A85EC19F020
:100FD80020EE34F03650D9263750DA22DF507F0B16
:100FE8000001DA6F20EE29F03650D9263750DA2280
:100FF800DF507F0B0001DB6F0001DA510001DB5D80
:10100800D8A019D0010E0001DA6F20EE34F0365066
:10101800D9263750DA22DF507F0B0001DB6F000141
:10102800DA510001DB27DF500001DB19800B0001DA
:10103800DB19DF6E120020EE29F03650D926375022
:10104800DA22DF507F0B0001DA6F20EE34F03650E1
:10105800D9263750DA22DF507F0B0001DA5DD8B08D
:101068001200010E0001DA6F20EE35F03650D92655
:101078003750DA22DF507F0B0001DB6F0001DA51B5
:101088000001DB27DF500001DB19800B0001DB19B1
:10109800DF6E20EE31F03650D9263750DA2210EEC6
:1010A80035F03650E1263750E222E7507F0B000139
:1010B800DB6FDE500001DB19D8A4120020EE35F0FA
:1010C8003650D9263750DA22DF90DF92DF94DF9648
:1010D800DF98DF9ADF9C20EE34F03650D92637505F
:1010E800DA22DF90DF92DF94DF96DF98DF9ADF9CC9
:1010F8001200CB0E106E000E116EF80E126EFF0E5F
:10110800136EB0EC18F010501110D8A407D09F0E31
:10111800146EFE0E156E58EC1BF01200CB0E106EFE
:10112800000E116E500E126EFF0E136EB0EC18F01A
:1011380010501110D8A417D0DC0E246EFF0E256EA7
:10114800B5EC1BF010C026F011C027F00FEC0FF023
:10115800970E246EFE0E256E500E266EFF0E276E1D
:101168000FEC0FF01200CB0E106E000E116EB40EC5
:10117800126EFF0E136EB0EC18F010501110D8A4B8
:1011880019D0F30E246EFD0E256E8EEC1BF00101B6
:101198007D6F01017D51266E276A0FEC0FF0970EC7
:1011A800246EFE0E256EB40E266EFF0E276E0FEC13
:1011B8000FF01200CB0E106E000E116EBC0E126EE8
:1011C800FF0E136EB0EC18F010501110D8A419D0FF
:1011D800F30E246EFD0E256E87EC1BF001017D6F6A
:1011E80001017D51266E276A0FEC0FF0970E246ED1
:1011F800FE0E256EBC0E266EFF0E276E0FEC0FF04E
:101208001200CB0E106E000E116E890E126EFF0EBC
:10121800136EB0EC18F010501110D8A411D080C083
:1012280036F00001815108EC14F0970E246EFE0E82
:10123800256E890E266EFF0E276E0FEC0FF012003A
:10124800CB0E106E000E116E5A0E126EFF0E136E3C
:10125800B0EC18F010501110D8A43DD080EC1BF061
:101268000009D8B41FD0F80E246EFE0E256E80EC4F
:101278001BF001017D6F01017D51266E276A72EC1A
:101288001BF001017E6F01017E51286E296A79ECFD
:101298001BF001017F6F01017F512A6E2B6A0FEC51
:1012A8000FF00ED0F30E246EFD0E256E80EC1BF0B1
:1012B80001017D6F01017D51266E276A0FEC0FF049
:1012C800970E246EFE0E256E5A0E266EFF0E276EA2
:1012D8000FEC0FF01200CB0E106E000E116E640EA4
:1012E800126EFF0E136EB0EC18F010501110D8A447
:1012F8000BD0970E246EFE0E256E640E266EFF0E22
:10130800276E0FEC0FF01200CB0E106E000E116E50
:10131800D40E126EFE0E136EB0EC18F010501110B1
:10132800D8A40BD0970E246EFE0E256ED40E266E12
:10133800FE0E276E0FEC0FF01200CB0E106E000E93
:10134800116E3A0E126EFF0E136EB0EC18F01050BC
:101358001110D8A40BD0970E246EFE0E256E3A0EEF
:10136800266EFF0E276E0FEC0FF01200CB0E106EDC
:10137800000E116E450E126EFF0E136EB0EC18F0D3
:1013880010501110D8A412000001AF05D8A42CD019
:101398000001B405D8A428D00001B605D8A424D0EB
:1013A800860E0001E76F000E0001E86F8CEC12F06A
:1013B8000101806F01018005D8A40BD0DC0E246EDA
:1013C800FF0E256EE80E266EFF0E276E0FEC0FF04F
:1013D8001200970E246EFE0E256E450E266EFF0E29
:1013E800276E0FEC0FF012000001AF51D8A40BD0FC
:1013F800DA0E246EFF0E256EEC0E266EFE0E276E9C
:101408000FEC0FF012000001B451D8A40BD0DA0E83
:10141800246EFF0E256EC80E266EFE0E276E0FEC8C
:101428000FF012000001B651D8A41200DA0E246E93
:10143800FF0E256E6C0E266EFE0E276E0FEC0FF05B
:101448001200366820EE2AF02C50D9262D50DA22C8
:10145800DF507F0B0009D8A402D0000E0CD020EE7C
:101468002AF02C50D9262D50DA22DF507F0BE806BF
:10147800D8A402D0010E366E20EE2AF02C50D926C0
:101488002D50DA22DF507F0B020AD8A402D0020EB8
:10149800366E20EE2AF02C50D9262D50DA22DF5055
:1014A8007F0B030AD8A402D0030E366E3650140DF3
:1014B800000E2E6E010E2F6EF3502E26F4502F22A2
:1014C80020EE2BF02C50D9262D50DA22DF507F0B3E
:1014D800306E3050010DF3502E24246EF4502F201E
:1014E800256E000E276E200E266E20EE31F02C5051
:1014F800D9262D50DA22DF50316E3150286E296AF4
:101508005EEC1AF020EE31F02C50D9262D50DA225C
:10151800DF502E6E20EE32F02C50D9262D50DA22D4
:10152800DF507F0B2E5CD8B054D020EE01F02C5049
:10153800D9262D50DA22DF50D8B4A2D03650140D57
:10154800000E2E6E010E2F6EF3502E26F4502F2211
:1015580020EE2BF02C50D9262D50DA22DF507F0BAD
:10156800306E3050010DF3502E24106EF4502F20A1
:10157800116E20EE33F02C50D9262D50DA22DF5090
:101588007F0B316E326A311E321E314A322A20EE0A
:1015980029F02C50D9262D50DA22DF507F0B336EDC
:1015A800346A315033263250342233502C24126E90
:1015B80034502D20136E20EE31F02C50D9262D50AA
:1015C800DA22DF50356E3550146E156A85EC19F045
:1015D80057D020EE01F02C50D9262D50DA22DF50BA
:1015E800D8B44ED03650140D000E2E6E010E2F6E4C
:1015F800F3502E26F4502F2220EE2BF02C50D92613
:101608002D50DA22DF507F0B306E3050010DF35031
:101618002E26F4502F2220EE32F02C50D9262D50B1
:10162800DA22DF507F0B316E3150010DF3502E243A
:10163800106EF4502F20116E010E2C24126E000E25
:101648002D20136E20EE32F02C50D9262D50DA22A0
:10165800DF507F0B326E336A321E331E324A332A12
:1016680020EE31F02C50D9262D50DA22DF50346E7E
:1016780034503224146E000E3320156E85EC19F0A8
:1016880020EE32F02C50D9262D50DA22DF507F0B75
:101698002E6E20EE31F02C50D9262D50DA222E5005
:1016A800DE5CD8A013D0010E2E6E20EE32F02C5046
:1016B800D9262D50DA22DF507F0B2F6E2E502F2681
:1016C800DF502F18800B2F18DF6E120020EE33F03A
:1016D8002C50D9262D50DA22DF507F0B2E6E20EEAB
:1016E80029F02C50D9262D50DA22DF507F0B2E5CA2
:1016F800D8B01200010E2E6E20EE33F02C50D926F1
:101708002D50DA22DF507F0B2F6E2E502F26DF5000
:101718002F18800B2F18DF6E20EE29F02C50D926B9
:101728002D50DA22DF507F0B2E6E20EE33F02C5036
:10173800D9262D50DA22DF507F0B2F6E2E502F5CCA
:10174800D8A0120020EE32F02C50D9262D50DA22E3
:10175800DF90DF92DF94DF96DF98DF9ADF9C20EE40
:1017680033F02C50D9262D50DA22DF90DF92DF9407
:10177800DF96DF98DF9ADF9C12003B6E000E3E6E0C
:10178800000E3D6E000E3C6E000E3E6E000E3D6E6D
:101798000DD13B50386E396A3D50381804E13E503F
:1017A8003918D8B401D13DC018F03EC019F0000E68
:1017B8001B6E360E1A6E8AEC1AF0960E1824D96E25
:1017C800020E1920DA6EDF507F0B0009D8B4ECD076
:1017D8003DC018F03EC019F0000E1B6E360E1A6E92
:1017E8008AEC1AF02C0E1826000E1922960E1824D0
:1017F800D96E020E1920DA6EDF507F0B386E385022
:10180800365CD8A033D03DC018F03EC019F0000EA9
:101818001B6E360E1A6E8AEC1AF02F0E1826000E62
:101828001922960E1824D96E020E1920DA6EDF508E
:101838007F0B386E3650385CD8A018D04250010D56
:10184800B70EF324D96E000EF420DA6E3DC018F0FE
:101858003EC019F0000E1B6E360E1A6E8AEC1AF096
:1018680096D0422A9ED0010E3C6E9ED03DC018F004
:101878003EC019F0000E1B6E360E1A6E8AEC1AF076
:101888002C0E1826000E1922960E1824D96E020E58
:101898001920DA6EDF507F0B386E3850375CD8A0CD
:1018A8002ED03DC018F03EC019F0000E1B6E360E4B
:1018B8001A6E8AEC1AF02F0E1826000E1922960EB0
:1018C8001824D96E020E1920DA6EDF507F0B386E9D
:1018D8003850375CD8A013D04250010DB70EF3240E
:1018E800D96E000EF420DA6E3DC018F03EC019F033
:1018F800000E1B6E360E1A6E8AEC1AF048D03DC0E8
:1019080018F03EC019F0000E1B6E360E1A6E8AECE7
:101918001AF02C0E1826000E1922960E1824D96ECD
:10192800020E1920DA6EDF507F0B386E3650385CA5
:10193800D8A03AD03DC018F03EC019F0000E1B6E7A
:10194800360E1A6E8AEC1AF02F0E1826000E19227F
:10195800960E1824D96E020E1920DA6EDF507F0B0E
:10196800386E3850375CD8A01FD04250010DB70EE2
:10197800F324D96E000EF420DA6E3DC018F03EC094
:1019880019F0000E1B6E360E1A6E8AEC1AF0960EBF
:101998001824E16E020E1920E26EE7507F0BDF6E0D
:1019A80060D73D4A3E2A5FD73D4A3E2A4D50386EA1
:1019B800396A38503D5C3E50800A3A6E3950800A88
:1019C8003A58D8A0E6D64D0E246EFE0E256E0FECC2
:1019D8000FF0000E3E6E000E3D6E1CD0B70E3D247B
:1019E800D96E000E3E20DA6EDF50D8B411D0EE0E5C
:1019F800246EFF0E256EB70E3D24D96E000E3E20D4
:101A0800DA6EDF50386E3850266E276A0FEC0FF00A
:101A18003D4A3E2A4D50386E396A38503D5C3E503A
:101A2800800A3A6E3950800A3A58D8A0D7D7AD0EF6
:101A3800246EFE0E256E0FEC0FF03C50120038C0DD
:101A4800D9FF39C0DAFFDF503A6E36C0D9FF37C048
:101A5800DAFFDF503A18800B3A18DF6E010E362491
:101A6800106E000E3720116E010E3824126E000E13
:101A78003920136E1FEC19F0010E36241E6E000E6D
:101A880037201F6E0DEC18F020EE29F03650D926BD
:101A98003750DA22DF501E18800B1E18DF6E20EE3A
:101AA8002AF03850D9263950DA22DF503A6E20EE23
:101AB8002AF03650D9263750DA22DF503A18800BF0
:101AC8003A18DF6E20EE2BF03850D9263950DA223A
:101AD800DF503A6E20EE2BF03650D9263750DA22F6
:101AE800DF503A18800B3A18DF6E20EE2CF0385091
:101AF800D9263950DA22DF503A6E20EE2DF03650D2
:101B0800D9263750DA22DF503A18800B3A18DF6EA0
:101B180020EE2DF03850D9263950DA22DF503A6EAF
:101B280020EE2EF03650D9263750DA22DF503A18F8
:101B3800800B3A18DF6E20EE2BF03650D92637503E
:101B4800DA22DF507F0B3A6E20EE2AF03650D92683
:101B58003750DA22DF507F0B4B02F3503A243B6EAA
:101B680020EE2CF03650D9263750DA22DF503B18B9
:101B7800800B3B18DF6E20EE2EF03650D9263750FA
:101B8800DA22DF507F0B3A6E20EE2DF03650D92640
:101B98003750DA22DF507F0B4B02F3503A243B6E6A
:101BA80020EE2FF03650D9263750DA22DF503B1876
:101BB800800B3B18DF6E20EE2FF03850D9263950B5
:101BC800DA22DF503A6E20EE30F03650D926375000
:101BD800DA22DF503A18F80B3A18DF6E20EE31F0AF
:101BE8003650D9263750DA2210EE2FF03650E1263B
:101BF8003750E222E7507F0B3A6E10EE2CF0365049
:101C0800E1263750E222E7507F0B00083A24DF6EC6
:101C1800830E246EFD0E256E20EE31F03650D92647
:101C28003750DA22DF503A6E3A50266E276A0FECA8
:101C38000FF01200000E406E000E3F6E000E406E58
:101C4800000E3F6ED3D03FC018F040C019F0000E10
:101C58001B6E360E1A6E8AEC1AF0010E1826000E4C
:101C68001922960E18241E6E020E19201F6E0DECF6
:101C780018F01E501F10D8B42CD03FC018F040C028
:101C880019F0000E1B6E360E1A6E8AEC1AF0300E22
:101C98001826000E1922960E1824D96E020E192045
:101CA800DA6EDF50070B020AD8A413D03FC018F031
:101CB80040C019F0000E1B6E360E1A6E8AEC1AF030
:101CC800960E18242C6E020E19202D6E25EC0AF0A3
:101CD8008BD03FC018F040C019F0000E1B6E360EB6
:101CE8001A6E8AEC1AF0010E1826000E1922960EAA
:101CF80018241E6E020E19201F6E0DEC18F01E50CF
:101D08001F10D8B42CD03FC018F040C019F0000EF6
:101D18001B6E360E1A6E8AEC1AF0300E1826000E5C
:101D28001922960E1824D96E020E1920DA6EDF5089
:101D3800070BE806D8A413D03FC018F040C019F02C
:101D4800000E1B6E360E1A6E8AEC1AF0960E1824C8
:101D5800366E020E1920376E47EC06F045D03FC0AC
:101D680018F040C019F0000E1B6E360E1A6E8AEC81
:101D78001AF0010E1826000E1922960E18241E6E4F
:101D8800020E19201F6E0DEC18F01E501F10D8B44B
:101D98002BD03FC018F040C019F0000E1B6E360E55
:101DA8001A6E8AEC1AF0300E1826000E1922960EBA
:101DB8001824D96E020E1920DA6EDF50070B0009BD
:101DC800D8A412D03FC018F040C019F0000E1B6E06
:101DD800360E1A6E8AEC1AF0960E1824366E020E1B
:101DE8001920376EE3EC10F03F4A402A4D503C6E04
:101DF8003D6A3C503F5C4050800A3E6E3D50800A30
:101E08003E58D8A020D7000E0001776F010E766FDC
:101E180055EC16F01200260E316E000E326ED9D037
:101E2800250E3518D8B404D03550BFEC1BF0D1D0EE
:101E3800000E2D6E4DD031C0D9FF32C0DAFFDECF93
:101E48002FF0DDCF30F0020E3126000E32222F5057
:101E58003010D8A41AD0CC0E2F6EFF0E306E15D0CD
:101E68002FC0F6FF30C0F7FF000EF86E0F0EF764B4
:101E780003D00800F55005D0F6CFE9FFF7CFEAFF09
:101E8800EF50BFEC1BF02F4A302A2FC0F6FF30C0AE
:101E9800F7FF000EF86E0F0EF76403D00800F55038
:101EA80005D0F6CFE9FFF7CFEAFFEF500009D8B425
:101EB80090D0D6D731C0D9FF32C0DAFFDF50356EA7
:101EC800020E3126000E32223550BFEC1BF081D0B5
:101ED80024C0F6FF25C0F7FF244A252AF86A08001F
:101EE800F5CF35F03550000AD8B41200630AD8B4DB
:101EF800E1D7070AD8B407D00D0AD8B404D01A0A13
:101F0800D8B499D7E1D731C0D9FF32C0DAFFDECFD4
:101F180033F0DDCF34F0020E3126000E322234AE1B
:101F280006D0030E2D12336C341ED8B0342A010E9D
:101F3800356E050E3518D8B415D03550020D230E60
:101F4800F324F66EFD0EF420F76EF86A000EF82200
:101F58000900F550335C0900F5503458D8A002D078
:101F6800352AE7D72DC02CF0030E2C16D8B403D091
:101F78002D0EBFEC1BF035C02EF027D02E50020DD1
:101F8800230EF324F66EFD0EF420F76EF86A000EA9
:101F9800F8220900F5CF12F00A00F5CF13F033C08C
:101FA80010F034C011F037EC18F010C017F011C061
:101FB80018F0000E1A6E0A0E196E64EC19F017501C
:101FC800300F356E3550BFEC1BF02E062E28D8A4E6
:101FD800D5D724C0F6FF25C0F7FF244A252AF86A7A
:101FE8000800F5CF35F03550D8B4120019D77B0E5C
:101FF800246EFE0E256E36C026F037C027F00FEC93
:102008000FF0000E3F6E000E3E6E000E3D6E000E8D
:102018003F6E000E3E6EACD03E5036243A6E3F50B6
:1020280037203B6E3AC0F6FF3BC0F7FF000EF86E54
:102038000F0EF76403D00800F55005D0F6CFE9FF7E
:10204800F7CFEAFFEF5004EC1BF0D8A05BD03E506E
:1020580036243A6E3F5037203B6E3AC0F6FF3BC0FD
:10206800F7FF000EF86E0F0EF76403D00800F55066
:1020780005D0F6CFE9FFF7CFEAFFEF503C6E3D50B1
:102088000A0DF3503C24D00F3D6E2D0E246EFD0E2C
:10209800256E36C01EF037C01FF00DEC18F01EC0BC
:1020A80026F01FC027F03EC028F03FC029F03DC0F1
:1020B8002AF02B6A0FEC0FF05D0E246EFE0E256ED3
:1020C8003EC026F03FC027F03E5036243A6E3F50BF
:1020D80037203B6E3AC0F6FF3BC0F7FF000EF86EA4
:1020E8000F0EF76403D00800F55005D0F6CFE9FFCE
:1020F800F7CFEAFFEF503C6E3C50286E296A0FEC90
:102108000FF034D0CF0E246EFD0E256E3EC026F0A3
:102118003FC027F036C028F037C029F00FEC0FF089
:102128005D0E246EFE0E256E3EC026F03FC027F0E1
:102138003E5036243A6E3F5037203B6E3AC0F6FF89
:102148003BC0F7FF000EF86E0F0EF76403D00800CF
:10215800F55005D0F6CFE9FFF7CFEAFFEF503C6E18
:102168003C50286E296A0FEC0FF012003E4A3F2AB5
:1021780036C01EF037C01FF00DEC18F01E503E5C44
:102188001F503F58D8A048D7030E246EFF0E256E67
:102198003DC026F0276A0FEC0FF04B503D5CD8A0ED
:1021A80007D038C0D9FF39C0DAFFFF0EDF6E120042
:1021B80038C0D9FF39C0DAFF3DC0DFFF1200000187
:1021C800DC69000E0001E26F000EE16F000E0001F5
:1021D800E06F000EDF6F000E0001DB6F000EDA6F9C
:1021E80020EE2FF03650D9263750DA22DF507F0BF9
:1021F800386E20EE2CF03650D9263750DA22DF50D0
:102208007F0B000838240001DD6F010E36241E6E96
:10221800000E37201F6E0DEC18F01E500001DE6F07
:1022280020EE2AF03650D9263750DA22DF507F0BBD
:102238000001DC6F20EE2BF03650D9263750DA2219
:10224800DF507F0B386E38500001DF6FE06B000EF7
:102258000001E26F000EE16F79D0010E0001E12567
:10226800386E000E0001E221396E38503624D96EDE
:1022780039503720DA6E0001DC51140D000E3A6E29
:10228800010E3B6EF3503A26F4503B220001DF5119
:102298003A24E16E0001E0513B20E26EDFCFE7FF18
:1022A8000001E14BE22B0001DE51386E396A3850EB
:1022B8000001E15D0001E251800A3A6E3950800A5E
:1022C8003A58D8B022D00001DD51386E396A3850FA
:1022D8000001E15D0001E251800A3A6E3950800A3E
:1022E8003A58D8B012D00001DF4BE02B4B50386E73
:1022F800396A38500001DF5D0001E051800A3A6E0A
:102308003950800A3A58D8A0A8D7C40E246EFF0EB8
:10231800256EE1C026F0E2C027F00FEC0FF0000EAA
:102328000001E06F000EDF6F0001DC2B0001DD51C2
:10233800386E396A38500001E15D0001E251800AC7
:102348003A6E3950800A3A58D8B012000001DE516E
:10235800386E396A38500001E15D0001E251800AA7
:102368003A6E3950800A3A58D8B01200BFD7445054
:10237800D8B4C2D0000E0101826F3FD0CDEC1BF063
:102388000101826F0A0E01018219D8B405D00D0E21
:1023980001018219D8A40FD0000E00017B6F000E36
:1023A8007A6F010E00017F6FAD0E246EFE0E256E52
:1023B8000FEC0FF025D0000E00017A25D96E020E21
:1023C80000017B21DA6E82C1DFFFFC0E246EFF0E56
:1023D800256E000E00017A25D96E020E00017B21C0
:1023E800DA6EDF500101816F01018151266E276A83
:1023F8000FEC0FF000017A4B7B2B4450D8A4BED7CA
:1024080000017BBF79D000017B5105E1970E0001E7
:102418007A5DD8A071D0E00E146EFE0E156E58ECE1
:102428001BF0000E00017B6F000E7A6F65D0CB0E9B
:10243800246E000E256E000E276E000E266E000E0E
:10244800296E0F0E286E5EEC1AF0000E246E020E36
:10245800256E000E276E000E266E000E296E960E53
:10246800286E5EEC1AF0000E0001846FB00E146E38
:10247800FE0E156E58EC1BF0010E0001826F120063
:1024880000017F05D8A41200000E00017F6F000E26
:102498000001DA6F020E0001DB6F55EC00F0000955
:1024A800D8A412D0000E246E020E256E000E276EE0
:1024B800000E266E000E296E960E286E5EEC1AF03F
:1024C800020E0001826F1200DC0E246EFF0E256ED4
:1024D800E80E266EFF0E276E0FEC0FF012000001BB
:1024E8008405D8A405D07DEC08F0000E0001846FA7
:1024F800010E0001826F120000018251000AD8B457
:1025080096D7010AD8B4BCD7030AD8A41200E7D7D3
:10251800000E01017C6F000E7B6F01017A690001DA
:1025280020EE2BF0E751D926E851DA22DF500001DE
:10253800E96F000120EE2AF0E751D926E851DA22A6
:10254800DF504B02F3500001E9250101786F0001CB
:1025580020EE2DF0E751D926E851DA22DF500001AC
:10256800E96F000120EE2CF0E751D926E851DA2274
:10257800DF504B02F3500001E9250101796F4D50FE
:10258800435CD8B090D0000E01017C6F000E7B6FC9
:1025980053D0E7C0D9FFE8C0DAFF7BC118F07CC18F
:1025A80019F0000E1B6E360E1A6E8AEC1AF0960E93
:1025B8001824E16E020E1920E26EE7507F0B00012D
:1025C800EA6FDE500001EA19D8A428D07BC17AF15D
:1025D8004250010DB70EF324D96E000EF420DA6EC6
:1025E8007BC118F07CC119F0000E1B6E360E1A6EF6
:1025F8008AEC1AF0960E1824E16E020E1920E26E8B
:10260800E7507F0BDF6E422A78C136F079C137F088
:1026180001017A51C1EC0BF0010E120078C136F0BD
:1026280079C137F001017A51C1EC0BF0E806D8B452
:10263800F3D701017B4B7C2B4D500001E96FEA6B0E
:102648000001E95101017B5D01017C51800A000113
:10265800EB6F0001EA51800A0001EB59D8A099D725
:102668004350360D960EF324246E020EF420256E88
:10267800000E276E000E266E000E296E360E286E8E
:102688005EEC1AF04350360D960EF324366E020EA9
:10269800F420376EE7C038F0E8C039F023EC0DF0CD
:1026A800432A1EEC0EF0000E120002D01E4A1F2A0A
:1026B8001EC0F6FF1FC0F7FF000EF86E0F0EF7647E
:1026C80003D00800F55005D0F6CFE9FFF7CFEAFFB1
:1026D800EF50200AD8B4EAD71EC0F6FF1FC0F7FF94
:1026E800000EF86E0F0EF76403D00800F55005D001
:1026F800F6CFE9FFF7CFEAFFEF50090AD8B4D6D7EB
:10270800000E246E000E236E000E226E1EC0F6FF11
:102718001FC0F7FF000EF86E0F0EF76403D0080015
:10272800F55005D0F6CFE9FFF7CFEAFFEF502D0AB5
:10273800D8A402D0222A3CD01EC0F6FF1FC0F7FF43
:10274800000EF86E0F0EF76403D00800F55005D0A0
:10275800F6CFE9FFF7CFEAFFEF502B0AD8A42AD02B
:1027680027D023C018F024C019F0000E1B6E0A0EE3
:102778001A6E8AEC1AF01EC0F6FF1FC0F7FF000E93
:10278800F86E0F0EF76403D00800F55005D0F6CFA9
:10279800E9FFF7CFEAFFEF50206E216A1850202694
:1027A80019502122D00E2024236EFF0E2120246EE2
:1027B8001E4A1F2A1EC0F6FF1FC0F7FF000EF86E44
:1027C8000F0EF76403D00800F55005D0F6CFE9FFE7
:1027D800F7CFEAFFEF5004EC1BF0D8B0C2D7225075
:1027E800D8B40DD023C020F024C021F0201E211E13
:1027F800204A212A20C01EF021C01FF0120023C049
:102808001EF024C01FF01200376EABEC15F0000E5E
:10281800436E960E246E020E256E000E276E000E75
:10282800266E040E296E380E286E5EEC1AF0B70E6E
:10283800246E000E256E000E276E000E266E000E0A
:10284800296E140E286E5EEC1AF0010E496E9B0E6E
:10285800246EFF0E256E37C026F0276A0FEC0FF0A6
:1028680037C04AF0920E246EFF0E256E36C026F051
:10287800276A0FEC0FF036C04BF00A0E246EFE0EDE
:10288800256E000E136E040E126E36C010F0116A1B
:1028980098EC16F010C018F011C019F037C01AF0F3
:1028A8001B6A8AEC1AF018C026F019C027F00FEC42
:1028B8000FF036C010F0116A000E136E040E126E7F
:1028C80098EC16F010503702F3CF4DF04D50410FF1
:1028D8004C6E1C0E246EFE0E256E4CC026F0276A28
:1028E8000FEC0FF01200000E3F6E000E3E6E000E51
:1028F8003D6E000E3E6E000E3D6E3BD03D503624C0
:102908003A6E3E5037203B6E3AC0F6FF3BC0F7FFA9
:10291800000EF86E0F0EF76403D00800F55005D0CE
:10292800F6CFE9FFF7CFEAFFEF5004EC1BF0D8A091
:1029380012003D5036243A6E3E5037203B6E3AC066
:10294800F6FF3BC0F7FF000EF86E0F0EF76403D0DA
:102958000800F55005D0F6CFE9FFF7CFEAFFEF50B2
:102968003C6E3F500A0DF3503C24D00F3F6E3D4A59
:102978003E2A36C01EF037C01FF00DEC18F01E506E
:102988003D5C1F503E58D8A0B9D70E0E246EFF0EDE
:10299800256E3FC026F0276A0FEC0FF04A503F5CC7
:1029A800D8A007D038C0D9FF39C0DAFFFF0EDF6ED4
:1029B800120038C0D9FF39C0DAFF3FC0DFFF12006C
:1029C8005AD024C0F6FF25C0F7FF000EF86E0F0E90
:1029D800F76403D00800F55005D0F6CFE9FFF7CF2C
:1029E800EAFFEF500009D8B41CD026C0F6FF27C074
:1029F800F7FFF86A0800F5CF2AF024C0F6FF25C0D3
:102A0800F7FF000EF86E0F0EF76403D00800F550BC
:102A180005D0F6CFE9FFF7CFEAFFEF502A18D8B470
:102A280026D026C0F6FF27C0F7FFF86A0800F55041
:102A38002A6E2B6A2A1E2B1E2A4A2B2A24C0F6FF2E
:102A480025C0F7FF000EF86E0F0EF76403D00800DC
:102A5800F55005D0F6CFE9FFF7CFEAFFEF502C6E1F
:102A68002C502A24246E000E2B20256E1200244A96
:102A7800252A264A272A2806D8A029062828A1E197
:102A88002928D8A49ED7000E256E000E246E1200A9
:102A98001D501E10D8A404D07CC01DF07DC01EF0AF
:102AA8001D501E10D8A405D0000E1D6E000E1E6EFF
:102AB80012001DC016F01EC017F01FC018F020C06D
:102AC80019F060EC18F016501D2617501E221DC074
:102AD800D9FF1EC0DAFFDF50D8A40BD0000E0001CA
:102AE8007C6F000E00017D6F7CC01DF07DC01EF064
:102AF80012001DC016F01EC017F01FC018F020C02D
:102B080019F088EC18F016501D2400017C6F17503E
:102B18001E2000017D6F7CC0D9FF7DC0DAFFDF5029
:102B2800D8B40AD07CC0D9FF7DC0DAFF000EDF6EB2
:102B380000017C4B7D2B06D0000E00017C6F000E3F
:102B480000017D6F1DC01DF01EC01EF01200490E51
:102B5800246E000E256E000E276E000E266E000EE7
:102B6800296E050E286E5EEC1AF0000E956E9250D6
:102B7800F009926E8090000E116EFA0E106E42EC03
:102B880019F0380E31EC1BF0000E116EFA0E106EB3
:102B980042EC19F00E0E31EC1BF0000E116EFA0E1D
:102BA800106E42EC19F0010E31EC1BF0000E116EA4
:102BB800FA0E106E42EC19F0060E31EC1BF0000E06
:102BC800116EFA0E106E42EC19F00F0E31EC1BF07C
:102BD800000E116EFA0E106E42EC19F0000E246E03
:102BE800010E256E000E276E200E266E000E296E31
:102BF800500E286E5EEC1AF0B4EC17F0BAEC1BF02D
:102C0800120032D02DC024F02EC025F02FC026F09F
:102C180030C027F02FC01EF030C01FF00DEC18F0A8
:102C28001EC028F01FC029F0E4EC14F02450251031
:102C3800D8A405D02DC02DF02EC02EF01200010E04
:102C48002D24106E000E2E20116E2FC0F6FF30C0FE
:102C5800F7FFF86A0800F550126E136A16EC17F0C1
:102C680010C02DF011C02EF02D502E10D8B414D055
:102C78002DC0F6FF2EC0F7FF000EF86E0F0EF7649A
:102C880003D00800F55005D0F6CFE9FFF7CFEAFFEB
:102C9800EF500009D8A4B6D7000E2D6E000E2E6E88
:102CA80012000001760500017711D8A437D0010E73
:102CB80031EC1BF0C9EC1BF0000E186E800E4DECC9
:102CC8001BF0000E186E010E196EB0EC1AF0000E13
:102CD800186EC00E4DEC1BF0140E186E010E196E16
:102CE800B0EC1AF0000E186E940E4DEC1BF0280E86
:102CF800186E010E196EB0EC1AF0000E186ED40E94
:102D08004DEC1BF03C0E186E010E196EB0EC1AF06B
:102D1800000E0001776F000E766F1200000E0001A2
:102D2800776F000E766F1200000E156E13AE06D088
:102D3800126C131ED8B0132A010E156E11AE06D0F0
:102D4800106C111ED8B0112A010E151A000E176E3C
:102D5800000E166E12501310D8B41CD0010E146E4B
:102D680004D0D89012361336142A13AEFAD7D89056
:102D7800163617361250105C13501158D8A005D0CB
:102D88001250105E1350115A1680D8901332123216
:102D9800142EEDD71550D8B404D0166C171ED8B021
:102DA800172A16C010F017C011F01200000E00010B
:102DB800826F15EC1AF0000E0001846F000E0001FE
:102DC800816F000E0001806F000E00017F6FCB0E37
:102DD800246E000E256E000E276E000E266E000E65
:102DE800296E0F0E286E5EEC1AF0500E246E010E3E
:102DF800256E000E276E000E266E000E296E280E18
:102E0800286E5EEC1AF0000E246E020E256E000E7F
:102E1800276E000E266E000E296E960E286E5EEC4A
:102E28001AF0120010C0F6FF11C0F7FF000EF86E7E
:102E38000F0EF76403D00800F55005D0F6CFE9FF70
:102E4800F7CFEAFFEF501218D8A405D010C010F041
:102E580011C011F012001050146E1150156E104A66
:102E6800112A14C0F6FF15C0F7FF000EF86E0F0EFA
:102E7800F76403D00800F55005D0F6CFE9FFF7CF87
:102E8800EAFFEF500009D8A4CDD7000E106E000E4F
:102E9800116E1200380EF66E370EF76E000EF86ED1
:102EA80000EEECF010EE0DF00900F5CFEEFFE55066
:102EB800E150FAE102EE96F014EE38F0EE6AE550D1
:102EC800E150FCE1E250FAE102EE00F0960EEE6A03
:102ED800E806FDE101EE00F0780EEE6AE806FDE195
:102EE80000EE60F07A0EEE6AE806FDE100EE41F0D1
:102EF8000D0EEE6AE806FDE1509050920001E1EFF8
:102F080017F010C016F011C017F014D01406D8A08E
:102F1800150612C0D9FF13C0DAFF124A132A16C0C9
:102F2800E1FF17C0E2FF164A172ADFCFE7FFE75095
:102F3800D8B40DD014501510D8B409D0E7D716C09E
:102F4800D9FF17C0DAFF000EDF6E164A172A1406DB
:102F5800D8A015061428F3E11528D8B41200EFD725
:102F6800000E246E010E256E000E276E200E266EB2
:102F7800000E296E500E286E5EEC1AF0E50E246ED7
:102F8800FD0E256E000E276E0D0E266E0FEC0FF04F
:102F9800000E106E010E116EEC0E126E000E136E06
:102FA800000E156E0D0E146E85EC19F0000E186EDD
:102FB800010E196EB0EC1AF0120013EC1BF0D0ECF5
:102FC8001BF0D6EC1BF0D8EC1BF05E0E106E370E23
:102FD800116EC4EC1BF0F28EF28CDAEC16F0030ED4
:102FE800116EE80E106E42EC19F0F80E246EFD0E0C
:102FF800256E0FEC0FF0DCEC1BF0BBEC11F00001C0
:103008008305D8A4FAD71EEC0EF0000E0001836FDA
:10301800F4D71EC022F01FC023F002D0224A232A70
:1030280022C0F6FF23C0F7FF000EF86E0F0EF764FC
:1030380003D00800F55005D0F6CFE9FFF7CFEAFF37
:10304800EF500009D8A4EAD71EC020F01FC021F015
:10305800201E211E204A212A225020241E6E235081
:1030680021201F6E1200000E166E000E156E1250F3
:103078001310D8B41CD0010E146E04D0D890123698
:103088001336142A13AEFAD7D890153616361250BE
:10309800105C13501158D8A005D01250105E135070
:1030A800115A1580D89013321232142EEDD715C04C
:1030B80010F016C011F01200000E1C6E000E1B6EF0
:1030C80004D0164A172A1B4A1C2A16C0D9FF17C053
:1030D800DAFFDF50D8B413D018C010F019C011F0BF
:1030E80016C0D9FF17C0DAFFDF501A6E1A50126ED9
:1030F800136A16EC17F010501110D8A4E2D71BC0B1
:1031080016F01CC017F01200000E1C6E000E1B6E8D
:1031180004D0164A172A1B4A1C2A16C0D9FF17C002
:10312800DAFFDF50D8B413D018C010F019C011F06E
:1031380016C0D9FF17C0DAFFDF501A6E1A50126E88
:10314800136A16EC17F010501110D8B4E2D71BC050
:1031580016F01CC017F0120004D0104A112A124AA7
:10316800132A10C0D9FF11C0DAFFDF50146E12C045
:10317800F6FF13C0F7FFF86A0800F550000814249A
:10318800156E1550D8A407D010C0D9FF11C0DAFFAA
:10319800DF50D8A4E2D71550106E116A10BE110680
:1031A8001200000E146E000E136E000E146E000E48
:1031B800136E11D0000E166E000E156E16BE06D0D8
:1031C8005E0E155C010E1658D8B003D0154A162AA3
:1031D800F5D7134A142A1050135C1450800A126E43
:1031E8001150800A1258D8B01200E4D7000E8D6E24
:1031F800000E8C6E000E896E000E8A6E000E8B6EAD
:10320800030E966EF80E926E9368BF0E946E000EC3
:10321800956E3C0E0F013A6F3F0E0F01396F000E8D
:103228000F013B6F030E0F013C6F280E0F01386F23
:103238006168F19E120010C014F011C015F004D09E
:10324800144A152A124A132A12C0F6FF13C0F7FFB0
:10325800000EF86E14C0D9FF15C0DAFF0F0EF76420
:1032680003D00800F55005D0F6CFE9FFF7CFEAFF05
:10327800EF50DF6EDF50D8B41200E2D7000E146EA4
:10328800000E136E000E146E000E136E0ED0A3EC1B
:103298001BF0DAEC1BF0A9EC1BF00009D8B4FBD743
:1032A800D6EC1BF09E90134A142A1050135C14504D
:1032B800800A126E1150800A1258D8B01200E7D74F
:1032C80019501A10D8B418D0010E1B6E04D0D8901B
:1032D80019361A361B2A1AAEFAD71950175C1A5023
:1032E8001858D8A004D01950175E1A50185AD890F8
:1032F8001A3219321B2EF1D717C017F018C018F060
:10330800120012C018F013C019F010C016F011C046
:1033180017F00ED018C0D9FF19C0DAFF16C0E1FFA8
:1033280017C0E2FFDFCFE7FF184A192A164A172A03
:103338001406D8A015061428EDE11528D8B41200F3
:10334800E9D7106E0001FF51D8B4FCD79DB803D05F
:1033580010C0ADFF13D09D984750010D680EF3249F
:10336800D96E000EF420DA6E10C0DFFF472A070E70
:10337800476402D0000E476E0001FF079D881200C7
:10338800170ED56EC20ED76EF60ED66ED650D7CFA4
:1033980012F0136A12C013F0126A12104E6E135014
:1033A8004F6EF294F28AC00E106E370E116EC4EC96
:1033B8001BF0DCEC1BF012009D9A9D98080EB86E6D
:1033C800900EAB6E240EAC6EA00EAF6E010EB06EFA
:1033D800000E476E000E486E080E0001FF6F000ECB
:1033E800456E000E466E000E446E9D8A1200000E59
:1033F800106E4450D8B4FDD74650010D600EF3242A
:10340800D96E000EF420DA6EDF50106E462A070ED1
:10341800466402D0000E466E9D9A44069D8A10505E
:103428001200860E246E000E256E000E276E000E0A
:10343800266E000E296E310E286E5EEC1AF0000121
:10344800B5690001B1690001B3690001B269000101
:10345800B2691200080E0001FF6113D04850010D37
:10346800680EF324D96E000EF420DA6EDF50AD6ECC
:10347800482A070E486402D0000E486E0001FF2B50
:1034880012009D9812000BD012C0F6FF13C0F7FF70
:10349800F86A0800F550BFEC1BF0124A132A12C054
:1034A800F6FF13C0F7FFF86A0800F5500009D8B412
:1034B8001200EAD724C02AF025C02BF008D02AC071
:1034C800D9FF2BC0DAFF26C0DFFF2A4A2B2A28069D
:1034D800D8A029062828F3E12928D8B41200EFD764
:1034E800ABA202D0AB98AB884550010D600EF32417
:1034F800D96E000EF420DA6EAECFDFFF452A070E34
:10350800456402D0000E456E442A120018501A0273
:10351800F3CF1CF0F4CF1DF018501B02F3501D26FA
:1035280019501A02F3501D261CC018F01DC019F0BE
:103538001200120E0F014E6F000E0F014D6F0F019A
:103548005069EC0E0F014F6F4FCFFDF050CFFEF0DA
:103558007E92D3EC1BF01200000E1A6E0AD018C02F
:10356800D9FF19C0DAFFDF503FEC1BF0184A192ABF
:103578001A2A4B501A5CD8B01200F1D70001F95141
:103588000001FA11D8B4120001D812000500FA6E31
:103598000001F951FD6EFA51FE6EFF6AFA501200F1
:1035A800000E246E010E256E000E276E200E266E6C
:1035B800000E296E500E286E5EEC1AF062EC1BF0BD
:1035C8001200320ECD6E000ECC6EFE0ECF6E0C0EBB
:1035D800CE6ECECFFBF0CFCFFCF09E90DAEC1BF096
:1035E8001200960E246E020E256E000E276E000E37
:1035F800266E040E296E380E286E5EEC1AF0120044
:10360800126E000E116E3A0E126005D02F0E126463
:1036180002D0010E116E11C010F010301200DEEC55
:103628001BF0FAEC18F095EC1BF09DEC1AF0E5ECA9
:103638001AF0C4EC19F0E0EC19F012008DA402D0D5
:10364800010E01D0000EFF0A016E014601468D50A1
:103658000118FB0B01188D6E1200176E17C083FF3F
:10366800809480928080000E116E010E106ED5EC51
:1036780018F080901200176E8084809217C083FF24
:103688008080000E116E010E106ED5EC18F080903F
:103698001200196E140E186402D0000E186E18501D
:1036A800192431EC1BF0120014C012F015C013F0ED
:1036B80047EC1AF00A0EBFEC1BF01200000E0001D6
:1036C800756F000E746FF5EC1AF01200F2944F50FB
:1036D800D76E4EC0D6FFC2EC1AF012004950D8A4DB
:1036E80002D0000E1200410E12004950D8A402D098
:1036F800000E12004C0412004950D8A402D0000E4B
:1037080012004D5012004950D8A402D0000E1200E9
:103718004A5012004950D8A402D0000E12004B5053
:103728001200700ED36E040ED26E800E9B6E1200C5
:0D373800494E49545F5355434345535300D8
:103746000001FC51CF6EFBC0CEFF12009EA002D03E
:10375600010E1200000E120022EC1BF0010E0001F9
:10376600836F1200F30E106EFF0E116E1200D4EC72
:103776001AF062EC1BF01200116E1150A5EC19F054
:10378600120010C0F9F011C0FAF01200060E31EC6A
:103796001BF01200FBEC19F012000F014E91120003
:1037A6000F014E811200CD901200D59E1200CD80E1
:0C37B6001200D58E1200D09E12001200EE
:10FD22000001000A006400E80310277374726C6516
:10FD32006E203D2025642C20693D25642C20636FB4
:10FD42006C2E2E203D2025640D0A00636D645F64D5
:10FD52006174612E73746172745F636F6C203D20F5
:10FD620025642C0D0A00636D645F646174612E73F7
:10FD7200746172745F726F77203D2025642C0D0AC6
:10FD820000646973706C61795F636861725F636F4D
:10FD9200756E74203D2025640D0A00636D645F64F6
:10FDA2006174612E656E645F636F6C203D20256413
:10FDB2002C0D0A00636D645F646174612E656E646C
:10FDC2005F726F77203D2025642C0D0A0069203D6B
:10FDD2002025642C20636F6C2E2E32203D2025734B
:10FDE2000D0A0073697A656F662873747229203D63
:10FDF2002025640D0A00496E69745F636F6D706C33
:10FE02006574652E2E0D0A00737472696E675F63E6
:10FE12006F756E74203D202564007569645F7261A0
:10FE22006E6765203D2025640D0A006D69645F637D
:10FE3200686172203D2025640D0A0025732C207311
:10FE420074726C656E2025640D0A00636F6E666CB9
:10FE52006963743A207569640D0A007374725B25D4
:10FE6200645D203D2025640D0A004552525F5343D4
:10FE7200524F4C4C5F53455400636F6C2E2E312011
:10FE82003D2025730D0A007363726F6C6C203D2058
:10FE920025642C20000D0A25732E2E2C204F4B0D8D
:10FEA2000A00756964203D2025642C0D0A00496E04
:10FEB20069745F446F6E650D0A0074656D70203D54
:10FEC2002025732C20004552525F524F575F434FFB
:10FED2004C004B4C4D2B53445343524F4C00455214
:10FEE200525F434D445F4C454E004552525F53545E
:10FEF200525F5345540025642C25632D25630D0A5A
:10FF020000436F6C203D2025640D0A00726F77203C
:10FF12003D2025640D0A00636F6C203D2025730D82
:10FF22000A00737472203D2025730D0A00756964FE
:10FF3200203D2025642C20004B4C4D2B534453452F
:10FF42005243004B4C4D2B555044415445004B4CB1
:10FF52004D2B4C4344533F004B4C4D2B474D445388
:10FF62003F004B4C4D2B53445354520025732E2EBD
:10FF72002E340D0A0025732E2E2E350D0A00257300
:10FF82002E2E2E360D0A004B4C4D2B4C4344530063
:10FF9200636F6C203D20256400726F77203D202521
:10FFA20064002E2E2E2E2E0D0A0025732E2E320DBB
:10FFB2000A004B4C4D2B4D433F004B4C4D2B4D52A9
:10FFC2003F00693D25642C0D0A00286E756C6C2972
:10FFD2000025732E2E0D0A000D0A25730D0A002D21
:10FFE200272C202F3D004552524F520025632C20D2
:0EFFF20000342C3230004B4C4D0025630000D3
:020000040020DA
:08000000FFFFFFFFFFFFFFFF00
:020000040030CA
:0E000000FF381F3CFFBF85FF0FC00FE00F4011
:00000001FF
