:0400000053EF00F0CA
:100008005082FACF02F0FBCF03F0E9CF04F0EACF39
:1000180005F0E1CF06F0E2CF07F0D9CF08F0DACF4C
:1000280009F0F3CF0AF0F4CF0BF0F6CF0CF0F7CFCE
:100038000DF0F8CF0EF0F5CF0FF0F2BAF2A403D01E
:10004800BDEC20F00ED0F2BC9DA805D09EA803D030
:1000580074EC1FF006D0F2BC9DAA03D09EBAD1EC76
:100068001FF00FC0F5FF0EC0F8FF0DC0F7FF0CC062
:10007800F6FF0BC0F4FF0AC0F3FF09C0DAFF08C09F
:10008800D9FF07C0E2FF06C0E1FF05C0EAFF04C0D0
:10009800E9FF03C0FBFF02C0FAFF50921100F4EF22
:1000A8001AF0820E1E6EFF0E1F6E38C020F039C087
:1000B80021F003EC15F038C03AF039C03BF03AC0F3
:1000C8001BF03BC01CF0A00E1D6EFF0E1E6EF6EC62
:1000D80017F01BC03EF01CC03FF03E503F10D8B494
:1000E80036EF06F03EC010F03FC011F0EB0E126E76
:1000F800FF0E136EE4EC1DF010501110D8A428D098
:100108003E503F10D8B420EF06F0E30E106E000EFC
:10011800116E3EC012F03FC013F0A4EC1FF0010EA8
:100128000001846F38C024F039C025F0000E276E16
:10013800000E266E38C01EF039C01FF0EDEC1EF020
:100148001EC028F01FC029F0BBEC1FF0000E1200E3
:100158003EC010F03FC011F0EF0E126EFF0E136E8E
:10016800E4EC1DF010501110D8A427D03E503F10D9
:10017800D8B420EF06F0E30E106E000E116E3EC0EC
:1001880012F03FC013F0A4EC1FF0010E0001846FC1
:1001980038C024F039C025F0000E276E000E266EF8
:1001A80038C01EF039C01FF0EDEC1EF01EC028F05C
:1001B8001FC029F0BBEC1FF0C9D73EC010F03FC0EC
:1001C80011F0B50E126EFF0E136EE4EC1DF0105018
:1001D8001110D8A42DD03E503F10D8B420EF06F00F
:1001E800E30E106E000E116E3EC012F03FC013F009
:1001F800A4EC1FF0010E0001846F38C024F039C050
:1002080025F0000E276E000E266E38C01EF039C08D
:100218001FF0EDEC1EF01EC028F01FC029F0BBEC4B
:100228001FF07A0E1E6EFF0E1F6E03EC15F08ED7B0
:100238003EC010F03FC011F0D70E126EFF0E136EC5
:10024800E4EC1DF010501110D8A477D03E503F10A8
:10025800D8B420EF06F0E30E106E000E116E3EC00B
:1002680012F03FC013F0A4EC1FF0000E1B6E000E3E
:100278001C6EA00E1D6EFF0E1E6EF6EC17F01BC056
:100288003EF01CC03FF0990E1E6EFF0E1F6E3EC062
:1002980020F03FC021F003EC15F0000E3C6E000E7C
:1002A8003D6E3E503F10D8B420EF06F03EC01EF021
:1002B8003FC01FF08FEC17F01E503C6E3C50D8B476
:1002C80020EF06F0000E1B6E000E1C6EA00E1D6EB9
:1002D800FF0E1E6EF6EC17F01BC03EF01CC03FF080
:1002E8003E503F10D8B420EF06F03EC01EF03FC08D
:1002F8001FF08FEC17F01E503D6E3D50D8B420EF24
:1003080006F03DC081F03CC041F0010E0001846F51
:1003180038C024F039C025F0000E276E000E266E76
:1003280038C01EF039C01FF0EDEC1EF01EC028F0DA
:100338001FC029F0BBEC1FF009D73EC010F03FC02A
:1003480011F0BB0E126EFF0E136EE4EC1DF0105090
:100358001110D8A427D03E503F10D8B420EF06F093
:10036800E30E106E000E116E3EC012F03FC013F087
:10037800A4EC1FF0010E0001846F38C024F039C0CE
:1003880025F0000E276E000E266E38C01EF039C00C
:100398001FF0EDEC1EF01EC028F01FC029F0BBECCA
:1003A8001FF0D4D63EC010F03FC011F0C70E126E39
:1003B800FF0E136EE4EC1DF010501110D8A493D06A
:1003C8004904D8A420EF06F05BEC1FF03E503F1024
:1003D800D8B420EF06F0D30E1E6EFE0E1F6E3EC080
:1003E80020F03FC021F003EC15F0E30E106E000E74
:1003F800116E3EC012F03FC013F0A4EC1FF0000EC7
:100408001B6E000E1C6EA00E1D6EFF0E1E6EF6EC0F
:1004180017F01BC03EF01CC03FF03E503F10D8B450
:1004280020EF06F0D30E1E6EFE0E1F6E3EC020F0AB
:100438003FC021F003EC15F03EC024F03FC025F08A
:10044800860E266E000E276E55EC18F000018651B8
:1004580000018711D8B445D0000E1B6E000E1C6E2B
:10046800A00E1D6EFF0E1E6EF6EC17F01BC03EF0C0
:100478001CC03FF03E503F10D8B4DED33EC01EF043
:100488003FC01FF0EDEC1EF01F5029E1280E1E5C46
:10049800D8B025D0880E106E000E116E3EC012F036
:1004A8003FC013F0A4EC1FF0010E0001846F010E91
:1004B8000001B06F38C024F039C025F0000E276E57
:1004C800000E266E38C01EF039C01FF0EDEC1EF08D
:1004D8001EC028F01FC029F0BBEC1FF037D6020E53
:1004E8001200080E12003EC010F03FC011F08A0E34
:1004F800126EFF0E136EE4EC1DF010501110D8A40C
:1005080092D0440E1E6EFF0E1F6E3EC020F03FC0FC
:1005180021F003EC15F04904D8A48ED35BEC1FF04E
:100528003E503F10D8B488D3E30E106E000E116E03
:100538003EC012F03FC013F0A4EC1FF0000E1B6E7B
:10054800000E1C6EA00E1D6EFF0E1E6EF6EC17F050
:100558001BC03EF01CC03FF03E503F10D8B46CD3D7
:100568004D0E1E6EFF0E1F6E3EC020F03FC021F0E4
:1005780003EC15F03EC024F03FC025F0860E266E31
:10058800000E276E55EC18F0000186510001871106
:10059800D8B447D0000E1B6E000E1C6EA00E1D6E48
:1005A800FF0E1E6EF6EC17F01BC03EF01CC03FF0AD
:1005B8003E503F10D8B440D3560E1E6EFF0E1F6E2D
:1005C8003EC020F03FC021F003EC15F03EC030F0F3
:1005D8003FC031F0B60E326E000E336E0AEC1AF0E0
:1005E800030E0001B6611BD0010E0001B76F010EAA
:1005F8000001846F38C024F039C025F0000E276E42
:10060800000E266E38C01EF039C01FF0EDEC1EF04B
:100618001EC028F01FC029F0BBEC1FF097D5040EB0
:100628001200080E12003EC010F03FC011F0A70ED5
:10063800126EFF0E136EE4EC1DF010501110D8A4CA
:1006480012D14904D8A4F8D25BEC1FF03E503F10F9
:10065800D8B4F2D2E30E106E000E116E3EC012F046
:100668003FC013F0A4EC1FF0000E1B6E000E1C6EB2
:10067800A00E1D6EFF0E1E6EF6EC17F01BC03EF0AE
:100688001CC03FF03E503F10D8B4D6D23EC024F034
:100698003FC025F0860E266E000E276E55EC18F02A
:1006A8000001865100018711D8B4DBD08B0E1E6E75
:1006B800FE0E1F6E86C020F087C021F003EC15F0F7
:1006C800000E1B6E000E1C6EA00E1D6EFF0E1E6E21
:1006D800F6EC17F01BC03EF01CC03FF03E503F1038
:1006E800D8B4AAD23EC030F03FC031F0B10E326E5D
:1006F800000E336E0AEC19F00A0E1E6EFD0E1F6E08
:10070800B1C020F0216A03EC15F00001B129D8B47A
:10071800A6D0000E1B6E000E1C6EA00E1D6EFF0EE6
:100728001E6EF6EC17F01BC03EF01CC03FF03E50AA
:100738003F10D8B481D23EC030F03FC031F0B20E85
:10074800326E000E336E61EC19F0EF0E1E6EFC0E69
:100758001F6EB2C020F0216A03EC15F00001B12928
:10076800D8B47BD0000E1B6E000E1C6EA00E1D6E42
:10077800FF0E1E6EF6EC17F01BC03EF01CC03FF0DB
:100788003E503F10D8B458D23EC030F03FC031F090
:10079800B30E326E000E336E0AEC19F08C0E1E6E1C
:1007A800FD0E1F6EB3C020F0216A03EC15F00001A6
:1007B800B329D8B450D0000E1B6E000E1C6EA00ECC
:1007C8001D6EFF0E1E6EF6EC17F01BC03EF01CC02F
:1007D8003FF03E503F10D8B42FD22F0E1E6EFF0EA2
:1007E8001F6E3EC020F03FC021F003EC15F03EC064
:1007F80030F03FC031F0B40E326E000E336E61EC53
:1008080019F0730E1E6EFD0E1F6EB4C020F0216A23
:1008180003EC15F00001B329D8B41BD0010E000178
:10082800B56F010E0001846F38C024F039C025F07F
:10083800000E276E000E266E38C01EF039C01FF05D
:10084800EDEC1EF01EC028F01FC029F0BBEC1FF015
:100858007DD4030E1200030E1200030E1200030EC5
:100868001200080E12003EC010F03FC011F0AE0E8C
:10087800126EFF0E136EE4EC1DF010501110D8A488
:100888001FD0E30E106E000E116E3EC012F03FC076
:1008980013F0A4EC1FF038C024F039C025F0000E86
:1008A800276E000E266E38C01EF039C01FF0EDEC22
:1008B8001EF01EC028F01FC029F0BBEC1FF0B7D1F6
:1008C8003EC010F03FC011F0D20E126EFF0E136E34
:1008D800E4EC1DF010501110D8A47DD14904D8A41F
:1008E800ABD15BEC1FF03E503F10D8B4A5D1E30E5E
:1008F800106E000E116E3EC012F03FC013F0A4EC53
:100908001FF05F0E1E6EFF0E1F6EE30E206E000EB0
:10091800216E03EC15F0000E1B6E000E1C6EFD0E12
:100928001D6EFF0E1E6EF6EC17F01BC03EF01CC0CD
:100938003FF03E503F10D8B47FD13EC02CF03FC0AE
:100948002DF0880E2E6E000E2F6E33EC1CF0E8068C
:10095800D8A43FD13A0E1E6EFF0E1F6E880E206E71
:10096800000E216E03EC15F0000E1B6E000E1C6EBF
:10097800A00E1D6EFF0E1E6EF6EC17F01BC03EF0AB
:100988001CC03FF03E503F10D8B456D13EC030F0A6
:100998003FC031F0B10E326E000E336E0AEC19F022
:1009A8000A0E1E6EFD0E1F6EB1C020F0216A03EC08
:1009B80015F00001B129D8B40AD1000E1B6E000E43
:1009C8001C6EA00E1D6EFF0E1E6EF6EC17F01BC0FF
:1009D8003EF01CC03FF03E503F10D8B42DD13EC071
:1009E80030F03FC031F0B20E326E000E336E61EC63
:1009F80019F0EF0E1E6EFC0E1F6EB2C020F0216AB9
:100A080003EC15F00001B129D8B4DFD0000E1B6E3D
:100A1800000E1C6EA00E1D6EFF0E1E6EF6EC17F07B
:100A28001BC03EF01CC03FF03E503F10D8B404D16C
:100A38003EC030F03FC031F0B30E326E000E336E60
:100A48000AEC19F08C0E1E6EFD0E1F6EB3C020F05E
:100A5800216A03EC15F00001B329D8B4B4D0000E14
:100A68001B6E000E1C6EA00E1D6EFF0E1E6EF6ECA9
:100A780017F01BC03EF01CC03FF03E503F10D8B4EA
:100A8800DBD02F0E1E6EFF0E1F6E3EC020F03FC043
:100A980021F003EC15F03EC030F03FC031F0B40E49
:100AA800326E000E336E61EC19F0730E1E6EFD0E81
:100AB8001F6EB4C020F0216A03EC15F00001B329C1
:100AC800D8B47FD0000E1B6E000E1C6EA00E1D6EDB
:100AD800FF0E1E6EF6EC17F01BC03EF01CC03FF078
:100AE8003E503F10D8B4A8D03EC030F03FC031F0DF
:100AF800B60E326E000E336E0AEC1AF0E806D8A471
:100B08005ED0000E1B6E000E1C6EA00E1D6EFF0E3A
:100B18001E6EF6EC17F01BC03EF01CC03FF03E50B6
:100B28003F10D8B489D03EC030F03FC031F0B80E85
:100B3800326E000E336EA8EC1AF0E806D8A43DD049
:100B4800000E1B6E000E1C6EA00E1D6EFF0E1E6E9C
:100B5800F6EC17F01BC03EF01CC03FF03E503F10B3
:100B6800D8B46AD03EC030F03FC031F0BA0E326E11
:100B7800000E336E5CEC1AF0E806D8A41CD0010E07
:100B88000001B56F010E0001846F38C024F039C030
:100B980025F0000E276E000E266E38C01EF039C0F4
:100BA8001FF0EDEC1EF01EC028F01FC029F0BBECB2
:100BB8001FF0AAEF00F0060E1200050E1200040E38
:100BC8001200030E1200030E1200030E1200030E91
:100BD8001200020E12003EC010F03FC011F0F30EDA
:100BE800126EFF0E136EE4EC1DF010501110D8A415
:100BF80023D0E30E106E000E116E3EC012F03FC0FF
:100C080013F0A4EC1FF038C024F039C025F0000E12
:100C1800276E000E266E38C01EF039C01FF0EDECAE
:100C28001EF01EC028F01FC029F0BBEC1FF0010EFB
:100C38000001846FAAEF00F038C024F039C025F015
:100C4800000E276E000E266E38C01EF039C01FF049
:100C5800EDEC1EF01EC028F01FC029F0BBEC1FF001
:100C6800010E120038C024F039C025F0000E276E9E
:100C7800000E266E38C01EF039C01FF0EDEC1EF0D5
:100C88001EC028F01FC029F0BBEC1FF0010E120097
:100C9800E30E106E000E116EF30E126EFF0E136E41
:100CA800E4EC1DF010501110D8A407D0090E146EF2
:100CB800FF0E156EA3EC20F01200E30E106E000E6E
:100CC800116EB50E126EFF0E136EE4EC1DF010508F
:100CD8001110D8A411D0240E1E6EFF0E1F6E08EC42
:100CE80021F010C020F011C021F0F70E226EFF0E87
:100CF800236E03EC15F01200E30E106E000E116E59
:100D0800EB0E126EFF0E136EE4EC1DF01050111076
:100D1800D8A413D0190E1E6EFF0E1F6EE1EC20F042
:100D28000101816F01018151206E216AF70E226E47
:100D3800FF0E236E03EC15F01200E30E106E000E8A
:100D4800116EEF0E126EFF0E136EE4EC1DF01050D4
:100D58001110D8A413D0190E1E6EFF0E1F6EDAECF8
:100D680020F00101816F01018151206E216AF70E87
:100D7800226EFF0E236E03EC15F01200E30E106EC8
:100D8800000E116ED70E126EFF0E136EE4EC1DF0FE
:100D980010501110D8A410D081C030F0415020EC70
:100DA80017F01D0E1E6EFF0E1F6EF70E206EFF0E43
:100DB800216E03EC15F01200E30E106E000E116E9A
:100DC800BB0E126EFF0E136EE4EC1DF010501110E6
:100DD800D8A43DD0D3EC20F00009D8B41FD00E0E13
:100DE8001E6EFF0E1F6ED3EC20F00101816F010112
:100DF8008151206E216AC5EC20F00101826F01014A
:100E08008251226E236ACCEC20F00101836F01012C
:100E18008351246E256A03EC15F00ED0C60E1E6EA3
:100E2800FD0E1F6ED3EC20F00101816F010181518D
:100E3800206E216A03EC15F0710E1E6EFE0E1F6EF9
:100E4800BB0E206EFF0E216E03EC15F01200E30EB0
:100E5800106E000E116EC70E126EFF0E136EE4ECCC
:100E68001DF010501110D8A40BD0710E1E6EFE0E7E
:100E78001F6EC70E206EFF0E216E03EC15F01200D8
:100E8800E30E106E000E116E8A0E126EFF0E136EB8
:100E9800E4EC1DF010501110D8A40BD0710E1E6E8A
:100EA800FE0E1F6E8A0E206EFF0E216E03EC15F0EB
:100EB8001200E30E106E000E116EA70E126EFF0EDA
:100EC800136EE4EC1DF010501110D8A40BD0710E65
:100ED8001E6EFE0E1F6EA70E206EFF0E216E03EC17
:100EE80015F01200E30E106E000E116EAE0E126EAB
:100EF800FF0E136EE4EC1DF010501110D8A45CD056
:100F08000001B005D8A42BD00001B505D8A427D07E
:100F18000001B705D8A423D0860E3F6E000E406EA0
:100F2800D7EC0FF00001FE6FC80E0001FE19D8A41F
:100F38000BD01F0E1E6EFF0E1F6EC10E206EFF0E11
:100F4800216E03EC15F01200710E1E6EFE0E1F6E60
:100F5800AE0E206EFF0E216E03EC15F0120000019C
:100F6800B051D8A40BD01D0E1E6EFF0E1F6EF70ECB
:100F7800206EFE0E216E03EC15F012000001B55133
:100F8800D8A40BD01D0E1E6EFF0E1F6EDF0E206E36
:100F9800FE0E216E03EC15F012000001B751D8A423
:100FA80012001D0E1E6EFF0E1F6E530E206EFE0EDB
:100FB800216E03EC15F01200E30E106E000E116E98
:100FC800D20E126EFF0E136EE4EC1DF010501110CD
:100FD800D8A41200860E386E000E396EE7EC0BF0BE
:100FE8000001FF6FC80E0001FF19D8A40DD01F0E15
:100FF8001E6EFF0E1F6E7E0E206EFE0E216E03EC1F
:1010080015F0B8EC19F01200C90E0001FF19D8A4A8
:1010180022D0860E386E000E396EE7EC0BF0000118
:10102800FF6FCA0E0001FF19D8A41200000E0001BC
:10103800BA6F860E386E000E396EE7EC0BF00001C1
:10104800FF6F030E1E6EFF0E1F6EFFC020F0216A99
:1010580003EC15F01200CA0E0001FF19D8A415D030
:10106800000E0001BA6F860E386E000E396EE7EC7E
:101078000BF00001FF6F030E1E6EFF0E1F6EFFC008
:1010880020F0216A03EC15F01200CB0E0001FF19C5
:10109800D8A415D0000E0001BA6F860E386E000E67
:1010A800396EE7EC0BF00001FF6F030E1E6EFF0EAA
:1010B8001F6EFFC020F0216A03EC15F01200030E2A
:1010C8001E6EFF0E1F6EFFC020F0216A03EC15F0A4
:1010D8001200396820EE2BF02C50D9262D50DA2238
:1010E800DF507F0B0009D8A402D0000E0CD020EEF0
:1010F8002BF02C50D9262D50DA22DF507F0BE80632
:10110800D8A402D0010E396E20EE2BF02C50D9262F
:101118002D50DA22DF507F0B020AD8A402D0020E2B
:10112800396E20EE2BF02C50D9262D50DA22DF50C4
:101138007F0B030AD8A402D0030E396E3950140D60
:10114800000E2E6E010E2F6EF3502E26F4502F2215
:1011580020EE2CF02C50D9262D50DA22DF507F0BB0
:10116800306E3050010DF3502E24246EF4502F2091
:10117800256E000E276E200E266E20EE32F02C50C3
:10118800D9262D50DA22DF50316E3150286E296A67
:10119800BBEC1FF020EE2AF02C50D9262D50DA2275
:1011A800DF507F0B2E6E20EE35F02C50D9262D50B7
:1011B800DA22DF507F0B2E5CD8B066D03950140D80
:1011C80020EE36F02C50D9262D50DA22DF507F0B36
:1011D8002E6E2F6A2E1E2F1E2E4A2F2A20EE2FF03B
:1011E8002C50D9262D50DA22DF507F0B306E316A11
:1011F8002E5030262F503122000E326E010E336EE3
:101208003050322631503322F3503224106EF450CD
:101218003320116E020E2C24126E000E2D20136E38
:1012280020EE36F02C50D9262D50DA22DF507F0BD5
:10123800346E356A010E3426000E3522341E351EF2
:10124800344A352A20EE32F02C50D9262D50DA2295
:10125800DF50366E376A3450362635503722361E00
:10126800371E364A372A20EE32F02C50D9262D5018
:10127800DA22DF50386E38503624146E000E3720CC
:10128800156E67EC1CF082D020EE35F02C50D92674
:101298002D50DA22DF507F0B2E6E2E50010D020EDC
:1012A800F326000EF422F3502C24D96EF4502D208E
:1012B800DA6EDF50D8B43ED03950140D000E2E6EC1
:1012C800010E2F6EF3502E26F4502F2220EE2CF014
:1012D8002C50D9262D50DA22DF507F0B306E30503B
:1012E800010DF3502E24106EF4502F20116E20EEB5
:1012F80035F02C50D9262D50DA22DF507F0B316E75
:101308003150010D020EF326000EF422F3502C2466
:10131800126EF4502D20136E20EE32F02C50D92688
:101328002D50DA22DF50326E3250146E156A67EC97
:101338001CF02CD03950140D000E2E6E010E2F6E9D
:10134800F3502E26F4502F2220EE2CF02C50D926C4
:101358002D50DA22DF507F0B306E3050010DF350E4
:101368002E24246EF4502F20256E000E276E200E9A
:10137800266E20EE32F02C50D9262D50DA22DF507E
:10138800316E3150286E296ABBEC1FF020EE35F023
:101398002C50D9262D50DA22DF507F0B2E6E20EEEE
:1013A8002AF02C50D9262D50DA22DF507F0B2F6ED1
:1013B8002E502F5CD8A013D0010E2E6E20EE35F0E3
:1013C8002C50D9262D50DA22DF507F0B2F6E2E504D
:1013D8002F26DF502F18800B2F18DF6E120020EEFB
:1013E8002AF02C50D9262D50DA22DF507F0B2E6E92
:1013F80020EE35F02C50D9262D50DA22DF507F0B05
:101408002E5CD8B01200010E2E6E20EE36F02C5055
:10141800D9262D50DA22DF507F0B2F6E2E502F2623
:10142800DF502F18800B2F18DF6E20EE32F02C5073
:10143800D9262D50DA2210EE36F02C50E1262D5008
:10144800E222E7507F0B2F6EDE502F18D8A412002F
:1014580020EE36F02C50D9262D50DA22DF90DF927C
:10146800DF94DF96DF98DF9ADF9C20EE35F02C5072
:10147800D9262D50DA22DF90DF92DF94DF96DF98AD
:10148800DF9ADF9C1200366820EE2BF02C50D9260C
:101498002D50DA22DF507F0B0009D8A402D0000EAD
:1014A8000CD020EE2BF02C50D9262D50DA22DF500C
:1014B8007F0BE806D8A402D0010E366E20EE2BF082
:1014C8002C50D9262D50DA22DF507F0B020AD8A4DF
:1014D80002D0020E366E20EE2BF02C50D9262D505D
:1014E800DA22DF507F0B030AD8A402D0030E366E2F
:1014F8003650140D000E2E6E010E2F6EF3502E2650
:10150800F4502F2220EE2CF02C50D9262D50DA2220
:10151800DF507F0B306E3050010DF3502E24246EB7
:10152800F4502F20256E000E276E200E266E20EE1A
:1015380032F02C50D9262D50DA22DF50316E31503E
:10154800286E296ABBEC1FF020EE32F02C50D92609
:101558002D50DA22DF502E6E20EE33F02C50D92693
:101568002D50DA22DF507F0B2E5CD8B058D020EEF9
:1015780002F02C50D9262D50DA22DF50D8B4A6D04C
:101588003650140D000E2E6E010E2F6EF3502E26BF
:10159800F4502F2220EE2CF02C50D9262D50DA2290
:1015A800DF507F0B306E3050010DF3502E24106E3B
:1015B800F4502F20116E20EE34F02C50D9262D50E7
:1015C800DA22DF507F0B316E326A311E321E314A09
:1015D800322A20EE2AF02C50D9262D50DA22DF505C
:1015E8007F0B336E346A3150332632503422010E69
:1015F8003326000E342233502C24126E34502D2002
:10160800136E20EE32F02C50D9262D50DA22DF50FE
:10161800356E3550146E156A67EC1CF057D020EE05
:1016280002F02C50D9262D50DA22DF50D8B44ED0F3
:101638003650140D000E2E6E010E2F6EF3502E260E
:10164800F4502F2220EE2CF02C50D9262D50DA22DF
:10165800DF507F0B306E3050010DF3502E26F450C2
:101668002F2220EE33F02C50D9262D50DA22DF50CD
:101678007F0B316E3150010DF3502E24106EF45053
:101688002F20116E020E2C24126E000E2D20136EC8
:1016980020EE33F02C50D9262D50DA22DF507F0B64
:1016A800326E336A321E331E324A332A20EE32F04B
:1016B8002C50D9262D50DA22DF50346E3450322483
:1016C800146E000E3320156E67EC1CF020EE33F01C
:1016D8002C50D9262D50DA22DF507F0B2E6E20EEAB
:1016E80032F02C50D9262D50DA222E50DE5CD8A0AC
:1016F80013D0010E2E6E20EE33F02C50D9262D502B
:10170800DA22DF507F0B2F6E2E502F26DF502F1836
:10171800800B2F18DF6E120020EE34F02C50D926E3
:101728002D50DA22DF507F0B2E6E20EE2AF02C503F
:10173800D9262D50DA22DF507F0B2E5CD8B012004C
:10174800010E2E6E20EE34F02C50D9262D50DA22C0
:10175800DF507F0B2F6E2E502F26DF502F18800B57
:101768002F18DF6E20EE2AF02C50D9262D50DA22C1
:10177800DF507F0B2E6E20EE34F02C50D9262D50E2
:10178800DA22DF507F0B2F6E2E502F5CD8A012006C
:1017980020EE33F02C50D9262D50DA22DF90DF923C
:1017A800DF94DF96DF98DF9ADF9C20EE34F02C5030
:1017B800D9262D50DA22DF90DF92DF94DF96DF986A
:1017C800DF9ADF9C1200000E01017D6F000E0101FF
:1017D8007A6F20EE2CF03850D9263950DA22DF50B3
:1017E8003A6E20EE2BF03850D9263950DA22DF50E5
:1017F8004B02F3503A240101786F20EE2EF0385056
:10180800D9263950DA22DF503A6E20EE2DF03850C2
:10181800D9263950DA22DF504B02F3503A2401011D
:10182800796F9DEC16F0245001017A6FAA0E1E6E96
:10183800FC0E1F6E7AC120F0216A78C122F0236A5B
:1018480079C124F0256A03EC15F020EE34F0385005
:10185800D9263950DA22DE04D8B45FD0BB0E246E04
:10186800000E256EFF0E276E2668000E296E280EC4
:10187800286EBBEC1FF0000E426E79C130F00101FA
:10188800785197EC0EF0E806D8B445D04D50435C3B
:10189800D8B01200000E01017D6F37D001017D51D3
:1018A800370D960EF324D96E020EF420DA6EDE5050
:1018B800DE10D8A428D001017D51370D960EF324EF
:1018C800246E020EF420256E000E276E000E266E82
:1018D800000E296E370E286EBBEC1FF001017D51FA
:1018E800370D960EF324306E020EF420316E38C098
:1018F80032F039C033F07AC134F019EC13F0432ACE
:1019080001017A51120001017D2B4D5001017D5DCD
:10191800D8B01200C3D7C80E12004250D8B4ACD009
:10192800620E1E6EFE0E1F6E03EC15F0000E010116
:101938007C6F000E7B6F000E01017C6F000E7B6FC9
:101948007BD0000E01017F6F000E7E6F63D0D890B0
:1019580001017B35D96E01017C35DA6EBB0ED926C3
:10196800000EDA227EC118F07FC119F0000E1B6E3E
:10197800370E1A6EE7EC1FF0960E1824E16E020E71
:101988001920E26EDE50E61842E1DE50E618D8A4CF
:101998003ED0D10E1E6EFC0E1F6E7EC118F07FC1A8
:1019A80019F0000E1B6E370E1A6EE7EC1FF0960E3C
:1019B8001824D96E020E1920DA6EDECF20F0DDCFA2
:1019C80021F07EC122F07FC123F07BC124F07CC1CD
:1019D80025F003EC15F07EC118F07FC119F0000E58
:1019E8001B6E370E1A6EE7EC1FF0960E1824246E45
:1019F800020E1920256E000E276E000E266E000EB0
:101A0800296E370E286EBBEC1FF0430612D0010179
:101A18007E4B7F2B4D503A6E3B6A3A5001017E5DFA
:101A280001017F51800A3C6E3B50800A3C58D8A087
:101A38008ED701017B4B7C2B42503A6E3B6A3A5061
:101A480001017B5D01017C51800A3C6E3B50800A9C
:101A58003C58D8A076D7BB0E246E000E256EFF0E1C
:101A6800276E2668000E296E280E286EBBEC1FF024
:101A7800000E426ECA0E120079C130F00101785191
:101A880097EC0EF0E806D8A402D0C90E1200CB0ECF
:101A98001200356E000E386E000E376E000E366E70
:101AA800000E386E000E376E2FD13550326E336A05
:101AB8003750321804E138503318D8B423D137C01E
:101AC80018F038C019F0000E1B6E370E1A6EE7ECCE
:101AD8001FF0960E1824D96E020E1920DA6EDE5009
:101AE800DE10D8B40FD137C018F038C019F0000E86
:101AF8001B6E370E1A6EE7EC1FF02D0E1826000E1F
:101B08001922960E1824D96E020E1920DA6EDF50AB
:101B18007F0B326E3250305CD8A041D037C018F0FD
:101B280038C019F0000E1B6E370E1A6EE7EC1FF066
:101B3800300E1826000E1922960E1824D96E020EA1
:101B48001920DA6EDF507F0B326E3050325CD8A02D
:101B580026D037C018F038C019F0000E1B6E370EAB
:101B68001A6EE7EC1FF0960E1824D96E020E192093
:101B7800DA6E4250020DBB0EF324E16E000EF42023
:101B8800E26EDECFE6FFDDCFE5FF422A374A382A8C
:101B9800590E1E6EFD0E1F6E03EC15F05AD037C09D
:101BA80018F038C019F0000E1B6E370E1A6EE7ECED
:101BB8001FF02D0E1826000E1922960E1824D96E25
:101BC800020E1920DA6EDF507F0B326E3250315C14
:101BD800D8A042D037C018F038C019F0000E1B6EDC
:101BE800370E1A6EE7EC1FF0300E1826000E192279
:101BF800960E1824D96E020E1920DA6EDF507F0B6C
:101C0800326E3150325CD8A027D037C018F038C0B7
:101C180019F0000E1B6E370E1A6EE7EC1FF0960EC9
:101C28001824D96E020E1920DA6E4250020DBB0E2E
:101C3800F324E16E000EF420E26EDECFE6FFDDCF86
:101C4800E5FF422A3F0E1E6EFD0E1F6E03EC15F0D7
:101C580056D0010E366E58D037C018F038C019F07B
:101C6800000E1B6E370E1A6EE7EC1FF02D0E1826AD
:101C7800000E1922960E1824D96E020E1920DA6E5B
:101C8800DF507F0B326E3050325CD8A03BD037C06B
:101C980018F038C019F0000E1B6E370E1A6EE7ECFC
:101CA8001FF0300E1826000E1922960E1824D96E31
:101CB800020E1920DA6EDF507F0B326E3250315C23
:101CC800D8A020D037C018F038C019F0000E1B6E0D
:101CD800370E1A6EE7EC1FF0960E1824D96E020E16
:101CE8001920DA6E4250020DBB0EF324E16E000E8D
:101CF800F420E26EDECFE6FFDDCFE5FF422A374A69
:101D0800382AA7D7374A382A4D50326E336A3250AC
:101D1800375C3850800A346E3350800A3458D8A063
:101D2800C4D636501200356E000E376E000E366E71
:101D3800000E346E000E376E000E366E25D136C09A
:101D480018F037C019F0000E1B6E370E1A6EE7EC4C
:101D58001FF0960E1824D96E020E1920DA6EDE5086
:101D6800DE10D8B40FD136C018F037C019F0000E05
:101D78001B6E370E1A6EE7EC1FF02D0E1826000E9C
:101D88001922960E1824D96E020E1920DA6EDF5029
:101D98007F0B316E3150355CD8A041D036C018F079
:101DA80037C019F0000E1B6E370E1A6EE7EC1FF0E5
:101DB800300E1826000E1922960E1824D96E020E1F
:101DC8001920DA6EDF507F0B316E3550315CD8A0A8
:101DD80026D036C018F037C019F0000E1B6E370E2B
:101DE8001A6EE7EC1FF0960E1824D96E020E192011
:101DF800DA6E4250020DBB0EF324E16E000EF420A1
:101E0800E26EDECFE6FFDDCFE5FF422A364A372A0B
:101E1800590E1E6EFD0E1F6E03EC15F05AD036C01B
:101E280018F037C019F0000E1B6E370E1A6EE7EC6B
:101E38001FF02D0E1826000E1922960E1824D96EA2
:101E4800020E1920DA6EDF507F0B316E3150305C94
:101E5800D8A042D036C018F037C019F0000E1B6E5B
:101E6800370E1A6EE7EC1FF0300E1826000E1922F6
:101E7800960E1824D96E020E1920DA6EDF507F0BE9
:101E8800316E3050315CD8A027D036C018F037C03A
:101E980019F0000E1B6E370E1A6EE7EC1FF0960E47
:101EA8001824D96E020E1920DA6E4250020DBB0EAC
:101EB800F324E16E000EF420E26EDECFE6FFDDCF04
:101EC800E5FF422A3F0E1E6EFD0E1F6E03EC15F055
:101ED80056D0010E346E58D036C018F037C019F0FD
:101EE800000E1B6E370E1A6EE7EC1FF02D0E18262B
:101EF800000E1922960E1824D96E020E1920DA6ED9
:101F0800DF507F0B316E3550315CD8A03BD036C0E6
:101F180018F037C019F0000E1B6E370E1A6EE7EC7A
:101F28001FF0300E1826000E1922960E1824D96EAE
:101F3800020E1920DA6EDF507F0B316E3150305CA3
:101F4800D8A020D036C018F037C019F0000E1B6E8C
:101F5800370E1A6EE7EC1FF0960E1824D96E020E93
:101F68001920DA6E4250020DBB0EF324E16E000E0A
:101F7800F420E26EDECFE6FFDDCFE5FF422A364AE7
:101F8800372AA7D7364A372A4D50316E326A315030
:101F9800365C3750800A336E3250800A3358D8A0E6
:101FA800CED634501200000E0101806F000E7F6FF4
:101FB80001017C69BB0E246E000E256EFF0E276E94
:101FC8002668000E296E280E286EBBEC1FF0000E46
:101FD800426E20EE2CF03F50D9264050DA22DF50D6
:101FE8000101786F20EE2BF03F50D9264050DA22BD
:101FF800DF504B02F3500101782501017D6F20EE7F
:102008002EF03F50D9264050DA22DF500101786F78
:1020180020EE2DF03F50D9264050DA22DF504B02F7
:10202800F3500101782501017E6F830E1E6EFC0EB0
:102038001F6E3FC0D9FF40C0DAFFDECF20F0DDCFF2
:1020480021F07DC122F0236A7EC124F0256A03ECC9
:1020580015F04D50435CD8B0DED0000E0101806F02
:10206800000E7F6FA1D03FC0D9FF40C0DAFF7FC10B
:1020780018F080C119F0000E1B6E370E1A6EE7ECCF
:102088001FF0960E1824E16E020E1920E26EDE5043
:10209800E6182DE1DE50E618D8A429D07FC17CF1DE
:1020A8007FC118F080C119F0000E1B6E370E1A6E32
:1020B800E7EC1FF0960E1824D96E020E1920DA6E7E
:1020C8004250020DBB0EF324E16E000EF420E26EC6
:1020D800DECFE6FFDDCFE5FF422A7DC130F07EC1CD
:1020E80031F001017C514DEC0DF0C80E12007DC19C
:1020F80030F07EC131F001017C514DEC0DF0E80665
:10210800D8A44FD0430E1E6EFE0E1F6E03EC15F0C2
:10211800000E0101806F000E7F6F28D0D89001015A
:102128007F35D96E01018035DA6EBB0ED926000ED7
:10213800DA22DE2803E1DE28D8B415D0DC0E1E6EC4
:10214800FF0E1F6ED89001017F35D96E01018035D1
:10215800DA6EBB0ED926000EDA22DECF20F0DDCFF4
:1021680021F003EC15F001017F4B802B4D5001014C
:10217800786F796B0101785101017F5D0101805110
:10218800800A01017A6F01017951800A01017A59A7
:10219800D8A0C4D7EC0E1E6EFC0E1F6E03EC15F013
:1021A800A4D701017F4B802B4D500101786F796BCB
:1021B8000101785101017F5D01018051800A01010F
:1021C8007A6F01017951800A01017A59D8A04BD759
:1021D8004350370D960EF324246E020EF420256E1C
:1021E800000E276E000E266E000E296E370E286E22
:1021F800BBEC1FF04350370D960EF324306E020EE1
:10220800F420316E3FC032F040C033F01FEC12F0C2
:10221800432A12EC14F0000E12004450D8B4FFD038
:10222800000E0101856F7ED020EC21F00101856F41
:102238000A0E01018519D8B405D00D0E01018519C2
:10224800D8A40FD0000E00017B6F000E7A6F010E2C
:102258000001806FEC0E1E6EFC0E1F6E03EC15F075
:1022680064D0080E01018519D8A418D000017A0796
:10227800D8A07B07000E00017A25D96E020E000156
:102288007B21DA6E000EDF6EFA0E1E6EFF0E1F6ED9
:1022980085C120F0216A03EC15F044D0000E00013E
:1022A8007A25D96E020E00017B21DA6E85C1DFFF27
:1022B800FA0E1E6EFF0E1F6E000E00017A25D96EF3
:1022C800020E00017B21DA6EDF500101846F0101EB
:1022D8008451206E216A03EC15F0000E106E020E78
:1022E800116ECD0E126EFF0E136EE4EC1DF0105041
:1022F8001110D8A414D0000E246E020E256E000E04
:10230800276E000E266E000E296E960E286EBBEC08
:102318001FF0000E00017B6F000E7A6F03D00001E2
:102328007A4B7B2B4450D8A47FD700017BBF77D052
:1023380000017B5105E1970E00017A5DD8A06FD0AE
:10234800EB0E146EFE0E156EA3EC20F0000E0001CD
:102358007B6F000E7A6F63D0E30E246E000E256E3D
:10236800000E276E000E266E000E296E0F0E286EC8
:10237800BBEC1FF0000E246E020E256E000E276EB9
:10238800000E266E000E296E960E286EBBEC1FF00E
:10239800000E0001846FAF0E146EFE0E156EA3ECD6
:1023A80020F0010E0001826F120000018005D8A400
:1023B8001200000E0001806F000E386E020E396E9A
:1023C80055EC00F00009D8A412D0000E246E020EBD
:1023D800256E000E276E000E266E000E296E960ED4
:1023E800286EBBEC1FF0020E0001826F12001F0E58
:1023F8001E6EFF0E1F6EC10E206EFF0E216E03ECC7
:1024080015F0120000018405D8A405D04CEC06F0A4
:10241800000E0001846F010E0001826F120000019E
:102428008251000AD8B498D7010AD8B4BED7030A93
:10243800D8A41200E7D732C0D9FF33C0DAFF30C0C2
:10244800E1FF31C0E2FFDECFE6FFDDCFE5FF020EA0
:102458003024106E000E3120116E020E3224126EDE
:10246800000E3320136EA4EC1FF0020E30241E6EF3
:10247800000E31201F6EEDEC1EF020EE2AF03050D9
:10248800D9263150DA22DF501E18800B1E18DF6E55
:1024980020EE2BF03250D9263350DA22DF50346E3A
:1024A80020EE2BF03050D9263150DA22DF50341884
:1024B800800B3418DF6E20EE2CF03250D9263350C2
:1024C800DA22DF50346E20EE2CF03050D92631500D
:1024D800DA22DF503418800B3418DF6E20EE2DF02E
:1024E8003250D9263350DA22DF50346E20EE2EF0E7
:1024F8003050D9263150DA22DF503418800B341886
:10250800DF6E20EE2EF03250D9263350DA22DF501B
:10251800346E20EE2FF03050D9263150DA22DF50B9
:102528003418800B3418DF6E20EE2CF03050D9268A
:102538003150DA22DF507F0B346E20EE2BF0305012
:10254800D9263150DA22DF507F0B4B02F350342466
:10255800356E20EE2DF03050D9263150DA22DF507A
:102568003518800B3518DF6E20EE2FF03050D92645
:102578003150DA22DF507F0B346E20EE2EF03050CF
:10258800D9263150DA22DF507F0B4B02F350342426
:10259800356E20EE30F03050D9263150DA22DF5037
:1025A8003518800B3518DF6E20EE30F03250D92602
:1025B8003350DA22DF50346E20EE31F03050D92615
:1025C8003150DA22DF503418F80B3418DF6E20EE61
:1025D80032F03050D9263150DA2210EE30F0305037
:1025E800E1263150E222E7507F0B346E10EE2DF0D9
:1025F8003050E1263150E222E7507F0B00083424A6
:10260800356E3528DF6E250E1E6EFD0E1F6E20EE10
:1026180032F03050D9263150DA22DF50346E34503F
:10262800206E216A03EC15F012003450356E366ABC
:1026380030C0D9FF31C0DAFF35C0DEFF36C0DDFF5C
:10264800020E3024106E000E3120116E020E32245C
:10265800126E000E3320136EA4EC1FF0020E30240D
:102668001E6E000E31201F6EEDEC1EF020EE2AF0DB
:102678003050D9263150DA22DF501E18800B1E1830
:10268800DF6E20EE2BF03250D9263350DA22DF509D
:10269800356E20EE2BF03050D9263150DA22DF503B
:1026A8003518800B3518DF6E20EE2CF03250D92605
:1026B8003350DA22DF50356E20EE2CF03050D92618
:1026C8003150DA22DF503518800B3518DF6E20EED6
:1026D8002DF03250D9263350DA22DF50356E20EEF5
:1026E8002EF03050D9263150DA22DF503518800BC1
:1026F8003518DF6E20EE2EF03250D9263350DA220C
:10270800DF50356E20EE2FF03050D9263150DA22C6
:10271800DF503518800B3518DF6E20EE2CF0305066
:10272800D9263150DA22DF507F0B356E20EE2BF0A0
:102738003050D9263150DA22DF507F0B4B02F3504C
:102748003524366E20EE2DF03050D9263150DA225D
:10275800DF503618800B3618DF6E20EE2FF0305021
:10276800D9263150DA22DF507F0B356E20EE2EF05D
:102778003050D9263150DA22DF507F0B4B02F3500C
:102788003524366E20EE30F03050D9263150DA221A
:10279800DF503618800B3618DF6E20EE30F03250DE
:1027A800D9263350DA22DF50356E20EE31F0305022
:1027B800D9263150DA22DF503518F80B3518DF6E7C
:1027C80020EE32F03050D9263150DA2210EE30F0B7
:1027D8003050E1263150E222E7507F0B356E10EE83
:1027E8002DF03050E1263150E222E7507F0B0008EF
:1027F8003524366E3628DF6E250E1E6EFD0E1F6ED2
:1028080020EE32F03050D9263150DA22DF50356EC2
:102818003550206E216A03EC15F01200000E3E6E52
:10282800000E3D6E000E3E6E000E3D6ED3D03DC0D4
:1028380018F03EC019F0000E1B6E370E1A6EE7EC4A
:102848001FF0020E1826000E1922960E18241E6E6E
:10285800020E19201F6EEDEC1EF01E501F10D8B48A
:102868002CD03DC018F03EC019F0000E1B6E370E7C
:102878001A6EE7EC1FF0310E1826000E1922960E7C
:102888001824D96E020E1920DA6EDF50070B020ADF
:10289800D8A413D03DC018F03EC019F0000E1B6E2E
:1028A800370E1A6EE7EC1FF0960E18242C6E020EE7
:1028B80019202D6E47EC0AF08BD03DC018F03EC0B1
:1028C80019F0000E1B6E370E1A6EE7EC1FF0020EA1
:1028D8001826000E1922960E18241E6E020E1920B4
:1028E8001F6EEDEC1EF01E501F10D8B42CD03DC04A
:1028F80018F03EC019F0000E1B6E370E1A6EE7EC8A
:102908001FF0310E1826000E1922960E1824D96EC3
:10291800020E1920DA6EDF50070BE806D8A413D090
:102928003DC018F03EC019F0000E1B6E370E1A6E2F
:10293800E7EC1FF0960E18242C6E020E19202D6E4F
:102948006DEC08F045D03DC018F03EC019F0000EFF
:102958001B6E370E1A6EE7EC1FF0020E1826000EDB
:102968001922960E18241E6E020E19201F6EEDEC09
:102978001EF01E501F10D8B42BD03DC018F03EC01A
:1029880019F0000E1B6E370E1A6EE7EC1FF0310EB1
:102998001826000E1922960E1824D96E020E192038
:1029A800DA6EDF50070B0009D8A412D03DC018F02A
:1029B8003EC019F0000E1B6E370E1A6EE7EC1FF0C2
:1029C800960E1824246E020E1920256EEFEC15F0D1
:1029D8003D4A3E2A4D503A6E3B6A3A503D5C3E5065
:1029E800800A3C6E3B50800A3C58D8A020D7000E85
:1029F8000001776F010E766F3BEC1BF01200200E82
:102A08002B6E000E2C6ED9D0250E2F18D8B404D0FA
:102A18002F5012EC21F0D1D0000E276E4DD02BC0D4
:102A2800D9FF2CC0DAFFDECF29F0DDCF2AF0020E65
:102A38002B26000E2C2229502A10D8A41AD0920E28
:102A4800296EFF0E2A6E15D029C0F6FF2AC0F7FF9F
:102A5800000EF86E0F0EF76403D00800F55005D08D
:102A6800F6CFE9FFF7CFEAFFEF5012EC21F0294A41
:102A78002A2A29C0F6FF2AC0F7FF000EF86E0F0EAB
:102A8800F76403D00800F55005D0F6CFE9FFF7CF7B
:102A9800EAFFEF500009D8B490D0D6D72BC0D9FFA1
:102AA8002CC0DAFFDF502F6E020E2B26000E2C22D0
:102AB8002F5012EC21F081D01EC0F6FF1FC0F7FF87
:102AC8001E4A1F2AF86A0800F5CF2FF02F50000A77
:102AD800D8B41200630AD8B4E1D7070AD8B407D02B
:102AE8000D0AD8B404D01A0AD8B499D7E1D72BC0A4
:102AF800D9FF2CC0DAFFDECF2DF0DDCF2EF0020E8D
:102B08002B26000E2C222EAE06D0030E27122D6C7B
:102B18002E1ED8B02E2A010E2F6E050E2F18D8B4EF
:102B280015D02F50020D790EF324F66EFC0EF4200A
:102B3800F76EF86A000EF8220900F5502D5C0900BE
:102B4800F5502E58D8A002D02F2AE7D727C026F054
:102B5800030E2616D8B403D02D0E12EC21F02FC088
:102B680028F027D02850020D790EF324F66EFC0EBB
:102B7800F420F76EF86A000EF8220900F5CF12F07B
:102B88000A00F5CF13F02DC010F02EC011F046EC5E
:102B98001DF010C017F011C018F0000E1A6E0A0EC2
:102BA800196E50EC1EF01750300F2F6E2F5012EC8C
:102BB80021F028062828D8A4D5D71EC0F6FF1FC0A4
:102BC800F7FF1E4A1F2AF86A0800F5CF2FF02F508A
:102BD800D8B4120019D72C68000E326E000E316E70
:102BE800000E306E000E2F6E000E2B6E000E2A6E39
:102BF80020EE30F02450D9262550DA22DF507F0B02
:102C0800266E20EE2DF02450D9262550DA22DF50EA
:102C18007F0B000826242D6E020E24241E6E000E43
:102C280025201F6EEDEC1EF01E502E6E20EE2BF0B0
:102C38002450D9262550DA22DF507F0B2C6E20EE47
:102C48002CF02450D9262550DA22DF507F0B266E2F
:102C580026502F6E306A000E326E000E316E5BD039
:102C6800020E3124266E000E3220276E26502424B0
:102C7800D96E27502520DA6E2C50140D000E286EC0
:102C8800010E296EF3502826F45029222F502824AB
:102C9800E16E30502920E26EDFCFE7FF314A322A59
:102CA8002E50266E276A2650315C3250800A286ED4
:102CB8002750800A2858D8B01CD02D50266E276A75
:102CC8002650315C3250800A286E2750800A2858D6
:102CD800D8B00FD02F4A302A4B50266E276A26507C
:102CE8002F5C3050800A286E2750800A2858D8A0B8
:102CF800B7D7000E306E000E2F6E2C2A2D50266E80
:102D0800276A2650315C3250800A286E2750800A84
:102D18002858D8B012002E50266E276A2650315CEB
:102D28003250800A286E2750800A2858D8B01200DE
:102D3800D3D7000E2C6E010E2B6E2BC010F02CC0BA
:102D480011F0ADEC20F0EFEC1CF01CC01EF01DC023
:102D58001FF0000E216E640E206EFBEC1BF053D0AA
:102D6800000E2C6E000E2B6E55D02BC018F02CC008
:102D780019F0000E1B6E370E1A6EE7EC1FF0960E58
:102D88001824D96E020E1920DA6EDE50DE10D8B47F
:102D980017D02BC018F02CC019F0000E1B6E370E80
:102DA8001A6EE7EC1FF0960E1824D96E020E192041
:102DB800DA6E2950DE1818E12A50DE18D8A414D08B
:102DC8002BC018F02CC019F0000E1B6E370E1A6EAF
:102DD800E7EC1FF0960E1824D96E020E1920DA6E51
:102DE800DE50DE10D8A403D02B4A2C2A13D0EFECE7
:102DF8001CF01CC01EF01DC01FF0000E216E640EDA
:102E0800206EFBEC1BF0010E1E24296E000E1F2005
:102E18002A6EA6D74D50266E276A26502B5C2C505A
:102E2800800A286E2750800A2858D8A09ED729C023
:102E380024F02AC025F01200316EB0EC18F0000E14
:102E4800436E960E246E020E256E000E276E000E3F
:102E5800266E040E296E4C0E286EBBEC1FF0BB0EBE
:102E6800246E000E256E000E276E000E266E000ED4
:102E7800296E280E286EBBEC1FF0010E496E710EEC
:102E88001E6EFF0E1F6E31C020F0216A03EC15F094
:102E980031C04AF0680E1E6EFF0E1F6E30C020F063
:102EA800216A03EC15F030C04BF0EF0E1E6EFD0EDC
:102EB8001F6E000E136E040E126E30C010F0116AF1
:102EC8007EEC1BF010C018F011C019F031C01AF0D8
:102ED8001B6AE7EC1FF018C020F019C021F003ECC2
:102EE80015F030C010F0116A000E136E040E126E49
:102EF8007EEC1BF010503102F3CF4DF04D50410FD6
:102F08004C6E120E1E6EFE0E1F6E4CC020F0216A13
:102F180003EC15F0120002D01E4A1F2A1EC0D9FF6A
:102F28001FC0DAFF200EDE18D8B4F6D71EC0D9FFAE
:102F38001FC0DAFF090EDE18D8B4EED7000E246ED3
:102F4800000E236E000E226E1EC0D9FF1FC0DAFFCE
:102F58002D0EDE18D8A402D0222A24D01EC0D9FFF4
:102F68001FC0DAFF2B0EDE18D8A41ED01BD023C03A
:102F780018F024C019F0000E1B6E0A0E1A6EE7EC4A
:102F88001FF01EC0D9FF1FC0DAFFDF50206E216A74
:102F98001850202619502122D00E2024236EFF0E0F
:102FA8002120246E1E4A1F2A1EC0D9FF1FC0DAFF27
:102FB800DF504FEC20F0D8B0DAD72250D8B40DD07B
:102FC80023C020F024C021F0201E211E204A212ADF
:102FD80020C01EF021C01FF0120023C01EF024C024
:102FE8001FF012001B501C10D8A404D07CC01BF08A
:102FF8007DC01CF01B501C10D8A405D0000E1B6E01
:10300800000E1C6E12001BC014F01CC015F01DC071
:1030180016F01EC017F06FEC1DF014501B2615504B
:103028001C221BC0D9FF1CC0DAFFDF50D8A40BD06C
:10303800000E00017C6F000E00017D6F7CC01BF04C
:103048007DC01CF012001BC014F01CC015F01DC080
:1030580016F01EC017F097EC1DF014501B24000149
:103068007C6F15501C2000017D6F7CC0D9FF7DC08E
:10307800DAFFDF50D8B40AD07CC0D9FF7DC0DAFFB0
:10308800000EDF6E00017C4B7D2B06D0000E000188
:103098007C6F000E00017D6F1BC01BF01CC01CF074
:1030A8001200000E2B6E000E2A6E000E2B6E000E04
:1030B8002A6E2AD02A502424D96E2B502520DA6E65
:1030C800DF504FEC20F0D8A012002CC018F02DC013
:1030D80019F0000E1B6E0A0E1A6EE7EC1FF02A504C
:1030E8002424D96E2B502520DA6EDF50286E296AE9
:1030F8001850282619502922D00E28242C6EFF0E8D
:1031080029202D6E2A4A2B2A24C01EF025C01FF024
:10311800EDEC1EF01E502A5C1F502B58D8A0CAD7C1
:103128002C502D10D8B40FD02D500DE1650E2C5C0D
:10313800D8B009D026C0D9FF27C0DAFF000EDE6E4E
:10314800000EDD6E120026C0D9FF27C0DAFF2CC0A2
:10315800DEFF2DC0DDFF1200490E246E000E256E25
:10316800000E276E000E266E000E296E050E286EC4
:10317800BBEC1FF0000E956E9250F009926E809095
:10318800000E116EFA0E106E2EEC1EF0380E7CEC4E
:1031980020F0000E116EFA0E106E2EEC1EF00E0EC0
:1031A8007CEC20F0000E116EFA0E106E2EEC1EF064
:1031B800010E7CEC20F0000E116EFA0E106E2EEC53
:1031C8001EF0060E7CEC20F0000E116EFA0E106E4A
:1031D8002EEC1EF00F0E7CEC20F0000E116EFA0E95
:1031E800106E2EEC1EF0000E246E010E256E000EE1
:1031F800276E200E266E000E296E500E286EBBEC30
:103208001FF096EC1CF00DEC21F01200C70E1E6E9C
:10321800FE0E1F6E30C020F031C021F003EC15F017
:10322800000E376E000E366E000E356E000E366ECE
:10323800000E356E1BD035503024D96E36503120F3
:10324800DA6EDF504FEC20F0D8A012003550302451
:10325800D96E36503120DA6EDF50346E37500A0D91
:10326800F3503424D00F376E354A362A30C01EF05A
:1032780031C01FF0EDEC1EF01E50355C1F50365863
:10328800D8A0D9D7A30E1E6EFE0E1F6E37C020F031
:10329800216A03EC15F04A50375CD8A007D032C039
:1032A800D9FF33C0DAFFFF0EDF6E120032C0D9FF3C
:1032B80033C0DAFF37C0DFFF1200BB0E1E6EFE0EF2
:1032C8001F6E30C020F031C021F003EC15F0000E65
:1032D800366E000E356E000E376E000E366E000E1E
:1032E800356E1BD035503024D96E36503120DA6E09
:1032F800DF504FEC20F0D8A0120035503024D96EA2
:1033080036503120DA6EDF50346E37500A0DF350E4
:103318003424D00F376E354A362A30C01EF031C0FB
:103328001FF0EDEC1EF01E50355C1F503658D8A02B
:10333800D9D7970E1E6EFE0E1F6E37C020F0216A79
:1033480003EC15F04B50375CD8A007D032C0D9FF3A
:1033580033C0DAFFFF0EDF6E120032C0D9FF33C070
:10336800DAFF37C0DFFF1200000E356E000E346E34
:10337800000E356E000E346E3BD0FF0E306EFF0E21
:10338800316E4250326E336A305032263150332219
:103398003450321818E135503318D8A414D0C60E5A
:1033A8001E6EFD0E1F6ED8903434D96E3534DA6E29
:1033B800BB0ED926000EDA22DECF20F0DDCF21F0B9
:1033C80003EC15F013D0E10E1E6EFF0E1F6ED890A1
:1033D8003434D96E3534DA6EBB0ED926000EDA22B3
:1033E800DECF20F0DDCF21F003EC15F0344A352A8A
:1033F8004250306E316A3050345C3550800A326E3B
:103408003150800A3258D8B01200B7D7000E376E44
:10341800000E366E000E356E000E366E000E356EDE
:103428001ED035503024D96E36503120DA6EDF5038
:103438004FEC20F0D8A00FD035503024D96E36503C
:103448003120DA6EDF50346E37500A0DF3503424D1
:10345800D00F376E02D0000E1200354A362A30C01F
:103468001EF031C01FF0EDEC1EF01E50355C1F50F1
:103478003658D8A0D6D7010E1E6EFE0E1F6E37C066
:1034880020F0216A03EC15F04A50375CD8A008D028
:1034980032C0D9FF33C0DAFFFF0EDF6E000E120014
:1034A80032C0D9FF33C0DAFF37C0DFFF010E120088
:1034B800000E356E000E376E000E366E000E376E3B
:1034C800000E366E24D036503024D96E3750312055
:1034D800DA6EDF504FEC20F0D8A00FD036503024F1
:1034E800D96E37503120DA6EDF50346E35500A0D00
:1034F800F3503424D00F356E08D032C0D9FF33C012
:10350800DAFF000EDF6E000E1200364A372A30C08E
:103518001EF031C01FF0EDEC1EF01E50365C1F503F
:103528003758D8A0D0D7DD0E1E6EFD0E1F6E35C0E1
:1035380020F0216A03EC15F032C0D9FF33C0DAFF5E
:1035480035C0DFFF010E1200000E356E000E376E1B
:10355800000E366E000E376E000E366E24D03650D2
:103568003024D96E37503120DA6EDF504FEC20F01E
:10357800D8A00FD036503024D96E37503120DA6EAB
:10358800DF50346E35500A0DF3503424D00F356EA9
:1035980008D032C0D9FF33C0DAFF010EDF6E000E4B
:1035A8001200364A372A30C01EF031C01FF0EDEC49
:1035B8001EF01E50365C1F503758D8A0D0D7A50E25
:1035C8001E6EFD0E1F6E35C020F0216A03EC15F04B
:1035D80032C0D9FF33C0DAFF35C0DFFF010E120059
:1035E800DE0EF66E410EF76E000EF86E01EE86F0F6
:1035F80010EE0DF00900F5CFEEFFE550E150FAE1CD
:10360800520EF66E420EF76E000EF86E00EEF9F0EE
:1036180010EE05F00900F5CFEEFFE550E150FAE1B4
:1036280002EE96F014EE4CF0EE6AE550E150FCE143
:10363800E250FAE102EE00F0960EEE6AE806FDE1CD
:1036480001EE00F0780EEE6AE806FDE100EE60F0AB
:10365800920EEE6AE806FDE100EE41F00D0EEE6A0C
:10366800E806FDE1509050920001C3EF1CF0000104
:10367800760500017711D8A437D0010E7CEC20F034
:103688001CEC21F0000E186E800E98EC20F0000E55
:10369800186E010E196ED0EC1EF0000E186EC00EDA
:1036A80098EC20F0140E186E010E196ED0EC1EF076
:1036B800000E186E940E98EC20F0280E186E010E6D
:1036C800196ED0EC1EF0000E186ED40E98EC20F097
:1036D8003C0E186E010E196ED0EC1EF0000E0001A3
:1036E800776F000E766F1200000E0001776F000EE4
:1036F800766F1200000E156E13AE06D0126C131EF4
:10370800D8B0132A010E156E11AE06D0106C111E1A
:10371800D8B0112A010E151A000E176E000E166E7B
:1037280012501310D8B41CD0010E146E04D0D890C7
:1037380012361336142A13AEFAD7D890163617361F
:103748001250105C13501158D8A005D01250105EBA
:103758001350115A1680D89013321232142EEDD706
:103768001550D8B404D0166C171ED8B0172A16C036
:1037780010F017C011F01200000E0001826F5BEC10
:103788001FF0000E0001846F000E416E000E000154
:10379800816F000E0001806FE30E246E000E256E0F
:1037A800000E276E000E266E000E296E0F0E286E74
:1037B800BBEC1FF0500E246E010E256E000E276E16
:1037C800000E266E000E296E280E286EBBEC1FF028
:1037D800000E246E020E256E000E276E000E266E59
:1037E800000E296E960E286EBBEC1FF01200000E1C
:1037F800236E1FAE06D01E6C1F1ED8B01F2A010EE6
:10380800236E21AE04D0206C211ED8B0212A20506E
:103818002110D8B418D0010E226E04D0D8902036CA
:103828002136222A21AEFAD720501E5C21501F587B
:10383800D8A004D020501E5E21501F5AD8902132A3
:103848002032222EF1D72350D8B404D01E6C1F1E6C
:10385800D8B01F2A1EC01EF01FC01FF012002CC0B7
:103868001EF02DC01FF0EDEC1EF01F502AE1280EAF
:103878001E5CD8B026D02EC010F02FC011F02CC07E
:1038880012F02DC013F0A4EC1FF0010E0001846F9C
:10389800010E0001B06F2CC024F02DC025F0000EE1
:1038A800276E000E266E2CC01EF02DC01FF0EDEC0A
:1038B8001EF01EC028F01FC029F0BBEC1FF0010E3F
:1038C8001200000E120010C016F011C017F014D02C
:1038D8001406D8A0150612C0D9FF13C0DAFF124A81
:1038E800132A16C0E1FF17C0E2FF164A172ADFCFD6
:1038F800E7FFE750D8B40DD014501510D8B409D04C
:10390800E7D716C0D9FF17C0DAFF000EDF6E164AD8
:10391800172A1406D8A015061428F3E11528D8B4D8
:103928001200EFD7000E246E010E256E000E276ED2
:10393800200E266E000E296E500E286EBBEC1FF06E
:10394800B80E1E6EFD0E1F6E000E216E0D0E206E3F
:1039580003EC15F0000E106E010E116E860E126E3D
:10396800010E136E000E156E0D0E146E71EC1EF026
:10397800000E186E010E196ED0EC1EF012005EECEF
:1039880020F023EC21F02CEC21F02EEC21F0040E99
:10399800106E420E116E17EC21F0F28EF28CC0EC14
:1039A8001BF0030E116EE80E106E2EEC1EF0CB0EFF
:1039B8001E6EFD0E1F6E03EC15F032EC21F011ECBB
:1039C80011F000018305D8A4FAD712EC14F0000E08
:1039D8000001836FF4D7F9C010F0FAC011F0FBC0F2
:1039E80012F0FCC013F06D0E146E4E0E156EC60E5E
:1039F800166E410E176E1BEC1DF010C0F9F011C0C9
:103A0800FAF012C0FBF013C0FCF0390E0001F927E0
:103A1800300EFA23000EFB23000EFC23FF0E0001DC
:103A2800FB151C6E7F0E0001FC151D6E1200000EAA
:103A3800186E000E196E000E1A6E000E1B6E10A086
:103A480008D0145018261550192216501A2217504B
:103A58001B22D8901436153616361736D8901332DE
:103A68001232113210321050111012101310D8A443
:103A7800E6D718C010F019C011F01AC012F01BC018
:103A880013F01200000E166E000E156E1250131071
:103A9800D8B41CD0010E146E04D0D8901236133648
:103AA800142A13AEFAD7D890153616361250105C71
:103AB80013501158D8A005D01250105E1350115A47
:103AC8001580D89013321232142EEDD715C010F08D
:103AD80016C011F01200000E1A6E000E196E04D0F6
:103AE800144A152A194A1A2A14C0D9FF15C0DAFF30
:103AF800DF50D8B413D016C010F017C011F014C09E
:103B0800D9FF15C0DAFFDF50186E1850126E136A0D
:103B180091EC1EF010501110D8A4E2D719C014F07F
:103B28001AC015F01200000E1A6E000E196E04D09D
:103B3800144A152A194A1A2A14C0D9FF15C0DAFFDF
:103B4800DF50D8B413D016C010F017C011F014C04D
:103B5800D9FF15C0DAFFDF50186E1850126E136ABD
:103B680091EC1EF010501110D8B4E2D719C014F01F
:103B78001AC015F01200000E146E000E136E000E1F
:103B8800146E000E136E11D0000E166E000E156E18
:103B980016BE06D05E0E155C010E1658D8B003D0BE
:103BA800154A162AF5D7134A142A1050135C1450D4
:103BB800800A126E1150800A1258D8B01200E4D749
:103BC80004D0104A112A124A132A10C0D9FF11C072
:103BD800DAFFDF50146E12C0F6FF13C0F7FFF86A61
:103BE8000800F55000081424156E1550D8A407D005
:103BF80010C0D9FF11C0DAFFDF50D8A4E2D71550A2
:103C0800106E116A10BE11061200000E8D6E000EA5
:103C18008C6E000E896E000E8A6E000E8B6E030E7F
:103C2800966EF80E926E9368BF0E946E000E956EA7
:103C38003C0E0F013A6F3F0E0F01396F000E0F0156
:103C48003B6F030E0F013C6F280E0F01386F616840
:103C5800F19E1200000E146E000E136E000E146E0C
:103C6800000E136E0ED0F6EC20F030EC21F0FCECD8
:103C780020F00009D8B4FBD72CEC21F09E90134A11
:103C8800142A1050135C1450800A126E1150800AC6
:103C98001258D8B01200E7D719501A10D8B418D053
:103CA800010E1B6E04D0D89019361A361B2A1AAE8C
:103CB800FAD71950175C1A501858D8A004D01950C0
:103CC800175E1A50185AD8901A3219321B2EF1D78B
:103CD80017C017F018C018F0120012C018F013C05F
:103CE80019F010C016F011C017F00ED018C0D9FF87
:103CF80019C0DAFF16C0E1FF17C0E2FFDFCFE7FF08
:103D0800184A192A164A172A1406D8A0150614287C
:103D1800EDE11528D8B41200E9D710C0F6FF11C09C
:103D2800F7FFF86A0800F5501218D8A405D010C09B
:103D380010F011C011F0120010C0F6FF11C0F7FF0B
:103D4800104A112AF86A0800F5500009D8A4E5D7E6
:103D5800000E106E000E116E1200106E0001F85168
:103D6800D8B4FCD79DB803D010C0ADFF13D09D9830
:103D78004750010D680EF324D96E000EF420DA6E58
:103D880010C0DFFF472A070E476402D0000E476EB7
:103D98000001F8079D881200000E1A6E15D018C091
:103DA800D9FF19C0DAFFDF50D8B408D018C0D9FF3E
:103DB80019C0DAFFDF508AEC20F003D0200E8AEC1D
:103DC80020F0184A192A1A2A4B501A5CD8B0120047
:103DD800E6D71EC022F01FC023F002D0224A232AB1
:103DE80022C0D9FF23C0DAFFDF50D8A4F7D71EC0FE
:103DF80020F01FC021F0201E211E204A212A225017
:103E080020241E6E235021201F6E1200170ED56E1F
:103E1800C20ED76EF60ED66ED650D7CF12F0136AF2
:103E280012C013F0126A12104E6E13504F6EF294B5
:103E3800F28A6C0E106E420E116E17EC21F032EC05
:103E480021F012009D9A9D98080EB86E900EAB6EE8
:103E5800240EAC6EA00EAF6E010EB06E000E476E53
:103E6800000E486E080E0001F86F000E456E000E39
:103E7800466E000E446E9D8A1200000E106E44506D
:103E8800D8B4FDD74650010D600EF324D96E000E4C
:103E9800F420DA6EDF50106E462A070E466402D010
:103EA800000E466E9D9A44069D8A10501200860E9A
:103EB800246E000E256E000E276E000E266E000E74
:103EC800296E350E286EBBEC1FF00001B6690001A3
:103ED800B2690001B4690001B3690001B369120055
:103EE800080E0001F86113D04850010D680EF32444
:103EF800D96E000EF420DA6EDF50AD6E482A070E38
:103F0800486402D0000E486E0001F82B12009D98FC
:103F180012000BD012C0F6FF13C0F7FFF86A0800B2
:103F2800F55012EC21F0124A132A12C0F6FF13C002
:103F3800F7FFF86A0800F5500009D8B41200EAD76C
:103F480010C014F011C015F004D0144A152A124AF2
:103F5800132A12C0D9FF13C0DAFF14C0E1FF15C03D
:103F6800E2FFDFCFE7FFE750D8B41200EED724C056
:103F78002AF025C02BF008D02AC0D9FF2BC0DAFFC1
:103F880026C0DFFF2A4A2B2A2806D8A02906282877
:103F9800F3E12928D8B41200EFD7ABA202D0AB982E
:103FA800AB884550010D600EF324D96E000EF42045
:103FB800DA6EAECFDFFF452A070E456402D0000E49
:103FC800456E442A120018501A02F3CF1CF0F4CFA1
:103FD8001DF018501B02F3501D2619501A02F350F9
:103FE8001D261CC018F01DC019F01200120E0F017A
:103FF8004E6F000E0F014D6F0F015069EC0E0F014F
:104008004F6F4FCFF6F050CFF7F07E9226EC21F0AD
:1040180012000001F2510001F311D8B4120001D8C6
:1040280012000500FA6E0001F251FD6EF351FE6EAA
:10403800FF6AFA501200000E246E010E256E000E63
:10404800276E200E266E000E296E500E286EBBECD1
:104058001FF0B5EC20F01200320ECD6E000ECC6EC3
:10406800FE0ECF6E0C0ECE6ECECFF4F0CFCFF5F0A5
:104078009E9030EC21F01200960E246E020E256EF2
:10408800000E276E000E266E040E296E4C0E286E4A
:10409800BBEC1FF01200126E000E116E3A0E126089
:1040A80005D02F0E126402D0010E116E11C010F04F
:1040B8001030120034EC21F009EC1EF0E8EC20F08E
:1040C800FAEC1FF030EC20F00AEC1FF026EC1FF0A1
:1040D80012008DA402D0010E01D0000EFF0A016E5D
:1040E800014601468D500118FB0B01188D6E120018
:1040F800176E17C083FF809480928080000E116E27
:10410800010E106EBFEC1DF080901200176E8084B7
:10411800809217C083FF8080000E116E010E106E12
:10412800BFEC1DF080901200196E140E186402D0B6
:10413800000E186E185019247CEC20F0120014C0E0
:1041480012F015C013F08DEC1FF00A0E12EC21F0DE
:10415800120010C0F9F011C0FAF00001FB6BFC6B03
:104168001200000E0001756F000E746F40EC20F015
:104178001200F2944F50D76E4EC0D6FF0DEC20F0CF
:1041880012004950D8A402D0000E1200410E1200AD
:104198004950D8A402D0000E12004C041200495015
:1041A800D8A402D0000E12004D5012004950D8A4D5
:1041B80002D0000E12004A5012004950D8A402D072
:1041C800000E12004B501200700ED36E040ED26E09
:1041D800800E9B6E1200494E49545F535543434528
:0341E8005353002E
:1041EC000001F551CF6EF4C0CEFF12009EA002D09C
:1041FC00010E1200000E12006DEC20F0010E0001F9
:10420C00836F1200E60E106EFF0E116E12001FEC83
:10421C0020F0B5EC20F01200116E1150B1EC1EF034
:10422C00120010C0F2F011C0F3F01200060E7CEC7C
:10423C0020F0120041EC1FF012000F014E91120001
:0B424C000F014E811200010000004134
:10425800CD901200D59E1200CD801200D58E12008E
:06426800D09E12001200BE
:10FC78000001000A006400E8031027554944203DAC
:10FC88002025632C2073746172745F7074203D208A
:10FC980025642C20656E645F7074203D2025640DFA
:10FCA8000A00554944203D2025642C207374617254
:10FCB800745F7074203D2025642C20656E645F702D
:10FCC80074203D2025640D0A0025642E2E6A3D25EA
:10FCD800642C636F6E666C6963745F636F756E74B2
:10FCE8003D2564200D0A00636D645F646174612EB4
:10FCF80073746172745F636F6C203D2025642C0DF2
:10FD08000A00636D645F646174612E737461727458
:10FD18005F726F77203D2025642C0D0A006469739B
:10FD2800706C61795F636861725F636F756E742070
:10FD38003D2025640D0A0065785F7370203C3D20E6
:10FD48006E65775F6570203C3D65785F65700D0A6C
:10FD58000065785F7370203C3D206E65775F737037
:10FD6800203C3D65785F65700D0A00636D645F64D3
:10FD78006174612E656E645F636F6C203D2025643D
:10FD88002C0D0A00636D645F646174612E656E6496
:10FD98005F726F77203D2025642C0D0A006469731B
:10FDA800706C61795F667271203D2025640D0A00D0
:10FDB80073697A656F662873747229203D202564FB
:10FDC8000D0A00496E69745F636F6D706C657465C8
:10FDD8002E2E0D0A006F7665725F77726974652042
:10FDE8003D2025640D0A00737472696E675F636F46
:10FDF800756E74203D2025640064697265637469BA
:10FE08006F6E203D2025640D0A007569645F72617C
:10FE18006E6765203D2025640D0A006D69645F6387
:10FE2800686172203D2025640D0A0025732C20731B
:10FE380074726C656E2025640D0A00636F6E666CC3
:10FE48006963743A207569640D0A004552525F531C
:10FE580043524F4C4C5F53455400636F6E666C6958
:10FE680063742E2E2E320D0A000D0A25732E2E2CA9
:10FE7800204F4B0D0A004552525F434F4E464C49A6
:10FE8800435400756964203D2025642C0D0A004305
:10FE98006F6C32203D2025640D0A00726F77322086
:10FEA8003D2025640D0A00496E69745F446F6E65D4
:10FEB8000D0A00636F6C31203D2025730D0A007216
:10FEC8006F7731203D2025730D0A0074656D702011
:10FED8003D2025732C20004552525F524F575F43F7
:10FEE8004F4C004552525F434D445F4C454E0045D0
:10FEF80052525F5354525F534554000D0A25640D06
:10FF08000A4F4B0D0A0025642C25632D25630D0A25
:10FF1800000D0A25640D0A25730D0A000D0A2573C4
:10FF28000D0A25730D0A00636F6C203D2025730DA3
:10FF38000A00646174613D25730D0A0025732E2E35
:10FF48002E340D0A0025732E2E2E350D0A0025732A
:10FF58002E2E2E360D0A00434D443D25730D0A0002
:10FF6800636F6C203D20256400726F77203D20254B
:10FF780064002E2E2E2E2E0D0A0025732E2E320DE5
:10FF88000A0053445343524F4C00286E756C6C2939
:10FF98000025732E2E0D0A002D272C202F3D0053EF
:10FFA800445345524300555044415445004C434442
:10FFB800533F00474D44533F004552524F52005360
:10FFC80044535452004B4C4D2B0053535452004C45
:10FFD8004344530025632C200025642C2000342C36
:10FFE8003230004D433F004D523F004B4C4D004FC7
:08FFF8004B002563002C000002
:020000040020DA
:08000000FFFFFFFFFFFFFFFF00
:020000040030CA
:0E000000FF381F3CFFBF85FF0FC00FE00F4011
:00000001FF
