:0400000053EF00F0CA
:100008005082FACF02F0FBCF03F0E9CF04F0EACF39
:1000180005F0E1CF06F0E2CF07F0D9CF08F0DACF4C
:1000280009F0F3CF0AF0F4CF0BF0F6CF0CF0F7CFCE
:100038000DF0F8CF0EF0F5CF0FF0F2BAF2A403D01E
:100048009FEC1BF00ED0F2BC9DA805D09EA803D053
:1000580075EC1AF006D0F2BC9DAA03D09EBABBEC90
:100068001AF00FC0F5FF0EC0F8FF0DC0F7FF0CC067
:10007800F6FF0BC0F4FF0AC0F3FF09C0DAFF08C09F
:10008800D9FF07C0E2FF06C0E1FF05C0EAFF04C0D0
:10009800E9FF03C0FBFF02C0FAFF5092110078EF9E
:1000A80017F0B20E246EFF0E256EDAC026F0DBC004
:1000B80027F002EC11F0DAC082F1DBC083F182C1D3
:1000C8002DF083C12EF0BA0E2F6EFF0E306E30EC7D
:1000D80016F02DC084F12EC085F101018451010173
:1000E8008511D8B438D082C11DF083C11EF0DF0E4F
:1000F8001F6EFF0E206E77EC15F01DC084F11EC038
:1001080085F10101845101018511D8B49EEF06F0F3
:10011800CB0E106E000E116E84C112F085C113F063
:1001280049EC19F0010E0001846FDAC024F0DBC03D
:1001380025F0000E276E000E266EDAC01EF0DBC01A
:100148001FF037EC18F01EC028F01FC029F0A5ECEE
:100158001AF0000E120082C12DF083C12EF0C20EDB
:100168002F6EFF0E306E30EC16F02DC084F12EC0CD
:1001780085F10101845101018511D8B437D082C1BC
:100188001DF083C11EF0DF0E1F6EFF0E206E77EC90
:1001980015F01DC084F11EC085F1010184510101D3
:1001A8008511D8B49EEF06F0CB0E106E000E116EBE
:1001B80084C112F085C113F049EC19F0010E000159
:1001C800846FDAC024F0DBC025F0000E276E000E25
:1001D800266EDAC01EF0DBC01FF037EC18F01EC028
:1001E80028F01FC029F0A5EC1AF0B3D782C12DF072
:1001F80083C12EF04D0E2F6EFF0E306E30EC16F0D0
:100208002D502E10D8B402D0010E01D0000E0101DD
:10021800846F856B0101845101018511D8B43DD0EB
:1002280082C11DF083C11EF0DF0E1F6EFF0E206E0F
:1002380077EC15F01DC084F11EC085F101018451D1
:1002480001018511D8B49EEF06F0CB0E106E000E9A
:10025800116E84C112F085C113F049EC19F0010E3A
:100268000001846FDAC024F0DBC025F0000E276E91
:10027800000E266EDAC01EF0DBC01FF037EC18F057
:100288001EC028F01FC029F0A5EC1AF0AA0E246E93
:10029800FF0E256E02EC11F05CD782C12DF083C1F0
:1002A8002EF08F0E2F6EFF0E306E30EC16F02DC034
:1002B80084F12EC085F10101845101018511D8B462
:1002C80093D082C11DF083C11EF0DF0E1F6EFF0E9A
:1002D800206E77EC15F01DC084F11EC085F1010178
:1002E800845101018511D8B49EEF06F0CB0E106E33
:1002F800000E116E84C112F085C113F049EC19F09B
:10030800000E1D6E000E1E6EDF0E1F6EFF0E206E9D
:1003180077EC15F01DC084F11EC085F1D10E246E56
:10032800FF0E256E84C126F085C127F002EC11F07E
:10033800000E01017A6F000E01017B6F01018451EB
:1003480001018511D8B49EEF06F084C11EF085C165
:100358001FF0D6EC12F01E5001017A6F01017A519C
:100368000101D8B49EEF06F0000E1D6E000E1E6E41
:10037800DF0E1F6EFF0E206E77EC15F01DC084F1A6
:100388001EC085F10101845101018511D8B49EEF89
:1003980006F084C11EF085C11FF0D6EC12F01E5085
:1003A80001017B6F01017B510101D8B49EEF06F07A
:1003B8007BC181F07AC141F0010E0001846FDAC07F
:1003C80024F0DBC025F0000E276E000E266EDAC082
:1003D8001EF0DBC01FF037EC18F01EC028F01FC05D
:1003E80029F0A5EC1AF0B5D682C12DF083C12EF004
:1003F800570E2F6EFF0E306E30EC16F02DC084F1C4
:100408002EC085F10101845101018511D8B437D07E
:1004180082C11DF083C11EF0DF0E1F6EFF0E206E1D
:1004280077EC15F01DC084F11EC085F101018451DF
:1004380001018511D8B49EEF06F0CB0E106E000EA8
:10044800116E84C112F085C113F049EC19F0010E48
:100458000001846FDAC024F0DBC025F0000E276E9F
:10046800000E266EDAC01EF0DBC01FF037EC18F065
:100478001EC028F01FC029F0A5EC1AF06AD682C168
:100488002DF083C12EF0610E2F6EFF0E306E30EC12
:1004980016F02DC084F12EC085F1010184510101AF
:1004A8008511D8B4D0D04904D8A49EEF06F0000E28
:1004B8000001AF6F82C11DF083C11EF0DF0E1F6EF9
:1004C800FF0E206E77EC15F01DC084F11EC085F17B
:1004D8000101845101018511D8B49EEF06F0B90ECF
:1004E800246EFE0E256E84C126F085C127F002EC2D
:1004F80011F0CB0E106E000E116E84C112F085C182
:1005080013F049EC19F0000E01017E6F00018669B5
:10051800000E1D6E000E1E6EDF0E1F6EFF0E206E8B
:1005280077EC15F01DC084F11EC085F101018451DE
:1005380001018511D8B4FED3B90E246EFE0E256EC6
:1005480084C126F085C127F002EC11F0000E0101EC
:10055800786F84C1F6FF85C1F7FF000EF86E0F0EA5
:10056800F76403D00800F55005D0F6CFE9FFF7CFC0
:10057800EAFFEF5001017E6F400E01017E6561D0F8
:100588004C5001017E5DD8B05CD02C0E246EFF0E5D
:10059800256E7EC126F0276A02EC11F07EC186F036
:1005A800000E1D6E000E1E6EFD0E1F6EFF0E206EDD
:1005B80077EC15F01DC084F11EC085F1010184514E
:1005C80001018511D8B4B6D3210E246EFF0E256E15
:1005D80084C126F085C127F002EC11F084C11EF019
:1005E80085C11FF037EC18F01F5029E1280E1E5C5A
:1005F800D8B025D0870E106E000E116E84C112F08F
:1006080085C113F049EC19F0010E0001846F010E49
:100618000001AF6FDAC024F0DBC025F0000E276EB2
:10062800000E266EDAC01EF0DBC01FF037EC18F0A3
:100638001EC028F01FC029F0A5EC1AF08AD5020EBA
:100648001200070E120082C12DF083C12EF0D10EC8
:100658002F6EFE0E306E30EC16F02DC084F12EC0D9
:1006680085F10101845101018511D8B435D16B0E92
:10067800246EFF0E256E84C126F085C127F002EC9A
:1006880011F04904D8A456D3000E0001B66F82C1F8
:100698001DF083C11EF0DF0E1F6EFF0E206E77EC7B
:1006A80015F01DC084F11EC085F1010184510101BE
:1006B8008511D8B43FD3CB0E106E000E116E84C1D5
:1006C80012F085C113F049EC19F0000E01017F6F9B
:1006D800000E0101806F000E1D6E000E1E6EDF0EF3
:1006E8001F6EFF0E206E77EC15F01DC084F11EC042
:1006F80085F10101845101018511D8B41BD3740E11
:10070800246EFF0E256E84C126F085C127F002EC09
:1007180011F0000E01017D6F84C1F6FF85C1F7FF5E
:10072800000EF86E0F0EF76403D00800F55005D0E0
:10073800F6CFE9FFF7CFEAFFEF500101806F000124
:10074800B569400E01018065C5D04C500101805D3E
:10075800D8B0C0D02C0E246EFF0E256E80C126F0B6
:10076800276A02EC11F00101805100018619D8A412
:10077800E1D2000E1D6E000E1E6EDF0E1F6EFF0E04
:10078800206E77EC15F01DC084F11EC085F10101C3
:10079800845101018511D8B4CDD27D0E246EFF0E8F
:1007A800256E84C126F085C127F002EC11F0000EF9
:1007B80001017D6F50D001017D51010D84C1DCF034
:1007C80085C1DDF0F3500001DC27F4500001DD2382
:1007D800DCC0F6FFDDC0F7FF000EF86E0F0EF76401
:1007E80003D00800F55005D0F6CFE9FFF7CFEAFFB0
:1007F800EF5039EC1BF0D8A02AD001017D51010D32
:1008080084C1DCF085C1DDF0F3500001DC27F45031
:100818000001DD23DCC0F6FFDDC0F7FF000EF86E37
:100828000F0EF76403D00800F55005D0F6CFE9FFA6
:10083800F7CFEAFFEF500001DE6F01017F510A0D8B
:10084800F3500001DE25D00F01017F6F02D0000EAA
:10085800120001017D2B84C11EF085C11FF037EC09
:1008680018F001017D510001DC6FDD6B1E500001A5
:10087800DC5D1F500001DD59D8A09DD7030E010192
:100888007F6126D0860E246EFE0E256E7FC126F06F
:10089800276A02EC11F07FC1B5F0010E0001B66FB6
:1008A800010E0001846FDAC024F0DBC025F0000ED1
:1008B800276E000E266EDAC01EF0DBC01FF037EC84
:1008C80018F01EC028F01FC029F0A5EC1AF041D47A
:1008D800040E1200070E120082C12DF083C12EF003
:1008E800370E2F6EFF0E306E30EC16F02DC084F1EF
:1008F8002EC085F10101845101018511D8B445D17B
:100908004904D8A417D2000E0001B46F82C11DF0AB
:1009180083C11EF0DF0E1F6EFF0E206E77EC15F000
:100928001DC084F11EC085F10101845101018511AA
:10093800D8B400D2CB0E106E000E116E84C112F026
:1009480085C113F049EC19F0000E1D6E000E1E6EE5
:10095800DF0E1F6EFF0E206E77EC15F01DC084F1C0
:100968001EC085F1000E0101816F01018451010152
:100978008511D8B4DFD1000E0101796F84C1F6FF6B
:1009880085C1F7FF000EF86E0F0EF76403D008005C
:10099800F55005D0F6CFE9FFF7CFEAFFEF50010198
:1009A800816F400E01018165EED04C500101815DDF
:1009B800D8B0E9D0A10E246EFE0E256E81C126F0B6
:1009C800276A02EC11F00101815100018619D8A4AF
:1009D800B1D1000E1D6E000E1E6EDF0E1F6EFF0ED3
:1009E800206E77EC15F01DC084F11EC085F1010161
:1009F800845101018511D8B49DD184C136F085C1D7
:100A080037F0B00E386E000E396EA2EC14F0310ECD
:100A1800246EFD0E256EB0C026F0276A02EC11F098
:100A28000001B029D8B4ADD0000E1D6E000E1E6EA8
:100A3800DF0E1F6EFF0E206E77EC15F01DC084F1DF
:100A48001EC085F10101845101018511D8B472D10C
:100A580084C136F085C137F0B10E386E000E396E9C
:100A6800EEEC11F0160E246EFD0E256EB1C026F0C8
:100A7800276A02EC11F00001B029D8B480D0000E2A
:100A88001D6E000E1E6EDF0E1F6EFF0E206E77ECC1
:100A980015F01DC084F11EC085F1010184510101CA
:100AA8008511D8B447D184C136F085C137F0B20E6C
:100AB800386E000E396EA2EC14F0B30E246EFD0EE3
:100AC800256EB2C026F0276A02EC11F00001B229A7
:100AD800D8B453D0000E1D6E000E1E6EDF0E1F6EB2
:100AE800FF0E206E77EC15F01DC084F11EC085F155
:100AF8000101845101018511D8B41CD1160E246E50
:100B0800FF0E256E84C126F085C127F002EC11F096
:100B180084C136F085C137F0B30E386E000E396ED9
:100B2800EEEC11F09A0E246EFD0E256EB3C026F081
:100B3800276A02EC11F00001B229D8B41CD0010ECA
:100B48000001B46F010E0001846FDAC024F0DBC02D
:100B580025F0000E276E000E266EDAC01EF0DBC0F0
:100B68001FF037EC18F01EC028F01FC029F0A5ECC4
:100B78001AF0ADEF00F0030E1200030E1200030E80
:100B88001200030E1200070E120082C12DF083C15D
:100B98002EF0420E2F6EFF0E306E30EC16F02DC088
:100BA80084F12EC085F10101845101018511D8B469
:100BB8001FD0CB0E106E000E116E84C112F085C1CD
:100BC80013F049EC19F0DAC024F0DBC025F0000E70
:100BD800276E000E266EDAC01EF0DBC01FF037EC61
:100BE80018F01EC028F01FC029F0A5EC1AF09DD0FF
:100BF80082C12DF083C12EF0860E2F6EFF0E306E4F
:100C080030EC16F02DC084F12EC085F1010184511D
:100C180001018511D8B457D04904D8A48BD082C11A
:100C28001DF083C11EF0DF0E1F6EFF0E206E77ECE5
:100C380015F01DC084F11EC085F101018451010128
:100C48008511D8B477D0CB0E106E000E116E84C10A
:100C580012F085C113F049EC19F0000E01017C6F08
:100C680082C11DF083C11EF0DF0E1F6EFF0E206EC5
:100C780077EC15F01DC084F11EC085F10101845187
:100C880001018511D8B456D084C1F6FF85C1F7FF9C
:100C9800000EF86E0F0EF76403D00800F55005D06B
:100CA800F6CFE9FFF7CFEAFFEF5001017C6F400E66
:100CB80001017C653FD04C5001017C5DD8B03AD031
:100CC8007CC186F037D082C12DF083C12EF0F60E9C
:100CD8002F6EFF0E306E30EC16F02DC084F12EC052
:100CE80085F10101845101018511D8B423D0CB0EBF
:100CF800106E000E116E84C112F085C113F049EC1C
:100D080019F0DAC024F0DBC025F0000E276E000EC3
:100D1800266EDAC01EF0DBC01FF037EC18F01EC0DC
:100D280028F01FC029F0A5EC1AF0010E0001846F0D
:100D3800ADEF00F0DAC024F0DBC025F0000E276E1E
:100D4800000E266EDAC01EF0DBC01FF037EC18F07C
:100D58001EC028F01FC029F0A5EC1AF0010E1200E1
:100D68003B6820EE2AF02C50D9262D50DA22DF508D
:100D78007F0B0009D8A402D0000E0CD020EE2AF078
:100D88002C50D9262D50DA22DF507F0BE806D8A444
:100D980002D0010E3B6E20EE2AF02C50D9262D50A1
:100DA800DA22DF507F0B020AD8A402D0020E3B6E73
:100DB80020EE2AF02C50D9262D50DA22DF507F0B56
:100DC800030AD8A402D0030E3B6E3B50140D000E4C
:100DD8002E6E010E2F6EF3502E26F4502F2220EE89
:100DE8002BF02C50D9262D50DA22DF507F0B306E95
:100DF8003050010DF3502E24246EF4502F20256E10
:100E0800000E276E200E266E20EE31F02C50D926CB
:100E18002D50DA22DF50316E3150286E296AA5EC48
:100E28001AF020EE29F02C50D9262D50DA22DF5066
:100E38007F0B2E6E20EE34F02C50D9262D50DA225E
:100E4800DF507F0B2E5CD8B06ED03B50140DFF0ED8
:100E58002E6EFF0E2F6E20EE35F02C50D9262D5019
:100E6800DA22DF507F0B306E316A301E311E304A75
:100E7800312A20EE2EF02C50D9262D50DA22DF50C0
:100E88007F0B326E336A30503226315033222E5067
:100E980032262F503322000E346E010E356E32503A
:100EA800342633503522F3503424106EF450352054
:100EB800116E010E2C24126E000E2D20136E20EEE2
:100EC80035F02C50D9262D50DA22DF507F0B366EA4
:100ED800376A010E3626000E3722361E371E364A6E
:100EE800372A20EE31F02C50D9262D50DA22DF5047
:100EF800386E396A3650382637503922381E391E2E
:100F0800384A392A20EE31F02C50D9262D50DA22D1
:100F1800DF503A6E3A503824146E000E3920156EA0
:100F2800AFEC17F055D020EE34F02C50D9262D50C8
:100F3800DA22DF507F0B2E6E2E50010D010EF326A4
:100F4800000EF422F3502C24D96EF4502D20DA6EC2
:100F5800DF50D8B43DD03B50140D000E2E6E010E5C
:100F68002F6EF3502E26F4502F2220EE2BF02C500B
:100F7800D9262D50DA22DF507F0B306E3050010D0C
:100F8800F3502E24106EF4502F20116E20EE34F002
:100F98002C50D9262D50DA22DF507F0B316E31507C
:100FA800010D010EF326000EF422F3502C24126ECC
:100FB800F4502D20136E20EE31F02C50D9262D50F0
:100FC800DA22DF50326E3250146E156AAFEC19F027
:100FD80020EE34F02C50D9262D50DA22DF507F0B2A
:100FE8002E6E20EE29F02C50D9262D50DA22DF5013
:100FF8007F0B2F6E2E502F5CD8A013D0010E2E6EB3
:1010080020EE34F02C50D9262D50DA22DF507F0BF9
:101018002F6E2E502F26DF502F18800B2F18DF6EC3
:10102800120020EE29F02C50D9262D50DA22DF505C
:101038007F0B2E6E20EE34F02C50D9262D50DA225C
:10104800DF507F0B2E5CD8B01200010E2E6E20EE02
:1010580035F02C50D9262D50DA22DF507F0B2F6E19
:101068002E502F26DF502F18800B2F18DF6E20EE02
:1010780031F02C50D9262D50DA2210EE35F02C50B4
:10108800E1262D50E222E7507F0B2F6EDE502F18FD
:10109800D8A4120020EE35F02C50D9262D50DA2293
:1010A800DF90DF92DF94DF96DF98DF9ADF9C20EEF7
:1010B80034F02C50D9262D50DA22DF90DF92DF94BD
:1010C800DF96DF98DF9ADF9C1200CB0E106E000EC1
:1010D800116EF60E126EFF0E136EDAEC18F0105049
:1010E8001110D8A407D09C0E146EFE0E156E8DEC50
:1010F8001BF01200CB0E106E000E116E4D0E126E0C
:10110800FF0E136EDAEC18F010501110D8A417D097
:10111800DA0E246EFF0E256EEAEC1BF010C026F0E6
:1011280011C027F002EC11F0940E246EFE0E256E0D
:101138004D0E266EFF0E276E02EC11F01200CB0E3C
:10114800106E000E116EBA0E126EFF0E136EDAECF0
:1011580018F010501110D8A419D0F00E246EFD0EFE
:10116800256EC3EC1BF00001E46F0001E451266E0C
:10117800276A02EC11F0940E246EFE0E256EBA0E4C
:10118800266EFF0E276E02EC11F01200CB0E106EC9
:10119800000E116EC20E126EFF0E136EDAEC18F00E
:1011A80010501110D8A419D0F00E246EFD0E256E23
:1011B800BCEC1BF00001E46F0001E451266E276AC5
:1011C80002EC11F0940E246EFE0E256EC20E266EF1
:1011D800FF0E276E02EC11F01200CB0E106E000EFF
:1011E800116E8F0E126EFF0E136EDAEC18F010509F
:1011F8001110D8A410D081C036F0415033EC14F04F
:10120800940E246EFE0E256E8F0E266EFF0E276E30
:1012180002EC11F01200CB0E106E000E116E570E7C
:10122800126EFF0E136EDAEC18F010501110D8A4DD
:101238003DD0B5EC1BF00009D8B41FD0F50E246ED4
:10124800FE0E256EB5EC1BF00001E46F0001E451C1
:10125800266E276AA7EC1BF00001E56F0001E55137
:10126800286E296AAEEC1BF00001E66F0001E6511A
:101278002A6E2B6A02EC11F00ED0F00E246EFD0ED1
:10128800256EB5EC1BF00001E46F0001E451266EF9
:10129800276A02EC11F0940E246EFE0E256E570E8E
:1012A800266EFF0E276E02EC11F01200CB0E106EA8
:1012B800000E116E610E126EFF0E136EDAEC18F04E
:1012C80010501110D8A40BD0940E246EFE0E256E6B
:1012D800610E266EFF0E276E02EC11F01200CB0E87
:1012E800106E000E116ED10E126EFE0E136EDAEC39
:1012F80018F010501110D8A40BD0940E246EFE0EC6
:10130800256ED10E266EFE0E276E02EC11F012002D
:10131800CB0E106E000E116E370E126EFF0E136E8E
:10132800DAEC18F010501110D8A40BD0940E246EDB
:10133800FE0E256E370E266EFF0E276E02EC11F09C
:101348001200CB0E106E000E116E420E126EFF0EC2
:10135800136EDAEC18F010501110D8A41200000126
:10136800AF05D8A42CD00001B405D8A428D000011A
:10137800B605D8A424D0860E0001DA6F000E00014D
:10138800DB6FF4EC0CF00001E76F0001E705D8A46F
:101398000BD0DA0E246EFF0E256EE60E266EFF0EBB
:1013A800276E02EC11F01200940E246EFE0E256ECC
:1013B800420E266EFF0E276E02EC11F0120000019D
:1013C800AF51D8A40BD0D80E246EFF0E256EE90EAF
:1013D800266EFE0E276E02EC11F012000001B451C9
:1013E800D8A40BD0D80E246EFF0E256EC50E266E1F
:1013F800FE0E276E02EC11F012000001B651D8A4BF
:101408001200D80E246EFF0E256E690E266EFE0E93
:10141800276E02EC11F01200366820EE2AF02C50EC
:10142800D9262D50DA22DF507F0B0009D8A402D02C
:10143800000E0CD020EE2AF02C50D9262D50DA229E
:10144800DF507F0BE806D8A402D0010E366E20EEDE
:101458002AF02C50D9262D50DA22DF507F0B020AB1
:10146800D8A402D0020E366E20EE2AF02C50D926CF
:101478002D50DA22DF507F0B030AD8A402D0030EC6
:10148800366E3650140D000E2E6E010E2F6EF35070
:101498002E26F4502F2220EE2BF02C50D9262D503A
:1014A800DA22DF507F0B306E3050010DF3502E24BE
:1014B800246EF4502F20256E000E276E200E266E07
:1014C80020EE31F02C50D9262D50DA22DF50316E23
:1014D8003150286E296AA5EC1AF020EE31F02C5014
:1014E800D9262D50DA22DF502E6E20EE32F02C5005
:1014F800D9262D50DA22DF507F0B2E5CD8B054D07D
:1015080020EE01F02C50D9262D50DA22DF50D8B425
:10151800A2D03650140D000E2E6E010E2F6EF35011
:101528002E26F4502F2220EE2BF02C50D9262D50A9
:10153800DA22DF507F0B306E3050010DF3502E242D
:10154800106EF4502F20116E20EE33F02C50D92657
:101558002D50DA22DF507F0B316E326A311E321E77
:10156800314A322A20EE29F02C50D9262D50DA2281
:10157800DF507F0B336E346A3150332632503422B9
:1015880033502C24126E34502D20136E20EE31F07F
:101598002C50D9262D50DA22DF50356E3550146E76
:1015A800156AAFEC19F057D020EE01F02C50D9266F
:1015B8002D50DA22DF50D8B44ED03650140D000E1C
:1015C8002E6E010E2F6EF3502E26F4502F2220EE91
:1015D8002BF02C50D9262D50DA22DF507F0B306E9D
:1015E8003050010DF3502E26F4502F2220EE32F009
:1015F8002C50D9262D50DA22DF507F0B316E315016
:10160800010DF3502E24106EF4502F20116E010E90
:101618002C24126E000E2D20136E20EE32F02C506A
:10162800D9262D50DA22DF507F0B326E336A321EF4
:10163800331E324A332A20EE31F02C50D9262D5051
:10164800DA22DF50346E34503224146E000E332008
:10165800156EAFEC19F020EE32F02C50D9262D5033
:10166800DA22DF507F0B2E6E20EE31F02C50D92677
:101678002D50DA222E50DE5CD8A013D0010E2E6E2B
:1016880020EE32F02C50D9262D50DA22DF507F0B75
:101698002F6E2E502F26DF502F18800B2F18DF6E3D
:1016A800120020EE33F02C50D9262D50DA22DF50CC
:1016B8007F0B2E6E20EE29F02C50D9262D50DA22E1
:1016C800DF507F0B2E5CD8B01200010E2E6E20EE7C
:1016D80033F02C50D9262D50DA22DF507F0B2F6E95
:1016E8002E502F26DF502F18800B2F18DF6E20EE7C
:1016F80029F02C50D9262D50DA22DF507F0B2E6E80
:1017080020EE33F02C50D9262D50DA22DF507F0BF3
:101718002F6E2E502F5CD8A0120020EE32F02C50E5
:10172800D9262D50DA22DF90DF92DF94DF96DF98FA
:10173800DF9ADF9C20EE33F02C50D9262D50DA2288
:10174800DF90DF92DF94DF96DF98DF9ADF9C12004C
:101758003B6E000E3E6E000E3D6E000E3C6E000E9F
:101768003E6E000E3D6E2DD13B50386E396A3D50AD
:10177800381804E13E503918D8B421D13DC018F0CA
:101788003EC019F0000E1B6E360E1A6ED1EC1AF020
:10179800960E1824D96E020E1920DA6EDF507F0BD0
:1017A8000009D8B40CD13DC018F03EC019F0000EA5
:1017B8001B6E360E1A6ED1EC1AF02C0E1826000E7F
:1017C8001922960E1824D96E020E1920DA6EDF50EF
:1017D8007F0B386E3850365CD8A040D03DC018F02A
:1017E8003EC019F0000E1B6E360E1A6ED1EC1AF0C0
:1017F8002F0E1826000E1922960E1824D96E020EE6
:101808001920DA6EDF507F0B386E3650385CD8A05E
:1018180025D04250010DB70EF324D96E000EF420E6
:10182800DA6E3DC018F03EC019F0000E1B6E360E81
:101838001A6ED1EC1AF0960E1824E16E020E1920D9
:10184800E26EE7507F0BDF6E422A3D4A3E2A800E49
:10185800246EFD0E256E02EC11F059D03DC018F033
:101868003EC019F0000E1B6E360E1A6ED1EC1AF03F
:101878002C0E1826000E1922960E1824D96E020E68
:101888001920DA6EDF507F0B386E3850375CD8A0DD
:1018980041D03DC018F03EC019F0000E1B6E360E48
:1018A8001A6ED1EC1AF02F0E1826000E1922960E79
:1018B8001824D96E020E1920DA6EDF507F0B386EAD
:1018C8003750385CD8A026D04250010DB70EF3240B
:1018D800D96E000EF420DA6E3DC018F03EC019F043
:1018E800000E1B6E360E1A6ED1EC1AF0960E1824E6
:1018F800E16E020E1920E26EE7507F0BDF6E422A7E
:10190800660E246EFD0E256E02EC11F055D0010E08
:101918003C6E57D03DC018F03EC019F0000E1B6E4B
:10192800360E1A6ED1EC1AF02C0E1826000E19225B
:10193800960E1824D96E020E1920DA6EDF507F0B2E
:10194800386E3650385CD8A03AD03DC018F03EC04A
:1019580019F0000E1B6E360E1A6ED1EC1AF02F0E0F
:101968001826000E1922960E1824D96E020E192078
:10197800DA6EDF507F0B386E3850375CD8A01FD036
:101988004250010DB70EF324D96E000EF420DA6E22
:101998003DC018F03EC019F0000E1B6E360E1A6ED0
:1019A800D1EC1AF0960E1824E16E020E1920E26EA0
:1019B800E7507F0BDF6E422A3D4A3E2AA8D73D4AB0
:1019C8003E2A4D50386E396A38503D5C3E50800A88
:1019D8003A6E3950800A3A58D8A0C6D63C50120000
:1019E800000E0001E36F000EE26F0001DF69B70E21
:1019F800246E000E256EFF0E276E2668000E296ED7
:101A0800140E286EA5EC1AF0000E426E000120EEAE
:101A18002BF0DA51D926DB51DA22DF500001DC6FD6
:101A2800000120EE2AF0DA51D926DB51DA22DF5004
:101A38004B02F3500001DC250001E06F000120EEAD
:101A48002DF0DA51D926DB51DA22DF500001DC6FA4
:101A5800000120EE2CF0DA51D926DB51DA22DF50D2
:101A68004B02F3500001DC250001E16FCF0E246E1C
:101A7800FC0E256EDAC0D9FFDBC0DAFFDF500001AB
:101A8800DC6F0001DC51266E276AE0C028F0296A65
:101A9800E1C02AF02B6A02EC11F04D50435CD8B03B
:101AA800CFD0000E0001E36F000EE26F92D0DAC0D3
:101AB800D9FFDBC0DAFFE2C018F0E3C019F0000E6E
:101AC8001B6E360E1A6ED1EC1AF0960E1824E16EC3
:101AD800020E1920E26EE7507F0B0001DD6FDE5029
:101AE8000001DD19D8A428D0E2C0DFF04250010D72
:101AF800B70EF324D96E000EF420DA6EE2C018F0A7
:101B0800E3C019F0000E1B6E360E1A6ED1EC1AF0F7
:101B1800960E1824E16E020E1920E26EE7507F0B34
:101B2800DF6E422AE0C036F0E1C037F00001DF5135
:101B3800ACEC0BF0010E1200E0C036F0E1C037F05B
:101B48000001DF51ACEC0BF0E806D8A43FD04A0EF8
:101B5800246EFE0E256E02EC11F0000E0001E36FFC
:101B6800000EE26F18D0EC0E246EFF0E256EB70E35
:101B78000001E225D96E000E0001E321DA6EDF5084
:101B88000001DC6F0001DC51266E276A02EC11F0BF
:101B98000001E24BE32B4D500001DC6FDD6B0001CF
:101BA800DC510001E25D0001E351800A0001DE6FB3
:101BB8000001DD51800A0001DE59D8A0D4D7AA0E51
:101BC800246EFE0E256E02EC11F0B4D70001E24B34
:101BD800E32B4D500001DC6FDD6B0001DC5100018F
:101BE800E25D0001E351800A0001DE6F0001DD5172
:101BF800800A0001DE59D8A05AD74350360D960EF8
:101C0800F324246E020EF420256E000E276E000EBB
:101C1800266E000E296E360E286EA5EC1AF043507B
:101C2800360D960EF324366E020EF420376EDAC0A7
:101C380038F0DBC039F026EC0EF0432A23EC0FF025
:101C4800000E120038C0D9FF39C0DAFFDF503A6EF3
:101C580036C0D9FF37C0DAFFDF503A18800B3A1880
:101C6800DF6E010E3624106E000E3720116E010E45
:101C78003824126E000E3920136E49EC19F0010E4B
:101C880036241E6E000E37201F6E37EC18F020EE3B
:101C980029F03650D9263750DA22DF501E18800B2B
:101CA8001E18DF6E20EE2AF03850D9263950DA2275
:101CB800DF503A6E20EE2AF03650D9263750DA2215
:101CC800DF503A18800B3A18DF6E20EE2BF03850B0
:101CD800D9263950DA22DF503A6E20EE2BF03650F2
:101CE800D9263750DA22DF503A18800B3A18DF6EBF
:101CF80020EE2CF03850D9263950DA22DF503A6ECF
:101D080020EE2DF03650D9263750DA22DF503A1817
:101D1800800B3A18DF6E20EE2DF03850D926395056
:101D2800DA22DF503A6E20EE2EF03650D9263750A0
:101D3800DA22DF503A18800B3A18DF6E20EE2BF0CB
:101D48003650D9263750DA22DF507F0B3A6E20EE14
:101D58002AF03650D9263750DA22DF507F0B4B0253
:101D6800F3503A243B6E20EE2CF03650D9263750EB
:101D7800DA22DF503B18800B3B18DF6E20EE2EF086
:101D88003650D9263750DA22DF507F0B3A6E20EED4
:101D98002DF03650D9263750DA22DF507F0B4B0210
:101DA800F3503A243B6E20EE2FF03650D9263750A8
:101DB800DA22DF503B18800B3B18DF6E20EE2FF045
:101DC8003850D9263950DA22DF503A6E20EE30F0FA
:101DD8003650D9263750DA22DF503A18F80B3A181D
:101DE800DF6E20EE31F03650D9263750DA2210EE69
:101DF8002FF03650E1263750E222E7507F0B3A6E3B
:101E080010EE2CF03650E1263750E222E7507F0BD7
:101E180000083A243B6E3B28DF6E4C0E246EFD0E04
:101E2800256E20EE31F03650D9263750DA22DF50B1
:101E38003A6E3A50266E276A02EC11F01200000E34
:101E4800406E000E3F6E000E406E000E3F6ED3D007
:101E58003FC018F040C019F0000E1B6E360E1A6E07
:101E6800D1EC1AF0010E1826000E1922960E18242D
:101E78001E6E020E19201F6E37EC18F01E501F1030
:101E8800D8B42CD03FC018F040C019F0000E1B6E1B
:101E9800360E1A6ED1EC1AF0300E1826000E1922E2
:101EA800960E1824D96E020E1920DA6EDF50070B31
:101EB800020AD8A413D03FC018F040C019F0000E91
:101EC8001B6E360E1A6ED1EC1AF0960E18242C6E74
:101ED800020E19202D6E10EC0AF08BD03FC018F0BE
:101EE80040C019F0000E1B6E360E1A6ED1EC1AF0B7
:101EF800010E1826000E1922960E18241E6E020EC8
:101F080019201F6E37EC18F01E501F10D8B42CD0B3
:101F18003FC018F040C019F0000E1B6E360E1A6E46
:101F2800D1EC1AF0300E1826000E1922960E18243D
:101F3800D96E020E1920DA6EDF50070BE806D8A416
:101F480013D03FC018F040C019F0000E1B6E360EBB
:101F58001A6ED1EC1AF0960E18242C6E020E192067
:101F68002D6EB4EC06F045D03FC018F040C019F013
:101F7800000E1B6E360E1A6ED1EC1AF0010E1826E2
:101F8800000E1922960E18241E6E020E19201F6EBE
:101F980037EC18F01E501F10D8B42BD03FC018F0E3
:101FA80040C019F0000E1B6E360E1A6ED1EC1AF0F6
:101FB800300E1826000E1922960E1824D96E020E1D
:101FC8001920DA6EDF50070B0009D8A412D03FC0E1
:101FD80018F040C019F0000E1B6E360E1A6ED1ECC8
:101FE8001AF0960E1824246E020E1920256E85EC20
:101FF80013F03F4A402A4D503C6E3D6A3C503F5CCE
:102008004050800A3E6E3D50800A3E58D8A020D7E6
:10201800000E0001776F010E766F80EC16F012004B
:102028004450D8B4DFD0000E0001E96F5CD002EC58
:102038001CF00001E96F0A0E0001E919D8B405D0B7
:102048000D0E0001E919D8A40FD0000E00017B6F16
:10205800000E7A6F010E0001806FAA0E246EFE0E2C
:10206800256E02EC11F042D0080E0001E919D8A43F
:1020780018D000017A07D8A07B07000E00017A2546
:10208800D96E020E00017B21DA6E000EDF6EFA0EA9
:10209800246EFF0E256EE9C026F0276A02EC11F0C7
:1020A80022D0000E00017A25D96E020E00017B2194
:1020B800DA6EE9C0DFFFFA0E246EFF0E256E000E01
:1020C80000017A25D96E020E00017B21DA6EDF50FD
:1020D8000001E86F0001E851266E276A02EC11F052
:1020E80000017A4B7B2B4450D8A4A1D700017BBFB9
:1020F80079D000017B5105E1970E00017A5DD8A0E7
:1021080071D0DD0E146EFE0E156E8DEC1BF0000EF8
:1021180000017B6F000E7A6F65D0CB0E246E000E27
:10212800256E000E276E000E266E000E296E0F0E0D
:10213800286EA5EC1AF0000E246E020E256E000E15
:10214800276E000E266E000E296E960E286EA5ECE0
:102158001AF0000E0001846FAD0E146EFE0E156E9F
:102168008DEC1BF0010E0001826F1200000180054A
:10217800D8A41200000E0001806F000E0001DA6F73
:10218800020E0001DB6F55EC00F00009D8A412D054
:10219800000E246E020E256E000E276E000E266EAF
:1021A800000E296E960E286EA5EC1AF0020E00019C
:1021B800826F1200DA0E246EFF0E256EE60E266E72
:1021C800FF0E276E02EC11F0120000018405D8A45E
:1021D80005D069EC08F0000E0001846F010E0001C3
:1021E800826F120000018251000AD8B496D7010A02
:1021F800D8B4BCD7030AD8A41200E7D7260E316E8C
:10220800000E326ED9D0250E3518D8B404D035500A
:10221800F4EC1BF0D1D0000E2D6E4DD031C0D9FF9B
:1022280032C0DAFFDECF2FF0DDCF30F0020E3126DC
:10223800000E32222F503010D8A41AD0CA0E2F6E9A
:10224800FF0E306E15D02FC0F6FF30C0F7FF000E1E
:10225800F86E0F0EF76403D00800F55005D0F6CFDE
:10226800E9FFF7CFEAFFEF50F4EC1BF02F4A302AD2
:102278002FC0F6FF30C0F7FF000EF86E0F0EF764A0
:1022880003D00800F55005D0F6CFE9FFF7CFEAFFF5
:10229800EF500009D8B490D0D6D731C0D9FF32C09A
:1022A800DAFFDF50356E020E3126000E322235502D
:1022B800F4EC1BF081D024C0F6FF25C0F7FF244AB8
:1022C800252AF86A0800F5CF35F03550000AD8B449
:1022D8001200630AD8B4E1D7070AD8B407D00D0AA8
:1022E800D8B404D01A0AD8B499D7E1D731C0D9FFE5
:1022F80032C0DAFFDECF33F0DDCF34F0020E312604
:10230800000E322234AE06D0030E2D12336C341E6A
:10231800D8B0342A010E356E050E3518D8B415D04C
:102328003550020DC50EF324F66EFC0EF420F76E40
:10233800F86A000EF8220900F550335C0900F550E0
:102348003458D8A002D0352AE7D72DC02CF0030E78
:102358002C16D8B403D02D0EF4EC1BF035C02EF09B
:1023680027D02E50020DC50EF324F66EFC0EF42075
:10237800F76EF86A000EF8220900F5CF12F00A008D
:10238800F5CF13F033C010F034C011F061EC18F041
:1023980010C017F011C018F0000E1A6E0A0E196E50
:1023A8008EEC19F01750300F356E3550F4EC1BF0E9
:1023B8002E062E28D8A4D5D724C0F6FF25C0F7FFAF
:1023C800244A252AF86A0800F5CF35F03550D8B4E4
:1023D800120019D7780E246EFE0E256E36C026F030
:1023E80037C027F002EC11F0000E3F6E000E3E6E73
:1023F800000E3D6E000E3F6E000E3E6EACD03E509D
:1024080036243A6E3F5037203B6E3AC0F6FF3BC049
:10241800F7FF000EF86E0F0EF76403D00800F550B2
:1024280005D0F6CFE9FFF7CFEAFFEF5039EC1BF004
:10243800D8A05BD03E5036243A6E3F5037203B6ED2
:102448003AC0F6FF3BC0F7FF000EF86E0F0EF764B8
:1024580003D00800F55005D0F6CFE9FFF7CFEAFF23
:10246800EF503C6E3D500A0DF3503C24D00F3D6EAA
:10247800F60E246EFC0E256E36C01EF037C01FF017
:1024880037EC18F01EC026F01FC027F03EC028F019
:102498003FC029F03DC02AF02B6A02EC11F05A0E19
:1024A800246EFE0E256E3EC026F03FC027F03E503B
:1024B80036243A6E3F5037203B6E3AC0F6FF3BC099
:1024C800F7FF000EF86E0F0EF76403D00800F55002
:1024D80005D0F6CFE9FFF7CFEAFFEF503C6E3C504E
:1024E800286E296A02EC11F034D0CC0E246EFD0E51
:1024F800256E3EC026F03FC027F036C028F037C012
:1025080029F002EC11F05A0E246EFE0E256E3EC024
:1025180026F03FC027F03E5036243A6E3F50372011
:102528003B6E3AC0F6FF3BC0F7FF000EF86E0F0E89
:10253800F76403D00800F55005D0F6CFE9FFF7CFD0
:10254800EAFFEF503C6E3C50286E296A02EC11F00D
:1025580012003E4A3F2A36C01EF037C01FF037EC43
:1025680018F01E503E5C1F503F58D8A048D7000EA8
:10257800246EFF0E256E3DC026F0276A02EC11F08E
:102588004B503D5CD8A007D038C0D9FF39C0DAFF1E
:10259800FF0EDF6E120038C0D9FF39C0DAFF3DC028
:1025A800DFFF120002D01E4A1F2A1EC0F6FF1FC0FE
:1025B800F7FF000EF86E0F0EF76403D00800F55011
:1025C80005D0F6CFE9FFF7CFEAFFEF50200AD8B4DD
:1025D800EAD71EC0F6FF1FC0F7FF000EF86E0F0EF9
:1025E800F76403D00800F55005D0F6CFE9FFF7CF20
:1025F800EAFFEF50090AD8B4D6D7000E246E000EB1
:10260800236E000E226E1EC0F6FF1FC0F7FF000EDD
:10261800F86E0F0EF76403D00800F55005D0F6CF1A
:10262800E9FFF7CFEAFFEF502D0AD8A402D0222AFB
:102638003CD01EC0F6FF1FC0F7FF000EF86E0F0E4D
:10264800F76403D00800F55005D0F6CFE9FFF7CFBF
:10265800EAFFEF502B0AD8A42AD027D023C018F0BD
:1026680024C019F0000E1B6E0A0E1A6ED1EC1AF077
:102678001EC0F6FF1FC0F7FF000EF86E0F0EF764BE
:1026880003D00800F55005D0F6CFE9FFF7CFEAFFF1
:10269800EF50206E216A1850202619502122D00EA2
:1026A8002024236EFF0E2120246E1E4A1F2A1EC0DE
:1026B800F6FF1FC0F7FF000EF86E0F0EF76403D089
:1026C8000800F55005D0F6CFE9FFF7CFEAFFEF5045
:1026D80039EC1BF0D8B0C2D72250D8B40DD023C0E3
:1026E80020F024C021F0201E211E204A212A20C0CB
:1026F8001EF021C01FF0120023C01EF024C01FF0DE
:1027080012002C68000E326E000E316E000E306E14
:10271800000E2F6E000E2B6E000E2A6E20EE2FF08C
:102728002450D9262550DA22DF507F0B266E20EE62
:102738002CF02450D9262550DA22DF507F0B0008D0
:1027480026242D6E010E24241E6E000E25201F6ED9
:1027580037EC18F01E502E6E20EE2AF02450D926A1
:102768002550DA22DF507F0B2C6E20EE2BF0245000
:10277800D9262550DA22DF507F0B266E26502F6E81
:10278800306A000E326E000E316E5BD0010E3124BD
:10279800266E000E3220276E26502424D96E27502C
:1027A8002520DA6E2C50140D000E286E010E296EAD
:1027B800F3502826F45029222F502824E16E305057
:1027C8002920E26EDFCFE7FF314A322A2E50266EEB
:1027D800276A2650315C3250800A286E2750800ABA
:1027E8002858D8B01CD02D50266E276A2650315C48
:1027F8003250800A286E2750800A2858D8B00FD047
:102808002F4A302A4B50266E276A26502F5C3050AC
:10281800800A286E2750800A2858D8A0B7D7000EFB
:10282800306E000E2F6E2C2A2D50266E276A2650E9
:10283800315C3250800A286E2750800A2858D8B058
:1028480012002E50266E276A2650315C3250800ABC
:10285800286E2750800A2858D8B01200D3D7376E70
:10286800D6EC15F0000E436E960E246E020E256E01
:10287800000E276E000E266E040E296E380E286E86
:10288800A5EC1AF0B70E246E000E256E000E276E0A
:10289800000E266E000E296E140E286EA5EC1AF096
:1028A800010E496EA10E246EFF0E256E37C026F06C
:1028B800276A02EC11F037C04AF0980E246EFF0E1A
:1028C800256E36C026F0276A02EC11F036C04BF0B0
:1028D800070E246EFE0E256E000E136E040E126E89
:1028E80036C010F0116AC3EC16F010C018F011C011
:1028F80019F037C01AF01B6AD1EC1AF018C026F08C
:1029080019C027F002EC11F036C010F0116A000E61
:10291800136E040E126EC3EC16F010503702F3CF8C
:102928004DF04D50410F4C6E190E246EFE0E256E63
:102938004CC026F0276A02EC11F01200000E3F6E20
:10294800000E3E6E000E3D6E000E3E6E000E3D6E99
:102958003BD03D5036243A6E3E5037203B6E3AC04D
:10296800F6FF3BC0F7FF000EF86E0F0EF76403D0BA
:102978000800F55005D0F6CFE9FFF7CFEAFFEF5092
:1029880039EC1BF0D8A012003D5036243A6E3E5068
:1029980037203B6E3AC0F6FF3BC0F7FF000EF86EDB
:1029A8000F0EF76403D00800F55005D0F6CFE9FF05
:1029B800F7CFEAFFEF503C6E3F500A0DF3503C242E
:1029C800D00F3F6E3D4A3E2A36C01EF037C01FF07A
:1029D80037EC18F01E503D5C1F503E58D8A0B9D7B0
:1029E8000B0E246EFF0E256E3FC026F0276A02EC00
:1029F80011F04A503F5CD8A007D038C0D9FF39C081
:102A0800DAFFFF0EDF6E120038C0D9FF39C0DAFFD7
:102A18003FC0DFFF12005AD024C0F6FF25C0F7FFE1
:102A2800000EF86E0F0EF76403D00800F55005D0BD
:102A3800F6CFE9FFF7CFEAFFEF500009D8B41CD072
:102A480026C0F6FF27C0F7FFF86A0800F5CF2AF07E
:102A580024C0F6FF25C0F7FF000EF86E0F0EF764CE
:102A680003D00800F55005D0F6CFE9FFF7CFEAFF0D
:102A7800EF502A18D8B426D026C0F6FF27C0F7FF93
:102A8800F86A0800F5502A6E2B6A2A1E2B1E2A4A5D
:102A98002B2A24C0F6FF25C0F7FF000EF86E0F0E94
:102AA800F76403D00800F55005D0F6CFE9FFF7CF5B
:102AB800EAFFEF502C6E2C502A24246E000E2B2097
:102AC800256E1200244A252A264A272A2806D8A035
:102AD80029062828A1E12928D8A49ED7000E256E0A
:102AE800000E246E12001D501E10D8A404D07CC005
:102AF8001DF07DC01EF01D501E10D8A405D0000E7C
:102B08001D6E000E1E6E12001DC016F01EC017F0BE
:102B18001FC018F020C019F08AEC18F016501D26B6
:102B280017501E221DC0D9FF1EC0DAFFDF50D8A4DF
:102B38000BD0000E00017C6F000E00017D6F7CC081
:102B48001DF07DC01EF012001DC016F01EC017F04B
:102B58001FC018F020C019F0B2EC18F016501D2450
:102B680000017C6F17501E2000017D6F7CC0D9FFCB
:102B78007DC0DAFFDF50D8B40AD07CC0D9FF7DC051
:102B8800DAFF000EDF6E00017C4B7D2B06D0000EB5
:102B980000017C6F000E00017D6F1DC01DF01EC07E
:102BA8001EF01200490E246E000E256E000E276ED0
:102BB800000E266E000E296E050E286EA5EC1AF082
:102BC800000E956E9250F009926E8090000E116E74
:102BD800FA0E106E6CEC19F0380E66EC1BF0000E55
:102BE800116EFA0E106E6CEC19F00E0E66EC1BF0FE
:102BF800000E116EFA0E106E6CEC19F0010E66ECF8
:102C08001BF0000E116EFA0E106E6CEC19F0060E29
:102C180066EC1BF0000E116EFA0E106E6CEC19F0DB
:102C28000F0E66EC1BF0000E116EFA0E106E6CECB7
:102C380019F0000E246E010E256E000E276E200E70
:102C4800266E000E296E500E286EA5EC1AF0DEECEA
:102C580017F0EFEC1BF0120032D02DC024F02EC07C
:102C680025F02FC026F030C027F02FC01EF030C04E
:102C78001FF037EC18F01EC028F01FC029F00FEC29
:102C880015F024502510D8A405D02DC02DF02EC045
:102C98002EF01200010E2D24106E000E2E20116E43
:102CA8002FC0F6FF30C0F7FFF86A0800F550126E23
:102CB800136A40EC17F010C02DF011C02EF02D5003
:102CC8002E10D8B414D02DC0F6FF2EC0F7FF000E7A
:102CD800F86E0F0EF76403D00800F55005D0F6CF54
:102CE800E9FFF7CFEAFFEF500009D8A4B6D7000EE6
:102CF8002D6E000E2E6E1200000176050001771170
:102D0800D8A437D0010E66EC1BF0FEEC1BF0000EC9
:102D1800186E800E82EC1BF0000E186E010E196EF4
:102D2800EEEC19F0000E186EC00E82EC1BF0140EBB
:102D3800186E010E196EEEEC19F0000E186E940E56
:102D480082EC1BF0280E186E010E196EEEEC19F0CD
:102D5800000E186ED40E82EC1BF03C0E186E010E9D
:102D6800196EEEEC19F0000E0001776F000E766F09
:102D78001200000E0001776F000E766F1200000E31
:102D8800156E13AE06D0126C131ED8B0132A010E9E
:102D9800156E11AE06D0106C111ED8B0112A010E96
:102DA800151A000E176E000E166E12501310D8B4B6
:102DB8001CD0010E146E04D0D89012361336142A83
:102DC80013AEFAD7D890163617361250105C135037
:102DD8001158D8A005D01250105E1350115A168001
:102DE800D89013321232142EEDD71550D8B404D01F
:102DF800166C171ED8B0172A16C010F017C011F09D
:102E08001200000E0001826F5CEC1AF0000E000147
:102E1800846F000E416E000E0001816F000E0001EC
:102E2800806FCB0E246E000E256E000E276E000EEE
:102E3800266E000E296E0F0E286EA5EC1AF0500EA5
:102E4800246E010E256E000E276E000E266E000EF3
:102E5800296E280E286EA5EC1AF0000E246E020EBC
:102E6800256E000E276E000E266E000E296E960E39
:102E7800286EA5EC1AF0120010C0F6FF11C0F7FF7B
:102E8800000EF86E0F0EF76403D00800F55005D059
:102E9800F6CFE9FFF7CFEAFFEF501218D8A405D014
:102EA80010C010F011C011F012001050146E115023
:102EB800156E104A112A14C0F6FF15C0F7FF000E50
:102EC800F86E0F0EF76403D00800F55005D0F6CF62
:102ED800E9FFF7CFEAFFEF500009D8A4CDD7000EDD
:102EE800106E000E116E1200A20EF66E370EF76EFF
:102EF800000EF86E00EEEAF010EE0DF00900F5CFC6
:102F0800EEFFE550E150FAE102EE96F014EE38F0EB
:102F1800EE6AE550E150FCE1E250FAE102EE00F021
:102F2800960EEE6AE806FDE101EE00F0780EEE6A14
:102F3800E806FDE100EE60F07A0EEE6AE806FDE1D3
:102F480000EE41F00D0EEE6AE806FDE15090509259
:102F580000010BEF18F010C016F011C017F014D0D4
:102F68001406D8A0150612C0D9FF13C0DAFF124AFA
:102F7800132A16C0E1FF17C0E2FF164A172ADFCF4F
:102F8800E7FFE750D8B40DD014501510D8B409D0C5
:102F9800E7D716C0D9FF17C0DAFF000EDF6E164A52
:102FA800172A1406D8A015061428F3E11528D8B452
:102FB8001200EFD7000E246E010E256E000E276E4C
:102FC800200E266E000E296E500E286EA5EC1AF003
:102FD800E20E246EFD0E256E000E276E0D0E266E77
:102FE80002EC11F0000E106E010E116EEA0E126E58
:102FF800000E136E000E156E0D0E146EAFEC19F068
:10300800000E186E010E196EEEEC19F0120048EC65
:103018001BF005EC1CF00BEC1CF00DEC1CF0C80EC2
:10302800106E370E116EF9EC1BF0F28EF28C05EC77
:1030380017F0030E116EE80E106E6CEC19F0F50E19
:10304800246EFD0E256E02EC11F011EC1CF014EC50
:1030580010F000018305D8A4FAD723EC0FF0000E76
:103068000001836FF4D71EC022F01FC023F002D0E6
:10307800224A232A22C0F6FF23C0F7FF000EF86E6B
:103088000F0EF76403D00800F55005D0F6CFE9FF1E
:10309800F7CFEAFFEF500009D8A4EAD71EC020F006
:1030A8001FC021F0201E211E204A212A2250202440
:1030B8001E6E235021201F6E1200000E166E000E89
:1030C800156E12501310D8B41CD0010E146E04D013
:1030D800D89012361336142A13AEFAD7D89015366C
:1030E80016361250105C13501158D8A005D0125043
:1030F800105E1350115A1580D89013321232142EC4
:10310800EDD715C010F016C011F01200000E1C6E9D
:10311800000E1B6E04D0164A172A1B4A1C2A16C01A
:10312800D9FF17C0DAFFDF50D8B413D018C010F099
:1031380019C011F016C0D9FF17C0DAFFDF501A6E98
:103148001A50126E136A40EC17F010501110D8A4E0
:10315800E2D71BC016F01CC017F01200000E1C6E40
:10316800000E1B6E04D0164A172A1B4A1C2A16C0CA
:10317800D9FF17C0DAFFDF50D8B413D018C010F049
:1031880019C011F016C0D9FF17C0DAFFDF501A6E48
:103198001A50126E136A40EC17F010501110D8B480
:1031A800E2D71BC016F01CC017F0120004D0104A5A
:1031B800112A124A132A10C0D9FF11C0DAFFDF50B2
:1031C800146E12C0F6FF13C0F7FFF86A0800F55036
:1031D80000081424156E1550D8A407D010C0D9FFC4
:1031E80011C0DAFFDF50D8A4E2D71550106E116A6B
:1031F80010BE11061200000E146E000E136E000EA3
:10320800146E000E136E11D0000E166E000E156EA1
:1032180016BE06D05E0E155C010E1658D8B003D047
:10322800154A162AF5D7134A142A1050135C14505D
:10323800800A126E1150800A1258D8B01200E4D7D2
:10324800000E8D6E000E8C6E000E896E000E8A6E5A
:10325800000E8B6E030E966EF80E926E9368BF0E7C
:10326800946E000E956E3C0E0F013A6F3F0E0F01E3
:10327800396F000E0F013B6F030E0F013C6F280ED4
:103288000F01386F6168F19E120010C014F011C070
:1032980015F004D0144A152A124A132A12C0F6FF50
:1032A80013C0F7FF000EF86E14C0D9FF15C0DAFF7F
:1032B8000F0EF76403D00800F55005D0F6CFE9FFEC
:1032C800F7CFEAFFEF50DF6EDF50D8B41200E2D735
:1032D800000E146E000E136E000E146E000E136EA8
:1032E8000ED0D8EC1BF00FEC1CF0DEEC1BF0000944
:1032F800D8B4FBD70BEC1CF09E90134A142A10503C
:10330800135C1450800A126E1150800A1258D8B0FB
:103318001200E7D719501A10D8B418D0010E1B6E36
:1033280004D0D89019361A361B2A1AAEFAD7195073
:10333800175C1A501858D8A004D01950175E1A50A4
:10334800185AD8901A3219321B2EF1D717C017F015
:1033580018C018F0120012C018F013C019F010C0ED
:1033680016F011C017F00ED018C0D9FF19C0DAFF37
:1033780016C0E1FF17C0E2FFDFCFE7FF184A192A9E
:10338800164A172A1406D8A015061428EDE11528A0
:10339800D8B41200E9D7106E0001FD51D8B4FCD79B
:1033A8009DB803D010C0ADFF13D09D984750010DB4
:1033B800680EF324D96E000EF420DA6E10C0DFFF19
:1033C800472A070E476402D0000E476E0001FD072A
:1033D8009D881200000E1A6E15D018C0D9FF19C0AA
:1033E800DAFFDF50D8B40AD018C0D9FF19C0DAFF05
:1033F800DF5074EC1BF0184A192A03D0200E74EC25
:103408001BF01A2A4B501A5CD8B01200E6D7170ED8
:10341800D56EC20ED76EF60ED66ED650D7CF12F036
:10342800136A12C013F0126A12104E6E13504F6EC8
:10343800F294F28A2A0E106E380E116EF9EC1BF017
:1034480011EC1CF012009D9A9D98080EB86E900E13
:10345800AB6E240EAC6EA00EAF6E010EB06E000EF9
:10346800476E000E486E080E0001FD6F000E456E97
:10347800000E466E000E446E9D8A1200000E106EFD
:103488004450D8B4FDD74650010D600EF324D96ED0
:10349800000EF420DA6EDF50106E462A070E4664DE
:1034A80002D0000E466E9D9A44069D8A1050120066
:1034B800860E246E000E256E000E276E000E266EF8
:1034C800000E296E310E286EA5EC1AF00001B569C0
:1034D8000001B1690001B3690001B2690001B26974
:1034E8001200080E0001FD6113D04850010D680E4E
:1034F800F324D96E000EF420DA6EDF50AD6E482A40
:10350800070E486402D0000E486E0001FD2B120021
:103518009D9812000BD012C0F6FF13C0F7FFF86A8F
:103528000800F550F4EC1BF0124A132A12C0F6FFFB
:1035380013C0F7FFF86A0800F5500009D8B4120064
:10354800EAD724C02AF025C02BF008D02AC0D9FF1A
:103558002BC0DAFF26C0DFFF2A4A2B2A2806D8A06C
:1035680029062828F3E12928D8B41200EFD7ABA2FE
:1035780002D0AB98AB884550010D600EF324D96E8C
:10358800000EF420DA6EAECFDFFF452A070E456441
:1035980002D0000E456E442A120018501A02F3CFCA
:1035A8001CF0F4CF1DF018501B02F3501D261950C3
:1035B8001A02F3501D261CC018F01DC019F0120085
:1035C800120E0F014E6F000E0F014D6F0F01506963
:1035D800EC0E0F014F6F4FCFFBF050CFFCF07E92F7
:1035E80008EC1CF012000001F7510001F811D8B4E2
:1035F800120001D812000500FA6E0001F751FD6EA5
:10360800F851FE6EFF6AFA501200000E246E010E89
:10361800256E000E276E200E266E000E296E500EA7
:10362800286EA5EC1AF097EC1BF01200320ECD6E46
:10363800000ECC6EFE0ECF6E0C0ECE6ECECFF9F015
:10364800CFCFFAF09E900FEC1CF01200960E246E6D
:10365800020E256E000E276E000E266E040E296ED1
:10366800380E286EA5EC1AF01200126E000E116EBC
:103678003A0E126005D02F0E126402D0010E116EA0
:1036880011C010F01030120013EC1CF024EC19F0EB
:10369800CAEC1BF0E4EC1AF01AEC1BF00BEC1AF075
:1036A80027EC1AF012008DA402D0010E01D0000EF2
:1036B800FF0A016E014601468D500118FB0B0118E7
:1036C8008D6E1200176E17C083FF809480928080E1
:1036D800000E116E010E106EFFEC18F080901200B3
:1036E800176E8084809217C083FF8080000E116E51
:1036F800010E106EFFEC18F080901200196E140E77
:10370800186402D0000E186E1850192466EC1BF0CD
:10371800120014C012F015C013F08EEC1AF00A0E45
:10372800F4EC1BF01200000E0001756F000E746FB0
:103738002AEC1BF01200F2944F50D76E4EC0D6FF01
:10374800F7EC1AF012004950D8A402D0000E12006B
:10375800410E12004950D8A402D0000E12004C04A9
:1037680012004950D8A402D0000E12004D50120089
:103778004950D8A402D0000E12004A5012004950F5
:10378800D8A402D0000E12004B501200700ED36E57
:10379800040ED26E800E9B6E1200494E49545F5340
:0737A8005543434553530054
:1037B0000001FA51CF6EF9C0CEFF12009EA002D0D8
:1037C000010E1200000E120057EC1BF0010E00015A
:1037D000836F1200F10E106EFF0E116E120009ECD5
:1037E0001BF097EC1BF01200116E1150CFEC19F08A
:1037F000120010C0F7F011C0F8F01200060E66ECCF
:103800001BF0120042EC1AF012000F014E91120050
:103810000F014E811200CD901200D59E1200CD8076
:0C3820001200D58E1200D09E1200120083
:10FCC4000001000A006400E8031027554944203D60
:10FCD4002025632C2073746172745F7074203D203E
:10FCE40025642C20656E645F7074203D2025640DAE
:10FCF4000A007374726C656E203D2025642C2069A3
:10FD04003D25642C20636F6C2E2E203D2025640D30
:10FD14000A00636D645F646174612E73746172744C
:10FD24005F636F6C203D2025642C0D0A00636D64B5
:10FD34005F646174612E73746172745F726F772093
:10FD44003D2025642C0D0A00646973706C61795F31
:10FD5400636861725F636F756E74203D2025640D66
:10FD64000A0065785F7370203C3D206E65775F659F
:10FD740070203C3D65785F65700D0A0065785F739F
:10FD840070203C3D206E65775F7370203C3D657844
:10FD94005F65700D0A00636D645F646174612E6554
:10FDA4006E645F636F6C203D2025642C0D0A006334
:10FDB4006D645F646174612E656E645F726F772039
:10FDC4003D2025642C0D0A0069203D2025642C204B
:10FDD400636F6C2E2E32203D2025730D0A0073694B
:10FDE4007A656F662873747229203D2025640D0A94
:10FDF40000496E69745F636F6D706C6574652E2E57
:10FE04000D0A00737472696E675F636F756E742098
:10FE14003D202564007569645F72616E6765203DED
:10FE24002025640D0A006D69645F63686172203D7A
:10FE34002025640D0A0025732C207374726C656E82
:10FE44002025640D0A00636F6E666C6963743A2042
:10FE54007569640D0A007374725B25645D203D202E
:10FE640025640D0A004552525F5343524F4C4C5F78
:10FE740053455400636F6C2E2E31203D2025730DA5
:10FE84000A007363726F6C6C203D2025642C200083
:10FE94000D0A25732E2E2C204F4B0D0A0075696414
:10FEA400203D2025642C0D0A00496E69745F446F5F
:10FEB4006E650D0A0074656D70203D2025732C203D
:10FEC400004552525F524F575F434F4C004B4C4DCD
:10FED4002B53445343524F4C004552525F434D44BD
:10FEE4005F4C454E004552525F5354525F53455444
:10FEF4000025642C25632D25630D0A00436F6C20B7
:10FF04003D2025640D0A00726F77203D2025640D85
:10FF14000A00636F6C203D2025730D0A0073747210
:10FF2400203D2025730D0A00756964203D20256459
:10FF34002C20004B4C4D2B534453455243004B4C07
:10FF44004D2B555044415445004B4C4D2B4C434490
:10FF5400533F004B4C4D2B474D44533F004B4C4DAE
:10FF64002B53445354520025732E2E2E340D0A0065
:10FF740025732E2E2E350D0A0025732E2E2E360DAA
:10FF84000A004B4C4D2B53535452004B4C4D2B4CAD
:10FF940043445300636F6C203D20256400726F77E7
:10FFA400203D202564002E2E2E2E2E0D0A002573B2
:10FFB4002E2E320D0A004B4C4D2B4D433F004B4C23
:10FFC4004D2B4D523F00286E756C6C290025732E05
:10FFD4002E0D0A000D0A25730D0A002D272C202F43
:10FFE4003D004552524F520025632C2000342C32E0
:0CFFF40030004B4C4D002563002C000039
:020000040020DA
:08000000FFFFFFFFFFFFFFFF00
:020000040030CA
:0E000000FF381F3CFFBF85FF0FC00FE00F4011
:00000001FF
