:0400000053EF00F0CA
:100008005082FACF02F0FBCF03F0E9CF04F0EACF39
:1000180005F0E1CF06F0E2CF07F0D9CF08F0DACF4C
:1000280009F0F3CF0AF0F4CF0BF0F6CF0CF0F7CFCE
:100038000DF0F8CF0EF0F5CF0FF0F2BAF2A403D01E
:10004800E7EC26F00ED0F2BC9DA805D09EA803D000
:100058007BEC25F006D0F2BC9DAA03D09EBAEEEC4C
:1000680025F00FC0F5FF0EC0F8FF0DC0F7FF0CC05C
:10007800F6FF0BC0F4FF0AC0F3FF09C0DAFF08C09F
:10008800D9FF07C0E2FF06C0E1FF05C0EAFF04C0D0
:10009800E9FF03C0FBFF02C0FAFF50921100F1EF25
:1000A80020F07B0E2B6EFF0E2C6E60C02DF061C011
:1000B8002EF012EC25F060C062F061C063F062C0FF
:1000C8001DF063C01EF0A00E1F6EFF0E206E2DECFB
:1000D8001DF01DC066F01EC067F0000166510001EA
:1000E8006711D8B480EF06F066C010F067C011F051
:1000F800EB0E126EFF0E136E8AEC23F010501110E7
:10010800D8A42AD00001665100016711D8B46AEF5B
:1001180006F0CB0E246E010E256E66C026F067C071
:1001280027F0ABEC25F0010E0001756F60C024F0DC
:1001380061C025F0000E276E000E266E60C01EF00E
:1001480061C01FF0C2EC22F01EC028F01FC029F0C9
:10015800D8EC25F0000E120066C010F067C011F050
:10016800EF0E126EFF0E136E8AEC23F01050111072
:10017800D8A429D00001665100016711D8B46AEFEC
:1001880006F0CB0E246E010E256E66C026F067C001
:1001980027F0ABEC25F0010E0001756F60C024F06C
:1001A80061C025F0000E276E000E266E60C01EF09E
:1001B80061C01FF0C2EC22F01EC028F01FC029F059
:1001C800D8EC25F0C7D766C010F067C011F0B50E9F
:1001D800126EFF0E136E8AEC23F010501110D8A483
:1001E8002FD00001665100016711D8B46AEF06F0FC
:1001F800CB0E246E010E256E66C026F067C027F070
:10020800ABEC25F0010E0001756F60C024F061C0F1
:1002180025F0000E276E000E266E60C01EF061C02D
:100228001FF0C2EC22F01EC028F01FC029F0D8EC45
:1002380025F0730E2B6EFF0E2C6E12EC25F08AD76C
:1002480066C010F067C011F0D70E126EFF0E136E65
:100258008AEC23F010501110D8A485D00001665103
:1002680000016711D8B46AEF06F0CB0E246E010EB8
:10027800256E66C026F067C027F0ABEC25F0000EAF
:100288001D6E000E1E6EA00E1F6EFF0E206E2DEC52
:100298001DF01DC066F01EC067F0990E2B6EFF0E94
:1002A8002C6E66C02DF067C02EF012EC25F0000E03
:1002B8000001646F000E0001656F000166510001C6
:1002C8006711D8B46AEF06F066C01EF067C01FF069
:1002D800C6EC1CF01E500001646F0001645100015F
:1002E800D8B46AEF06F0000E1D6E000E1E6EA00E4A
:1002F8001F6EFF0E206E2DEC1DF01DC066F01EC097
:1003080067F00001665100016711D8B46AEF06F082
:1003180066C01EF067C01FF0C6EC1CF01E5000013E
:10032800656F000165510001D8B46AEF06F065C039
:1003380019F164C041F0010E0001756F60C024F02E
:1003480061C025F0000E276E000E266E60C01EF0FC
:1003580061C01FF0C2EC22F01EC028F01FC029F0B7
:10036800D8EC25F0F7D666C010F067C011F0BB0EC8
:10037800126EFF0E136E8AEC23F010501110D8A4E1
:1003880029D00001665100016711D8B46AEF06F060
:10039800CB0E246E010E256E66C026F067C027F0CE
:1003A800ABEC25F0010E0001756F60C024F061C050
:1003B80025F0000E276E000E266E60C01EF061C08C
:1003C8001FF0C2EC22F01EC028F01FC029F0D8ECA4
:1003D80025F0C0D666C010F067C011F0C70E126EC7
:1003E800FF0E136E8AEC23F010501110D8A49BD086
:1003F8004904D8A496D062EC25F0000166510001AA
:100408006711D8B46AEF06F0BE0E2B6EFE0E2C6E86
:1004180066C02DF067C02EF012EC25F0CB0E246ECE
:10042800010E256E66C026F067C027F0ABEC25F0FC
:10043800000E1D6E000E1E6EA00E1F6EFF0E206EAB
:100448002DEC1DF01DC066F01EC067F0000166515E
:1004580000016711D8B46AEF06F0BE0E2B6EFE0ECF
:100468002C6E66C02DF067C02EF012EC25F066C029
:1004780024F067C025F06E0E266E010E276E8CECF8
:100488001DF001016E5101016F11D8B448D0000E62
:100498001D6E000E1E6EA00E1F6EFF0E206E2DEC40
:1004A8001DF01DC066F01EC067F000016651000116
:1004B8006711D8B46AEF06F066C01EF067C01FF077
:1004C800C2EC22F01F5029E1280E1E5CD8B025D0BE
:1004D800700E246E010E256E66C026F067C027F0E8
:1004E800ABEC25F0010E0001756F010E0101986F4C
:1004F80060C024F061C025F0000E276E000E266E45
:1005080060C01EF061C01FF0C2EC22F01EC028F0CF
:100518001FC029F0D8EC25F01DD6020E1200080ED7
:100528001200090E120066C010F067C011F0830EA9
:10053800126EFF0E136E8AEC23F010501110D8A41F
:100548009AD0190E2B6EFF0E2C6E66C02DF067C068
:100558002EF012EC25F04904D8A48BD062EC25F0DB
:100568000001665100016711D8B4B0D3CB0E246ED8
:10057800010E256E66C026F067C027F0ABEC25F0AB
:10058800000E1D6E000E1E6EA00E1F6EFF0E206E5A
:100598002DEC1DF01DC066F01EC067F0000166510D
:1005A80000016711D8B492D3220E2B6EFF0E2C6E69
:1005B80066C02DF067C02EF012EC25F066C024F05E
:1005C80067C025F06E0E266E010E276E8CEC1DF0AE
:1005D80001016E5101016F11D8B449D0000E1D6E92
:1005E800000E1E6EA00E1F6EFF0E206E2DEC1DF06D
:1005F8001DC066F01EC067F000016651000167115A
:10060800D8B464D32B0E2B6EFF0E2C6E66C02DF063
:1006180067C02EF012EC25F066C039F067C03AF0DA
:100628009E0E3B6E010E3C6EEFEC1EF0030E0101B8
:100638009E611BD0010E01019F6F010E0001756FB5
:1006480060C024F061C025F0000E276E000E266EF3
:1006580060C01EF061C01FF0C2EC22F01EC028F07E
:100668001FC029F0D8EC25F075D5040E1200080E2D
:100678001200090E120066C010F067C011F0A70E34
:10068800126EFF0E136E8AEC23F010501110D8A4CE
:1006980020D14904D8A41BD162EC25F00001665191
:1006A80000016711D8B412D3CB0E246E010E256E4B
:1006B80066C026F067C027F0ABEC25F0000E1D6E73
:1006C800000E1E6EA00E1F6EFF0E206E2DEC1DF08C
:1006D8001DC066F01EC067F0000166510001671179
:1006E800D8B4F4D266C024F067C025F06E0E266E2A
:1006F800010E276E8CEC1DF001016E5101016F1186
:10070800D8B4E3D0760E2B6EFE0E2C6E6EC12DF093
:100718006FC12EF012EC25F0000E1D6E000E1E6E3D
:10072800A00E1F6EFF0E206E2DEC1DF01DC066F092
:100738001EC067F00001665100016711D8B4C6D227
:1007480066C039F067C03AF0990E3B6E010E3C6EF8
:1007580041EC1EF0EE0E2B6EFC0E2C6E99C12DF0A6
:100768002E6A12EC25F001019929D8B4ACD0000EFC
:100778001D6E000E1E6EA00E1F6EFF0E206E2DEC5D
:100788001DF01DC066F01EC067F000016651000133
:100798006711D8B49BD266C039F067C03AF09A0E98
:1007A8003B6E010E3C6E98EC1EF0D30E2B6EFC0EC9
:1007B8002C6E9AC12DF02E6A12EC25F001019929B0
:1007C800D8B47FD0000E1D6E000E1E6EA00E1F6ED8
:1007D800FF0E206E2DEC1DF01DC066F01EC067F0E8
:1007E8000001665100016711D8B470D266C039F0B3
:1007F80067C03AF09B0E3B6E010E3C6E41EC1EF05A
:10080800700E2B6EFD0E2C6E9BC12DF02E6A12EC15
:1008180025F001019B29D8B452D0000E1D6E000EA0
:100828001E6EA00E1F6EFF0E206E2DEC1DF01DC05B
:1008380066F01EC067F00001665100016711D8B468
:1008480045D2040E2B6EFF0E2C6E66C02DF067C0CD
:100858002EF012EC25F066C039F067C03AF09C0E15
:100868003B6E010E3C6E98EC1EF0570E2B6EFD0E83
:100878002C6E9CC12DF02E6A12EC25F001019B29EB
:10088800D8B41BD0010E01019D6F010E0001756FD8
:1008980060C024F061C025F0000E276E000E266EA1
:1008A80060C01EF061C01FF0C2EC22F01EC028F02C
:1008B8001FC029F0D8EC25F04DD4030E1200030E0A
:1008C8001200030E1200030E1200080E1200090E89
:1008D800120066C010F067C011F0AE0E126EFF0E67
:1008E800136E8AEC23F010501110D8A41FD0CB0E31
:1008F800246E010E256E66C026F067C027F0ABECAB
:1009080025F060C024F061C025F0000E276E000EAF
:10091800266E60C01EF061C01FF0C2EC22F01EC03F
:1009280028F01FC029F0D8EC25F0CBD166C010F014
:1009380067C011F0D20E126EFF0E136E8AEC23F010
:1009480010501110D8A491D14904D8A48CD162ECCC
:1009580025F00001665100016711D8B4B7D1CB0E5C
:10096800246E010E256E66C026F067C027F0ABEC3A
:1009780025F04F0E2B6EFF0E2C6ECB0E2D6E010E3A
:100988002E6E12EC25F0000E1D6E000E1E6EFD0E72
:100998001F6EFF0E206E2DEC1DF01DC066F01EC0F0
:1009A80067F00001665100016711D8B48FD166C0A5
:1009B8002CF067C02DF0700E2E6E010E2F6EDBEC42
:1009C80021F0E806D8A44DD10F0E2B6EFF0E2C6E29
:1009D800700E2D6E010E2E6E12EC25F0000E1D6E9F
:1009E800000E1E6EA00E1F6EFF0E206E2DEC1DF069
:1009F8001DC066F01EC067F0000166510001671156
:100A0800D8B464D166C039F067C03AF0990E3B6E2D
:100A1800010E3C6E41EC1EF0EE0E2B6EFC0E2C6EA1
:100A280099C12DF02E6A12EC25F001019929D8B44C
:100A380016D1000E1D6E000E1E6EA00E1F6EFF0E4C
:100A4800206E2DEC1DF01DC066F01EC067F0000181
:100A5800665100016711D8B439D166C039F067C052
:100A68003AF09A0E3B6E010E3C6E98EC1EF0D30ED7
:100A78002B6EFC0E2C6E9AC12DF02E6A12EC25F00E
:100A880001019929D8B4E9D0000E1D6E000E1E6E22
:100A9800A00E1F6EFF0E206E2DEC1DF01DC066F01F
:100AA8001EC067F00001665100016711D8B40ED16D
:100AB80066C039F067C03AF09B0E3B6E010E3C6E83
:100AC80041EC1EF0700E2B6EFD0E2C6E9BC12DF0AE
:100AD8002E6A12EC25F001019B29D8B4BCD0000E77
:100AE8001D6E000E1E6EA00E1F6EFF0E206E2DECEA
:100AF8001DF01DC066F01EC067F0000166510001C0
:100B08006711D8B4E3D0040E2B6EFF0E2C6E66C0AE
:100B18002DF067C02EF012EC25F066C039F067C0E2
:100B28003AF09C0E3B6E010E3C6E98EC1EF0570E90
:100B38002B6EFD0E2C6E9CC12DF02E6A12EC25F04A
:100B480001019C29D8B485D0000E1D6E000E1E6EC2
:100B5800A00E1F6EFF0E206E2DEC1DF01DC066F05E
:100B68001EC067F00001665100016711D8B4AED00D
:100B780066C039F067C03AF09E0E3B6E010E3C6EBF
:100B8800EFEC1EF0E806D8A462D0000E1D6E000E31
:100B98001E6EA00E1F6EFF0E206E2DEC1DF01DC0E8
:100BA80066F01EC067F00001665100016711D8B4F5
:100BB8008DD066C039F067C03AF0A00E3B6E010ECA
:100BC8003C6EDDEC1FF0E806D8A43FD0000E1D6E89
:100BD800000E1E6EA00E1F6EFF0E206E2DEC1DF077
:100BE8001DC066F01EC067F0000166510001671164
:100BF800D8B46CD066C039F067C03AF0A20E3B6E2C
:100C0800010E3C6E91EC1FF0E806D8A41CD0010E32
:100C180001019D6F010E0001756F60C024F061C075
:100C280025F0000E276E000E266E60C01EF061C013
:100C38001FF0C2EC22F01EC028F01FC029F0D8EC2B
:100C480025F0AEEF00F0060E1200050E1200040E9D
:100C58001200030E1200030E1200030E1200030E00
:100C68001200020E1200090E120066C010F067C0D2
:100C780011F0F30E126EFF0E136E8AEC23F0105073
:100C88001110D8A423D0CB0E246E010E256E66C099
:100C980026F067C027F0ABEC25F060C024F061C0F7
:100CA80025F0000E276E000E266E60C01EF061C093
:100CB8001FF0C2EC22F01EC028F01FC029F0D8ECAB
:100CC80025F0010E0001756FAEEF00F060C024F052
:100CD80061C025F0000E276E000E266E60C01EF063
:100CE80061C01FF0C2EC22F01EC028F01FC029F01E
:100CF800D8EC25F0010E120060C024F061C025F088
:100D0800000E276E000E266E60C01EF061C01FF038
:100D1800C2EC22F01EC028F01FC029F0D8EC25F044
:100D2800010E1200CB0E106E010E116EF30E126E34
:100D3800FF0E136E8AEC23F010501110D8A425D0A2
:100D4800400E246E020E256E000E276E000E266ED3
:100D5800000E296E640E286ED8EC25F0400E2B6E1E
:100D6800020E2C6E380E2D6EFF0E2E6E18EC24F02F
:100D7800400E116E020E126E2AEC26F0380E146E1A
:100D8800FF0E156EC4EC26F01200CB0E106E010E8D
:100D9800116EB50E126EFF0E136E8AEC23F0105012
:100DA8001110D8A411D0460E2B6EFF0E2C6E3EECFF
:100DB80027F010C02DF011C02EF0F70E2F6EFF0E89
:100DC800306E12EC25F01200CB0E106E010E116E73
:100DD800EB0E126EFF0E136E8AEC23F010501110FA
:100DE800D8A413D03D0E2B6EFF0E2C6E12EC27F0FC
:100DF80000016E6F00016E512D6E2E6AF70E2F6E78
:100E0800FF0E306E12EC25F01200CB0E106E010EA4
:100E1800116EEF0E126EFF0E136E8AEC23F0105057
:100E28001110D8A413D03D0E2B6EFF0E2C6E0BECB8
:100E380027F000016E6F00016E512D6E2E6AF70EBD
:100E48002F6EFF0E306E12EC25F01200CB0E106ED6
:100E5800010E116ED70E126EFF0E136E8AEC23F080
:100E680010501110D8A428D019C139F04150EFEC16
:100E78001BF0400E246E020E256E000E276E000E2B
:100E8800266E000E296E640E286ED8EC25F0400EF2
:100E98002B6E020E2C6E410E2D6EFF0E2E6EF70E6F
:100EA8002F6EFF0E306E18EC24F0400E116E020EFD
:100EB800126E2AEC26F01200CB0E106E010E116E87
:100EC800BB0E126EFF0E136E8AEC23F01050111039
:100ED800D8A43DD004EC27F00009D8B41FD0F90EEF
:100EE8002B6EFE0E2C6E04EC27F000016E6F0001D5
:100EF8006E512D6E2E6AF6EC26F000016F6F000120
:100F08006F512F6E306AFDEC26F00001706F000102
:100F18007051316E326A12EC25F00ED0BE0E2B6E77
:100F2800FD0E2C6E04EC27F000016E6F00016E516F
:100F38002D6E2E6A12EC25F0EE0E2B6EFE0E2C6E28
:100F4800BB0E2D6EFF0E2E6E12EC25F01200CB0E8E
:100F5800106E010E116EC70E126EFF0E136E8AEC24
:100F680023F010501110D8A40BD0EE0E2B6EFE0EED
:100F78002C6EC70E2D6EFF0E2E6E12EC25F0120091
:100F8800CB0E106E010E116E830E126EFF0E136ED5
:100F98008AEC23F010501110D8A40BD0EE0E2B6E53
:100FA800FE0E2C6E830E2D6EFF0E2E6E12EC25F0AB
:100FB8001200CB0E106E010E116EA70E126EFF0EF0
:100FC800136E8AEC23F010501110D8A40BD0EE0E3B
:100FD8002B6EFE0E2C6EA70E2D6EFF0E2E6E12ECD3
:100FE80025F01200CB0E106E010E116EAE0E126EB1
:100FF800FF0E136E8AEC23F010501110D8A45CD0A9
:1010080001019805D8A42BD001019D05D8A427D0AB
:1010180001019F05D8A423D06E0E3F6E010E406ECD
:10102800D6EC16F00001716FC80E00017119D8A432
:101038000BD0410E2B6EFF0E2C6EC10E2D6EFF0EC7
:101048002E6E12EC25F01200EE0E2B6EFE0E2C6E9C
:10105800AE0E2D6EFF0E2E6E12EC25F01200010161
:101068009851D8A40BD0410E2B6EFF0E2C6EE20EB9
:101078002D6EFE0E2E6E12EC25F0120001019D5110
:10108800D8A40BD0410E2B6EFF0E2C6ECA0E2D6EFF
:10109800FE0E2E6E12EC25F0120001019F51D8A40D
:1010A8001200410E2B6EFF0E2C6E4B0E2D6EFE0E97
:1010B8002E6E12EC25F01200CB0E106E010E116E82
:1010C800D20E126EFF0E136E8AEC23F01050111020
:1010D800D8A412006E0E0001606F010E0001616F4E
:1010E800C3EC12F00001726FC80E00017219D8A487
:1010F80025D022EC1AF0400E246E020E256E000E4A
:10110800276E000E266E000E296E640E286ED8EC2F
:1011180025F0400E2B6E020E2C6E410E2D6EFF0E2A
:101128002E6E690E2F6EFE0E306E18EC24F0400EF7
:10113800116E020E126E2AEC26F01200C90E000182
:101148007219D8A43ED06E0E0001606F010E000126
:10115800616FC3EC12F00001726FCA0E00017219C0
:10116800D8A41200000E0101A26F6E0E0001606F7C
:10117800010E0001616FC3EC12F00001726F400EA6
:10118800246E020E256E000E276E000E266E000ECF
:10119800296E640E286ED8EC25F0400E2B6E020ED8
:1011A8002C6E340E2D6EFF0E2E6E72C02FF0306A2C
:1011B80018EC24F0400E116E020E126E2AEC26F086
:1011C8001200CA0E00017219D8A42FD0000E010116
:1011D800A26F6E0E0001606F010E0001616FC3EC1B
:1011E80012F00001726F400E246E020E256E000E82
:1011F800276E000E266E000E296E640E286ED8EC3F
:1012080025F0400E2B6E020E2C6E340E2D6EFF0E46
:101218002E6E72C02FF0306A18EC24F0400E116E5A
:10122800020E126E2AEC26F01200CB0E0001721983
:10123800D8A42FD0000E0101A26F6E0E0001606FBE
:10124800010E0001616FC3EC12F00001726F400ED5
:10125800246E020E256E000E276E000E266E000EFE
:10126800296E640E286ED8EC25F0400E2B6E020E07
:101278002C6E340E2D6EFF0E2E6E72C02FF0306A5B
:1012880018EC24F0400E116E020E126E2AEC26F0B5
:101298001200400E246E020E256E000E276E000E00
:1012A800266E000E296E640E286ED8EC25F0400ECE
:1012B8002B6E020E2C6E340E2D6EFF0E2E6E72C02B
:1012C8002FF0306A18EC24F0400E116E020E126EE8
:1012D8002AEC26F01200000E3E6E000E3D6E1E0E29
:1012E800246E010E256E000E276E200E266E000E4F
:1012F800296E500E286ED8EC25F0000E3E6E000EBA
:101308003D6ECDD13DC018F03EC019F0000E1B6EE9
:10131800390E1A6E04EC26F0020E1826000E192259
:10132800990E18241E6E050E19201F6EC2EC22F0AD
:101338001E501F10D8B473D03DC018F03EC019F02D
:10134800000E1B6E390E1A6E04EC26F0310E1826AC
:10135800000E1922990E1824D96E050E1920DA6E7E
:10136800DF50070B020AD8A45AD03DC018F03EC07F
:1013780019F0000E1B6E390E1A6E04EC26F0380EAA
:101388001826000E1922990E1824D96E050E192058
:10139800DA6EDF507F0B3A6E3DC018F03EC019F090
:1013A800000E1B6E390E1A6E04EC26F0320E18264B
:1013B800000E1922990E1824D96E050E1920DA6E1E
:1013C800DF507F0B3A18D8A41DD03DC018F03EC09E
:1013D80019F0000E1B6E390E1A6E04EC26F0990EE9
:1013E80018242C6E050E19202D6E23EC11F03DC02B
:1013F80018F03EC019F0000E1B6E390E1A6E04EC80
:1014080026F019D1010E3A6E3DC018F03EC019F011
:10141800000E1B6E390E1A6E04EC26F02AD13DC060
:1014280018F03EC019F0000E1B6E390E1A6E04EC4F
:1014380026F0020E1826000E1922990E18241E6E88
:10144800050E19201F6EC2EC22F01E501F10D8B4D2
:1014580073D03DC018F03EC019F0000E1B6E390E57
:101468001A6E04EC26F0310E1826000E1922990E79
:101478001824D96E050E1920DA6EDF50070BE8061E
:10148800D8A45AD03DC018F03EC019F0000E1B6E0B
:10149800390E1A6E04EC26F0380E1826000E1922A2
:1014A800990E1824D96E050E1920DA6EDF507F0BBD
:1014B8003A6E3DC018F03EC019F0000E1B6E390E92
:1014C8001A6E04EC26F0320E1826000E1922990E18
:1014D8001824D96E050E1920DA6EDF507F0B3A18E2
:1014E800D8A41DD03DC018F03EC019F0000E1B6EE8
:1014F800390E1A6E04EC26F0990E18242C6E050E7F
:1015080019202D6E49EC0FF03DC018F03EC019F0BF
:10151800000E1B6E390E1A6E04EC26F08CD0010EEC
:101528003A6E3DC018F03EC019F0000E1B6E390E21
:101538001A6E04EC26F09DD03DC018F03EC019F09C
:10154800000E1B6E390E1A6E04EC26F0020E1826D9
:10155800000E1922990E18241E6E050E19201F6EF2
:10156800C2EC22F01E501F10D8B497D03DC018F01E
:101578003EC019F0000E1B6E390E1A6E04EC26F0F0
:10158800310E1826000E1922990E1824D96E050E50
:101598001920DA6EDF50070B0009D8A47ED03DC0B1
:1015A80018F03EC019F0000E1B6E390E1A6E04ECCE
:1015B80026F0380E1826000E1922990E1824D96E16
:1015C800050E1920DA6EDF507F0B3A6E3DC018F019
:1015D8003EC019F0000E1B6E390E1A6E04EC26F090
:1015E800320E1826000E1922990E1824D96E050EEF
:1015F8001920DA6EDF507F0B3A18D8A42ED03DC0E0
:1016080018F03EC019F0000E1B6E390E1A6E04EC6D
:1016180026F0990E1824246E050E1920256ECAECA2
:101628001AF03DC018F03EC019F0000E1B6E390EBE
:101638001A6E04EC26F0380E1826000E1922990EA0
:101648001824D96E050E1920DA6EDF90DF92DF9428
:10165800DF96DF98DF9ADF9C20D0010E3A6E3DC0FE
:1016680018F03EC019F0000E1B6E390E1A6E04EC0D
:1016780026F0380E1826000E1922990E1824D96E55
:10168800050E1920DA6EDF507F0B3B6E3A503B2671
:10169800DF503B18800B3B18DF6E3D4A3E2A4D5009
:1016A8003A6E3B6A3A503D5C3E50800A3C6E3B5075
:1016B800800A3C58D8A026D6000E01010F6F010EF3
:1016C8000E6FB1EC20F01200E1D1250E2A18D8B423
:1016D80019D020EE02F01C50D9261D50DA22DE5017
:1016E800DE10D8B4D0D020EE02F01C50D9261D5000
:1016F800DA22DECF22F0DDCF23F001D8C7D10500F2
:10170800FA6EB9D0000E246ED4D020C0D9FF21C003
:10171800DAFFDFCF22F0020EDE26DFCF23F0000E45
:10172800DD2222C0D9FF23C0DAFFDECF28F0DDCFCB
:1017380029F028502910D8A45FD08B0E286EFF0EF0
:10174800296E5AD020EE02F01C50D9261D50DA22FC
:10175800DE50DE10D8B429D020EE02F01C50D92675
:101768001D50DA22DECF22F0DDCF23F001D81AD0C7
:101778000500FA6E2250FD6E2350FE6EFF6AFA5085
:1017880028C0F6FF29C0F7FF000EF86E0F0EF764A9
:1017980003D00800F55005D0F6CFE1FFF7CFE2FF00
:1017A800E7501200284A292A27D028C0F6FF29C066
:1017B800F7FF000EF86E1CC0D9FF1DC0DAFFDECFA0
:1017C80022F0DDCF23F022C0D9FF23C0DAFF0F0EAD
:1017D800F76403D00800F55005D0F6CFE1FFF7CF46
:1017E800E2FFE750DF6E284A292A1CC0D9FF1DC036
:1017F800DAFFDE2A000EDD2228C0F6FF29C0F7FF37
:10180800000EF86E0F0EF76403D00800F55005D0EF
:10181800F6CFE1FFF7CFE2FFE7500009D8B436D1A1
:1018280091D720C0D9FF21C0DAFFDFCF22F0020E06
:10183800DE26DFCF23F0000EDD2222C0D9FF23C031
:10184800DAFFDF502A6E20EE02F01C50D9261D5018
:10185800DA22DE50DE10D8B416D020EE02F01C508A
:10186800D9261D50DA22DECF22F0DDCF23F001D8B1
:101878000DD10500FA6E2250FD6E2350FE6EFF6AF0
:10188800FA502A5012001CC0D9FF1DC0DAFFDECF63
:1018980022F0DDCF23F022C0D9FF23C0DAFF2AC00F
:1018A800DFFF1CC0D9FF1DC0DAFFDE2A000EDD22D3
:1018B800EDD01EC0F6FF1FC0F7FF1E4A1F2AF86AA8
:1018C8000800F5CF2AF02A50000AD8B4ECD0630AF1
:1018D800D8B4A7D7070AD8B407D00D0AD8B404D00B
:1018E8001A0AD8B412D7AFD720C0D9FF21C0DAFF5F
:1018F800DFCF22F0020EDE26DFCF23F0000EDD223E
:1019080022C0D9FF23C0DAFFDECF26F0DDCF27F0D3
:1019180027AE06D0030E2412266C271ED8B0272A1D
:10192800010E2A6E050E2A18D8B415D02A50020DB9
:101938005D0EF324F66EFC0EF420F76EF86A000EC6
:10194800F8220900F550265C0900F5502758D8A060
:1019580002D02A2AE7D724C022F0030E2216D8B4D0
:1019680035D020EE02F01C50D9261D50DA22DE5068
:10197800DE10D8B416D020EE02F01C50D9261D5027
:10198800DA22DECF22F0DDCF23F001D81FD0050008
:10199800FA6E2250FD6E2350FE6EFF6AFA502D0E2D
:1019A80012001CC0D9FF1DC0DAFFDECF22F0DDCF48
:1019B80023F022C0D9FF23C0DAFF2D0EDF6E1CC032
:1019C800D9FF1DC0DAFFDE2A000EDD222AC025F06D
:1019D80059D02550020D5D0EF324F66EFC0EF4204E
:1019E800F76EF86A000EF8220900F5CF12F00A0027
:1019F800F5CF13F026C010F027C011F0ECEC22F060
:101A080010C017F011C018F0000E1A6E0A0E196EE9
:101A180039EC24F01750300F2A6E20EE02F01C50DB
:101A2800D9261D50DA22DE50DE10D8B416D020EEAA
:101A380002F01C50D9261D50DA22DECF22F0DDCF6D
:101A480023F001D81FD00500FA6E2250FD6E2350F6
:101A5800FE6EFF6AFA502A5012001CC0D9FF1DC042
:101A6800DAFFDECF22F0DDCF23F022C0D9FF23C07A
:101A7800DAFF2AC0DFFF1CC0D9FF1DC0DAFFDE2A4B
:101A8800000EDD2225062528D8A4A3D71EC0F6FF00
:101A98001FC0F7FF1E4A1F2AF86A0800F5CF2AF070
:101AA8002A50D8A412D6000E1D6E000E1C6E12000D
:101AB800000E0501966F4450D8B4D9D1000E050127
:101AC800986F5CD048EC25F00501986F0A0E050167
:101AD8009819D8B405D00D0E05019819D8A40FD0BF
:101AE800000E0101136F000E126F010E0101186F35
:101AF800960E2B6EFF0E2C6E12EC25F042D0080EBF
:101B080005019819D8A418D001011207D8A0130705
:101B1800000E01011225D96E030E01011321DA6EA0
:101B2800000EDF6EFA0E2B6EFF0E2C6E98C52DF090
:101B38002E6A12EC25F022D0000E01011225D96E72
:101B4800030E01011321DA6E98C5DFFFFA0E2B6E22
:101B5800FF0E2C6E000E01011225D96E030E010135
:101B68001321DA6EDF500001736F000173512D6E7F
:101B78002E6A12EC25F00101124B132B4450D8A405
:101B8800A1D7010113BF73D10101135105E1970ECC
:101B98000101125DD8A06BD1D60E146EFE0E156E23
:101BA800C4EC26F0000E0101136F000E126F5FD116
:101BB800CB0E246E010E256E000E276E000E266ECB
:101BC800000E296E0F0E286ED8EC25F0000E246E3C
:101BD800030E256E000E276E000E266E000E296E6F
:101BE800960E286ED8EC25F0000E0001756F400E99
:101BF800246E020E256E000E276E000E266E000E55
:101C0800296E640E286ED8EC25F0400E2B6E020E5D
:101C18002C6E9A0E2D6EFE0E2E6E18EC24F0400ED1
:101C2800116E020E126E2AEC26F0990E2B6EFF0E24
:101C38002C6E400E2D6E020E2E6E12EC25F0010E4B
:101C4800A4D001011805D8A41DD1000E0101186FF8
:101C580024EE00F015EE00F0950EDECFE6FFE80664
:101C6800FCE2960ED95EE15E000E246E050E256E2E
:101C7800000E276E000E266E000E296E960E286E38
:101C8800D8EC25F0000E246E050E256E000E266E8B
:101C9800030E276EABEC25F0000E2D6E050E2E6E92
:101CA800CD0E2F6EFF0E306E41EC1FF02D502E1012
:101CB800D8B42BD0410E2B6EFF0E2C6E000E2D6E5D
:101CC800030E2E6E12EC25F0000E246E030E256E08
:101CD800000E276E000E266E000E296E960E286ED8
:101CE800D8EC25F0000E246E030E256ECD0E1E6E68
:101CF800FF0E1F6EC2EC22F0000E1E24266E050E8B
:101D08001F20276EABEC25F014D0410E2B6EFF0E72
:101D18002C6E000E2D6E030E2E6E12EC25F0000EAA
:101D2800246E030E256E000E266E050E276EABEC94
:101D380025F0000E0001606F030E0001616F55EC85
:101D480000F00501976F050197510501D8A420D02F
:101D5800000E246E050E256E000E276E000E266EF0
:101D6800000E296E960E286ED8EC25F0000E246E13
:101D7800030E256E000E276E000E266E000E296ECD
:101D8800960E286ED8EC25F0020E01011A6F7AD053
:101D9800090E05019719D8A42DD0400E246E020E05
:101DA800256E000E276E000E266E000E296E640E3C
:101DB800286ED8EC25F0400E2B6E020E2C6E410ECC
:101DC8002D6EFF0E2E6E580E2F6EFF0E306E18EC15
:101DD80024F0400E116E020E126E2AEC26F0920EBE
:101DE8002B6EFF0E2C6E400E2D6E020E2E6E12EC18
:101DF80025F048D0400E246E020E256E000E276E88
:101E0800000E266E000E296E640E286ED8EC25F0A2
:101E1800400E2B6E020E2C6E410E2D6EFF0E2E6E96
:101E2800C10E2F6EFF0E306E18EC24F0400E116EAE
:101E3800020E126E2AEC26F0920E2B6EFF0E2C6EFE
:101E4800400E2D6E020E2E6E12EC25F01BD00001F6
:101E58007505D8A405D096EC06F0000E0001756F44
:101E6800010E01011A6F010E0501966F0BD00101D9
:101E78001A51000AD8B49CD6010AD8B4E2D6030A8B
:101E8800D8B4E5D7050196511200396820EE2BF039
:101E98002C50D9262D50DA22DF507F0B0009D8A408
:101EA80002D0000E0CD020EE2BF02C50D9262D504D
:101EB800DA22DF507F0BE806D8A402D0010E396E73
:101EC80020EE2BF02C50D9262D50DA22DF507F0B34
:101ED800020AD8A402D0020E396E20EE2BF02C5044
:101EE800D9262D50DA22DF507F0B030AD8A402D05E
:101EF800030E396E3950140D1E0E2E6E010E2F6E04
:101F0800F3502E26F4502F2220EE2CF02C50D926F8
:101F18002D50DA22DF507F0B306E3050010DF35018
:101F28002E24246EF4502F20256E000E276E200ECE
:101F3800266E20EE33F02C50D9262D50DA22DF50B1
:101F4800316E3150286E296AD8EC25F020EE2AF03F
:101F58002C50D9262D50DA22DF507F0B2E6E20EE22
:101F680036F02C50D9262D50DA22DF507F0B2E5C0C
:101F7800D8B066D03950140D20EE37F02C50D92641
:101F88002D50DA22DF507F0B2E6E2F6A2E1E2F1E49
:101F98002E4A2F2A20EE2FF02C50D9262D50DA2247
:101FA800DF507F0B306E316A2E5030262F50312291
:101FB8001E0E326E010E336E3050322631503322EF
:101FC800F3503224106EF4503320116E020E2C247C
:101FD800126E000E2D20136E20EE37F02C50D926ED
:101FE8002D50DA22DF507F0B346E356A010E34260D
:101FF800000E3522341E351E344A352A20EE33F0C1
:102008002C50D9262D50DA22DF50366E376A3450DC
:10201800362635503722361E371E364A372A20EEE6
:1020280033F02C50D9262D50DA22DF50386E385034
:102038003624146E000E3720156E0FEC22F082D075
:1020480020EE36F02C50D9262D50DA22DF507F0BA7
:102058002E6E2E50010D020EF326000EF422F350C0
:102068002C24D96EF4502D20DA6EDF50D8B43ED02F
:102078003950140D1E0E2E6E010E2F6EF3502E26A3
:10208800F4502F2220EE2CF02C50D9262D50DA2295
:10209800DF507F0B306E3050010DF3502E24106E40
:1020A800F4502F20116E20EE36F02C50D9262D50EA
:1020B800DA22DF507F0B316E3150010D020EF3260C
:1020C800000EF422F3502C24126EF4502D20136EBF
:1020D80020EE33F02C50D9262D50DA22DF50326E04
:1020E8003250146E156A0FEC22F02CD03950140DB2
:1020F8001E0E2E6E010E2F6EF3502E26F4502F2238
:1021080020EE2CF02C50D9262D50DA22DF507F0BF0
:10211800306E3050010DF3502E24246EF4502F20D1
:10212800256E000E276E200E266E20EE33F02C5002
:10213800D9262D50DA22DF50316E3150286E296AA7
:10214800D8EC25F020EE36F02C50D9262D50DA2286
:10215800DF507F0B2E6E20EE2AF02C50D9262D5002
:10216800DA22DF507F0B2F6E2E502F5CD8A013D0B1
:10217800010E2E6E20EE36F02C50D9262D50DA2284
:10218800DF507F0B2F6E2E502F26DF502F18800B1D
:102198002F18DF6E120020EE2AF02C50D9262D5071
:1021A800DA22DF507F0B2E6E20EE36F02C50D92627
:1021B8002D50DA22DF507F0B2E5CD8B01200010EB2
:1021C8002E6E20EE37F02C50D9262D50DA22DF5013
:1021D8007F0B2F6E2E502F26DF502F18800B2F18B5
:1021E800DF6E20EE33F02C50D9262D50DA2210EE77
:1021F80037F02C50E1262D50E222E7507F0B2F6E4E
:10220800DE502F18D8A4120020EE37F02C50D92613
:102218002D50DA22DF90DF92DF94DF96DF98DF9A85
:10222800DF9C20EE36F02C50D9262D50DA22DF9094
:10223800DF92DF94DF96DF98DF9ADF9C1200366822
:1022480020EE2BF02C50D9262D50DA22DF507F0BB0
:102258000009D8A402D0000E0CD020EE2BF02C5090
:10226800D9262D50DA22DF507F0BE806D8A402D0F9
:10227800010E366E20EE2BF02C50D9262D50DA2286
:10228800DF507F0B020AD8A402D0020E366E20EE71
:102298002BF02C50D9262D50DA22DF507F0B030A61
:1022A800D8A402D0030E366E3650140D1E0E2E6EB4
:1022B800010E2F6EF3502E26F4502F2220EE2CF014
:1022C8002C50D9262D50DA22DF507F0B306E30503B
:1022D800010DF3502E24246EF4502F20256E000E8D
:1022E800276E200E266E20EE33F02C50D9262D5066
:1022F800DA22DF50316E3150286E296AD8EC25F089
:1023080020EE33F02C50D9262D50DA22DF502E6ED5
:1023180020EE34F02C50D9262D50DA22DF507F0BD6
:102328002E5CD8B058D020EE02F02C50D9262D5073
:10233800DA22DF50D8B4A6D03650140D1E0E2E6EF9
:10234800010E2F6EF3502E26F4502F2220EE2CF083
:102358002C50D9262D50DA22DF507F0B306E3050AA
:10236800010DF3502E24106EF4502F20116E20EE24
:1023780035F02C50D9262D50DA22DF507F0B316EE4
:10238800326A311E321E314A322A20EE2AF02C508F
:10239800D9262D50DA22DF507F0B336E346A315044
:1023A800332632503422010E3326000E34223350A5
:1023B8002C24126E34502D20136E20EE33F02C5046
:1023C800D9262D50DA22DF50356E3550146E156A35
:1023D8000FEC22F057D020EE02F02C50D9262D50C9
:1023E800DA22DF50D8B44ED03650140D1E0E2E6EA1
:1023F800010E2F6EF3502E26F4502F2220EE2CF0D3
:102408002C50D9262D50DA22DF507F0B306E3050F9
:10241800010DF3502E26F4502F2220EE34F02C50CC
:10242800D9262D50DA22DF507F0B316E3150010D45
:10243800F3502E24106EF4502F20116E020E2C240F
:10244800126E000E2D20136E20EE34F02C50D9267B
:102458002D50DA22DF507F0B326E336A321E331E64
:10246800324A332A20EE33F02C50D9262D50DA2266
:10247800DF50346E34503224146E000E3320156E43
:102488000FEC22F020EE34F02C50D9262D50DA2211
:10249800DF507F0B2E6E20EE33F02C50D9262D50B6
:1024A800DA222E50DE5CD8A013D0010E2E6E20EE5C
:1024B80034F02C50D9262D50DA22DF507F0B2F6EA6
:1024C8002E502F26DF502F18800B2F18DF6E12008A
:1024D80020EE35F02C50D9262D50DA22DF507F0B14
:1024E8002E6E20EE2AF02C50D9262D50DA22DF50FD
:1024F8007F0B2E5CD8B01200010E2E6E20EE35F048
:102508002C50D9262D50DA22DF507F0B2F6E2E50FB
:102518002F26DF502F18800B2F18DF6E20EE2AF0A1
:102528002C50D9262D50DA22DF507F0B2E6E20EE4C
:1025380035F02C50D9262D50DA22DF507F0B2F6E24
:102548002E502F5CD8A0120020EE34F02C50D92643
:102558002D50DA22DF90DF92DF94DF96DF98DF9A42
:10256800DF9C20EE35F02C50D9262D50DA22DF9052
:10257800DF92DF94DF96DF98DF9ADF9C1200000E6F
:1025880000016B6F000E0001686F000120EE2CF057
:102598006051D9266151DA22DF500001626F0001D3
:1025A80020EE2BF06051D9266151DA22DF504B0220
:1025B800F350000162250001666F000120EE2EF045
:1025C8006051D9266151DA22DF500001626F0001A3
:1025D80020EE2DF06051D9266151DA22DF504B02EE
:1025E800F350000162250001676F6CEC1BF024506A
:1025F8000001686F8E0E2B6EFC0E2C6E68C02DF0DD
:102608002E6A66C02FF0306A67C031F0326A12EC69
:1026180025F0000120EE34F06051D9266151DA220C
:10262800DE04D8B45FD0A30E246E010E256EFF0E13
:10263800276E2668000E296E280E286ED8EC25F025
:10264800000E426E67C039F00001665196EC15F035
:10265800E806D8B445D04D50435CD8B009D1000E37
:1026680000016B6F37D000016B51390D990EF324BF
:10267800D96E050EF420DA6EDE50DE10D8A428D00C
:1026880000016B51390D990EF324246E050EF420C8
:10269800256E000E276E000E266E000E296E390E6E
:1026A800286ED8EC25F000016B51390D990EF324F2
:1026B800396E050EF4203A6E60C03BF061C03CF004
:1026C80068C03DF010EC18F0432A00016851120070
:1026D80000016B2B4D5000016B5DD8B0C9D0C3D73A
:1026E800C80E12004250D8B4B6D05A0E2B6EFE0E49
:1026F8002C6E12EC25F0000E00016A6F000E696F57
:10270800000E00016A6F000E696F80D0000E000194
:102718006D6F000E6C6F63D0D89000016935D96E6B
:1027280000016A35DA6EA30ED926010EDA226CC0D2
:1027380018F06DC019F0000E1B6E390E1A6E04ECFD
:1027480026F0990E1824E16E050E1920E26EDE506F
:10275800E61842E1DE50E618D8A43ED0B50E2B6E3E
:10276800FC0E2C6E6CC018F06DC019F0000E1B6EBC
:10277800390E1A6E04EC26F0990E1824D96E050E3F
:102788001920DA6EDECF2DF0DDCF2EF06CC02FF0E1
:102798006DC030F069C031F06AC032F012EC25F03B
:1027A8006CC018F06DC019F0000E1B6E390E1A6E51
:1027B80004EC26F0990E1824246E050E1920256EB7
:1027C800000E276E000E266E000E296E390E286E3A
:1027D800D8EC25F0430617D000016C4B6D2B4D50FB
:1027E8000001626F636B0001625100016C5D0001C2
:1027F8006D51800A0001646F00016351800A000175
:102808006459D8A089D70001694B6A2B425000014E
:10281800626F636B000162510001695D00016A51DA
:10282800800A0001646F00016351800A0001645945
:10283800D8A06CD7A30E246E010E256EFF0E276E4E
:102848002668000E296E280E286ED8EC25F0000E9A
:10285800426ECA0E120067C039F00001665196EC4C
:1028680015F0E806D8A402D0C90E1200CB0E12004B
:10287800000E12000001606F000E0001636F000E71
:10288800626F000E0001616F000E0001636F000EA1
:10289800626F36D1000160513B6E3C6A00016251A3
:1028A8003B1805E1000163513C18D8B426D162C039
:1028B80018F063C019F0000E1B6E390E1A6E04EC86
:1028C80026F0990E1824D96E050E1920DA6EDE50FE
:1028D800DE10D8B412D162C018F063C019F0000E2F
:1028E8001B6E390E1A6E04EC26F02D0E1826000EFB
:1028F8001922990E1824D96E050E1920DA6EDF50A8
:102908007F0B3B6E3B50395CD8A042D062C018F0B8
:1029180063C019F0000E1B6E390E1A6E04EC26F017
:10292800300E1826000E1922990E1824D96E050E9D
:102938001920DA6EDF507F0B3B6E39503B5CD8A014
:1029480027D062C018F063C019F0000E1B6E390E54
:102958001A6E04EC26F0990E1824D96E050E19206B
:10296800DA6E4250020DA30EF324E16E010EF4203C
:10297800E26EDECFE6FFDDCFE5FF422A0001624BC3
:10298800632B3D0E2B6EFD0E2C6E12EC25F05AD0EB
:1029980062C018F063C019F0000E1B6E390E1A6E73
:1029A80004EC26F02D0E1826000E1922990E182474
:1029B800D96E050E1920DA6EDF507F0B3B6E3B5047
:1029C8003A5CD8A043D062C018F063C019F0000E7A
:1029D8001B6E390E1A6E04EC26F0300E1826000E07
:1029E8001922990E1824D96E050E1920DA6EDF50B7
:1029F8007F0B3B6E3A503B5CD8A028D062C018F0E1
:102A080063C019F0000E1B6E390E1A6E04EC26F026
:102A1800990E1824D96E050E1920DA6E4250020D4F
:102A2800A30EF324E16E010EF420E26EDECFE6FF82
:102A3800DDCFE5FF422A230E2B6EFD0E2C6E12EC25
:102A480025F057D0010E0001616F5AD062C018F00E
:102A580063C019F0000E1B6E390E1A6E04EC26F0D6
:102A68002D0E1826000E1922990E1824D96E050E5F
:102A78001920DA6EDF507F0B3B6E39503B5CD8A0D3
:102A88003CD062C018F063C019F0000E1B6E390EFE
:102A98001A6E04EC26F0300E1826000E1922990E34
:102AA8001824D96E050E1920DA6EDF507F0B3B6EA5
:102AB8003B503A5CD8A021D062C018F063C019F02E
:102AC800000E1B6E390E1A6E04EC26F0990E1824AF
:102AD800D96E050E1920DA6E4250020DA30EF324AA
:102AE800E16E010EF420E26EDECFE6FFDDCFE5FFFA
:102AF800422A0001624B632BA5D70001624B632B6E
:102B08004D503B6E3C6A3B500001625D00016351D1
:102B1800800A3D6E3C50800A3D58D8A0BBD60001C3
:102B2800615112003E6E000E406E000E3F6E000EA8
:102B38003D6E000E406E000E3F6E25D13FC018F06E
:102B480040C019F0000E1B6E390E1A6E04EC26F008
:102B5800990E1824D96E050E1920DA6EDE50DE1093
:102B6800D8B40FD13FC018F040C019F0000E1B6E4A
:102B7800390E1A6E04EC26F02D0E1826000E1922B6
:102B8800990E1824D96E050E1920DA6EDF507F0BC6
:102B98003A6E3A503E5CD8A041D03FC018F040C0D1
:102BA80019F0000E1B6E390E1A6E04EC26F0300E6A
:102BB8001826000E1922990E1824D96E050E192010
:102BC800DA6EDF507F0B3A6E3E503A5CD8A026D0C2
:102BD8003FC018F040C019F0000E1B6E390E1A6E77
:102BE80004EC26F0990E1824D96E050E1920DA6E19
:102BF8004250020DA30EF324E16E010EF420E26EA2
:102C0800DECFE6FFDDCFE5FF422A3F4A402A3D0EF0
:102C18002B6EFD0E2C6E12EC25F05AD03FC018F02A
:102C280040C019F0000E1B6E390E1A6E04EC26F027
:102C38002D0E1826000E1922990E1824D96E050E8D
:102C48001920DA6EDF507F0B3A6E3A50395CD8A003
:102C580042D03FC018F040C019F0000E1B6E390E6C
:102C68001A6E04EC26F0300E1826000E1922990E62
:102C78001824D96E050E1920DA6EDF507F0B3A6ED4
:102C880039503A5CD8A027D03FC018F040C019F09E
:102C9800000E1B6E390E1A6E04EC26F0990E1824DD
:102CA800D96E050E1920DA6E4250020DA30EF324D8
:102CB800E16E010EF420E26EDECFE6FFDDCFE5FF28
:102CC800422A230E2B6EFD0E2C6E12EC25F056D0E8
:102CD800010E3D6E58D03FC018F040C019F0000EEC
:102CE8001B6E390E1A6E04EC26F02D0E1826000EF7
:102CF8001922990E1824D96E050E1920DA6EDF50A4
:102D08007F0B3A6E3E503A5CD8A03BD03FC018F0DB
:102D180040C019F0000E1B6E390E1A6E04EC26F036
:102D2800300E1826000E1922990E1824D96E050E99
:102D38001920DA6EDF507F0B3A6E3A50395CD8A012
:102D480020D03FC018F040C019F0000E1B6E390E9D
:102D58001A6E04EC26F0990E1824D96E050E192067
:102D6800DA6E4250020DA30EF324E16E010EF42038
:102D7800E26EDECFE6FFDDCFE5FF422A3F4A402A7A
:102D8800A7D73F4A402A4D503A6E3B6A3A503F5CBB
:102D98004050800A3C6E3B50800A3C58D8A0CED6A2
:102DA8003D501200000E00016C6F000E6B6F0001A9
:102DB8006869A30E246E010E256EFF0E276E266825
:102DC800000E296E280E286ED8EC25F0000E426EF3
:102DD80020EE2CF03F50D9264050DA22DF50000177
:102DE800646F20EE2BF03F50D9264050DA22DF5096
:102DF8004B02F350000164250001696F20EE2EF0AC
:102E08003F50D9264050DA22DF500001646F20EE8F
:102E18002DF03F50D9264050DA22DF504B02F350B4
:102E28000001642500016A6F670E2B6EFC0E2C6E84
:102E38003FC0D9FF40C0DAFFDECF2DF0DDCF2EF046
:102E480069C02FF0306A6AC031F0326A12EC25F09E
:102E58004D50435CD8B0DED0000E00016C6F000E00
:102E68006B6FA1D03FC0D9FF40C0DAFF6BC018F02C
:102E78006CC019F0000E1B6E390E1A6E04EC26F0A9
:102E8800990E1824E16E050E1920E26EDE50E61840
:102E98002DE1DE50E618D8A429D06BC068F06BC0CD
:102EA80018F06CC019F0000E1B6E390E1A6E04EC87
:102EB80026F0990E1824D96E050E1920DA6E4250A4
:102EC800020DA30EF324E16E010EF420E26EDECFB4
:102ED800E6FFDDCFE5FF422A69C039F06AC03AF063
:102EE800000168513EEC14F0C80E120069C039F0B8
:102EF8006AC03AF0000168513EEC14F0E806D8A424
:102F08004FD03B0E2B6EFE0E2C6E12EC25F0000EF1
:102F180000016C6F000E6B6F28D0D89000016B35E4
:102F2800D96E00016C35DA6EA30ED926010EDA22AD
:102F3800DE2803E1DE28D8B415D0DC0E2B6EFF0E98
:102F48002C6ED89000016B35D96E00016C35DA6EA5
:102F5800A30ED926010EDA22DECF2DF0DDCF2EF01A
:102F680012EC25F000016B4B6C2B4D500001646F87
:102F7800656B0001645100016B5D00016C51800AB2
:102F88000001666F00016551800A00016659D8A0EA
:102F9800C4D7960E2B6EFF0E2C6E12EC25F0A4D71C
:102FA80000016B4B6C2B4D500001646F656B000189
:102FB800645100016B5D00016C51800A0001666F6D
:102FC80000016551800A00016659D8A04BD74350CB
:102FD800390D990EF324246E050EF420256E000E8B
:102FE800276E000E266E000E296E390E286ED8EC5C
:102FF80025F04350390D990EF324396E050EF4204F
:103008003A6E3FC03BF040C03CF028EC19F0432A30
:103018006FEC09F0000E12003D503E6E3F6A39C059
:10302800D9FF3AC0DAFF3EC0DEFF3FC0DDFF020E27
:103038003924246E000E3A20256E020E3B24266E9B
:10304800000E3C20276EABEC25F0890E2B6EFD0E92
:103058002C6E020E39242D6E000E3A202E6E12ECC4
:1030680025F0020E39241E6E000E3A201F6EC2ECA7
:1030780022F020EE2AF03950D9263A50DA22DF50D1
:103088001E18800B1E18DF6E20EE2BF03B50D92641
:103098003C50DA22DF503E6E20EE2BF03950D92614
:1030A8003A50DA22DF503E18800B3E18DF6E20EED1
:1030B8002CF03B50D9263C50DA22DF503E6E20EEF1
:1030C8002CF03950D9263A50DA22DF503E18800BBE
:1030D8003E18DF6E20EE2DF03B50D9263C50DA2208
:1030E800DF503E6E20EE2EF03950D9263A50DA22C3
:1030F800DF503E18800B3E18DF6E20EE2EF03B505E
:10310800D9263C50DA22DF503E6E20EE2FF039509F
:10311800D9263A50DA22DF503E18800B3E18DF6E6F
:1031280020EE2CF03950D9263A50DA22DF507F0BA6
:103138003E6E20EE2BF03950D9263A50DA22DF5075
:103148007F0B4B02F3503E243F6E20EE2DF039509A
:10315800D9263A50DA22DF503F18800B3F18DF6E2D
:1031680020EE2FF03950D9263A50DA22DF507F0B63
:103178003E6E20EE2EF03950D9263A50DA22DF5032
:103188007F0B4B02F3503E243F6E20EE30F0395057
:10319800D9263A50DA22DF503F18800B3F18DF6EED
:1031A80020EE30F03B50D9263C50DA22DF503E6EFC
:1031B80020EE31F03950D9263A50DA22DF503E1845
:1031C800F80B3E18DF6E20EE33F03950D9263A500E
:1031D800DA2210EE30F03950E1263A50E222E75078
:1031E8007F0B3E6E10EE2DF03950E1263A50E22268
:1031F800E7507F0B00083E243F6E3F28DF6E20EE2D
:1032080032F03B50D9263C50DA22DF503E6E20EE99
:1032180032F03950D9263A50DA22DF503E18800B66
:103228003E18DF6E090E2B6EFD0E2C6E20EE33F06D
:103238003950D9263A50DA22DF503E6E3E502D6E74
:103248002E6A12EC25F012003BC0D9FF3CC0DAFF11
:1032580039C0E1FF3AC0E2FFDECFE6FFDDCFE5FF90
:10326800020E3924246E000E3A20256E020E3B24ED
:10327800266E000E3C20276EABEC25F0020E39249A
:103288001E6E000E3A201F6EC2EC22F020EE2AF0CD
:103298003950D9263A50DA22DF501E18800B1E18F2
:1032A800DF6E20EE2BF03B50D9263C50DA22DF505F
:1032B8003D6E20EE2BF03950D9263A50DA22DF50F5
:1032C8003D18800B3D18DF6E20EE2CF03B50D926C0
:1032D8003C50DA22DF503D6E20EE2CF03950D926D2
:1032E8003A50DA22DF503D18800B3D18DF6E20EE91
:1032F8002DF03B50D9263C50DA22DF503D6E20EEAF
:103308002EF03950D9263A50DA22DF503D18800B7A
:103318003D18DF6E20EE2EF03B50D9263C50DA22C5
:10332800DF503D6E20EE2FF03950D9263A50DA2280
:10333800DF503D18800B3D18DF6E20EE2CF0395021
:10334800D9263A50DA22DF507F0B3D6E20EE2BF063
:103358003950D9263A50DA22DF507F0B4B02F3500E
:103368003D243E6E20EE2DF03950D9263A50DA220F
:10337800DF503E18800B3E18DF6E20EE2FF03950DC
:10338800D9263A50DA22DF507F0B3D6E20EE2EF020
:103398003950D9263A50DA22DF507F0B4B02F350CE
:1033A8003D243E6E20EE30F03950D9263A50DA22CC
:1033B800DF503E18800B3E18DF6E20EE30F03B5099
:1033C800D9263C50DA22DF503D6E20EE31F03950DC
:1033D800D9263A50DA22DF503D18F80B3D18DF6E37
:1033E80020EE33F03950D9263A50DA2210EE30F078
:1033F8003950E1263A50E222E7507F0B3D6E10EE3D
:103408002DF03950E1263A50E222E7507F0B0008B0
:103418003D243E6E3E28DF6E090E2B6EFD0E2C6E8F
:1034280020EE33F03950D9263A50DA22DF503D6E7B
:103438003D502D6E2E6A12EC25F01200000E3E6EE5
:10344800000E3D6E000E3E6E000E3D6E91D0FF0EDA
:10345800396EFF0E3A6E42503B6E3C6A39503B263D
:103468003A503C223D503B1843E13E503C18D8A40A
:103478003FD0400E246E020E256E000E276E000E01
:10348800266E000E296E640E286ED8EC25F0400ECC
:103498002B6E020E2C6EBE0E2D6EFD0E2E6ED8906B
:1034A8003D34D96E3E34DA6EA30ED926010EDA22E7
:1034B800DECF2FF0DDCF30F018EC24F0400E116E87
:1034C800020E126E2AEC26F0BE0E2B6EFD0E2C6E2E
:1034D800D8903D34D96E3E34DA6EA30ED926010E4B
:1034E800DA22DECF2DF0DDCF2EF012EC25F03ED023
:1034F800400E246E020E256E000E276E000E266EFC
:10350800000E296E640E286ED8EC25F0400E2B6E46
:10351800020E2C6EE10E2D6EFF0E2E6ED8903D34ED
:10352800D96E3E34DA6EA30ED926010EDA22DECF2A
:103538002FF0DDCF30F018EC24F0400E116E020EA3
:10354800126E2AEC26F0E10E2B6EFF0E2C6ED89030
:103558003D34D96E3E34DA6EA30ED926010EDA2236
:10356800DECF2DF0DDCF2EF012EC25F03D4A3E2ABD
:103578004250396E3A6A39503D5C3E50800A3B6E83
:103588003A50800A3B58D8B0120061D72C68000E18
:10359800326E000E316E000E306E000E2F6E000E71
:1035A8002B6E000E2A6E20EE33F02450D9262550BB
:1035B800DA22DF502D6E020E24241E6E000E252006
:1035C8001F6EC2EC22F01E502E6E20EE2BF02450FF
:1035D800D9262550DA22DF507F0B2C6E20EE2CF0F6
:1035E8002450D9262550DA22DF507F0B266E26502C
:1035F8002F6E306A000E326E000E316E5BD0020EF6
:103608003124266E000E3220276E26502424D96ECF
:1036180027502520DA6E2C50140D1E0E286E010E30
:10362800296EF3502826F45029222F502824E16EC1
:1036380030502920E26EDFCFE7FF314A322A2E5080
:10364800266E276A2650315C3250800A286E275031
:10365800800A2858D8B01CD02D50266E276A2650CC
:10366800315C3250800A286E2750800A2858D8B01A
:103678000FD02F4A302A4B50266E276A26502F5CCF
:103688003050800A286E2750800A2858D8A0B7D70B
:10369800000E306E000E2F6E2C2A2D50266E276AD3
:1036A8002650315C3250800A286E2750800A2858EC
:1036B800D8B012002E50266E276A2650315C325040
:1036C800800A286E2750800A2858D8B01200D3D70D
:1036D800000E2C6E010E2B6E2BC010F02CC011F0BA
:1036E800D7EC26F06BEC22F01CC01EF01DC01FF0BA
:1036F800000E216E640E206E6BEC21F053D0000E8C
:103708002C6E000E2B6E55D02BC018F02CC019F063
:10371800000E1B6E390E1A6E04EC26F0990E182452
:10372800D96E050E1920DA6EDE50DE10D8B417D027
:103738002BC018F02CC019F0000E1B6E390E1A6E33
:1037480004EC26F0990E1824D96E050E1920DA6EAD
:103758002950DE1818E12A50DE18D8A414D02BC03E
:1037680018F02CC019F0000E1B6E390E1A6E04ECFE
:1037780026F0990E1824D96E050E1920DA6EDE503F
:10378800DE10D8A403D02B4A2C2A13D06BEC22F0DD
:103798001CC01EF01DC01FF0000E216E640E206EAE
:1037A8006BEC21F0010E1E24296E000E1F202A6EDC
:1037B800A6D74D50266E276A26502B5C2C50800ABF
:1037C800286E2750800A2858D8A09ED729C024F0F0
:1037D8002AC025F012003A6EE7EC1DF0000E436E89
:1037E800990E246E050E256E000E276E000E266EAD
:1037F800040E296E740E286ED8EC25F0A30E246EE4
:10380800010E256E000E276E000E266E000E296E24
:10381800280E286ED8EC25F0010E496E6A0E2B6E24
:10382800FF0E2C6E3AC02DF02E6A12EC25F03AC02D
:103838004AF0610E2B6EFF0E2C6E39C02DF02E6AE9
:1038480012EC25F039C04BF0E70E2B6EFD0E2C6EF6
:10385800000E136E040E126E39C010F0116A6FEC70
:1038680020F010C018F011C019F03AC01AF01B6A05
:1038780004EC26F018C02DF019C02EF012EC25F03B
:1038880039C010F0116A000E136E040E126E6FEC40
:1038980020F010503A02F3CF4DF04D50410F4C6ECE
:1038A8000A0E2B6EFE0E2C6E4CC02DF02E6A12ECFA
:1038B80025F012005AD024C0F6FF25C0F7FF000EED
:1038C800F86E0F0EF76403D00800F55005D0F6CF58
:1038D800E1FFF7CFE2FFE7500009D8B41CD026C0BB
:1038E800F6FF27C0F7FFF86A0800F5CF2AF024C0D2
:1038F800F6FF25C0F7FF000EF86E0F0EF76403D031
:103908000800F55005D0F6CFE1FFF7CFE2FFE7500A
:103918002A18D8B426D026C0F6FF27C0F7FFF86AC1
:103928000800F5502A6E2B6A2A1E2B1E2A4A2B2ABB
:1039380024C0F6FF25C0F7FF000EF86E0F0EF764DF
:1039480003D00800F55005D0F6CFE1FFF7CFE2FF2E
:10395800E7502C6E2C502A24246E000E2B20256E46
:103968001200244A252A264A272A2806D8A02906EA
:103978002828A1E12928D8A49ED7000E256E000E7C
:10398800246E120002D01E4A1F2A1EC0D9FF1FC073
:10399800DAFF200EDE18D8B4F6D71EC0D9FF1FC034
:1039A800DAFF090EDE18D8B4EED7000E246E000E2A
:1039B800236E000E226E1EC0D9FF1FC0DAFF2D0E27
:1039C800DE18D8A402D0222A24D01EC0D9FF1FC0D6
:1039D800DAFF2B0EDE18D8A41ED01BD023C018F097
:1039E80024C019F0000E1B6E0A0E1A6E04EC26F0A5
:1039F8001EC0D9FF1FC0DAFFDF50206E216A1850A1
:103A0800202619502122D00E2024236EFF0E2120BB
:103A1800246E1E4A1F2A1EC0D9FF1FC0DAFFDF50BE
:103A28007FEC26F0D8B0DAD72250D8B40DD023C016
:103A380020F024C021F0201E211E204A212A20C067
:103A48001EF021C01FF0120023C01EF024C01FF07A
:103A580012001D501E10D8A404D014C11DF015C1A9
:103A68001EF01D501E10D8A405D0000E1D6E000EAD
:103A78001E6E12001DC016F01EC017F01FC018F0F1
:103A880020C019F015EC23F016501D2617501E22E1
:103A98001DC0D9FF1EC0DAFFDF50D8A40BD0000E1E
:103AA8000101146F000E0101156F14C11DF015C13D
:103AB8001EF012001DC016F01EC017F01FC018F02F
:103AC80020C019F03DEC23F016501D240101146F9D
:103AD80017501E200101156F14C1D9FF15C1DAFF57
:103AE800DF50D8B40AD014C1D9FF15C1DAFF000ECF
:103AF800DF6E0101144B152B06D0000E0101146F67
:103B0800000E0101156F1DC01DF01EC01EF0120031
:103B1800000E2B6E000E2A6E000E2B6E000E2A6E03
:103B28002AD02A502424D96E2B502520DA6EDF5053
:103B38007FEC26F0D8A012002CC018F02DC019F088
:103B4800000E1B6E0A0E1A6E04EC26F02A5024246E
:103B5800D96E2B502520DA6EDF50286E296A18504E
:103B6800282619502922D00E28242C6EFF0E292031
:103B78002D6E2A4A2B2A24C01EF025C01FF0C2EC45
:103B880022F01E502A5C1F502B58D8A0CAD72C50A0
:103B98002D10D8B40FD02D500DE1650E2C5CD8B087
:103BA80009D026C0D9FF27C0DAFF000EDE6E000E4E
:103BB800DD6E120026C0D9FF27C0DAFF2CC0DEFF59
:103BC8002DC0DDFF1200490E246E000E256E000E7A
:103BD800276E000E266E000E296E050E286ED8EC94
:103BE80025F0000E956E9250F009926E8090000EAE
:103BF800116EFA0E106EF6EC23F0380E5AEC24F023
:103C0800000E116EFA0E106EF6EC23F00E0E5AEC42
:103C180024F0000E116EFA0E106EF6EC23F0010E71
:103C28005AEC24F0000E116EFA0E106EF6EC23F02A
:103C3800060E5AEC24F0000E116EFA0E106EF6EC19
:103C480023F00C0E5AEC24F0000E116EFA0E106ED2
:103C5800F6EC23F01E0E246E010E256E000E276E64
:103C6800200E266E000E296E500E286ED8EC25F018
:103C78003EEC22F043EC27F01200B20E2B6EFE0E43
:103C88002C6E39C02DF03AC02EF012EC25F0000E43
:103C9800406E000E3F6E000E3E6E000E3F6E000E30
:103CA8003E6E1BD03E503924D96E3F503A20DA6E12
:103CB800DF507FEC26F0D8A012003E503924D96E90
:103CC8003F503A20DA6EDF503D6E40500A0DF350F7
:103CD8003D24D00F406E3E4A3F2A39C01EF03AC0FC
:103CE8001FF0C2EC22F01E503E5C1F503F58D8A077
:103CF800D9D78E0E2B6EFE0E2C6E40C02DF02E6A7C
:103D080012EC25F04A50405CD8A007D03BC0D9FF40
:103D18003CC0DAFFFF0EDF6E12003BC0D9FF3CC08B
:103D2800DAFF40C0DFFF1200A60E2B6EFE0E2C6ECF
:103D380039C02DF03AC02EF012EC25F0000E3F6E7F
:103D4800000E3E6E000E406E000E3F6E000E3E6E80
:103D58001BD03E503924D96E3F503A20DA6EDF50DE
:103D68007FEC26F0D8A012003E503924D96E3F507F
:103D78003A20DA6EDF503D6E40500A0DF3503D2474
:103D8800D00F406E3E4A3F2A39C01EF03AC01FF09D
:103D9800C2EC22F01E503E5C1F503F58D8A0D9D725
:103DA800820E2B6EFE0E2C6E40C02DF02E6A12EC89
:103DB80025F04B50405CD8A007D03BC0D9FF3CC091
:103DC800DAFFFF0EDF6E12003BC0D9FF3CC0DAFFFE
:103DD80040C0DFFF1200000E406E000E3F6E000E66
:103DE8003E6E000E3F6E000E3E6E1ED03E503924D1
:103DF800D96E3F503A20DA6EDF507FEC26F0D8A01B
:103E08000FD03E503924D96E3F503A20DA6EDF5039
:103E18003D6E40500A0DF3503D24D00F406E02D045
:103E2800000E12003E4A3F2A39C01EF03AC01FF069
:103E3800C2EC22F01E503E5C1F503F58D8A0D6D787
:103E4800F90E2B6EFD0E2C6E40C02DF02E6A12EC72
:103E580025F04A50405CD8A008D03BC0D9FF3CC0F0
:103E6800DAFFFF0EDF6E000E12003BC0D9FF3CC028
:103E7800DAFF40C0DFFF010E120032D02DC024F05F
:103E88002EC025F02FC026F030C027F02FC01EF01E
:103E980030C01FF0C2EC22F01EC028F01FC029F06D
:103EA8005EEC1CF024502510D8A405D02DC02DF0B0
:103EB8002EC02EF01200010E2D24106E000E2E20A2
:103EC800116E2FC0F6FF30C0F7FFF86A0800F550F2
:103ED800126E136AA3EC21F010C02DF011C02EF061
:103EE8002D502E10D8B414D02DC0F6FF2EC0F7FFD9
:103EF800000EF86E0F0EF76403D00800F55005D0D9
:103F0800F6CFE1FFF7CFE2FFE7500009D8A4B6D714
:103F1800000E2D6E000E2E6E1200000E3E6E000E6C
:103F2800406E000E3F6E000E406E000E3F6E24D0B5
:103F38003F503924D96E40503A20DA6EDF507FEC7A
:103F480026F0D8A00FD03F503924D96E40503A20DF
:103F5800DA6EDF503D6E3E500A0DF3503D24D00F0F
:103F68003E6E08D03BC0D9FF3CC0DAFF000EDF6EC2
:103F7800000E12003F4A402A39C01EF03AC01FF016
:103F8800C2EC22F01E503F5C1F504058D8A0D0D73A
:103F9800D50E2B6EFD0E2C6E3EC02DF02E6A12EC47
:103FA80025F03BC0D9FF3CC0DAFF3EC0DFFF010E61
:103FB8001200000E3E6E000E406E000E3F6E000EA8
:103FC800406E000E3F6E24D03F503924D96E4050C9
:103FD8003A20DA6EDF507FEC26F0D8A00FD03F50A1
:103FE8003924D96E40503A20DA6EDF503D6E3E508B
:103FF8000A0DF3503D24D00F3E6E08D03BC0D9FFC8
:104008003CC0DAFF010EDF6E000E12003F4A402A64
:1040180039C01EF03AC01FF0C2EC22F01E503F5CBF
:104028001F504058D8A0D0D79D0E2B6EFD0E2C6E79
:104038003EC02DF02E6A12EC25F03BC0D9FF3CC0E3
:10404800DAFF3EC0DFFF010E12005FEC26F056ECEF
:1040580027F05CEC27F05EEC27F0700E106E4E0E29
:10406800116E4DEC27F0F28EF28C30EC21F0030E3D
:10407800116EE80E106EF6EC23F0C30E2B6EFD0EDB
:104088002C6E12EC25F062EC27F05CEC0DF00001D0
:10409800746F00017405D8A415D0010E01011C6FBE
:1040A80011D06FEC09F0020E0AD001011B05D8A44B
:1040B800ECD7B1EC20F0000E01011B6F010E0101DD
:1040C8001C6FE3D701011C51010AD8B4EAD7030ACF
:1040D800D8B4EBD7DAD7000E156E13AE06D0126C33
:1040E800131ED8B0132A010E156E11AE06D0106C2F
:1040F800111ED8B0112A010E151A000E176E000EE7
:10410800166E12501310D8B41CD0010E146E04D0C1
:10411800D89012361336142A13AEFAD7D89016361A
:1041280017361250105C13501158D8A005D01250F1
:10413800105E1350115A1680D89013321232142E72
:10414800EDD71550D8B404D0166C171ED8B0172A5E
:1041580016C010F017C011F0120001010E05010180
:104168000F11D8A434D052EC27F0000E186E800E30
:10417800ACEC26F01E0E186E010E196ED9EC24F068
:10418800000E186EC00EACEC26F0320E186E010E42
:10419800196ED9EC24F0000E186E940EACEC26F0D3
:1041A800460E186E010E196ED9EC24F0000E186E2A
:1041B800D40EACEC26F05A0E186E010E196ED9EC1E
:1041C80024F0000E01010F6F000E0E6F1200000E9A
:1041D80001010F6F000E0E6F12009C0EF66E4D0E51
:1041E800F76E000EF86E01EEDAF010EE12F009002C
:1041F800F5CFEEFFE550E150FAE105EE99F014EE47
:1042080074F0EE6AE550E150FCE1E250FAE104EEA8
:1042180000F0960EEE6AE806FDE103EE00F0960E59
:10422800EE6AE806FDE102EE00F0CC0EEE6AE80662
:10423800FDE101EE00F0DA0EEE6AE806FDE10001AC
:10424800756B00EE41F00D0EEE6AE806FDE1509048
:104258005092000129EF20F0000E01011A6F62EC64
:1042680025F0000E0001756F000E416E000E010171
:10427800196F000E0101186FCB0E246E010E256E0A
:10428800000E276E000E266E000E296E0F0E286E89
:10429800D8EC25F0A40E246E020E256E000E276EB3
:1042A800000E266E000E296E280E286ED8EC25F01A
:1042B800000E246E030E256E000E276E000E266E6D
:1042C800000E296E960E286ED8EC25F01200000E0E
:1042D800236E1FAE06D01E6C1F1ED8B01F2A010EFB
:1042E800236E21AE04D0206C211ED8B0212A205084
:1042F8002110D8B418D0010E226E04D0D8902036E0
:104308002136222A21AEFAD720501E5C21501F5890
:10431800D8A004D020501E5E21501F5AD8902132B8
:104328002032222EF1D72350D8B404D01E6C1F1E81
:10433800D8B01F2A1EC01EF01FC01FF0120010C0E8
:10434800F6FF11C0F7FF000EF86E0F0EF76403D0EA
:104358000800F55005D0F6CFE1FFF7CFE2FFE750B0
:104368001218D8A405D010C010F011C011F0120016
:104378001050146E1150156E104A112A14C0F6FF11
:1043880015C0F7FF000EF86E0F0EF76403D0080093
:10439800F55005D0F6CFE1FFF7CFE2FFE75000096F
:1043A800D8A4CDD7000E106E000E116E12002CC0CE
:1043B8001EF02DC01FF0C2EC22F01F502AE1280E7B
:1043C8001E5CD8B026D02EC024F02FC025F02CC0FB
:1043D80026F02DC027F0ABEC25F0010E0001756F1B
:1043E800010E0101986F2CC024F02DC025F0000E9D
:1043F800276E000E266E2CC01EF02DC01FF0C2ECDA
:1044080022F01EC028F01FC029F0D8EC25F0010EBC
:104418001200000E120010C016F011C017F014D0D0
:104428001406D8A0150612C0D9FF13C0DAFF124A25
:10443800132A16C0E1FF17C0E2FF164A172ADFCF7A
:10444800E7FFE750D8B40DD014501510D8B409D0F0
:10445800E7D716C0D9FF17C0DAFF000EDF6E164A7D
:10446800172A1406D8A015061428F3E11528D8B47D
:104478001200EFD71E0E246E010E256E000E276E59
:10448800200E266E000E296E500E286ED8EC25F0F0
:10449800B00E2B6EFD0E2C6E000E2E6E0D0E2D6EB8
:1044A80012EC25F01E0E106E010E116EDF0E126E4C
:1044B800010E136E000E156E0D0E146E9AEC24F09C
:1044C8001E0E186E010E196ED9EC24F01200DAC116
:1044D80010F0DBC111F0DCC112F0DDC113F06D0E7C
:1044E800146E4E0E156EC60E166E410E176E97ECB4
:1044F80022F010C0DAF111C0DBF112C0DCF113C0F8
:10450800DDF1390E0101DA27300EDB23000EDC2342
:10451800000EDD23FF0E0101DC151C6E7F0E01016C
:10452800DD151D6E1200000E186E000E196E000EBD
:104538001A6E000E1B6E10A008D0145018261550C5
:10454800192216501A2217501B22D89014361536E5
:1045580016361736D89013321232113210321050E4
:10456800111012101310D8A4E6D718C010F019C0F3
:1045780011F01AC012F01BC013F012001EC022F076
:104588001FC023F002D0224A232A22C0F6FF23C0EC
:10459800F7FF000EF86E0F0EF76403D00800F55011
:1045A80005D0F6CFE1FFF7CFE2FFE7500009D8A426
:1045B800EAD71EC020F01FC021F0201E211E204A6D
:1045C800212A225020241E6E235021201F6E120003
:1045D800000E166E000E156E12501310D8B41CD0B3
:1045E800010E146E04D0D89012361336142A13AE66
:1045F800FAD7D890153616361250105C1350115849
:10460800D8A005D01250105E1350115A1580D890BA
:1046180013321232142EEDD715C010F016C011F057
:104628001200000E1C6E000E1B6E04D0164A172ACC
:104638001B4A1C2A16C0D9FF17C0DAFFDF50D8B4AE
:1046480013D018C010F019C011F016C0D9FF17C048
:10465800DAFFDF501A6E1A50126E136AA3EC21F0BB
:1046680010501110D8A4E2D71BC016F01CC017F0C8
:104678001200000E1C6E000E1B6E04D0164A172A7C
:104688001B4A1C2A16C0D9FF17C0DAFFDF50D8B45E
:1046980013D018C010F019C011F016C0D9FF17C0F8
:1046A800DAFFDF501A6E1A50126E136AA3EC21F06B
:1046B80010501110D8B4E2D71BC016F01CC017F068
:1046C8001200000E146E000E136E000E146E000E13
:1046D800136E11D0000E166E000E156E16BE06D0A3
:1046E8005E0E155C010E1658D8B003D0154A162A6E
:1046F800F5D7134A142A1050135C1450800A126E0E
:104708001150800A1258D8B01200E4D704D0104AC9
:10471800112A124A132A10C0D9FF11C0DAFFDF503C
:10472800146E12C0F6FF13C0F7FFF86A0800F550C0
:1047380000081424156E1550D8A407D010C0D9FF4E
:1047480011C0DAFFDF50D8A4E2D71550106E116AF5
:1047580010BE11061200000E8D6E000E8C6E000E3B
:10476800896E000E8A6E000E8B6E030E966EF80E22
:10477800926E93688F0E946E800E956E0C0E0F01DC
:104788003A6F3F0E0F01396F000E0F013B6F030E9A
:104798000F013C6F280E0F01386F6168F19E1200FF
:1047A800000E146E000E136E000E146E000E136EC3
:1047B8000ED0EFEC26F059EC27F020EC27F000099A
:1047C800D8B4FBD756EC27F07E92134A142A10501F
:1047D800135C1450800A126E1150800A1258D8B017
:1047E8001200E7D7000E146E000E136E000E146E42
:1047F800000E136E0ED026EC27F060EC27F02CECA0
:1048080027F00009D8B4FBD75CEC27F09E90134A38
:10481800142A1050135C1450800A126E1150800A2A
:104828001258D8B01200E7D72BC033F02CC034F0A0
:10483800000E356E000E366E2F0E316E000E326E83
:10484800330E1C6E000E1D6E2DC01EF02EC01FF004
:10485800310E206E000E216E68EC0BF033C0D9FFCC
:1048680034C0DAFF000EDF6E120019501A10D8B4E7
:1048780018D0010E1B6E04D0D89019361A361B2A90
:104888001AAEFAD71950175C1A501858D8A004D085
:104898001950175E1A50185AD8901A3219321B2E0E
:1048A800F1D717C017F018C018F01200176E835010
:1048B800C00B836E17503F0B8310836E8250CF0B53
:1048C800826E1750C00B176E1740E8423F0B176EE9
:1048D80017508210826E809480928080000E116E34
:1048E800010E106E65EC23F080901200176E808424
:1048F80080928350C00B836E17503F0B8310836EDA
:104908008250CF0B826E1750C00B176E1740E842CB
:104918003F0B176E17508210826E8080000E116E4A
:10492800010E106E65EC23F08090120012C018F092
:1049380013C019F010C016F011C017F00ED018C02F
:10494800D9FF19C0DAFF16C0E1FF17C0E2FFDFCFB9
:10495800E7FF184A192A164A172A1406D8A0150676
:104968001428EDE11528D8B41200E9D7106E01011A
:10497800F251D8B4FCD79DB803D010C0ADFF13D006
:104988009D984750010D000EF324D96E010EF420B6
:10499800DA6E10C0DFFF472A070E476402D0000E08
:1049A800476E0101F2079D881200000E1A6E15D09D
:1049B80018C0D9FF19C0DAFFDF50D8B408D018C022
:1049C800D9FF19C0DAFFDF507AEC24F003D0200EAB
:1049D8007AEC24F0184A192A1A2A4B501A5CD8B0D3
:1049E8001200E6D7170ED56EFC0ED76EEE0ED66EF9
:1049F800D650D7CF12F0136A12C013F0126A1210F1
:104A08004E6E13504F6EF294F28ACC0E106E4E0E0C
:104A1800116E4DEC27F062EC27F01200000E356E97
:104A2800000E366E900E376E4E0E386E2D0E336EAB
:104A3800000E346E350E1C6E000E1D6E2BC01EF05F
:104A48002CC01FF0330E206E000E216E68EC0BF0A8
:104A580012009D9A9D98080EB86E900EAB6E240EAB
:104A6800AC6E670EAF6E000EB06E000E476E000E95
:104A7800486E080E0101F26F000E456E000E466E7C
:104A8800000E446E9D8A1200000E106E4450D8B479
:104A9800FDD74650010D000EF324D96E020EF42006
:104AA800DA6EDF50106E462A3F0E466402D0000EC2
:104AB800466E9D9A44069D8A105012006E0E246E12
:104AC800010E256E000E276E000E266E000E296E52
:104AD800350E286ED8EC25F001019E6901019A690E
:104AE80001019C6901019B6901019B691200080E83
:104AF8000101F26113D04850010D000EF324D96E64
:104B0800010EF420DA6EDF50AD6E482A070E4864B5
:104B180002D0000E486E0101F22B12009D9812007F
:104B28000BD012C0F6FF13C0F7FFF86A0800F55063
:104B380048EC27F0124A132A12C0F6FF13C0F7FFF9
:104B4800F86A0800F5500009D8B41200EAD724C062
:104B580028F025C029F004D0284A292A264A272ADD
:104B680026C0D9FF27C0DAFF28C0E1FF29C0E2FF2D
:104B7800DFCFE7FFE750D8B41200EED7948A8094CD
:104B88008082000E116E010E106ED4EC23F080802E
:104B9800000E116E010E106E65EC23F0809082BA43
:104BA800F6D78092949A120024C02AF025C02BF0E0
:104BB80008D02AC0D9FF2BC0DAFF26C0DFFF2A4A57
:104BC8002B2A2806D8A029062828F3E12928D8B4B2
:104BD8001200EFD7ABA202D0AB98AB884550010DBD
:104BE800000EF324D96E020EF420DA6EAECFDFFF8A
:104BF800452A3F0E456402D0000E456E442A120035
:104C080018501A02F3CF1CF0F4CF1DF018501B02F5
:104C1800F3501D2619501A02F3501D261CC018F017
:104C28001DC019F01200120E0F014E6F000E0F0179
:104C38004D6F0F015069FB0E0F014F6F4FCFF0F111
:104C480050CFF1F17E9259EC27F0120009D011C033
:104C5800D9FF12C0DAFFDF50BAEC24F0114A122A49
:104C680011C0D9FF12C0DAFFDF50D8B41200EFD755
:104C78000101EC510101ED11D8B4120001D8120064
:104C88000500FA6E0101EC51FD6EED51FE6EFF6AF2
:104C9800FA5012001E0E246E010E256E000E276EAD
:104CA800200E266E000E296E500E286ED8EC25F0C8
:104CB800DFEC26F0120064EC27F0AFEC23F019ECDF
:104CC80027F017EC26F08EEC26F0F6EC24F02DEC0D
:104CD80025F0B9EC26F01200990E246E050E256E0B
:104CE800000E276E000E266E040E296E740E286EB6
:104CF800D8EC25F01200126E000E116E3A0E1260FA
:104D080005D02F0E126402D0010E116E11C010F0E2
:104D180010301200320ECD6E000ECC6ECF68830EAE
:104D2800CE6ECECFEEF1CFCFEFF19E9060EC27F0B4
:104D380012008DA402D0010E01D0000EFF0A016EF0
:104D4800014601468D500118FB0B01188D6E1200AB
:104D5800196E140E186402D0000E186E185019241B
:104D68005AEC24F0C2EC25F01200080E706E800E8A
:104D7800716E240E726E670E756E000E766E1200DE
:104D880014C012F015C013F094EC25F00A0E48EC8C
:104D980027F012000100000041494E49545F535565
:104DA80043434553530010C0DAF111C0DBF1010150
:104DB800DC6BDD6B1200000E01010D6F000E0C6F35
:104DC80070EC26F01200F2944F50D76E4EC0D6FF0A
:104DD8003CEC26F012000101F1510F01506FF0C1B7
:104DE8004FFF12004950D8A402D0000E1200410E05
:104DF80012004950D8A402D0000E12004C04120030
:104E08004950D8A402D0000E12004D50120049504B
:104E1800D8A402D0000E12004A5012004950D8A45B
:104E280002D0000E12004B501200500ED36E040E2A
:104E3800D26E800E9B6E12007EA202D0010E12006E
:104E4800000E12000101EF51CF6EEEC1CEFF12002D
:104E58009EA002D0010E1200000E1200106EA4A82F
:104E6800FED710C073FF12009DEC26F0010E010161
:104E78001B6F1200E60E106EFF0E116E12004EEC44
:104E880026F0DFEC26F01200116E115032EC27F0FC
:104E9800120010C0ECF111C0EDF11200060E5AEC30
:104EA80024F012000F014E9112000F014E811200E2
:104EB800CD901200D59E1200CD801200D58E120022
:064EC800D09E1200120052
:10FC5C000001000A006400E8031027554944203DC8
:10FC6C002025632C2073746172745F7074203D20A6
:10FC7C0025642C20656E645F7074203D2025640D16
:10FC8C000A00554944203D2025642C207374617270
:10FC9C00745F7074203D2025642C20656E645F7049
:10FCAC0074203D2025640D0A0025642E2E6A3D2506
:10FCBC00642C636F6E666C6963745F636F756E74CE
:10FCCC003D2564200D0A00636D645F646174612ED0
:10FCDC0073746172745F636F6C203D2025642C0D0E
:10FCEC000A00636D645F646174612E737461727475
:10FCFC005F726F77203D2025642C0D0A00646973B8
:10FD0C00706C61795F636861725F636F756E74208C
:10FD1C003D2025640D0A0065785F7370203C3D2002
:10FD2C006E65775F6570203C3D65785F65700D0A88
:10FD3C000065785F7370203C3D206E65775F737053
:10FD4C00203C3D65785F65700D0A00636D645F64EF
:10FD5C006174612E656E645F636F6C203D20256459
:10FD6C002C0D0A00636D645F646174612E656E64B2
:10FD7C005F726F77203D2025642C0D0A0064697337
:10FD8C00706C61795F64617461203D2025730D0A8C
:10FD9C0000646973706C61795F667271203D202517
:10FDAC00640D0A0073697A656F6628737472292072
:10FDBC003D2025640D0A00496E69745F636F6D7098
:10FDCC006C6574652E2E0D0A006F7665725F777206
:10FDDC00697465203D2025640D0A00737472696E88
:10FDEC00675F636F756E74203D20256400646972D3
:10FDFC00656374696F6E203D2025640D0A0075697A
:10FE0C00645F72616E6765203D2025640D0A006D8C
:10FE1C0069645F63686172203D2025640D0A0025CA
:10FE2C00732C207374726C656E2025640D0A00634C
:10FE3C006F6E666C6963743A207569640D0A0045CF
:10FE4C0052525F5343524F4C4C5F53455400636FB7
:10FE5C006E666C6963742E2E2E320D0A004552525A
:10FE6C005F434F4E464C49435400756964203D2016
:10FE7C0025642C0D0A00436F6C32203D2025640D47
:10FE8C000A00726F7732203D2025640D0A00496EFE
:10FE9C0069745F446F6E650D0A00636F6C31203DB1
:10FEAC002025730D0A00726F7731203D2025730DCC
:10FEBC000A0074656D70203D2025732C200045527E
:10FECC00525F524F575F434F4C004552525F434D68
:10FEDC00445F4C454E004552525F5354525F53455C
:10FEEC00540025732E2E2C204F4B0D0A0025642C0C
:10FEFC0025632D25630D0A00636F6C203D2025734F
:10FF0C000D0A00646174613D25730D0A0025732E82
:10FF1C002E2E340D0A0025732E2E2E350D0A00259B
:10FF2C00732E2E2E360D0A0025640D0A4F4B0D0A2A
:10FF3C000025640D0A25730D0A0025730D0A25731F
:10FF4C000D0A00434D443D25730D0A004552525F86
:10FF5C00494E495400636F6C203D20256400726F3C
:10FF6C0077203D202564002E2E2E2E2E0D0A0025E6
:10FF7C00732E2E320D0A0053445343524F4C00281B
:10FF8C006E756C6C290025730D0A0D0A0025732EF5
:10FF9C002E0D0A002D272C202F3D00534453455283
:10FFAC004300555044415445004C4344533F004793
:10FFBC004D44533F004552524F52005344535452F8
:10FFCC00004B4C4D2B0053535452004C43445300A4
:10FFDC0025632C200025642C2000342C3230004D5D
:10FFEC00433F004D523F004B4C4D004F4B0025639F
:04FFFC00002C0000D5
:020000040020DA
:08000000FFFFFFFFFFFFFFFF00
:020000040030CA
:0E000000FF381F3CFFBF85FF0FC00FE00F4011
:00000001FF
