:0400000053EF00F0CA
:100008005082FACF02F0FBCF03F0E9CF04F0EACF39
:1000180005F0E1CF06F0E2CF07F0D9CF08F0DACF4C
:1000280009F0F3CF0AF0F4CF0BF0F6CF0CF0F7CFCE
:100038000DF0F8CF0EF0F5CF0FF0F2BAF2A403D01E
:10004800A3EC1DF00ED0F2BC9DA805D09EA803D04D
:100058008FEC1CF006D0F2BC9DAA03D09EBABFEC70
:100068001CF00FC0F5FF0EC0F8FF0DC0F7FF0CC065
:10007800F6FF0BC0F4FF0AC0F3FF09C0DAFF08C09F
:10008800D9FF07C0E2FF06C0E1FF05C0EAFF04C0D0
:10009800E9FF03C0FBFF02C0FAFF509211003BEFDB
:1000A80019F0820E1E6EFF0E1F6E3AC020F03BC084
:1000B80021F048EC12F03AC0E4F03BC0E5F0E4C0AF
:1000C8002DF0E5C02EF0ED0E2F6EFF0E306EF3EC26
:1000D80017F02DC0E6F02EC0E7F00001E651000150
:1000E800E711D8B438D0E4C01DF0E5C01EF0A70E63
:1000F8001F6EFF0E206E3AEC17F01DC0E6F01EC012
:10010800E7F00001E6510001E711D8B4C4EF07F0A9
:10011800CC0E106E000E116EE6C012F0E7C013F0A0
:1001280040EC1BF0010E0001846F3AC024F03BC084
:1001380025F0000E276E000E266E3AC01EF03BC05A
:100148001FF02EEC1AF01EC028F01FC029F063EC37
:100158001BF0000E1200E4C02DF0E5C02EF0F10EE9
:100168002F6EFF0E306EF3EC17F02DC0E6F02EC0A8
:10017800E7F00001E6510001E711D8B437D0E4C038
:100188001DF0E5C01EF0A70E1F6EFF0E206E3AECA4
:1001980017F01DC0E6F01EC0E7F00001E6510001AF
:1001A800E711D8B4C4EF07F0CC0E106E000E116E34
:1001B800E6C012F0E7C013F040EC1BF0010E00019E
:1001C800846F3AC024F03BC025F0000E276E000E65
:1001D800266E3AC01EF03BC01FF02EEC1AF01EC06F
:1001E80028F01FC029F063EC1BF0B3D7E4C02DF052
:1001F800E5C02EF0BC0E2F6EFF0E306EF3EC17F03C
:100208002D502E10D8B402D0010E01D0000E0001DE
:10021800E66FE76B0001E6510001E711D8B43DD065
:10022800E4C01DF0E5C01EF0A70E1F6EFF0E206E85
:100238003AEC17F01DC0E6F01EC0E7F00001E651E9
:100248000001E711D8B4C4EF07F0CC0E106E000E11
:10025800116EE6C012F0E7C013F040EC1BF0010E7F
:100268000001846F3AC024F03BC025F0000E276ED1
:10027800000E266E3AC01EF03BC01FF02EEC1AF09E
:100288001EC028F01FC029F063EC1BF07A0E1E6E0A
:10029800FF0E1F6E48EC12F05CD7E4C02DF0E5C0ED
:1002A8002EF0DE0E2F6EFF0E306EF3EC17F02DC021
:1002B800E6F02EC0E7F00001E6510001E711D8B4DE
:1002C80093D0E4C01DF0E5C01EF0A70E1F6EFF0E10
:1002D800206E3AEC17F01DC0E6F01EC0E7F00001F2
:1002E800E6510001E711D8B4C4EF07F0CC0E106E48
:1002F800000E116EE6C012F0E7C013F040EC1BF0E0
:10030800000E1D6E000E1E6EA70E1F6EFF0E206ED5
:100318003AEC17F01DC0E6F01EC0E7F0990E1E6E0D
:10032800FF0E1F6EE6C020F0E7C021F048EC12F087
:10033800000E0001DD6F000E0001DE6F0001E651C6
:100348000001E711D8B4C4EF07F0E6C01EF0E7C01B
:100358001FF034EC13F01E500001DD6F0001DD5179
:100368000001D8B4C4EF07F0000E1D6E000E1E6E1B
:10037800A70E1F6EFF0E206E3AEC17F01DC0E6F0B8
:100388001EC0E7F00001E6510001E711D8B4C4EF40
:1003980007F0E6C01EF0E7C01FF034EC13F01E5063
:1003A8000001DE6F0001DE510001D8B4C4EF07F090
:1003B800DEC081F0DDC041F0010E0001846F3AC05B
:1003C80024F03BC025F0000E276E000E266E3AC0C2
:1003D8001EF03BC01FF02EEC1AF01EC028F01FC004
:1003E80029F063EC1BF0B5D6E4C02DF0E5C02EF083
:1003F800C20E2F6EFF0E306EF3EC17F02DC0E6F034
:100408002EC0E7F00001E6510001E711D8B437D05B
:10041800E4C01DF0E5C01EF0A70E1F6EFF0E206E93
:100428003AEC17F01DC0E6F01EC0E7F00001E651F7
:100438000001E711D8B4C4EF07F0CC0E106E000E1F
:10044800116EE6C012F0E7C013F040EC1BF0010E8D
:100458000001846F3AC024F03BC025F0000E276EDF
:10046800000E266E3AC01EF03BC01FF02EEC1AF0AC
:100478001EC028F01FC029F063EC1BF06AD6E4C048
:100488002DF0E5C02EF0CE0E2F6EFF0E306EF3EC81
:1004980017F02DC0E6F02EC0E7F00001E65100018C
:1004A800E711D8B4D2D04904D8A4C4EF07F0000E9D
:1004B8000001AF6FE4C01DF0E5C01EF0A70E1F6E6F
:1004C800FF0E206E3AEC17F01DC0E6F01EC0E7F0F4
:1004D8000001E6510001E711D8B4C4EF07F0DE0EC1
:1004E8001E6EFE0E1F6EE6C020F0E7C021F048EC3D
:1004F80012F0CC0E106E000E116EE6C012F0E7C0BE
:1005080013F040EC1BF0000E0001E06F000186695B
:10051800000E1D6E000E1E6EA70E1F6EFF0E206EC3
:100528003AEC17F01DC0E6F01EC0E7F00001E651F6
:100538000001E711D8B4C4EF07F0DE0E1E6EFE0E00
:100548001F6EE6C020F0E7C021F048EC12F0000E64
:100558000001DB6FE6C0F6FFE7C0F7FF000EF86E9C
:100568000F0EF76403D00800F55005D0F6CFE9FF69
:10057800F7CFEAFFEF500001E06F400E0001E065A1
:1005880062D04C500001E05DD8B05DD02F0E1E6ED9
:10059800FF0E1F6EE0C020F0216A48EC12F0E0C0A8
:1005A80086F0000E1D6E000E1E6EFC0E1F6EFF0EF6
:1005B800206E3AEC17F01DC0E6F01EC0E7F000010F
:1005C800E6510001E711D8B4C4EF07F0240E1E6EFF
:1005D800FF0E1F6EE6C020F0E7C021F048EC12F0D5
:1005E800E6C01EF0E7C01FF02EEC1AF01F5029E1FC
:1005F800280E1E5CD8B025D0870E106E000E116E26
:10060800E6C012F0E7C013F040EC1BF0010E000149
:10061800846F010E0001AF6F3AC024F03BC025F093
:10062800000E276E000E266E3AC01EF03BC01FF06B
:100638002EEC1AF01EC028F01FC029F063EC1BF046
:1006480088D5020E1200070E1200E4C02DF0E5C096
:100658002EF08A0E2F6EFF0E306EF3EC17F02DC0C1
:10066800E6F02EC0E7F00001E6510001E711D8B42A
:1006780030D1440E1E6EFF0E1F6EE6C020F0E7C09C
:1006880021F048EC12F04904D8A4C4EF07F0000E9A
:100698000001B66FE4C01DF0E5C01EF0A70E1F6E86
:1006A800FF0E206E3AEC17F01DC0E6F01EC0E7F012
:1006B8000001E6510001E711D8B4C4EF07F0CC0EF1
:1006C800106E000E116EE6C012F0E7C013F040EC99
:1006D8001BF0000E0001E16F000E0001E26F000E3A
:1006E8001D6E000E1E6EA70E1F6EFF0E206E3AECDA
:1006F80017F01DC0E6F01EC0E7F00001E65100014A
:10070800E711D8B4C4EF07F04D0E1E6EFF0E1F6E32
:10071800E6C020F0E7C021F048EC12F0000E00011E
:10072800DF6FE6C0F6FFE7C0F7FF000EF86E0F0EAA
:10073800F76403D00800F55005D0F6CFE9FFF7CFEE
:10074800EAFFEF500001E26F0001B569400E0001B9
:10075800E265BDD04C500001E25DD8B0B8D02F0E94
:100768001E6EFF0E1F6EE2C020F0216A48EC12F0E8
:100778000001E25100018619D8A4C4EF07F0000E69
:100788001D6E000E1E6EA70E1F6EFF0E206E3AEC39
:1007980017F01DC0E6F01EC0E7F00001E6510001A9
:1007A800E711D8B4EDD3560E1E6EFF0E1F6EE6C0CD
:1007B80020F0E7C021F048EC12F0000E0001DF6FD6
:1007C8004AD00001DF51010DE6C03CF0E7C03DF022
:1007D800F3503C26F4503D223CC0F6FF3DC0F7FFE5
:1007E800000EF86E0F0EF76403D00800F55005D020
:1007F800F6CFE9FFF7CFEAFFEF503DEC1DF0D8A0A8
:1008080026D00001DF51010DE6C03CF0E7C03DF005
:10081800F3503C26F4503D223CC0F6FF3DC0F7FFA4
:10082800000EF86E0F0EF76403D00800F55005D0DF
:10083800F6CFE9FFF7CFEAFFEF503E6E0001E15136
:100848000A0DF3503E24D00F0001E16F02D0000ED4
:1008580012000001DF2BE6C01EF0E7C01FF02EECEF
:100868001AF00001DF513C6E3D6A1E503C5C1F507F
:100878003D58D8A0A6D7030E0001E16126D07B0E13
:100888001E6EFE0E1F6EE1C020F0216A48EC12F0C9
:10089800E1C0B5F0010E0001B66F010E0001846FD2
:1008A8003AC024F03BC025F0000E276E000E266EDD
:1008B8003AC01EF03BC01FF02EEC1AF01EC028F004
:1008C8001FC029F063EC1BF044D4040E1200070E7D
:1008D8001200E4C02DF0E5C02EF0AE0E2F6EFF0E14
:1008E800306EF3EC17F02DC0E6F02EC0E7F00001F3
:1008F800E6510001E711D8B445D14904D8A440D342
:10090800000E0001B46FE4C01DF0E5C01EF0A70E94
:100918001F6EFF0E206E3AEC17F01DC0E6F01EC0E9
:10092800E7F00001E6510001E711D8B429D3CC0E55
:10093800106E000E116EE6C012F0E7C013F040EC26
:100948001BF0000E1D6E000E1E6EA70E1F6EFF0E12
:10095800206E3AEC17F01DC0E6F01EC0E7F0000E5E
:100968000001E36F0001E6510001E711D8B408D394
:10097800000E0001DC6FE6C0F6FFE7C0F7FF000ECF
:10098800F86E0F0EF76403D00800F55005D0F6CFC7
:10099800E9FFF7CFEAFFEF500001E36F400E0001D7
:1009A800E365EED04C500001E35DD8B0E9D0960E77
:1009B8001E6EFE0E1F6EE3C020F0216A48EC12F096
:1009C8000001E35100018619D8A4DAD2000E1D6E89
:1009D800000E1E6EA70E1F6EFF0E206E3AEC17F06B
:1009E8001DC0E6F01EC0E7F00001E6510001E71166
:1009F800D8B4C6D2E6C030F0E7C031F0B00E326EDF
:100A0800000E336E91EC14F0350E1E6EFD0E1F6E47
:100A1800B0C020F0216A48EC12F00001B029D8B427
:100A2800ADD0000E1D6E000E1E6EA70E1F6EFF0EBF
:100A3800206E3AEC17F01DC0E6F01EC0E7F000018A
:100A4800E6510001E711D8B49BD2E6C030F0E7C008
:100A580031F0B10E326E000E336E08EC15F01A0E3E
:100A68001E6EFD0E1F6EB1C020F0216A48EC12F018
:100A78000001B029D8B480D0000E1D6E000E1E6E85
:100A8800A70E1F6EFF0E206E3AEC17F01DC0E6F0A1
:100A98001EC0E7F00001E6510001E711D8B470D29A
:100AA800E6C030F0E7C031F0B20E326E000E336EA1
:100AB80091EC14F0B70E1E6EFD0E1F6EB2C020F042
:100AC800216A48EC12F00001B229D8B453D0000EC4
:100AD8001D6E000E1E6EA70E1F6EFF0E206E3AECE6
:100AE80017F01DC0E6F01EC0E7F00001E651000156
:100AF800E711D8B445D2190E1E6EFF0E1F6EE6C060
:100B080020F0E7C021F048EC12F0E6C030F0E7C072
:100B180031F0B30E326E000E336E08EC15F09E0EF7
:100B28001E6EFD0E1F6EB3C020F0216A48EC12F055
:100B38000001B229D8B41CD0010E0001B46F010E17
:100B48000001846F3AC024F03BC025F0000E276EE8
:100B5800000E266E3AC01EF03BC01FF02EEC1AF0B5
:100B68001EC028F01FC029F063EC1BF0ADEF00F0A9
:100B7800030E1200030E1200030E1200030E1200E1
:100B8800070E1200E4C02DF0E5C02EF0B50E2F6E52
:100B9800FF0E306EF3EC17F02DC0E6F02EC0E7F034
:100BA8000001E6510001E711D8B41FD0CC0E106E39
:100BB800000E116EE6C012F0E7C013F040EC1BF017
:100BC8003AC024F03BC025F0000E276E000E266EBA
:100BD8003AC01EF03BC01FF02EEC1AF01EC028F0E1
:100BE8001FC029F063EC1BF0C6D1E4C02DF0E5C0AE
:100BF8002EF0D90E2F6EFF0E306EF3EC17F02DC0CD
:100C0800E6F02EC0E7F00001E6510001E711D8B484
:100C180080D14904D8A4B4D1E4C01DF0E5C01EF0C9
:100C2800A70E1F6EFF0E206E3AEC17F01DC0E6F0FF
:100C38001EC0E7F00001E6510001E711D8B4A0D1C9
:100C4800CC0E106E000E116EE6C012F0E7C013F065
:100C580040EC1BF05F0E1E6EFF0E1F6ECC0E206E5A
:100C6800000E216E48EC12F0000E1D6E000E1E6E76
:100C7800FC0E1F6EFF0E206E3AEC17F01DC0E6F05A
:100C88001EC0E7F00001E6510001E711D8B478D1A1
:100C9800E6C02CF0E7C02DF0870E2E6E000E2F6EEA
:100CA80072EC19F0E806D8A432D13A0E1E6EFF0E87
:100CB8001F6E870E206E000E216E48EC12F0000E9B
:100CC8001D6E000E1E6EA70E1F6EFF0E206E3AECF4
:100CD80017F01DC0E6F01EC0E7F00001E651000164
:100CE800E711D8B44DD1E6C030F0E7C031F0B00E0E
:100CF800326E000E336E91EC14F0350E1E6EFD0E42
:100D08001F6EB0C020F0216A48EC12F00001B02933
:100D1800D8B4FBD0000E1D6E000E1E6EA70E1F6EFF
:100D2800FF0E206E3AEC17F01DC0E6F01EC0E7F08B
:100D38000001E6510001E711D8B422D1E6C030F035
:100D4800E7C031F0B10E326E000E336E08EC15F0CC
:100D58001A0E1E6EFD0E1F6EB1C020F0216A48ECFF
:100D680012F00001B029D8B4CED0000E1D6E000ECE
:100D78001E6EA70E1F6EFF0E206E3AEC17F01DC0F8
:100D8800E6F01EC0E7F00001E6510001E711D8B413
:100D9800F7D0E6C030F0E7C031F0B20E326E000E88
:100DA800336E91EC14F0B70E1E6EFD0E1F6EB2C0BE
:100DB80020F0216A48EC12F00001B229D8B4A1D081
:100DC800000E1D6E000E1E6EA70E1F6EFF0E206E0B
:100DD8003AEC17F01DC0E6F01EC0E7F00001E6513E
:100DE8000001E711D8B4CCD0190E1E6EFF0E1F6E8D
:100DF800E6C020F0E7C021F048EC12F0E6C030F081
:100E0800E7C031F0B30E326E000E336E08EC15F009
:100E18009E0E1E6EFD0E1F6EB3C020F0216A48ECB8
:100E280012F00001B229D8B46AD0000E1D6E000E6F
:100E38001E6EA70E1F6EFF0E206E3AEC17F01DC037
:100E4800E6F01EC0E7F00001E6510001E711D8B452
:100E580097D0E6C030F0E7C031F00001B5513C6EE4
:100E68003D6A3CC032F03DC033F0F1EC15F0E806C5
:100E7800D8A443D0000E1D6E000E1E6EA70E1F6E66
:100E8800FF0E206E3AEC17F01DC0E6F01EC0E7F02A
:100E98000001E6510001E711D8B472D0E6C030F085
:100EA800E7C031F00001B7513C6E3D6A3CC032F0FA
:100EB8003DC033F07FEC15F0E806D8A41CD0010E35
:100EC8000001B46F010E0001846F3AC024F03BC0EA
:100ED80025F0000E276E000E266E3AC01EF03BC0AD
:100EE8001FF02EEC1AF01EC028F01FC029F063EC8A
:100EF8001BF0ADEF00F0050E1200040E1200030EF9
:100F08001200030E1200030E1200030E1200020E4E
:100F18001200E4C02DF0E5C02EF0F50E2F6EFF0E86
:100F2800306EF3EC17F02DC0E6F02EC0E7F00001AC
:100F3800E6510001E711D8B423D0CC0E106E000E94
:100F4800116EE6C012F0E7C013F040EC1BF03AC097
:100F580024F03BC025F0000E276E000E266E3AC026
:100F68001EF03BC01FF02EEC1AF01EC028F01FC068
:100F780029F063EC1BF0010E0001846FADEF00F067
:100F88003AC024F03BC025F0000E276E000E266EF6
:100F98003AC01EF03BC01FF02EEC1AF01EC028F01D
:100FA8001FC029F063EC1BF0010E12003B6820EE15
:100FB8002AF02C50D9262D50DA22DF507F0B000959
:100FC800D8A402D0000E0CD020EE2AF02C50D9263E
:100FD8002D50DA22DF507F0BE806D8A402D0010E8C
:100FE8003B6E20EE2AF02C50D9262D50DA22DF5005
:100FF8007F0B020AD8A402D0020E3B6E20EE2AF024
:101008002C50D9262D50DA22DF507F0B030AD8A4A2
:1010180002D0030E3B6E3B50140D000E2E6E010ED7
:101028002F6EF3502E26F4502F2220EE2BF02C504A
:10103800D9262D50DA22DF507F0B306E3050010D4B
:10104800F3502E24246EF4502F20256E000E276EA8
:10105800200E266E20EE31F02C50D9262D50DA22A3
:10106800DF50316E3150286E296A63EC1BF020EE98
:1010780029F02C50D9262D50DA22DF507F0B2E6E06
:1010880020EE34F02C50D9262D50DA22DF507F0B79
:101098002E5CD8B06ED03B50140DFF0E2E6EFF0E96
:1010A8002F6E20EE35F02C50D9262D50DA22DF5045
:1010B8007F0B306E316A301E311E304A312A20EEE5
:1010C8002EF02C50D9262D50DA22DF507F0B326EAD
:1010D800336A30503226315033222E5032262F5068
:1010E8003322000E346E010E356E325034263350E2
:1010F8003522F3503424106EF4503520116E010E51
:101108002C24126E000E2D20136E20EE35F02C507C
:10111800D9262D50DA22DF507F0B366E376A010E42
:101128003626000E3722361E371E364A372A20EE5C
:1011380031F02C50D9262D50DA22DF50386E396A1A
:101148003650382637503922381E391E384A392A3F
:1011580020EE31F02C50D9262D50DA22DF503A6E8D
:101168003A503824146E000E3920156EA6EC19F08A
:1011780055D020EE34F02C50D9262D50DA22DF50ED
:101188007F0B2E6E2E50010D010EF326000EF42259
:10119800F3502C24D96EF4502D20DA6EDF50D8B4D9
:1011A8003DD03B50140D000E2E6E010E2F6EF350E5
:1011B8002E26F4502F2220EE2BF02C50D9262D501D
:1011C800DA22DF507F0B306E3050010DF3502E24A1
:1011D800106EF4502F20116E20EE34F02C50D926CA
:1011E8002D50DA22DF507F0B316E3150010D010E88
:1011F800F326000EF422F3502C24126EF4502D2006
:10120800136E20EE31F02C50D9262D50DA22DF5003
:10121800326E3250146E156AC9EC1BF020EE34F0B1
:101228002C50D9262D50DA22DF507F0B2E6E20EE5F
:1012380029F02C50D9262D50DA22DF507F0B2F6E43
:101248002E502F5CD8A013D0010E2E6E20EE34F055
:101258002C50D9262D50DA22DF507F0B2F6E2E50BE
:101268002F26DF502F18800B2F18DF6E120020EE6C
:1012780029F02C50D9262D50DA22DF507F0B2E6E04
:1012880020EE34F02C50D9262D50DA22DF507F0B77
:101298002E5CD8B01200010E2E6E20EE35F02C50C8
:1012A800D9262D50DA22DF507F0B2F6E2E502F2695
:1012B800DF502F18800B2F18DF6E20EE31F02C50E6
:1012C800D9262D50DA2210EE35F02C50E1262D507B
:1012D800E222E7507F0B2F6EDE502F18D8A41200A1
:1012E80020EE35F02C50D9262D50DA22DF90DF92EF
:1012F800DF94DF96DF98DF9ADF9C20EE34F02C50E5
:10130800D9262D50DA22DF90DF92DF94DF96DF981E
:10131800DF9ADF9C1200CC0E106E000E116EF50ED7
:10132800126EFF0E136ED1EC1AF010501110D8A4E3
:1013380007D0910E146EFE0E156E91EC1DF0120082
:10134800CC0E106E000E116EBC0E126EFF0E136ED8
:10135800D1EC1AF010501110D8A417D0A20E1E6E9E
:10136800FF0E1F6EEEEC1DF010C020F011C021F032
:1013780048EC12F0890E1E6EFE0E1F6EBC0E206E1B
:10138800FF0E216E48EC12F01200CC0E106E000E0B
:10139800116EED0E126EFF0E136ED1EC1AF0105096
:1013A8001110D8A419D0F10E1E6EFD0E1F6EC7ECD9
:1013B8001DF00001E56F0001E551206E216A48EC3F
:1013C80012F0890E1E6EFE0E1F6EED0E206EFF0EC1
:1013D800216E48EC12F01200CC0E106E000E116E49
:1013E800F10E126EFF0E136ED1EC1AF010501110A0
:1013F800D8A419D0F10E1E6EFD0E1F6EC0EC1DF0A4
:101408000001E56F0001E551206E216A48EC12F0F9
:10141800890E1E6EFE0E1F6EF10E206EFF0E216EDF
:1014280048EC12F01200CC0E106E000E116EDE0E9B
:10143800126EFF0E136ED1EC1AF010501110D8A4D2
:1014480010D081C030F0415063EC16F0890E1E6E4A
:10145800FE0E1F6EDE0E206EFF0E216E48EC12F09F
:101468001200CC0E106E000E116EC20E126EFF0E20
:10147800136ED1EC1AF010501110D8A43DD0B9EC6D
:101488001DF00009D8B41FD00E0E1E6EFF0E1F6E81
:10149800B9EC1DF00001E56F0001E551206E216AED
:1014A800ABEC1DF00001E66F0001E651226E236AE5
:1014B800B2EC1DF00001E76F0001E751246E256AC8
:1014C80048EC12F00ED0F10E1E6EFD0E1F6EB9EC38
:1014D8001DF00001E56F0001E551206E216A48EC1E
:1014E80012F0890E1E6EFE0E1F6EC20E206EFF0ECB
:1014F800216E48EC12F01200CC0E106E000E116E28
:10150800CE0E126EFF0E136ED1EC1AF010501110A1
:10151800D8A40BD0890E1E6EFE0E1F6ECE0E206E46
:10152800FF0E216E48EC12F01200CC0E106E000E69
:10153800116E8A0E126EFF0E136ED1EC1AF0105057
:101548001110D8A40BD0890E1E6EFE0E1F6E8A0EC7
:10155800206EFF0E216E48EC12F01200CC0E106EB9
:10156800000E116EAE0E126EFF0E136ED1EC1AF055
:1015780010501110D8A40BD0890E1E6EFE0E1F6ECF
:10158800AE0E206EFF0E216E48EC12F01200CC0E4B
:10159800106E000E116EB50E126EFF0E136ED1ECAA
:1015A8001AF010501110D8A412000001AF05D8A4E9
:1015B8002CD00001B405D8A428D00001B605D8A4C1
:1015C80024D0860E0001DB6F000E0001DC6F1AECE0
:1015D8000EF00001E86F0001E805D8A40BD0A20EB8
:1015E8001E6EFF0E1F6EC80E206EFF0E216E48EC99
:1015F80012F01200890E1E6EFE0E1F6EB50E206EC2
:10160800FF0E216E48EC12F012000001AF51D8A471
:101618000BD0A00E1E6EFF0E1F6E020E206EFF0E68
:10162800216E48EC12F012000001B451D8A40BD07E
:10163800A00E1E6EFF0E1F6EEA0E206EFE0E216EAD
:1016480048EC12F012000001B651D8A41200A00E06
:101658001E6EFF0E1F6E6C0E206EFE0E216E48EC85
:1016680012F01200366820EE2AF02C50D9262D50A0
:10167800DA22DF507F0B0009D8A402D0000E0CD06C
:1016880020EE2AF02C50D9262D50DA22DF507F0B7D
:10169800E806D8A402D0010E366E20EE2AF02C50AF
:1016A800D9262D50DA22DF507F0B020AD8A402D0A7
:1016B800020E366E20EE2AF02C50D9262D50DA2252
:1016C800DF507F0B030AD8A402D0030E366E3650C3
:1016D800140D000E2E6E010E2F6EF3502E26F450B0
:1016E8002F2220EE2BF02C50D9262D50DA22DF5055
:1016F8007F0B306E3050010DF3502E24246EF450C1
:101708002F20256E000E276E200E266E20EE31F05B
:101718002C50D9262D50DA22DF50316E3150286EE8
:10172800296A63EC1BF020EE31F02C50D9262D509D
:10173800DA22DF502E6E20EE32F02C50D9262D50B2
:10174800DA22DF507F0B2E5CD8B054D020EE01F0A7
:101758002C50D9262D50DA22DF50D8B4A2D03650DA
:10176800140D000E2E6E010E2F6EF3502E26F4501F
:101778002F2220EE2BF02C50D9262D50DA22DF50C4
:101788007F0B306E3050010DF3502E24106EF45044
:101798002F20116E20EE33F02C50D9262D50DA224E
:1017A800DF507F0B316E326A311E321E314A322AC7
:1017B80020EE29F02C50D9262D50DA22DF507F0B4D
:1017C800336E346A315033263250342233502C244D
:1017D800126E34502D20136E20EE31F02C50D92685
:1017E8002D50DA22DF50356E3550146E156AC9EC6B
:1017F8001BF057D020EE01F02C50D9262D50DA22BC
:10180800DF50D8B44ED03650140D000E2E6E010E97
:101818002F6EF3502E26F4502F2220EE2BF02C5052
:10182800D9262D50DA22DF507F0B306E3050010D53
:10183800F3502E26F4502F2220EE32F02C50D926C9
:101848002D50DA22DF507F0B316E3150010DF350ED
:101858002E24106EF4502F20116E010E2C24126EBF
:10186800000E2D20136E20EE32F02C50D9262D506C
:10187800DA22DF507F0B326E336A321E331E324A51
:10188800332A20EE31F02C50D9262D50DA22DF50A1
:10189800346E34503224146E000E3320156EC9ECA9
:1018A8001BF020EE32F02C50D9262D50DA22DF50D2
:1018B8007F0B2E6E20EE31F02C50D9262D50DA22D7
:1018C8002E50DE5CD8A013D0010E2E6E20EE32F022
:1018D8002C50D9262D50DA22DF507F0B2F6E2E5038
:1018E8002F26DF502F18800B2F18DF6E120020EEE6
:1018F80033F02C50D9262D50DA22DF507F0B2E6E74
:1019080020EE29F02C50D9262D50DA22DF507F0BFB
:101918002E5CD8B01200010E2E6E20EE33F02C5043
:10192800D9262D50DA22DF507F0B2F6E2E502F260E
:10193800DF502F18800B2F18DF6E20EE29F02C5067
:10194800D9262D50DA22DF507F0B2E6E20EE33F091
:101958002C50D9262D50DA22DF507F0B2F6E2E50B7
:101968002F5CD8A0120020EE32F02C50D9262D5032
:10197800DA22DF90DF92DF94DF96DF98DF9ADF9C30
:1019880020EE33F02C50D9262D50DA22DF90DF924A
:10199800DF94DF96DF98DF9ADF9C1200356E000E29
:1019A800386E000E376E000E366E000E386E000E62
:1019B800376E2DD13550326E336A3750321804E104
:1019C80038503318D8B421D137C018F038C019F0BE
:1019D800000E1B6E360E1A6ED5EC1CF0960E1824EF
:1019E800D96E020E1920DA6EDF507F0B0009D8B4C9
:1019F8000CD137C018F038C019F0000E1B6E360E27
:101A08001A6ED5EC1CF02C0E1826000E1922960E14
:101A18001824D96E020E1920DA6EDF507F0B326E51
:101A28003250305CD8A040D037C018F038C019F018
:101A3800000E1B6E360E1A6ED5EC1CF02F0E1826F3
:101A4800000E1922960E1824D96E020E1920DA6E8D
:101A5800DF507F0B326E3050325CD8A025D0425018
:101A6800010DB80EF324D96E000EF420DA6E37C0DB
:101A780018F038C019F0000E1B6E360E1A6ED5EC31
:101A88001CF0960E1824E16E020E1920E26EE75043
:101A98007F0BDF6E422A374A382A840E1E6EFD0EEF
:101AA8001F6E48EC12F059D037C018F038C019F042
:101AB800000E1B6E360E1A6ED5EC1CF02C0E182676
:101AC800000E1922960E1824D96E020E1920DA6E0D
:101AD800DF507F0B326E3250315CD8A041D037C016
:101AE80018F038C019F0000E1B6E360E1A6ED5ECC1
:101AF8001CF02F0E1826000E1922960E1824D96EE7
:101B0800020E1920DA6EDF507F0B326E3150325CD4
:101B1800D8A026D04250010DB80EF324D96E000E7D
:101B2800F420DA6E37C018F038C019F0000E1B6EBA
:101B3800360E1A6ED5EC1CF0960E1824E16E020EC5
:101B48001920E26EE7507F0BDF6E422A6A0E1E6E86
:101B5800FD0E1F6E48EC12F055D0010E366E57D0B0
:101B680037C018F038C019F0000E1B6E360E1A6E0A
:101B7800D5EC1CF02C0E1826000E1922960E1824EF
:101B8800D96E020E1920DA6EDF507F0B326E30509C
:101B9800325CD8A03AD037C018F038C019F0000E1F
:101BA8001B6E360E1A6ED5EC1CF02F0E1826000E82
:101BB8001922960E1824D96E020E1920DA6EDF50FB
:101BC8007F0B326E3250315CD8A01FD04250010DCD
:101BD800B80EF324D96E000EF420DA6E37C018F070
:101BE80038C019F0000E1B6E360E1A6ED5EC1CF0BC
:101BF800960E1824E16E020E1920E26EE7507F0B54
:101C0800DF6E422A374A382AA8D7374A382A4D5031
:101C1800326E336A3250375C3850800A346E335033
:101C2800800A3458D8A0C6D636501200000E0001DB
:101C3800E46F000EE36F0001E069B80E246E000E39
:101C4800256EFF0E276E2668000E296E140E286E6C
:101C580063EC1BF0000E426E000120EE2BF0DB510E
:101C6800D926DC51DA22DF500001DD6F000120EEB9
:101C78002AF0DB51D926DC51DA22DF504B02F3502F
:101C88000001DD250001E16F000120EE2DF0DB51A0
:101C9800D926DC51DA22DF500001DD6F000120EE89
:101CA8002CF0DB51D926DC51DA22DF504B02F350FD
:101CB8000001DD250001E26FF30E1E6EFC0E1F6EA3
:101CC800DBC0D9FFDCC0DAFFDF500001DD6F0001A7
:101CD800DD51206E216AE1C022F0236AE2C024F0BF
:101CE800256A48EC12F04D50435CD8B0CFD0000EB6
:101CF8000001E46F000EE36F92D0DBC0D9FFDCC0B7
:101D0800DAFFE3C018F0E4C019F0000E1B6E360EBF
:101D18001A6ED5EC1CF0960E1824E16E020E1920EE
:101D2800E26EE7507F0B0001DE6FDE500001DE1926
:101D3800D8A428D0E3C0E0F04250010DB80EF32437
:101D4800D96E000EF420DA6EE3C018F0E4C019F082
:101D5800000E1B6E360E1A6ED5EC1CF0960E18246B
:101D6800E16E020E1920E26EE7507F0BDF6E422A09
:101D7800E1C030F0E2C031F00001E051D2EC0CF0EB
:101D8800010E1200E1C030F0E2C031F00001E05174
:101D9800D2EC0CF0E806D8A43FD05C0E1E6EFE0E06
:101DA8001F6E48EC12F0000E0001E46F000EE36FA6
:101DB80018D0E30E1E6EFF0E1F6EB80E0001E3254D
:101DC800D96E000E0001E421DA6EDF500001DD6FEC
:101DD8000001DD51206E216A48EC12F00001E34B4E
:101DE800E42B4D500001DD6FDE6B0001DD51000179
:101DF800E35D0001E451800A0001DF6F0001DE515C
:101E0800800A0001DF59D8A0D4D79F0E1E6EFE0E9F
:101E18001F6E48EC12F0B4D70001E34BE42B4D5091
:101E28000001DD6FDE6B0001DD510001E35D0001A3
:101E3800E451800A0001DF6F0001DE51800A0001D1
:101E4800DF59D8A05AD74350360D960EF324246E86
:101E5800020EF420256E000E276E000E266E000E70
:101E6800296E360E286E63EC1BF04350360D960E25
:101E7800F324306E020EF420316EDBC032F0DCC089
:101E880033F05AEC10F0432A57EC11F0000E120010
:101E98004450D8B4FFD0000E0001EA6F7ED006ECA3
:101EA8001EF00001EA6F0A0E0001EA19D8B405D045
:101EB8000D0E0001EA19D8A40FD0000E00017B6FA7
:101EC800000E7A6F010E0001806F9F0E1E6EFE0ECF
:101ED8001F6E48EC12F064D0080E0001EA19D8A46D
:101EE80018D000017A07D8A07B07000E00017A25D8
:101EF800D96E020E00017B21DA6E000EDF6EF90E3C
:101F08001E6EFF0E1F6EEAC020F0216A48EC12F028
:101F180044D0000E00017A25D96E020E00017B2103
:101F2800DA6EEAC0DFFFF90E1E6EFF0E1F6E000E9E
:101F380000017A25D96E020E00017B21DA6EDF508E
:101F48000001E96F0001E951206E216A48EC12F0A6
:101F5800000E106E020E116ED40E126EFF0E136E6E
:101F6800D1EC1AF010501110D8A414D0000E246E21
:101F7800020E256E000E276E000E266E000E296ECC
:101F8800960E286E63EC1BF0000E00017B6F000EAE
:101F98007A6F03D000017A4B7B2B4450D8A47FD7AB
:101FA80000017BBF77D000017B5105E1970E00014E
:101FB8007A5DD8A06FD0F60E146EFE0E156E91ECF9
:101FC8001DF0000E00017B6F000E7A6F63D0CC0EFF
:101FD800246E000E256E000E276E000E266E000E73
:101FE800296E0F0E286E63EC1BF0000E246E020E95
:101FF800256E000E276E000E266E000E296E960EB8
:10200800286E63EC1BF0000E0001846FBA0E146E8C
:10201800FE0E156E91EC1DF0010E0001826F12008C
:1020280000018005D8A41200000E0001806F000E88
:102038003A6E020E3B6E55EC00F00009D8A412D09F
:10204800000E246E020E256E000E276E000E266E00
:10205800000E296E960E286E63EC1BF0020E00012E
:10206800826F1200A20E1E6EFF0E1F6EC80E206E2B
:10207800FF0E216E48EC12F0120000018405D8A46E
:1020880005D08FEC09F0000E0001846F010E0001ED
:10209800826F120000018251000AD8B498D7010A51
:1020A800D8B4BED7030AD8A41200E7D732C0D9FFE4
:1020B80033C0DAFFDF50346E30C0D9FF31C0DAFFE9
:1020C800DF503418800B3418DF6E010E3024106E88
:1020D800000E3120116E010E3224126E000E3320D4
:1020E800136E40EC1BF0010E30241E6E000E3120E2
:1020F8001F6E2EEC1AF020EE29F03050D926315000
:10210800DA22DF501E18800B1E18DF6E20EE2AF030
:102118003250D9263350DA22DF50346E20EE2AF0BE
:102128003050D9263150DA22DF503418800B341859
:10213800DF6E20EE2BF03250D9263350DA22DF50F2
:10214800346E20EE2BF03050D9263150DA22DF5091
:102158003418800B3418DF6E20EE2CF03250D9265C
:102168003350DA22DF50346E20EE2DF03050D9266D
:102178003150DA22DF503418800B3418DF6E20EE2D
:102188002DF03250D9263350DA22DF50346E20EE4B
:102198002EF03050D9263150DA22DF503418800B17
:1021A8003418DF6E20EE2BF03050D9263150DA2269
:1021B800DF507F0B346E20EE2AF03050D926315094
:1021C800DA22DF507F0B4B02F3503424356E20EEB9
:1021D8002CF03050D9263150DA22DF503518800BD8
:1021E8003518DF6E20EE2EF03050D9263150DA2225
:1021F800DF507F0B346E20EE2DF03050D926315051
:10220800DA22DF507F0B4B02F3503424356E20EE78
:102218002FF03050D9263150DA22DF503518800B94
:102228003518DF6E20EE2FF03250D9263350DA22DF
:10223800DF50346E20EE30F03050D9263150DA229B
:10224800DF503418F80B3418DF6E20EE31F03050C0
:10225800D9263150DA2210EE2FF03050E1263150D5
:10226800E222E7507F0B346E10EE2CF03050E1265E
:102278003150E222E7507F0B00083424356E3528B0
:10228800DF6E500E1E6EFD0E1F6E20EE31F03050C8
:10229800D9263150DA22DF50346E3450206E216A4C
:1022A80048EC12F01200000E406E000E3F6E000E59
:1022B800406E000E3F6ED3D03FC018F040C019F0FA
:1022C800000E1B6E360E1A6ED5EC1CF0010E182689
:1022D800000E1922960E18241E6E020E19201F6E6B
:1022E8002EEC1AF01E501F10D8B42CD03FC018F096
:1022F80040C019F0000E1B6E360E1A6ED5EC1CF09D
:10230800300E1826000E1922960E1824D96E020EC9
:102318001920DA6EDF50070B020AD8A413D03FC089
:1023280018F040C019F0000E1B6E360E1A6ED5EC70
:102338001CF0960E18242C6E020E19202D6E36EC09
:102348000BF08BD03FC018F040C019F0000E1B6E88
:10235800360E1A6ED5EC1CF0010E1826000E192246
:10236800960E18241E6E020E19201F6E2EEC1AF0FF
:102378001E501F10D8B42CD03FC018F040C019F020
:10238800000E1B6E360E1A6ED5EC1CF0300E182699
:10239800000E1922960E1824D96E020E1920DA6E34
:1023A800DF50070BE806D8A413D03FC018F040C090
:1023B80019F0000E1B6E360E1A6ED5EC1CF0960E38
:1023C80018242C6E020E19202D6EDAEC07F045D079
:1023D8003FC018F040C019F0000E1B6E360E1A6E82
:1023E800D5EC1CF0010E1826000E1922960E1824A2
:1023F8001E6E020E19201F6E2EEC1AF01E501F10B2
:10240800D8B42BD03FC018F040C019F0000E1B6E96
:10241800360E1A6ED5EC1CF0300E1826000E192256
:10242800960E1824D96E020E1920DA6EDF50070BAB
:102438000009D8A412D03FC018F040C019F0000E0F
:102448001B6E360E1A6ED5EC1CF0960E1824246EF0
:10245800020E1920256EE3EC13F03F4A402A4D5036
:102468003C6E3D6A3C503F5C4050800A3E6E3D5099
:10247800800A3E58D8A020D7000E0001776F010EC1
:10248800766F43EC18F01200200E2B6E000E2C6EA7
:10249800D9D0250E2F18D8B404D02F50F8EC1DF041
:1024A800D1D0000E276E4DD02BC0D9FF2CC0DAFF3B
:1024B800DECF29F0DDCF2AF0020E2B26000E2C22CB
:1024C80029502A10D8A41AD0920E296EFF0E2A6E0F
:1024D80015D029C0F6FF2AC0F7FF000EF86E0F0EC0
:1024E800F76403D00800F55005D0F6CFE9FFF7CF21
:1024F800EAFFEF50F8EC1DF0294A2A2A29C0F6FF16
:102508002AC0F7FF000EF86E0F0EF76403D008001C
:10251800F55005D0F6CFE9FFF7CFEAFFEF500009F5
:10252800D8B490D0D6D72BC0D9FF2CC0DAFFDF5053
:102538002F6E020E2B26000E2C222F50F8EC1DF0C9
:1025480081D01EC0F6FF1FC0F7FF1E4A1F2AF86A77
:102558000800F5CF2FF02F50000AD8B41200630AF4
:10256800D8B4E1D7070AD8B407D00D0AD8B404D034
:102578001A0AD8B499D7E1D72BC0D9FF2CC0DAFFF3
:10258800DECF2DF0DDCF2EF0020E2B26000E2C22F2
:102598002EAE06D0030E27122D6C2E1ED8B02E2A72
:1025A800010E2F6E050E2F18D8B415D02F50020D1E
:1025B800E90EF324F66EFC0EF420F76EF86A000EAE
:1025C800F8220900F5502D5C0900F5502E58D8A0C6
:1025D80002D02F2AE7D727C026F0030E2616D8B434
:1025E80003D02D0EF8EC1DF02FC028F027D028506E
:1025F800020DE90EF324F66EFC0EF420F76EF86A6D
:10260800000EF8220900F5CF12F00A00F5CF13F0FA
:102618002DC010F02EC011F058EC1AF010C017F0B1
:1026280011C018F0000E1A6E0A0E196EA8EC1BF0F5
:102638001750300F2F6E2F50F8EC1DF02806282861
:10264800D8A4D5D71EC0F6FF1FC0F7FF1E4A1F2A01
:10265800F86A0800F5CF2FF02F50D8B4120019D718
:1026680002D01E4A1F2A1EC0F6FF1FC0F7FF000E29
:10267800F86E0F0EF76403D00800F55005D0F6CFBA
:10268800E9FFF7CFEAFFEF50200AD8B4EAD71EC017
:10269800F6FF1FC0F7FF000EF86E0F0EF76403D0A9
:1026A8000800F55005D0F6CFE9FFF7CFEAFFEF5065
:1026B800090AD8B4D6D7000E246E000E236E000E79
:1026C800226E1EC0F6FF1FC0F7FF000EF86E0F0E39
:1026D800F76403D00800F55005D0F6CFE9FFF7CF2F
:1026E800EAFFEF502D0AD8A402D0222A3CD01EC0FF
:1026F800F6FF1FC0F7FF000EF86E0F0EF76403D049
:102708000800F55005D0F6CFE9FFF7CFEAFFEF5004
:102718002B0AD8A42AD027D023C018F024C019F037
:10272800000E1B6E0A0E1A6ED5EC1CF01EC0F6FFCA
:102738001FC0F7FF000EF86E0F0EF76403D00800F5
:10274800F55005D0F6CFE9FFF7CFEAFFEF50206E3E
:10275800216A1850202619502122D00E2024236ED9
:10276800FF0E2120246E1E4A1F2A1EC0F6FF1FC01E
:10277800F7FF000EF86E0F0EF76403D00800F5504F
:1027880005D0F6CFE9FFF7CFEAFFEF503DEC1DF09B
:10279800D8B0C2D72250D8B40DD023C020F024C05E
:1027A80021F0201E211E204A212A20C01EF021C00F
:1027B8001FF0120023C01EF024C01FF012002C6866
:1027C800000E326E000E316E000E306E000E2F6E4F
:1027D800000E2B6E000E2A6E20EE2FF02450D92604
:1027E8002550DA22DF507F0B266E20EE2CF0245085
:1027F800D9262550DA22DF507F0B000826242D6EBB
:10280800010E24241E6E000E25201F6E2EEC1AF0D9
:102818001E502E6E20EE2AF02450D9262550DA229A
:10282800DF507F0B2C6E20EE2BF02450D92625503C
:10283800DA22DF507F0B266E26502F6E306A000E8C
:10284800326E000E316E5BD0010E3124266E000E02
:102858003220276E26502424D96E27502520DA6E80
:102868002C50140D000E286E010E296EF3502826E8
:10287800F45029222F502824E16E30502920E26E8E
:10288800DFCFE7FF314A322A2E50266E276A2650BC
:10289800315C3250800A286E2750800A2858D8B0F8
:1028A8001CD02D50266E276A2650315C3250800A83
:1028B800286E2750800A2858D8B00FD02F4A302ABF
:1028C8004B50266E276A26502F5C3050800A286E9F
:1028D8002750800A2858D8A0B7D7000E306E000EAF
:1028E8002F6E2C2A2D50266E276A2650315C3250C6
:1028F800800A286E2750800A2858D8B012002E5017
:10290800266E276A2650315C3250800A286E27507E
:10291800800A2858D8B01200D3D7D20E1E6EFE0EE9
:102928001F6E30C020F031C021F048EC12F0000ECC
:10293800396E000E386E000E376E000E386E000EBF
:10294800376E3BD037503024346E38503120356ED6
:1029580034C0F6FF35C0F7FF000EF86E0F0EF764AF
:1029680003D00800F55005D0F6CFE9FFF7CFEAFF0E
:10297800EF503DEC1DF0D8A0120037503024346ED3
:1029880038503120356E34C0F6FF35C0F7FF000EE1
:10299800F86E0F0EF76403D00800F55005D0F6CF97
:1029A800E9FFF7CFEAFFEF50366E39500A0DF350C2
:1029B8003624D00F396E374A382A30C01EF031C05D
:1029C8001FF02EEC1AF01E50375C1F503858D8A054
:1029D800B9D7AE0E1E6EFE0E1F6E39C020F0216AEA
:1029E80048EC12F04A50395CD8A007D032C0D9FF61
:1029F80033C0DAFFFF0EDF6E120032C0D9FF33C0DA
:102A0800DAFF39C0DFFF1200C60E1E6EFE0E1F6E03
:102A180030C020F031C021F048EC12F0000E386EC2
:102A2800000E376E000E396E000E386E000E376ECF
:102A38003BD037503024346E38503120356E34C096
:102A4800F6FF35C0F7FF000EF86E0F0EF76403D0DF
:102A58000800F55005D0F6CFE9FFF7CFEAFFEF50B1
:102A68003DEC1DF0D8A0120037503024346E385099
:102A78003120356E34C0F6FF35C0F7FF000EF86E12
:102A88000F0EF76403D00800F55005D0F6CFE9FF24
:102A9800F7CFEAFFEF50366E39500A0DF35036245F
:102AA800D00F396E374A382A30C01EF031C01FF0B7
:102AB8002EEC1AF01E50375C1F503858D8A0B9D7E2
:102AC800A20E1E6EFE0E1F6E39C020F0216A48EC61
:102AD80012F04B50395CD8A007D032C0D9FF33C0B0
:102AE800DAFFFF0EDF6E120032C0D9FF33C0DAFF03
:102AF80039C0DFFF1200000E396E000E386E000E6E
:102B0800376E000E386E000E376E3ED037503024C8
:102B1800346E38503120356E34C0F6FF35C0F7FFBB
:102B2800000EF86E0F0EF76403D00800F55005D0BC
:102B3800F6CFE9FFF7CFEAFFEF503DEC1DF0D8A044
:102B48001FD037503024346E38503120356E34C0A1
:102B5800F6FF35C0F7FF000EF86E0F0EF76403D0CE
:102B68000800F55005D0F6CFE9FFF7CFEAFFEF50A0
:102B7800366E39500A0DF3503624D00F396E02D014
:102B8800000E1200374A382A30C01EF031C01FF03C
:102B98002EEC1AF01E50375C1F503858D8A0B6D704
:102BA800D00E1E6EFD0E1F6E39C020F0216A48EC53
:102BB80012F04A50395CD8A008D032C0D9FF33C0CF
:102BC800DAFFFF0EDF6E000E120032C0D9FF33C0ED
:102BD800DAFF39C0DFFF010E1200000E396E000E59
:102BE800386E000E376E000E386E000E376E3ED00F
:102BF80037503024346E38503120356E34C0F6FFEB
:102C080035C0F7FF000EF86E0F0EF76403D008000A
:102C1800F55005D0F6CFE9FFF7CFEAFFEF503DECCE
:102C28001DF0D8A01FD037503024346E38503120D2
:102C3800356E34C0F6FF35C0F7FF000EF86E0F0E84
:102C4800F76403D00800F55005D0F6CFE9FFF7CFB9
:102C5800EAFFEF50366E39500A0DF3503624D00F84
:102C6800396E02D0000E1200374A382A30C01EF0E2
:102C780031C01FF02EEC1AF01E50375C1F50385828
:102C8800D8A0B6D71A0E1E6EFE0E1F6E39C020F0E1
:102C9800216A48EC12F04A50395CD8A008D032C0FA
:102CA800D9FF33C0DAFFFF0EDF6E000E120032C00C
:102CB800D9FF33C0DAFF39C0DFFF010E1200316ED1
:102CC80099EC17F0000E436E960E246E020E256ED8
:102CD800000E276E000E266E040E296E380E286E22
:102CE80063EC1BF0B80E246E000E256E000E276EE6
:102CF800000E266E000E296E140E286E63EC1BF073
:102D0800010E496E710E1E6EFF0E1F6E31C020F04F
:102D1800216A48EC12F031C04AF0680E1E6EFF0EB0
:102D28001F6E30C020F0216A48EC12F030C04BF022
:102D3800080E1E6EFE0E1F6E000E136E040E126E2F
:102D480030C010F0116A86EC18F010C018F011C0ED
:102D580019F031C01AF01B6AD5EC1CF018C020F02D
:102D680019C021F048EC12F030C010F0116A000EC2
:102D7800136E040E126E86EC18F010503102F3CF69
:102D88004DF04D50410F4C6E2B0E1E6EFE0E1F6EF9
:102D98004CC020F0216A48EC12F012005AD024C02E
:102DA800F6FF25C0F7FF000EF86E0F0EF76403D08C
:102DB8000800F55005D0F6CFE9FFF7CFEAFFEF504E
:102DC8000009D8B41CD026C0F6FF27C0F7FFF86A60
:102DD8000800F5CF2AF024C0F6FF25C0F7FF000E43
:102DE800F86E0F0EF76403D00800F55005D0F6CF43
:102DF800E9FFF7CFEAFFEF502A18D8B426D026C04B
:102E0800F6FF27C0F7FFF86A0800F5502A6E2B6A0C
:102E18002A1E2B1E2A4A2B2A24C0F6FF25C0F7FF9C
:102E2800000EF86E0F0EF76403D00800F55005D0B9
:102E3800F6CFE9FFF7CFEAFFEF502C6E2C502A248B
:102E4800246E000E2B20256E1200244A252A264ABD
:102E5800272A2806D8A029062828A1E12928D8A4A5
:102E68009ED7000E256E000E246E12001D501E10F7
:102E7800D8A404D07CC01DF07DC01EF01D501E10CB
:102E8800D8A405D0000E1D6E000E1E6E12001DC0C7
:102E980016F01EC017F01FC018F020C019F081EC02
:102EA8001AF016501D2617501E221DC0D9FF1EC02D
:102EB800DAFFDF50D8A40BD0000E00017C6F000EA3
:102EC80000017D6F7CC01DF07DC01EF012001DC08A
:102ED80016F01EC017F01FC018F020C019F0A9EC9A
:102EE8001AF016501D2400017C6F17501E20000197
:102EF8007D6F7CC0D9FF7DC0DAFFDF50D8B40AD01F
:102F08007CC0D9FF7DC0DAFF000EDF6E00017C4B6C
:102F18007D2B06D0000E00017C6F000E00017D6F36
:102F28001DC01DF01EC01EF01200490E246E000EBA
:102F3800256E000E276E000E266E000E296E050EF9
:102F4800286E63EC1BF0000E956E9250F009926E9D
:102F58008090000E116EFA0E106E86EC1BF0380E83
:102F68006AEC1DF0000E116EFA0E106E86EC1BF066
:102F78000E0E6AEC1DF0000E116EFA0E106E86EC45
:102F88001BF0010E6AEC1DF0000E116EFA0E106EA9
:102F980086EC1BF0060E6AEC1DF0000E116EFA0EA0
:102FA800106E86EC1BF00F0E6AEC1DF0000E116E11
:102FB800FA0E106E86EC1BF0000E246E010E256EC4
:102FC800000E276E200E266E000E296E500E286EFB
:102FD80063EC1BF0D5EC19F0F3EC1DF0120032D0C5
:102FE8002DC024F02EC025F02FC026F030C027F0C9
:102FF8002FC01EF030C01FF02EEC1AF01EC028F0B3
:103008001FC029F0D2EC16F024502510D8A405D002
:103018002DC02DF02EC02EF01200010E2D24106EA2
:10302800000E2E20116E2FC0F6FF30C0F7FFF86A91
:103038000800F550126E136A03EC19F010C02DF059
:1030480011C02EF02D502E10D8B414D02DC0F6FF7C
:103058002EC0F7FF000EF86E0F0EF76403D00800BD
:10306800F55005D0F6CFE9FFF7CFEAFFEF5000099A
:10307800D8A4B6D7000E2D6E000E2E6E12000001D9
:10308800760500017711D8A437D0010E6AEC1DF03F
:1030980002EC1EF0000E186E800E86EC1DF0000E7D
:1030A800186E010E196E08EC1CF0000E186EC00E9A
:1030B80086EC1DF0140E186E010E196E08EC1CF04B
:1030C800000E186E940E86EC1DF0280E186E010E78
:1030D800196E08EC1CF0000E186ED40E86EC1DF06C
:1030E8003C0E186E010E196E08EC1CF0000E000163
:1030F800776F000E766F1200000E0001776F000EDA
:10310800766F1200000E156E13AE06D0126C131EE9
:10311800D8B0132A010E156E11AE06D0106C111E10
:10312800D8B0112A010E151A000E176E000E166E71
:1031380012501310D8B41CD0010E146E04D0D890BD
:1031480012361336142A13AEFAD7D8901636173615
:103158001250105C13501158D8A005D01250105EB0
:103168001350115A1680D89013321232142EEDD7FC
:103178001550D8B404D0166C171ED8B0172A16C02C
:1031880010F017C011F01200000E0001826F76ECEB
:103198001CF0000E0001846F000E416E000E00014D
:1031A800816F000E0001806FCC0E246E000E256E1C
:1031B800000E276E000E266E000E296E0F0E286E6A
:1031C80063EC1BF0500E246E010E256E000E276E68
:1031D800000E266E000E296E280E286E63EC1BF07A
:1031E800000E246E020E256E000E276E000E266E4F
:1031F800000E296E960E286E63EC1BF0120010C0AC
:10320800F6FF11C0F7FF000EF86E0F0EF76403D03B
:103218000800F55005D0F6CFE9FFF7CFEAFFEF50E9
:103228001218D8A405D010C010F011C011F0120067
:103238001050146E1150156E104A112A14C0F6FF62
:1032480015C0F7FF000EF86E0F0EF76403D00800E4
:10325800F55005D0F6CFE9FFF7CFEAFFEF500009A8
:10326800D8A4CDD7000E106E000E116E1200AA0E53
:10327800F66E3B0EF76E000EF86E00EEEBF010EEF9
:103288000DF00900F5CFEEFFE550E150FAE102EE4E
:1032980096F014EE38F0EE6AE550E150FCE1E250A9
:1032A800FAE102EE00F0960EEE6AE806FDE101EEA4
:1032B80000F0780EEE6AE806FDE100EE60F07B0EA5
:1032C800EE6AE806FDE100EE41F00D0EEE6AE80652
:1032D800FDE150905092000102EF1AF02CC01EF050
:1032E8002DC01FF02EEC1AF01F502AE1280E1E5C8C
:1032F800D8B026D02EC010F02FC011F02CC012F07C
:103308002DC013F040EC1BF0010E0001846F010E7C
:103318000001AF6F2CC024F02DC025F0000E276EE1
:10332800000E266E2CC01EF02DC01FF02EEC1AF0D9
:103338001EC028F01FC029F063EC1BF0010E12001C
:10334800000E120010C016F011C017F014D01406A9
:10335800D8A0150612C0D9FF13C0DAFF124A132AE3
:1033680016C0E1FF17C0E2FF164A172ADFCFE7FFB2
:10337800E750D8B40DD014501510D8B409D0E7D7F9
:1033880016C0D9FF17C0DAFF000EDF6E164A172ADB
:103398001406D8A015061428F3E11528D8B412008D
:1033A800EFD7000E246E010E256E000E276E200E3C
:1033B800266E000E296E500E286E63EC1BF0E30E8D
:1033C8001E6EFD0E1F6E000E216E0D0E206E48EC57
:1033D80012F0000E106E010E116EEB0E126E000E42
:1033E800136E000E156E0D0E146EC9EC1BF0000E58
:1033F800186E010E196E08EC1CF012004CEC1DF052
:1034080009EC1EF00FEC1EF011EC1EF0D00E106E41
:103418003B0E116EFDEC1DF0F28EF28CC8EC18F02C
:10342800030E116EE80E106E86EC1BF0F60E1E6E83
:10343800FD0E1F6E48EC12F015EC1EF04CEC0FF070
:1034480000018305D8A4FAD757EC11F0000E00014B
:10345800836FF4D71EC022F01FC023F002D0224A87
:10346800232A22C0F6FF23C0F7FF000EF86E0F0EC6
:10347800F76403D00800F55005D0F6CFE9FFF7CF81
:10348800EAFFEF500009D8A4EAD71EC020F01FC0F9
:1034980021F0201E211E204A212A225020241E6E9F
:1034A800235021201F6E1200000E166E000E156E9E
:1034B80012501310D8B41CD0010E146E04D0D8903A
:1034C80012361336142A13AEFAD7D8901536163694
:1034D8001250105C13501158D8A005D01250105E2D
:1034E8001350115A1580D89013321232142EEDD77A
:1034F80015C010F016C011F01200000E1C6E000E60
:103508001B6E04D0164A172A1B4A1C2A16C0D9FF5C
:1035180017C0DAFFDF50D8B413D018C010F019C0A4
:1035280011F016C0D9FF17C0DAFFDF501A6E1A5013
:10353800126E136A03EC19F010501110D8A4E2D7D8
:103548001BC016F01CC017F01200000E1C6E000EF7
:103558001B6E04D0164A172A1B4A1C2A16C0D9FF0C
:1035680017C0DAFFDF50D8B413D018C010F019C054
:1035780011F016C0D9FF17C0DAFFDF501A6E1A50C3
:10358800126E136A03EC19F010501110D8B4E2D778
:103598001BC016F01CC017F0120004D0104A112AE4
:1035A800124A132A10C0D9FF11C0DAFFDF50146E77
:1035B80012C0F6FF13C0F7FFF86A0800F5500008BC
:1035C8001424156E1550D8A407D010C0D9FF11C007
:1035D800DAFFDF50D8A4E2D71550106E116A10BE7A
:1035E80011061200000E146E000E136E000E146EFB
:1035F800000E136E11D0000E166E000E156E16BE5C
:1036080006D05E0E155C010E1658D8B003D0154AC8
:10361800162AF5D7134A142A1050135C1450800A3E
:10362800126E1150800A1258D8B01200E4D7000E5A
:103638008D6E000E8C6E000E896E000E8A6E000E66
:103648008B6E030E966EF80E926E9368BF0E946E94
:10365800000E956E3C0E0F013A6F3F0E0F01396F49
:10366800000E0F013B6F030E0F013C6F280E0F0178
:10367800386F6168F19E120010C014F011C015F087
:1036880004D0144A152A124A132A12C0F6FF13C08E
:10369800F7FF000EF86E14C0D9FF15C0DAFF0F0E41
:1036A800F76403D00800F55005D0F6CFE9FFF7CF4F
:1036B800EAFFEF50DF6EDF50D8B41200E2D724C023
:1036C8002AF025C02BF015D02AC0F6FF2BC0F7FF33
:1036D800000EF86E0F0EF76404D026C0F5FF0C003C
:1036E80006D0F6CFE9FFF7CFEAFF26C0EFFF2A4A58
:1036F8002B2A2806D8A029062828E6E12928D8B4A4
:103708001200E2D7000E146E000E136E000E146E37
:10371800000E136E0ED0DCEC1DF013EC1EF0E2EC84
:103728001DF00009D8B4FBD70FEC1EF09E90134A89
:10373800142A1050135C1450800A126E1150800A1B
:103748001258D8B01200E7D719501A10D8B418D0A8
:10375800010E1B6E04D0D89019361A361B2A1AAEE1
:10376800FAD71950175C1A501858D8A004D0195015
:10377800175E1A50185AD8901A3219321B2EF1D7E0
:1037880017C017F018C018F0120012C018F013C0B4
:1037980019F010C016F011C017F00ED018C0D9FFDC
:1037A80019C0DAFF16C0E1FF17C0E2FFDFCFE7FF5D
:1037B800184A192A164A172A1406D8A015061428D2
:1037C800EDE11528D8B41200E9D7106E0001FE51BA
:1037D800D8B4FCD79DB803D010C0ADFF13D09D98C6
:1037E8004750010D680EF324D96E000EF420DA6EEE
:1037F80010C0DFFF472A070E476402D0000E476E4D
:103808000001FE079D881200000E1A6E15D018C020
:10381800D9FF19C0DAFFDF50D8B40AD018C0D9FFD1
:1038280019C0DAFFDF5078EC1DF0184A192A03D0C6
:10383800200E78EC1DF01A2A4B501A5CD8B01200F2
:10384800E6D7170ED56EC20ED76EF60ED66ED650C8
:10385800D7CF12F0136A12C013F0126A12104E6E0C
:1038680013504F6EF294F28A320E106E3C0E116EA7
:10387800FDEC1DF015EC1EF012009D9A9D98080EA7
:10388800B86E900EAB6E240EAC6EA00EAF6E010E2D
:10389800B06E000E476E000E486E080E0001FE6FF7
:1038A800000E456E000E466E000E446E9D8A120094
:1038B800000E106E4450D8B4FDD74650010D600E6E
:1038C800F324D96E000EF420DA6EDF50106E462A0B
:1038D800070E466402D0000E466E9D9A44069D8AE5
:1038E80010501200860E246E000E256E000E276EF4
:1038F800000E266E000E296E320E286E63EC1BF049
:103908000001B5690001B1690001B3690001B2693C
:103918000001B2691200080E0001FE6113D0485080
:10392800010D680EF324D96E000EF420DA6EDF5014
:10393800AD6E482A070E486402D0000E486E00019A
:10394800FE2B12009D9812000BD012C0F6FF13C078
:10395800F7FFF86A0800F550F8EC1DF0124A132A30
:1039680012C0F6FF13C0F7FFF86A0800F550000907
:10397800D8B41200EAD7ABA202D0AB98AB884550B6
:10398800010D600EF324D96E000EF420DA6EAECF6E
:10399800DFFF452A070E456402D0000E456E442A13
:1039A800120018501A02F3CF1CF0F4CF1DF0185073
:1039B8001B02F3501D2619501A02F3501D261CC075
:1039C80018F01DC019F01200120E0F014E6F000EF4
:1039D8000F014D6F0F015069EC0E0F014F6F4FCF64
:1039E800FCF050CFFDF07E920CEC1EF012000001AE
:1039F800F8510001F911D8B4120001D812000500DD
:103A0800FA6E0001F851FD6EF951FE6EFF6AFA5028
:103A18001200000E246E010E256E000E276E200E79
:103A2800266E000E296E500E286E63EC1BF09BEC80
:103A38001DF01200320ECD6E000ECC6EFE0ECF6E53
:103A48000C0ECE6ECECFFAF0CFCFFBF09E9013ECDB
:103A58001EF01200960E246E020E256E000E276EC2
:103A6800000E266E040E296E380E286E63EC1BF0CD
:103A78001200126E000E116E3A0E126005D02F0E53
:103A8800126402D0010E116E11C010F01030120035
:103A980017EC1EF01BEC1BF0CEEC1DF0E8EC1CF054
:103AA8001EEC1DF025EC1CF041EC1CF012008DA45E
:103AB80002D0010E01D0000EFF0A016E0146014638
:103AC8008D500118FB0B01188D6E1200176E17C070
:103AD80083FF809480928080000E116E010E106E1C
:103AE800F6EC1AF080901200176E8084809217C04E
:103AF80083FF8080000E116E010E106EF6EC1AF036
:103B080080901200196E140E186402D0000E186E00
:103B1800185019246AEC1DF0120014C012F015C0D8
:103B280013F0A8EC1CF00A0EF8EC1DF01200000EC1
:103B38000001756F000E746F2EEC1DF01200F294E8
:103B48004F50D76E4EC0D6FFFBEC1CF01200495008
:103B5800D8A402D0000E1200410E12004950D8A479
:103B680002D0000E12004C0412004950D8A402D012
:103B7800000E12004D5012004950D8A402D0000E79
:103B880012004A5012004950D8A402D0000E120068
:103B98004B501200700ED36E040ED26E800E9B6EC8
:0F3BA8001200494E49545F535543434553530050
:103BB8000001FB51CF6EFAC0CEFF12009EA002D0CA
:103BC800010E1200000E12005BEC1DF0010E000148
:103BD800836F1200E80E106EFF0E116E12000DECCE
:103BE8001DF09BEC1DF01200116E1150E9EC1BF05A
:103BF800120010C0F8F011C0F9F01200060E6AECBD
:103C08001DF012005CEC1CF012000F014E91120026
:103C18000F014E811200CD901200D59E1200CD806A
:0C3C28001200D58E1200D09E1200120077
:10FCE8000001000A006400E8031027554944203D3C
:10FCF8002025632C2073746172745F7074203D201A
:10FD080025642C20656E645F7074203D2025640D89
:10FD18000A00636D645F646174612E737461727448
:10FD28005F636F6C203D2025642C0D0A00636D64B1
:10FD38005F646174612E73746172745F726F77208F
:10FD48003D2025642C0D0A00646973706C61795F2D
:10FD5800636861725F636F756E74203D2025640D62
:10FD68000A0065785F7370203C3D206E65775F659B
:10FD780070203C3D65785F65700D0A0065785F739B
:10FD880070203C3D206E65775F7370203C3D657840
:10FD98005F65700D0A00636D645F646174612E6550
:10FDA8006E645F636F6C203D2025642C0D0A006330
:10FDB8006D645F646174612E656E645F726F772035
:10FDC8003D2025642C0D0A00646973706C61795FAD
:10FDD800667271203D2025640D0A0073697A656F8B
:10FDE800662873747229203D2025640D0A00496E27
:10FDF80069745F636F6D706C6574652E2E0D0A00F3
:10FE0800737472696E675F636F756E74203D202529
:10FE18006400646972656374696F6E203D202564AF
:10FE28000D0A007569645F72616E6765203D202563
:10FE3800640D0A006D69645F63686172203D202566
:10FE4800640D0A0025732C207374726C656E20256E
:10FE5800640D0A00636F6E666C6963743A20756995
:10FE6800640D0A004552525F5343524F4C4C5F5346
:10FE78004554007363726F6C6C203D2025642C2000
:10FE8800000D0A25732E2E2C204F4B0D0A00756984
:10FE980064203D2025642C0D0A00436F6C32203D00
:10FEA8002025640D0A00726F7732203D2025640DED
:10FEB8000A00496E69745F446F6E650D0A00636FCE
:10FEC8006C31203D2025730D0A00726F7731203D7B
:10FED8002025730D0A0074656D70203D2025732C54
:10FEE80020004552525F524F575F434F4C004552D6
:10FEF800525F434D445F4C454E004552525F535448
:10FF0800525F5345540025642C25632D25630D0A43
:10FF180000636F6C203D2025730D0A0073747220F6
:10FF28003D2025730D0A00756964203D2025642C49
:10FF38002000646174613D25730D0A0025732E2E1F
:10FF48002E340D0A0025732E2E2E350D0A0025732A
:10FF58002E2E2E360D0A00434D443D25730D0A0002
:10FF6800636F6C203D20256400726F77203D20254B
:10FF780064002E2E2E2E2E0D0A0025732E2E320DE5
:10FF88000A0053445343524F4C00286E756C6C2939
:10FF98000025732E2E0D0A000D0A25730D0A002D5B
:10FFA800272C202F3D0053445345524300555044BD
:10FFB800415445004C4344533F00474D44533F0090
:10FFC8004552524F52005344535452004B4C4D2B00
:10FFD8000053535452004C4344530025632C2000D3
:10FFE800342C3230004D433F004D523F004B4C4DB6
:07FFF800002563002C00004E
:020000040020DA
:08000000FFFFFFFFFFFFFFFF00
:020000040030CA
:0E000000FF381F3CFFBF85FF0FC00FE00F4011
:00000001FF
